{
	"contract.sol": {
		"TicketMarketplace": {
			"abi": [
				{
					"anonymous": false,
					"inputs": [
						{
							"indexed": true,
							"internalType": "uint256",
							"name": "ticketId",
							"type": "uint256"
						},
						{
							"indexed": true,
							"internalType": "address",
							"name": "buyer",
							"type": "address"
						},
						{
							"indexed": true,
							"internalType": "address",
							"name": "seller",
							"type": "address"
						},
						{
							"indexed": false,
							"internalType": "uint256",
							"name": "price",
							"type": "uint256"
						}
					],
					"name": "PaymentProcessed",
					"type": "event"
				},
				{
					"anonymous": false,
					"inputs": [
						{
							"indexed": true,
							"internalType": "uint256",
							"name": "ticketId",
							"type": "uint256"
						},
						{
							"indexed": true,
							"internalType": "address",
							"name": "owner",
							"type": "address"
						},
						{
							"indexed": false,
							"internalType": "uint256",
							"name": "price",
							"type": "uint256"
						}
					],
					"name": "TicketIssued",
					"type": "event"
				},
				{
					"anonymous": false,
					"inputs": [
						{
							"indexed": true,
							"internalType": "uint256",
							"name": "ticketId",
							"type": "uint256"
						},
						{
							"indexed": true,
							"internalType": "address",
							"name": "buyer",
							"type": "address"
						},
						{
							"indexed": true,
							"internalType": "address",
							"name": "seller",
							"type": "address"
						},
						{
							"indexed": false,
							"internalType": "uint256",
							"name": "price",
							"type": "uint256"
						},
						{
							"indexed": false,
							"internalType": "bytes32",
							"name": "hash",
							"type": "bytes32"
						}
					],
					"name": "TransactionCreated",
					"type": "event"
				},
				{
					"inputs": [],
					"name": "admin",
					"outputs": [
						{
							"internalType": "address",
							"name": "",
							"type": "address"
						}
					],
					"stateMutability": "view",
					"type": "function"
				},
				{
					"inputs": [
						{
							"internalType": "uint256",
							"name": "ticketId",
							"type": "uint256"
						},
						{
							"internalType": "address",
							"name": "buyer",
							"type": "address"
						}
					],
					"name": "createTransaction",
					"outputs": [],
					"stateMutability": "nonpayable",
					"type": "function"
				},
				{
					"inputs": [
						{
							"internalType": "uint256",
							"name": "ticketId",
							"type": "uint256"
						}
					],
					"name": "getTicket",
					"outputs": [
						{
							"components": [
								{
									"internalType": "uint256",
									"name": "id",
									"type": "uint256"
								},
								{
									"internalType": "address",
									"name": "owner",
									"type": "address"
								},
								{
									"internalType": "uint256",
									"name": "price",
									"type": "uint256"
								},
								{
									"internalType": "bool",
									"name": "isAvailable",
									"type": "bool"
								}
							],
							"internalType": "struct TicketMarketplace.Ticket",
							"name": "",
							"type": "tuple"
						}
					],
					"stateMutability": "view",
					"type": "function"
				},
				{
					"inputs": [
						{
							"internalType": "address",
							"name": "user",
							"type": "address"
						}
					],
					"name": "getTicketsByUser",
					"outputs": [
						{
							"components": [
								{
									"internalType": "uint256",
									"name": "id",
									"type": "uint256"
								},
								{
									"internalType": "address",
									"name": "owner",
									"type": "address"
								},
								{
									"internalType": "uint256",
									"name": "price",
									"type": "uint256"
								},
								{
									"internalType": "bool",
									"name": "isAvailable",
									"type": "bool"
								}
							],
							"internalType": "struct TicketMarketplace.Ticket[]",
							"name": "",
							"type": "tuple[]"
						}
					],
					"stateMutability": "view",
					"type": "function"
				},
				{
					"inputs": [
						{
							"internalType": "bytes32",
							"name": "txHash",
							"type": "bytes32"
						}
					],
					"name": "getTransaction",
					"outputs": [
						{
							"components": [
								{
									"internalType": "uint256",
									"name": "ticketId",
									"type": "uint256"
								},
								{
									"internalType": "address",
									"name": "buyer",
									"type": "address"
								},
								{
									"internalType": "address",
									"name": "seller",
									"type": "address"
								},
								{
									"internalType": "uint256",
									"name": "price",
									"type": "uint256"
								},
								{
									"internalType": "bool",
									"name": "isCompleted",
									"type": "bool"
								},
								{
									"internalType": "bytes32",
									"name": "hash",
									"type": "bytes32"
								}
							],
							"internalType": "struct TicketMarketplace.Transaction",
							"name": "",
							"type": "tuple"
						}
					],
					"stateMutability": "view",
					"type": "function"
				},
				{
					"inputs": [
						{
							"internalType": "address",
							"name": "user",
							"type": "address"
						}
					],
					"name": "getTransactionsByUser",
					"outputs": [
						{
							"components": [
								{
									"internalType": "uint256",
									"name": "ticketId",
									"type": "uint256"
								},
								{
									"internalType": "address",
									"name": "buyer",
									"type": "address"
								},
								{
									"internalType": "address",
									"name": "seller",
									"type": "address"
								},
								{
									"internalType": "uint256",
									"name": "price",
									"type": "uint256"
								},
								{
									"internalType": "bool",
									"name": "isCompleted",
									"type": "bool"
								},
								{
									"internalType": "bytes32",
									"name": "hash",
									"type": "bytes32"
								}
							],
							"internalType": "struct TicketMarketplace.Transaction[]",
							"name": "",
							"type": "tuple[]"
						}
					],
					"stateMutability": "view",
					"type": "function"
				},
				{
					"inputs": [
						{
							"internalType": "uint256",
							"name": "ticketId",
							"type": "uint256"
						},
						{
							"internalType": "uint256",
							"name": "price",
							"type": "uint256"
						}
					],
					"name": "issueTicket",
					"outputs": [],
					"stateMutability": "nonpayable",
					"type": "function"
				},
				{
					"inputs": [
						{
							"internalType": "bytes32",
							"name": "txHash",
							"type": "bytes32"
						}
					],
					"name": "processPayment",
					"outputs": [],
					"stateMutability": "payable",
					"type": "function"
				},
				{
					"inputs": [
						{
							"internalType": "uint256",
							"name": "",
							"type": "uint256"
						}
					],
					"name": "tickets",
					"outputs": [
						{
							"internalType": "uint256",
							"name": "id",
							"type": "uint256"
						},
						{
							"internalType": "address",
							"name": "owner",
							"type": "address"
						},
						{
							"internalType": "uint256",
							"name": "price",
							"type": "uint256"
						},
						{
							"internalType": "bool",
							"name": "isAvailable",
							"type": "bool"
						}
					],
					"stateMutability": "view",
					"type": "function"
				},
				{
					"inputs": [
						{
							"internalType": "bytes32",
							"name": "",
							"type": "bytes32"
						}
					],
					"name": "transactions",
					"outputs": [
						{
							"internalType": "uint256",
							"name": "ticketId",
							"type": "uint256"
						},
						{
							"internalType": "address",
							"name": "buyer",
							"type": "address"
						},
						{
							"internalType": "address",
							"name": "seller",
							"type": "address"
						},
						{
							"internalType": "uint256",
							"name": "price",
							"type": "uint256"
						},
						{
							"internalType": "bool",
							"name": "isCompleted",
							"type": "bool"
						},
						{
							"internalType": "bytes32",
							"name": "hash",
							"type": "bytes32"
						}
					],
					"stateMutability": "view",
					"type": "function"
				}
			],
			"devdoc": {
				"kind": "dev",
				"methods": {},
				"version": 1
			},
			"evm": {
				"assembly": "    /* \"contract.sol\":57:4839  contract TicketMarketplace {... */\n  mstore(0x40, 0x80)\n  callvalue\n  dup1\n  iszero\n  tag_1\n  jumpi\n  0x00\n  dup1\n  revert\ntag_1:\n  pop\n  dataSize(sub_0)\n  dup1\n  dataOffset(sub_0)\n  0x00\n  codecopy\n  0x00\n  return\nstop\n\nsub_0: assembly {\n        /* \"contract.sol\":57:4839  contract TicketMarketplace {... */\n      mstore(0x40, 0x80)\n      jumpi(tag_1, lt(calldatasize, 0x04))\n      shr(0xe0, calldataload(0x00))\n      dup1\n      0x642f2eaf\n      gt\n      tag_12\n      jumpi\n      dup1\n      0x642f2eaf\n      eq\n      tag_7\n      jumpi\n      dup1\n      0x7cf4c543\n      eq\n      tag_8\n      jumpi\n      dup1\n      0x7dc379fa\n      eq\n      tag_9\n      jumpi\n      dup1\n      0xe5b0b100\n      eq\n      tag_10\n      jumpi\n      dup1\n      0xf851a440\n      eq\n      tag_11\n      jumpi\n      jump(tag_1)\n    tag_12:\n      dup1\n      0x047ac364\n      eq\n      tag_2\n      jumpi\n      dup1\n      0x1540451e\n      eq\n      tag_3\n      jumpi\n      dup1\n      0x3a74717d\n      eq\n      tag_4\n      jumpi\n      dup1\n      0x4aae13ca\n      eq\n      tag_5\n      jumpi\n      dup1\n      0x50b44712\n      eq\n      tag_6\n      jumpi\n    tag_1:\n      0x00\n      dup1\n      revert\n        /* \"contract.sol\":4018:4837  function getTransactionsByUser(address user) external view returns (Transaction[] memory) {... */\n    tag_2:\n      callvalue\n      dup1\n      iszero\n      tag_13\n      jumpi\n      0x00\n      dup1\n      revert\n    tag_13:\n      pop\n      tag_14\n      0x04\n      dup1\n      calldatasize\n      sub\n      dup2\n      add\n      swap1\n      tag_15\n      swap2\n      swap1\n      tag_16\n      jump\t// in\n    tag_15:\n      tag_17\n      jump\t// in\n    tag_14:\n      mload(0x40)\n      tag_18\n      swap2\n      swap1\n      tag_19\n      jump\t// in\n    tag_18:\n      mload(0x40)\n      dup1\n      swap2\n      sub\n      swap1\n      return\n        /* \"contract.sol\":928:1677  function issueTicket(uint256 ticketId, uint256 price) external {... */\n    tag_3:\n      callvalue\n      dup1\n      iszero\n      tag_20\n      jumpi\n      0x00\n      dup1\n      revert\n    tag_20:\n      pop\n      tag_21\n      0x04\n      dup1\n      calldatasize\n      sub\n      dup2\n      add\n      swap1\n      tag_22\n      swap2\n      swap1\n      tag_23\n      jump\t// in\n    tag_22:\n      tag_24\n      jump\t// in\n    tag_21:\n      stop\n        /* \"contract.sol\":2305:3140  function processPayment(bytes32 txHash) external payable {... */\n    tag_4:\n      tag_25\n      0x04\n      dup1\n      calldatasize\n      sub\n      dup2\n      add\n      swap1\n      tag_26\n      swap2\n      swap1\n      tag_27\n      jump\t// in\n    tag_26:\n      tag_28\n      jump\t// in\n    tag_25:\n      stop\n        /* \"contract.sol\":3268:3395  function getTransaction(bytes32 txHash) external view returns (Transaction memory) {... */\n    tag_5:\n      callvalue\n      dup1\n      iszero\n      tag_29\n      jumpi\n      0x00\n      dup1\n      revert\n    tag_29:\n      pop\n      tag_30\n      0x04\n      dup1\n      calldatasize\n      sub\n      dup2\n      add\n      swap1\n      tag_31\n      swap2\n      swap1\n      tag_27\n      jump\t// in\n    tag_31:\n      tag_32\n      jump\t// in\n    tag_30:\n      mload(0x40)\n      tag_33\n      swap2\n      swap1\n      tag_34\n      jump\t// in\n    tag_33:\n      mload(0x40)\n      dup1\n      swap2\n      sub\n      swap1\n      return\n        /* \"contract.sol\":412:453  mapping(uint256 => Ticket) public tickets */\n    tag_6:\n      callvalue\n      dup1\n      iszero\n      tag_35\n      jumpi\n      0x00\n      dup1\n      revert\n    tag_35:\n      pop\n      tag_36\n      0x04\n      dup1\n      calldatasize\n      sub\n      dup2\n      add\n      swap1\n      tag_37\n      swap2\n      swap1\n      tag_38\n      jump\t// in\n    tag_37:\n      tag_39\n      jump\t// in\n    tag_36:\n      mload(0x40)\n      tag_40\n      swap5\n      swap4\n      swap3\n      swap2\n      swap1\n      tag_41\n      jump\t// in\n    tag_40:\n      mload(0x40)\n      dup1\n      swap2\n      sub\n      swap1\n      return\n        /* \"contract.sol\":459:510  mapping(bytes32 => Transaction) public transactions */\n    tag_7:\n      callvalue\n      dup1\n      iszero\n      tag_42\n      jumpi\n      0x00\n      dup1\n      revert\n    tag_42:\n      pop\n      tag_43\n      0x04\n      dup1\n      calldatasize\n      sub\n      dup2\n      add\n      swap1\n      tag_44\n      swap2\n      swap1\n      tag_27\n      jump\t// in\n    tag_44:\n      tag_45\n      jump\t// in\n    tag_43:\n      mload(0x40)\n      tag_46\n      swap7\n      swap6\n      swap5\n      swap4\n      swap3\n      swap2\n      swap1\n      tag_47\n      jump\t// in\n    tag_46:\n      mload(0x40)\n      dup1\n      swap2\n      sub\n      swap1\n      return\n        /* \"contract.sol\":1683:2299  function createTransaction(uint256 ticketId, address buyer) external {... */\n    tag_8:\n      callvalue\n      dup1\n      iszero\n      tag_48\n      jumpi\n      0x00\n      dup1\n      revert\n    tag_48:\n      pop\n      tag_49\n      0x04\n      dup1\n      calldatasize\n      sub\n      dup2\n      add\n      swap1\n      tag_50\n      swap2\n      swap1\n      tag_51\n      jump\t// in\n    tag_50:\n      tag_52\n      jump\t// in\n    tag_49:\n      stop\n        /* \"contract.sol\":3146:3262  function getTicket(uint256 ticketId) external view returns (Ticket memory) {... */\n    tag_9:\n      callvalue\n      dup1\n      iszero\n      tag_53\n      jumpi\n      0x00\n      dup1\n      revert\n    tag_53:\n      pop\n      tag_54\n      0x04\n      dup1\n      calldatasize\n      sub\n      dup2\n      add\n      swap1\n      tag_55\n      swap2\n      swap1\n      tag_38\n      jump\t// in\n    tag_55:\n      tag_56\n      jump\t// in\n    tag_54:\n      mload(0x40)\n      tag_57\n      swap2\n      swap1\n      tag_58\n      jump\t// in\n    tag_57:\n      mload(0x40)\n      dup1\n      swap2\n      sub\n      swap1\n      return\n        /* \"contract.sol\":3401:4012  function getTicketsByUser(address user) external view returns (Ticket[] memory) {... */\n    tag_10:\n      callvalue\n      dup1\n      iszero\n      tag_59\n      jumpi\n      0x00\n      dup1\n      revert\n    tag_59:\n      pop\n      tag_60\n      0x04\n      dup1\n      calldatasize\n      sub\n      dup2\n      add\n      swap1\n      tag_61\n      swap2\n      swap1\n      tag_16\n      jump\t// in\n    tag_61:\n      tag_62\n      jump\t// in\n    tag_60:\n      mload(0x40)\n      tag_63\n      swap2\n      swap1\n      tag_64\n      jump\t// in\n    tag_63:\n      mload(0x40)\n      dup1\n      swap2\n      sub\n      swap1\n      return\n        /* \"contract.sol\":90:110  address public admin */\n    tag_11:\n      callvalue\n      dup1\n      iszero\n      tag_65\n      jumpi\n      0x00\n      dup1\n      revert\n    tag_65:\n      pop\n      tag_66\n      tag_67\n      jump\t// in\n    tag_66:\n      mload(0x40)\n      tag_68\n      swap2\n      swap1\n      tag_69\n      jump\t// in\n    tag_68:\n      mload(0x40)\n      dup1\n      swap2\n      sub\n      swap1\n      return\n        /* \"contract.sol\":4018:4837  function getTransactionsByUser(address user) external view returns (Transaction[] memory) {... */\n    tag_17:\n        /* \"contract.sol\":4086:4106  Transaction[] memory */\n      0x60\n        /* \"contract.sol\":4118:4131  uint256 count */\n      0x00\n        /* \"contract.sol\":4150:4159  uint256 i */\n      dup1\n        /* \"contract.sol\":4145:4391  for (uint256 i = 0; i < transactionHashes.length; i++) {... */\n    tag_71:\n        /* \"contract.sol\":4169:4186  transactionHashes */\n      0x04\n        /* \"contract.sol\":4169:4193  transactionHashes.length */\n      dup1\n      sload\n      swap1\n      pop\n        /* \"contract.sol\":4165:4166  i */\n      dup2\n        /* \"contract.sol\":4165:4193  i < transactionHashes.length */\n      lt\n        /* \"contract.sol\":4145:4391  for (uint256 i = 0; i < transactionHashes.length; i++) {... */\n      iszero\n      tag_72\n      jumpi\n        /* \"contract.sol\":4214:4239  Transaction memory txData */\n      0x00\n        /* \"contract.sol\":4242:4254  transactions */\n      0x02\n        /* \"contract.sol\":4242:4276  transactions[transactionHashes[i]] */\n      0x00\n        /* \"contract.sol\":4255:4272  transactionHashes */\n      0x04\n        /* \"contract.sol\":4273:4274  i */\n      dup5\n        /* \"contract.sol\":4255:4275  transactionHashes[i] */\n      dup2\n      sload\n      dup2\n      lt\n      tag_74\n      jumpi\n      tag_75\n      tag_76\n      jump\t// in\n    tag_75:\n    tag_74:\n      swap1\n      0x00\n      mstore\n      keccak256(0x00, 0x20)\n      add\n      sload\n        /* \"contract.sol\":4242:4276  transactions[transactionHashes[i]] */\n      dup2\n      mstore\n      0x20\n      add\n      swap1\n      dup2\n      mstore\n      0x20\n      add\n      0x00\n      keccak256\n        /* \"contract.sol\":4214:4276  Transaction memory txData = transactions[transactionHashes[i]] */\n      mload(0x40)\n      dup1\n      0xc0\n      add\n      0x40\n      mstore\n      swap1\n      dup2\n      0x00\n      dup3\n      add\n      sload\n      dup2\n      mstore\n      0x20\n      add\n      0x01\n      dup3\n      add\n      0x00\n      swap1\n      sload\n      swap1\n      0x0100\n      exp\n      swap1\n      div\n      0xffffffffffffffffffffffffffffffffffffffff\n      and\n      0xffffffffffffffffffffffffffffffffffffffff\n      and\n      0xffffffffffffffffffffffffffffffffffffffff\n      and\n      dup2\n      mstore\n      0x20\n      add\n      0x02\n      dup3\n      add\n      0x00\n      swap1\n      sload\n      swap1\n      0x0100\n      exp\n      swap1\n      div\n      0xffffffffffffffffffffffffffffffffffffffff\n      and\n      0xffffffffffffffffffffffffffffffffffffffff\n      and\n      0xffffffffffffffffffffffffffffffffffffffff\n      and\n      dup2\n      mstore\n      0x20\n      add\n      0x03\n      dup3\n      add\n      sload\n      dup2\n      mstore\n      0x20\n      add\n      0x04\n      dup3\n      add\n      0x00\n      swap1\n      sload\n      swap1\n      0x0100\n      exp\n      swap1\n      div\n      0xff\n      and\n      iszero\n      iszero\n      iszero\n      iszero\n      dup2\n      mstore\n      0x20\n      add\n      0x05\n      dup3\n      add\n      sload\n      dup2\n      mstore\n      pop\n      pop\n      swap1\n      pop\n        /* \"contract.sol\":4310:4314  user */\n      dup5\n        /* \"contract.sol\":4294:4314  txData.buyer == user */\n      0xffffffffffffffffffffffffffffffffffffffff\n      and\n        /* \"contract.sol\":4294:4300  txData */\n      dup2\n        /* \"contract.sol\":4294:4306  txData.buyer */\n      0x20\n      add\n      mload\n        /* \"contract.sol\":4294:4314  txData.buyer == user */\n      0xffffffffffffffffffffffffffffffffffffffff\n      and\n      eq\n        /* \"contract.sol\":4294:4339  txData.buyer == user || txData.seller == user */\n      dup1\n      tag_78\n      jumpi\n      pop\n        /* \"contract.sol\":4335:4339  user */\n      dup5\n        /* \"contract.sol\":4318:4339  txData.seller == user */\n      0xffffffffffffffffffffffffffffffffffffffff\n      and\n        /* \"contract.sol\":4318:4324  txData */\n      dup2\n        /* \"contract.sol\":4318:4331  txData.seller */\n      0x40\n      add\n      mload\n        /* \"contract.sol\":4318:4339  txData.seller == user */\n      0xffffffffffffffffffffffffffffffffffffffff\n      and\n      eq\n        /* \"contract.sol\":4294:4339  txData.buyer == user || txData.seller == user */\n    tag_78:\n        /* \"contract.sol\":4290:4381  if (txData.buyer == user || txData.seller == user) {... */\n      iszero\n      tag_79\n      jumpi\n        /* \"contract.sol\":4359:4366  count++ */\n      dup3\n      dup1\n      tag_80\n      swap1\n      tag_81\n      jump\t// in\n    tag_80:\n      swap4\n      pop\n      pop\n        /* \"contract.sol\":4290:4381  if (txData.buyer == user || txData.seller == user) {... */\n    tag_79:\n        /* \"contract.sol\":4200:4391  {... */\n      pop\n        /* \"contract.sol\":4195:4198  i++ */\n      dup1\n      dup1\n      0x01\n      add\n      swap2\n      pop\n      pop\n        /* \"contract.sol\":4145:4391  for (uint256 i = 0; i < transactionHashes.length; i++) {... */\n      jump(tag_71)\n    tag_72:\n      pop\n        /* \"contract.sol\":4401:4438  Transaction[] memory userTransactions */\n      0x00\n        /* \"contract.sol\":4459:4464  count */\n      dup2\n        /* \"contract.sol\":4441:4465  new Transaction[](count) */\n      0xffffffffffffffff\n      dup2\n      gt\n      iszero\n      tag_82\n      jumpi\n      tag_83\n      tag_84\n      jump\t// in\n    tag_83:\n    tag_82:\n      mload(0x40)\n      swap1\n      dup1\n      dup3\n      mstore\n      dup1\n      0x20\n      mul\n      0x20\n      add\n      dup3\n      add\n      0x40\n      mstore\n      dup1\n      iszero\n      tag_85\n      jumpi\n      dup2\n      0x20\n      add\n    tag_86:\n      tag_87\n      tag_88\n      jump\t// in\n    tag_87:\n      dup2\n      mstore\n      0x20\n      add\n      swap1\n      0x01\n      swap1\n      sub\n      swap1\n      dup2\n      tag_86\n      jumpi\n      swap1\n      pop\n    tag_85:\n      pop\n        /* \"contract.sol\":4401:4465  Transaction[] memory userTransactions = new Transaction[](count) */\n      swap1\n      pop\n        /* \"contract.sol\":4475:4488  uint256 index */\n      0x00\n        /* \"contract.sol\":4507:4516  uint256 i */\n      dup1\n        /* \"contract.sol\":4502:4798  for (uint256 i = 0; i < transactionHashes.length; i++) {... */\n    tag_89:\n        /* \"contract.sol\":4526:4543  transactionHashes */\n      0x04\n        /* \"contract.sol\":4526:4550  transactionHashes.length */\n      dup1\n      sload\n      swap1\n      pop\n        /* \"contract.sol\":4522:4523  i */\n      dup2\n        /* \"contract.sol\":4522:4550  i < transactionHashes.length */\n      lt\n        /* \"contract.sol\":4502:4798  for (uint256 i = 0; i < transactionHashes.length; i++) {... */\n      iszero\n      tag_90\n      jumpi\n        /* \"contract.sol\":4571:4596  Transaction memory txData */\n      0x00\n        /* \"contract.sol\":4599:4611  transactions */\n      0x02\n        /* \"contract.sol\":4599:4633  transactions[transactionHashes[i]] */\n      0x00\n        /* \"contract.sol\":4612:4629  transactionHashes */\n      0x04\n        /* \"contract.sol\":4630:4631  i */\n      dup5\n        /* \"contract.sol\":4612:4632  transactionHashes[i] */\n      dup2\n      sload\n      dup2\n      lt\n      tag_92\n      jumpi\n      tag_93\n      tag_76\n      jump\t// in\n    tag_93:\n    tag_92:\n      swap1\n      0x00\n      mstore\n      keccak256(0x00, 0x20)\n      add\n      sload\n        /* \"contract.sol\":4599:4633  transactions[transactionHashes[i]] */\n      dup2\n      mstore\n      0x20\n      add\n      swap1\n      dup2\n      mstore\n      0x20\n      add\n      0x00\n      keccak256\n        /* \"contract.sol\":4571:4633  Transaction memory txData = transactions[transactionHashes[i]] */\n      mload(0x40)\n      dup1\n      0xc0\n      add\n      0x40\n      mstore\n      swap1\n      dup2\n      0x00\n      dup3\n      add\n      sload\n      dup2\n      mstore\n      0x20\n      add\n      0x01\n      dup3\n      add\n      0x00\n      swap1\n      sload\n      swap1\n      0x0100\n      exp\n      swap1\n      div\n      0xffffffffffffffffffffffffffffffffffffffff\n      and\n      0xffffffffffffffffffffffffffffffffffffffff\n      and\n      0xffffffffffffffffffffffffffffffffffffffff\n      and\n      dup2\n      mstore\n      0x20\n      add\n      0x02\n      dup3\n      add\n      0x00\n      swap1\n      sload\n      swap1\n      0x0100\n      exp\n      swap1\n      div\n      0xffffffffffffffffffffffffffffffffffffffff\n      and\n      0xffffffffffffffffffffffffffffffffffffffff\n      and\n      0xffffffffffffffffffffffffffffffffffffffff\n      and\n      dup2\n      mstore\n      0x20\n      add\n      0x03\n      dup3\n      add\n      sload\n      dup2\n      mstore\n      0x20\n      add\n      0x04\n      dup3\n      add\n      0x00\n      swap1\n      sload\n      swap1\n      0x0100\n      exp\n      swap1\n      div\n      0xff\n      and\n      iszero\n      iszero\n      iszero\n      iszero\n      dup2\n      mstore\n      0x20\n      add\n      0x05\n      dup3\n      add\n      sload\n      dup2\n      mstore\n      pop\n      pop\n      swap1\n      pop\n        /* \"contract.sol\":4667:4671  user */\n      dup7\n        /* \"contract.sol\":4651:4671  txData.buyer == user */\n      0xffffffffffffffffffffffffffffffffffffffff\n      and\n        /* \"contract.sol\":4651:4657  txData */\n      dup2\n        /* \"contract.sol\":4651:4663  txData.buyer */\n      0x20\n      add\n      mload\n        /* \"contract.sol\":4651:4671  txData.buyer == user */\n      0xffffffffffffffffffffffffffffffffffffffff\n      and\n      eq\n        /* \"contract.sol\":4651:4696  txData.buyer == user || txData.seller == user */\n      dup1\n      tag_95\n      jumpi\n      pop\n        /* \"contract.sol\":4692:4696  user */\n      dup7\n        /* \"contract.sol\":4675:4696  txData.seller == user */\n      0xffffffffffffffffffffffffffffffffffffffff\n      and\n        /* \"contract.sol\":4675:4681  txData */\n      dup2\n        /* \"contract.sol\":4675:4688  txData.seller */\n      0x40\n      add\n      mload\n        /* \"contract.sol\":4675:4696  txData.seller == user */\n      0xffffffffffffffffffffffffffffffffffffffff\n      and\n      eq\n        /* \"contract.sol\":4651:4696  txData.buyer == user || txData.seller == user */\n    tag_95:\n        /* \"contract.sol\":4647:4788  if (txData.buyer == user || txData.seller == user) {... */\n      iszero\n      tag_96\n      jumpi\n        /* \"contract.sol\":4742:4748  txData */\n      dup1\n        /* \"contract.sol\":4716:4732  userTransactions */\n      dup5\n        /* \"contract.sol\":4733:4738  index */\n      dup5\n        /* \"contract.sol\":4716:4739  userTransactions[index] */\n      dup2\n      mload\n      dup2\n      lt\n      tag_97\n      jumpi\n      tag_98\n      tag_76\n      jump\t// in\n    tag_98:\n    tag_97:\n      0x20\n      mul\n      0x20\n      add\n      add\n        /* \"contract.sol\":4716:4748  userTransactions[index] = txData */\n      dup2\n      swap1\n      mstore\n      pop\n        /* \"contract.sol\":4766:4773  index++ */\n      dup3\n      dup1\n      tag_99\n      swap1\n      tag_81\n      jump\t// in\n    tag_99:\n      swap4\n      pop\n      pop\n        /* \"contract.sol\":4647:4788  if (txData.buyer == user || txData.seller == user) {... */\n    tag_96:\n        /* \"contract.sol\":4557:4798  {... */\n      pop\n        /* \"contract.sol\":4552:4555  i++ */\n      dup1\n      dup1\n      0x01\n      add\n      swap2\n      pop\n      pop\n        /* \"contract.sol\":4502:4798  for (uint256 i = 0; i < transactionHashes.length; i++) {... */\n      jump(tag_89)\n    tag_90:\n      pop\n        /* \"contract.sol\":4814:4830  userTransactions */\n      dup2\n        /* \"contract.sol\":4807:4830  return userTransactions */\n      swap4\n      pop\n      pop\n      pop\n      pop\n        /* \"contract.sol\":4018:4837  function getTransactionsByUser(address user) external view returns (Transaction[] memory) {... */\n      swap2\n      swap1\n      pop\n      jump\t// out\n        /* \"contract.sol\":928:1677  function issueTicket(uint256 ticketId, uint256 price) external {... */\n    tag_24:\n        /* \"contract.sol\":1001:1022  Ticket storage ticket */\n      0x00\n        /* \"contract.sol\":1025:1032  tickets */\n      0x01\n        /* \"contract.sol\":1025:1042  tickets[ticketId] */\n      0x00\n        /* \"contract.sol\":1033:1041  ticketId */\n      dup5\n        /* \"contract.sol\":1025:1042  tickets[ticketId] */\n      dup2\n      mstore\n      0x20\n      add\n      swap1\n      dup2\n      mstore\n      0x20\n      add\n      0x00\n      keccak256\n        /* \"contract.sol\":1001:1042  Ticket storage ticket = tickets[ticketId] */\n      swap1\n      pop\n        /* \"contract.sol\":1081:1082  0 */\n      0x00\n        /* \"contract.sol\":1057:1083  ticket.owner == address(0) */\n      0xffffffffffffffffffffffffffffffffffffffff\n      and\n        /* \"contract.sol\":1057:1063  ticket */\n      dup2\n        /* \"contract.sol\":1057:1069  ticket.owner */\n      0x01\n      add\n      0x00\n      swap1\n      sload\n      swap1\n      0x0100\n      exp\n      swap1\n      div\n      0xffffffffffffffffffffffffffffffffffffffff\n      and\n        /* \"contract.sol\":1057:1083  ticket.owner == address(0) */\n      0xffffffffffffffffffffffffffffffffffffffff\n      and\n      sub\n        /* \"contract.sol\":1053:1670  if (ticket.owner == address(0)) {... */\n      tag_101\n      jumpi\n        /* \"contract.sol\":1154:1195  Ticket(ticketId, msg.sender, price, true) */\n      mload(0x40)\n      dup1\n      0x80\n      add\n      0x40\n      mstore\n      dup1\n        /* \"contract.sol\":1161:1169  ticketId */\n      dup5\n        /* \"contract.sol\":1154:1195  Ticket(ticketId, msg.sender, price, true) */\n      dup2\n      mstore\n      0x20\n      add\n        /* \"contract.sol\":1171:1181  msg.sender */\n      caller\n        /* \"contract.sol\":1154:1195  Ticket(ticketId, msg.sender, price, true) */\n      0xffffffffffffffffffffffffffffffffffffffff\n      and\n      dup2\n      mstore\n      0x20\n      add\n        /* \"contract.sol\":1183:1188  price */\n      dup4\n        /* \"contract.sol\":1154:1195  Ticket(ticketId, msg.sender, price, true) */\n      dup2\n      mstore\n      0x20\n      add\n        /* \"contract.sol\":1190:1194  true */\n      0x01\n        /* \"contract.sol\":1154:1195  Ticket(ticketId, msg.sender, price, true) */\n      iszero\n      iszero\n      dup2\n      mstore\n      pop\n        /* \"contract.sol\":1134:1141  tickets */\n      0x01\n        /* \"contract.sol\":1134:1151  tickets[ticketId] */\n      0x00\n        /* \"contract.sol\":1142:1150  ticketId */\n      dup6\n        /* \"contract.sol\":1134:1151  tickets[ticketId] */\n      dup2\n      mstore\n      0x20\n      add\n      swap1\n      dup2\n      mstore\n      0x20\n      add\n      0x00\n      keccak256\n        /* \"contract.sol\":1134:1195  tickets[ticketId] = Ticket(ticketId, msg.sender, price, true) */\n      0x00\n      dup3\n      add\n      mload\n      dup2\n      0x00\n      add\n      sstore\n      0x20\n      dup3\n      add\n      mload\n      dup2\n      0x01\n      add\n      exp(0x0100, 0x00)\n      dup2\n      sload\n      dup2\n      0xffffffffffffffffffffffffffffffffffffffff\n      mul\n      not\n      and\n      swap1\n      dup4\n      0xffffffffffffffffffffffffffffffffffffffff\n      and\n      mul\n      or\n      swap1\n      sstore\n      pop\n      0x40\n      dup3\n      add\n      mload\n      dup2\n      0x02\n      add\n      sstore\n      0x60\n      dup3\n      add\n      mload\n      dup2\n      0x03\n      add\n      exp(0x0100, 0x00)\n      dup2\n      sload\n      dup2\n      0xff\n      mul\n      not\n      and\n      swap1\n      dup4\n      iszero\n      iszero\n      mul\n      or\n      swap1\n      sstore\n      pop\n      swap1\n      pop\n      pop\n        /* \"contract.sol\":1209:1218  ticketIds */\n      0x03\n        /* \"contract.sol\":1224:1232  ticketId */\n      dup4\n        /* \"contract.sol\":1209:1233  ticketIds.push(ticketId) */\n      swap1\n      dup1\n      0x01\n      dup2\n      sload\n      add\n      dup1\n      dup3\n      sstore\n      dup1\n      swap2\n      pop\n      pop\n      0x01\n      swap1\n      sub\n      swap1\n      0x00\n      mstore\n      keccak256(0x00, 0x20)\n      add\n      0x00\n      swap1\n      swap2\n      swap1\n      swap2\n      swap1\n      swap2\n      pop\n      sstore\n        /* \"contract.sol\":1275:1285  msg.sender */\n      caller\n        /* \"contract.sol\":1252:1293  TicketIssued(ticketId, msg.sender, price) */\n      0xffffffffffffffffffffffffffffffffffffffff\n      and\n        /* \"contract.sol\":1265:1273  ticketId */\n      dup4\n        /* \"contract.sol\":1252:1293  TicketIssued(ticketId, msg.sender, price) */\n      0x885aea068dfc8d64b3da0c1131d16d6e26947c043fb441c446de14a01087540d\n        /* \"contract.sol\":1287:1292  price */\n      dup5\n        /* \"contract.sol\":1252:1293  TicketIssued(ticketId, msg.sender, price) */\n      mload(0x40)\n      tag_103\n      swap2\n      swap1\n      tag_104\n      jump\t// in\n    tag_103:\n      mload(0x40)\n      dup1\n      swap2\n      sub\n      swap1\n      log3\n        /* \"contract.sol\":1053:1670  if (ticket.owner == address(0)) {... */\n      jump(tag_105)\n    tag_101:\n        /* \"contract.sol\":1393:1403  msg.sender */\n      caller\n        /* \"contract.sol\":1377:1403  ticket.owner == msg.sender */\n      0xffffffffffffffffffffffffffffffffffffffff\n      and\n        /* \"contract.sol\":1377:1383  ticket */\n      dup2\n        /* \"contract.sol\":1377:1389  ticket.owner */\n      0x01\n      add\n      0x00\n      swap1\n      sload\n      swap1\n      0x0100\n      exp\n      swap1\n      div\n      0xffffffffffffffffffffffffffffffffffffffff\n      and\n        /* \"contract.sol\":1377:1403  ticket.owner == msg.sender */\n      0xffffffffffffffffffffffffffffffffffffffff\n      and\n      eq\n        /* \"contract.sol\":1369:1452  require(ticket.owner == msg.sender, \"Only the owner can make the ticket available\") */\n      tag_106\n      jumpi\n      mload(0x40)\n      0x08c379a000000000000000000000000000000000000000000000000000000000\n      dup2\n      mstore\n      0x04\n      add\n      tag_107\n      swap1\n      tag_108\n      jump\t// in\n    tag_107:\n      mload(0x40)\n      dup1\n      swap2\n      sub\n      swap1\n      revert\n    tag_106:\n        /* \"contract.sol\":1475:1481  ticket */\n      dup1\n        /* \"contract.sol\":1475:1493  ticket.isAvailable */\n      0x03\n      add\n      0x00\n      swap1\n      sload\n      swap1\n      0x0100\n      exp\n      swap1\n      div\n      0xff\n      and\n        /* \"contract.sol\":1474:1493  !ticket.isAvailable */\n      iszero\n        /* \"contract.sol\":1466:1525  require(!ticket.isAvailable, \"Ticket is already available\") */\n      tag_109\n      jumpi\n      mload(0x40)\n      0x08c379a000000000000000000000000000000000000000000000000000000000\n      dup2\n      mstore\n      0x04\n      add\n      tag_110\n      swap1\n      tag_111\n      jump\t// in\n    tag_110:\n      mload(0x40)\n      dup1\n      swap2\n      sub\n      swap1\n      revert\n    tag_109:\n        /* \"contract.sol\":1561:1565  true */\n      0x01\n        /* \"contract.sol\":1540:1546  ticket */\n      dup2\n        /* \"contract.sol\":1540:1558  ticket.isAvailable */\n      0x03\n      add\n      0x00\n        /* \"contract.sol\":1540:1565  ticket.isAvailable = true */\n      0x0100\n      exp\n      dup2\n      sload\n      dup2\n      0xff\n      mul\n      not\n      and\n      swap1\n      dup4\n      iszero\n      iszero\n      mul\n      or\n      swap1\n      sstore\n      pop\n        /* \"contract.sol\":1594:1599  price */\n      dup2\n        /* \"contract.sol\":1579:1585  ticket */\n      dup2\n        /* \"contract.sol\":1579:1591  ticket.price */\n      0x02\n      add\n        /* \"contract.sol\":1579:1599  ticket.price = price */\n      dup2\n      swap1\n      sstore\n      pop\n        /* \"contract.sol\":1641:1651  msg.sender */\n      caller\n        /* \"contract.sol\":1618:1659  TicketIssued(ticketId, msg.sender, price) */\n      0xffffffffffffffffffffffffffffffffffffffff\n      and\n        /* \"contract.sol\":1631:1639  ticketId */\n      dup4\n        /* \"contract.sol\":1618:1659  TicketIssued(ticketId, msg.sender, price) */\n      0x885aea068dfc8d64b3da0c1131d16d6e26947c043fb441c446de14a01087540d\n        /* \"contract.sol\":1653:1658  price */\n      dup5\n        /* \"contract.sol\":1618:1659  TicketIssued(ticketId, msg.sender, price) */\n      mload(0x40)\n      tag_112\n      swap2\n      swap1\n      tag_104\n      jump\t// in\n    tag_112:\n      mload(0x40)\n      dup1\n      swap2\n      sub\n      swap1\n      log3\n        /* \"contract.sol\":1053:1670  if (ticket.owner == address(0)) {... */\n    tag_105:\n        /* \"contract.sol\":991:1677  {... */\n      pop\n        /* \"contract.sol\":928:1677  function issueTicket(uint256 ticketId, uint256 price) external {... */\n      pop\n      pop\n      jump\t// out\n        /* \"contract.sol\":2305:3140  function processPayment(bytes32 txHash) external payable {... */\n    tag_28:\n        /* \"contract.sol\":2372:2398  Transaction storage txData */\n      0x00\n        /* \"contract.sol\":2401:2413  transactions */\n      0x02\n        /* \"contract.sol\":2401:2421  transactions[txHash] */\n      0x00\n        /* \"contract.sol\":2414:2420  txHash */\n      dup4\n        /* \"contract.sol\":2401:2421  transactions[txHash] */\n      dup2\n      mstore\n      0x20\n      add\n      swap1\n      dup2\n      mstore\n      0x20\n      add\n      0x00\n      keccak256\n        /* \"contract.sol\":2372:2421  Transaction storage txData = transactions[txHash] */\n      swap1\n      pop\n        /* \"contract.sol\":2440:2446  txData */\n      dup1\n        /* \"contract.sol\":2440:2458  txData.isCompleted */\n      0x04\n      add\n      0x00\n      swap1\n      sload\n      swap1\n      0x0100\n      exp\n      swap1\n      div\n      0xff\n      and\n        /* \"contract.sol\":2439:2458  !txData.isCompleted */\n      iszero\n        /* \"contract.sol\":2431:2492  require(!txData.isCompleted, \"Transaction already completed\") */\n      tag_114\n      jumpi\n      mload(0x40)\n      0x08c379a000000000000000000000000000000000000000000000000000000000\n      dup2\n      mstore\n      0x04\n      add\n      tag_115\n      swap1\n      tag_116\n      jump\t// in\n    tag_115:\n      mload(0x40)\n      dup1\n      swap2\n      sub\n      swap1\n      revert\n    tag_114:\n        /* \"contract.sol\":2523:2529  txData */\n      dup1\n        /* \"contract.sol\":2523:2535  txData.price */\n      0x03\n      add\n      sload\n        /* \"contract.sol\":2510:2519  msg.value */\n      callvalue\n        /* \"contract.sol\":2510:2535  msg.value >= txData.price */\n      lt\n      iszero\n        /* \"contract.sol\":2502:2560  require(msg.value >= txData.price, \"Insufficient payment\") */\n      tag_117\n      jumpi\n      mload(0x40)\n      0x08c379a000000000000000000000000000000000000000000000000000000000\n      dup2\n      mstore\n      0x04\n      add\n      tag_118\n      swap1\n      tag_119\n      jump\t// in\n    tag_118:\n      mload(0x40)\n      dup1\n      swap2\n      sub\n      swap1\n      revert\n    tag_117:\n        /* \"contract.sol\":2594:2604  msg.sender */\n      caller\n        /* \"contract.sol\":2578:2604  txData.buyer == msg.sender */\n      0xffffffffffffffffffffffffffffffffffffffff\n      and\n        /* \"contract.sol\":2578:2584  txData */\n      dup2\n        /* \"contract.sol\":2578:2590  txData.buyer */\n      0x01\n      add\n      0x00\n      swap1\n      sload\n      swap1\n      0x0100\n      exp\n      swap1\n      div\n      0xffffffffffffffffffffffffffffffffffffffff\n      and\n        /* \"contract.sol\":2578:2604  txData.buyer == msg.sender */\n      0xffffffffffffffffffffffffffffffffffffffff\n      and\n      eq\n        /* \"contract.sol\":2570:2632  require(txData.buyer == msg.sender, \"Buyer is not recognized\") */\n      tag_120\n      jumpi\n      mload(0x40)\n      0x08c379a000000000000000000000000000000000000000000000000000000000\n      dup2\n      mstore\n      0x04\n      add\n      tag_121\n      swap1\n      tag_122\n      jump\t// in\n    tag_121:\n      mload(0x40)\n      dup1\n      swap2\n      sub\n      swap1\n      revert\n    tag_120:\n        /* \"contract.sol\":2643:2664  Ticket storage ticket */\n      0x00\n        /* \"contract.sol\":2667:2674  tickets */\n      0x01\n        /* \"contract.sol\":2667:2691  tickets[txData.ticketId] */\n      0x00\n        /* \"contract.sol\":2675:2681  txData */\n      dup4\n        /* \"contract.sol\":2675:2690  txData.ticketId */\n      0x00\n      add\n      sload\n        /* \"contract.sol\":2667:2691  tickets[txData.ticketId] */\n      dup2\n      mstore\n      0x20\n      add\n      swap1\n      dup2\n      mstore\n      0x20\n      add\n      0x00\n      keccak256\n        /* \"contract.sol\":2643:2691  Ticket storage ticket = tickets[txData.ticketId] */\n      swap1\n      pop\n        /* \"contract.sol\":2709:2715  ticket */\n      dup1\n        /* \"contract.sol\":2709:2727  ticket.isAvailable */\n      0x03\n      add\n      0x00\n      swap1\n      sload\n      swap1\n      0x0100\n      exp\n      swap1\n      div\n      0xff\n      and\n        /* \"contract.sol\":2701:2761  require(ticket.isAvailable, \"Ticket is no longer available\") */\n      tag_123\n      jumpi\n      mload(0x40)\n      0x08c379a000000000000000000000000000000000000000000000000000000000\n      dup2\n      mstore\n      0x04\n      add\n      tag_124\n      swap1\n      tag_125\n      jump\t// in\n    tag_124:\n      mload(0x40)\n      dup1\n      swap2\n      sub\n      swap1\n      revert\n    tag_123:\n        /* \"contract.sol\":2818:2824  txData */\n      dup2\n        /* \"contract.sol\":2818:2831  txData.seller */\n      0x02\n      add\n      0x00\n      swap1\n      sload\n      swap1\n      0x0100\n      exp\n      swap1\n      div\n      0xffffffffffffffffffffffffffffffffffffffff\n      and\n        /* \"contract.sol\":2810:2841  payable(txData.seller).transfer */\n      0xffffffffffffffffffffffffffffffffffffffff\n      and\n        /* \"contract.sol\":2810:2855  payable(txData.seller).transfer(txData.price) */\n      0x08fc\n        /* \"contract.sol\":2842:2848  txData */\n      dup4\n        /* \"contract.sol\":2842:2854  txData.price */\n      0x03\n      add\n      sload\n        /* \"contract.sol\":2810:2855  payable(txData.seller).transfer(txData.price) */\n      swap1\n      dup2\n      iszero\n      mul\n      swap1\n      mload(0x40)\n      0x00\n      mload(0x40)\n      dup1\n      dup4\n      sub\n      dup2\n      dup6\n      dup9\n      dup9\n      call\n      swap4\n      pop\n      pop\n      pop\n      pop\n      iszero\n      dup1\n      iszero\n      tag_127\n      jumpi\n      returndatasize\n      0x00\n      dup1\n      returndatacopy\n      revert(0x00, returndatasize)\n    tag_127:\n      pop\n        /* \"contract.sol\":2916:2922  txData */\n      dup2\n        /* \"contract.sol\":2916:2928  txData.buyer */\n      0x01\n      add\n      0x00\n      swap1\n      sload\n      swap1\n      0x0100\n      exp\n      swap1\n      div\n      0xffffffffffffffffffffffffffffffffffffffff\n      and\n        /* \"contract.sol\":2901:2907  ticket */\n      dup2\n        /* \"contract.sol\":2901:2913  ticket.owner */\n      0x01\n      add\n      0x00\n        /* \"contract.sol\":2901:2928  ticket.owner = txData.buyer */\n      0x0100\n      exp\n      dup2\n      sload\n      dup2\n      0xffffffffffffffffffffffffffffffffffffffff\n      mul\n      not\n      and\n      swap1\n      dup4\n      0xffffffffffffffffffffffffffffffffffffffff\n      and\n      mul\n      or\n      swap1\n      sstore\n      pop\n        /* \"contract.sol\":2959:2964  false */\n      0x00\n        /* \"contract.sol\":2938:2944  ticket */\n      dup2\n        /* \"contract.sol\":2938:2956  ticket.isAvailable */\n      0x03\n      add\n      0x00\n        /* \"contract.sol\":2938:2964  ticket.isAvailable = false */\n      0x0100\n      exp\n      dup2\n      sload\n      dup2\n      0xff\n      mul\n      not\n      and\n      swap1\n      dup4\n      iszero\n      iszero\n      mul\n      or\n      swap1\n      sstore\n      pop\n        /* \"contract.sol\":3037:3041  true */\n      0x01\n        /* \"contract.sol\":3016:3022  txData */\n      dup3\n        /* \"contract.sol\":3016:3034  txData.isCompleted */\n      0x04\n      add\n      0x00\n        /* \"contract.sol\":3016:3041  txData.isCompleted = true */\n      0x0100\n      exp\n      dup2\n      sload\n      dup2\n      0xff\n      mul\n      not\n      and\n      swap1\n      dup4\n      iszero\n      iszero\n      mul\n      or\n      swap1\n      sstore\n      pop\n        /* \"contract.sol\":3105:3111  txData */\n      dup2\n        /* \"contract.sol\":3105:3118  txData.seller */\n      0x02\n      add\n      0x00\n      swap1\n      sload\n      swap1\n      0x0100\n      exp\n      swap1\n      div\n      0xffffffffffffffffffffffffffffffffffffffff\n      and\n        /* \"contract.sol\":3057:3133  PaymentProcessed(txData.ticketId, txData.buyer, txData.seller, txData.price) */\n      0xffffffffffffffffffffffffffffffffffffffff\n      and\n        /* \"contract.sol\":3091:3097  txData */\n      dup3\n        /* \"contract.sol\":3091:3103  txData.buyer */\n      0x01\n      add\n      0x00\n      swap1\n      sload\n      swap1\n      0x0100\n      exp\n      swap1\n      div\n      0xffffffffffffffffffffffffffffffffffffffff\n      and\n        /* \"contract.sol\":3057:3133  PaymentProcessed(txData.ticketId, txData.buyer, txData.seller, txData.price) */\n      0xffffffffffffffffffffffffffffffffffffffff\n      and\n        /* \"contract.sol\":3074:3080  txData */\n      dup4\n        /* \"contract.sol\":3074:3089  txData.ticketId */\n      0x00\n      add\n      sload\n        /* \"contract.sol\":3057:3133  PaymentProcessed(txData.ticketId, txData.buyer, txData.seller, txData.price) */\n      0x37a13dcf7266fe3681e46ca252ea4f79e8a76da88ae9446f99242fbc014a6c39\n        /* \"contract.sol\":3120:3126  txData */\n      dup6\n        /* \"contract.sol\":3120:3132  txData.price */\n      0x03\n      add\n      sload\n        /* \"contract.sol\":3057:3133  PaymentProcessed(txData.ticketId, txData.buyer, txData.seller, txData.price) */\n      mload(0x40)\n      tag_128\n      swap2\n      swap1\n      tag_104\n      jump\t// in\n    tag_128:\n      mload(0x40)\n      dup1\n      swap2\n      sub\n      swap1\n      log4\n        /* \"contract.sol\":2362:3140  {... */\n      pop\n      pop\n        /* \"contract.sol\":2305:3140  function processPayment(bytes32 txHash) external payable {... */\n      pop\n      jump\t// out\n        /* \"contract.sol\":3268:3395  function getTransaction(bytes32 txHash) external view returns (Transaction memory) {... */\n    tag_32:\n        /* \"contract.sol\":3331:3349  Transaction memory */\n      tag_129\n      tag_88\n      jump\t// in\n    tag_129:\n        /* \"contract.sol\":3368:3380  transactions */\n      0x02\n        /* \"contract.sol\":3368:3388  transactions[txHash] */\n      0x00\n        /* \"contract.sol\":3381:3387  txHash */\n      dup4\n        /* \"contract.sol\":3368:3388  transactions[txHash] */\n      dup2\n      mstore\n      0x20\n      add\n      swap1\n      dup2\n      mstore\n      0x20\n      add\n      0x00\n      keccak256\n        /* \"contract.sol\":3361:3388  return transactions[txHash] */\n      mload(0x40)\n      dup1\n      0xc0\n      add\n      0x40\n      mstore\n      swap1\n      dup2\n      0x00\n      dup3\n      add\n      sload\n      dup2\n      mstore\n      0x20\n      add\n      0x01\n      dup3\n      add\n      0x00\n      swap1\n      sload\n      swap1\n      0x0100\n      exp\n      swap1\n      div\n      0xffffffffffffffffffffffffffffffffffffffff\n      and\n      0xffffffffffffffffffffffffffffffffffffffff\n      and\n      0xffffffffffffffffffffffffffffffffffffffff\n      and\n      dup2\n      mstore\n      0x20\n      add\n      0x02\n      dup3\n      add\n      0x00\n      swap1\n      sload\n      swap1\n      0x0100\n      exp\n      swap1\n      div\n      0xffffffffffffffffffffffffffffffffffffffff\n      and\n      0xffffffffffffffffffffffffffffffffffffffff\n      and\n      0xffffffffffffffffffffffffffffffffffffffff\n      and\n      dup2\n      mstore\n      0x20\n      add\n      0x03\n      dup3\n      add\n      sload\n      dup2\n      mstore\n      0x20\n      add\n      0x04\n      dup3\n      add\n      0x00\n      swap1\n      sload\n      swap1\n      0x0100\n      exp\n      swap1\n      div\n      0xff\n      and\n      iszero\n      iszero\n      iszero\n      iszero\n      dup2\n      mstore\n      0x20\n      add\n      0x05\n      dup3\n      add\n      sload\n      dup2\n      mstore\n      pop\n      pop\n      swap1\n      pop\n        /* \"contract.sol\":3268:3395  function getTransaction(bytes32 txHash) external view returns (Transaction memory) {... */\n      swap2\n      swap1\n      pop\n      jump\t// out\n        /* \"contract.sol\":412:453  mapping(uint256 => Ticket) public tickets */\n    tag_39:\n      mstore(0x20, 0x01)\n      dup1\n      0x00\n      mstore\n      keccak256(0x00, 0x40)\n      0x00\n      swap2\n      pop\n      swap1\n      pop\n      dup1\n      0x00\n      add\n      sload\n      swap1\n      dup1\n      0x01\n      add\n      0x00\n      swap1\n      sload\n      swap1\n      0x0100\n      exp\n      swap1\n      div\n      0xffffffffffffffffffffffffffffffffffffffff\n      and\n      swap1\n      dup1\n      0x02\n      add\n      sload\n      swap1\n      dup1\n      0x03\n      add\n      0x00\n      swap1\n      sload\n      swap1\n      0x0100\n      exp\n      swap1\n      div\n      0xff\n      and\n      swap1\n      pop\n      dup5\n      jump\t// out\n        /* \"contract.sol\":459:510  mapping(bytes32 => Transaction) public transactions */\n    tag_45:\n      mstore(0x20, 0x02)\n      dup1\n      0x00\n      mstore\n      keccak256(0x00, 0x40)\n      0x00\n      swap2\n      pop\n      swap1\n      pop\n      dup1\n      0x00\n      add\n      sload\n      swap1\n      dup1\n      0x01\n      add\n      0x00\n      swap1\n      sload\n      swap1\n      0x0100\n      exp\n      swap1\n      div\n      0xffffffffffffffffffffffffffffffffffffffff\n      and\n      swap1\n      dup1\n      0x02\n      add\n      0x00\n      swap1\n      sload\n      swap1\n      0x0100\n      exp\n      swap1\n      div\n      0xffffffffffffffffffffffffffffffffffffffff\n      and\n      swap1\n      dup1\n      0x03\n      add\n      sload\n      swap1\n      dup1\n      0x04\n      add\n      0x00\n      swap1\n      sload\n      swap1\n      0x0100\n      exp\n      swap1\n      div\n      0xff\n      and\n      swap1\n      dup1\n      0x05\n      add\n      sload\n      swap1\n      pop\n      dup7\n      jump\t// out\n        /* \"contract.sol\":1683:2299  function createTransaction(uint256 ticketId, address buyer) external {... */\n    tag_52:\n        /* \"contract.sol\":1762:1782  Ticket memory ticket */\n      0x00\n        /* \"contract.sol\":1785:1792  tickets */\n      0x01\n        /* \"contract.sol\":1785:1802  tickets[ticketId] */\n      0x00\n        /* \"contract.sol\":1793:1801  ticketId */\n      dup5\n        /* \"contract.sol\":1785:1802  tickets[ticketId] */\n      dup2\n      mstore\n      0x20\n      add\n      swap1\n      dup2\n      mstore\n      0x20\n      add\n      0x00\n      keccak256\n        /* \"contract.sol\":1762:1802  Ticket memory ticket = tickets[ticketId] */\n      mload(0x40)\n      dup1\n      0x80\n      add\n      0x40\n      mstore\n      swap1\n      dup2\n      0x00\n      dup3\n      add\n      sload\n      dup2\n      mstore\n      0x20\n      add\n      0x01\n      dup3\n      add\n      0x00\n      swap1\n      sload\n      swap1\n      0x0100\n      exp\n      swap1\n      div\n      0xffffffffffffffffffffffffffffffffffffffff\n      and\n      0xffffffffffffffffffffffffffffffffffffffff\n      and\n      0xffffffffffffffffffffffffffffffffffffffff\n      and\n      dup2\n      mstore\n      0x20\n      add\n      0x02\n      dup3\n      add\n      sload\n      dup2\n      mstore\n      0x20\n      add\n      0x03\n      dup3\n      add\n      0x00\n      swap1\n      sload\n      swap1\n      0x0100\n      exp\n      swap1\n      div\n      0xff\n      and\n      iszero\n      iszero\n      iszero\n      iszero\n      dup2\n      mstore\n      pop\n      pop\n      swap1\n      pop\n        /* \"contract.sol\":1820:1826  ticket */\n      dup1\n        /* \"contract.sol\":1820:1838  ticket.isAvailable */\n      0x60\n      add\n      mload\n        /* \"contract.sol\":1812:1866  require(ticket.isAvailable, \"Ticket is not available\") */\n      tag_132\n      jumpi\n      mload(0x40)\n      0x08c379a000000000000000000000000000000000000000000000000000000000\n      dup2\n      mstore\n      0x04\n      add\n      tag_133\n      swap1\n      tag_134\n      jump\t// in\n    tag_133:\n      mload(0x40)\n      dup1\n      swap2\n      sub\n      swap1\n      revert\n    tag_132:\n        /* \"contract.sol\":1900:1910  msg.sender */\n      caller\n        /* \"contract.sol\":1884:1910  ticket.owner != msg.sender */\n      0xffffffffffffffffffffffffffffffffffffffff\n      and\n        /* \"contract.sol\":1884:1890  ticket */\n      dup2\n        /* \"contract.sol\":1884:1896  ticket.owner */\n      0x20\n      add\n      mload\n        /* \"contract.sol\":1884:1910  ticket.owner != msg.sender */\n      0xffffffffffffffffffffffffffffffffffffffff\n      and\n      sub\n        /* \"contract.sol\":1876:1946  require(ticket.owner != msg.sender, \"The owner can't buy this ticket\") */\n      tag_135\n      jumpi\n      mload(0x40)\n      0x08c379a000000000000000000000000000000000000000000000000000000000\n      dup2\n      mstore\n      0x04\n      add\n      tag_136\n      swap1\n      tag_137\n      jump\t// in\n    tag_136:\n      mload(0x40)\n      dup1\n      swap2\n      sub\n      swap1\n      revert\n    tag_135:\n        /* \"contract.sol\":1957:1971  bytes32 txHash */\n      0x00\n        /* \"contract.sol\":2001:2009  ticketId */\n      dup4\n        /* \"contract.sol\":2011:2016  buyer */\n      dup4\n        /* \"contract.sol\":2018:2024  ticket */\n      dup4\n        /* \"contract.sol\":2018:2030  ticket.owner */\n      0x20\n      add\n      mload\n        /* \"contract.sol\":2032:2038  ticket */\n      dup5\n        /* \"contract.sol\":2032:2044  ticket.price */\n      0x40\n      add\n      mload\n        /* \"contract.sol\":2046:2061  block.timestamp */\n      timestamp\n        /* \"contract.sol\":1984:2062  abi.encodePacked(ticketId, buyer, ticket.owner, ticket.price, block.timestamp) */\n      add(0x20, mload(0x40))\n      tag_138\n      swap6\n      swap5\n      swap4\n      swap3\n      swap2\n      swap1\n      tag_139\n      jump\t// in\n    tag_138:\n      mload(0x40)\n      0x20\n      dup2\n      dup4\n      sub\n      sub\n      dup2\n      mstore\n      swap1\n      0x40\n      mstore\n        /* \"contract.sol\":1974:2063  keccak256(abi.encodePacked(ticketId, buyer, ticket.owner, ticket.price, block.timestamp)) */\n      dup1\n      mload\n      swap1\n      0x20\n      add\n      keccak256\n        /* \"contract.sol\":1957:2063  bytes32 txHash = keccak256(abi.encodePacked(ticketId, buyer, ticket.owner, ticket.price, block.timestamp)) */\n      swap1\n      pop\n        /* \"contract.sol\":2096:2167  Transaction(ticketId, buyer, ticket.owner, ticket.price, false, txHash) */\n      mload(0x40)\n      dup1\n      0xc0\n      add\n      0x40\n      mstore\n      dup1\n        /* \"contract.sol\":2108:2116  ticketId */\n      dup6\n        /* \"contract.sol\":2096:2167  Transaction(ticketId, buyer, ticket.owner, ticket.price, false, txHash) */\n      dup2\n      mstore\n      0x20\n      add\n        /* \"contract.sol\":2118:2123  buyer */\n      dup5\n        /* \"contract.sol\":2096:2167  Transaction(ticketId, buyer, ticket.owner, ticket.price, false, txHash) */\n      0xffffffffffffffffffffffffffffffffffffffff\n      and\n      dup2\n      mstore\n      0x20\n      add\n        /* \"contract.sol\":2125:2131  ticket */\n      dup4\n        /* \"contract.sol\":2125:2137  ticket.owner */\n      0x20\n      add\n      mload\n        /* \"contract.sol\":2096:2167  Transaction(ticketId, buyer, ticket.owner, ticket.price, false, txHash) */\n      0xffffffffffffffffffffffffffffffffffffffff\n      and\n      dup2\n      mstore\n      0x20\n      add\n        /* \"contract.sol\":2139:2145  ticket */\n      dup4\n        /* \"contract.sol\":2139:2151  ticket.price */\n      0x40\n      add\n      mload\n        /* \"contract.sol\":2096:2167  Transaction(ticketId, buyer, ticket.owner, ticket.price, false, txHash) */\n      dup2\n      mstore\n      0x20\n      add\n        /* \"contract.sol\":2153:2158  false */\n      0x00\n        /* \"contract.sol\":2096:2167  Transaction(ticketId, buyer, ticket.owner, ticket.price, false, txHash) */\n      iszero\n      iszero\n      dup2\n      mstore\n      0x20\n      add\n        /* \"contract.sol\":2160:2166  txHash */\n      dup3\n        /* \"contract.sol\":2096:2167  Transaction(ticketId, buyer, ticket.owner, ticket.price, false, txHash) */\n      dup2\n      mstore\n      pop\n        /* \"contract.sol\":2073:2085  transactions */\n      0x02\n        /* \"contract.sol\":2073:2093  transactions[txHash] */\n      0x00\n        /* \"contract.sol\":2086:2092  txHash */\n      dup4\n        /* \"contract.sol\":2073:2093  transactions[txHash] */\n      dup2\n      mstore\n      0x20\n      add\n      swap1\n      dup2\n      mstore\n      0x20\n      add\n      0x00\n      keccak256\n        /* \"contract.sol\":2073:2167  transactions[txHash] = Transaction(ticketId, buyer, ticket.owner, ticket.price, false, txHash) */\n      0x00\n      dup3\n      add\n      mload\n      dup2\n      0x00\n      add\n      sstore\n      0x20\n      dup3\n      add\n      mload\n      dup2\n      0x01\n      add\n      exp(0x0100, 0x00)\n      dup2\n      sload\n      dup2\n      0xffffffffffffffffffffffffffffffffffffffff\n      mul\n      not\n      and\n      swap1\n      dup4\n      0xffffffffffffffffffffffffffffffffffffffff\n      and\n      mul\n      or\n      swap1\n      sstore\n      pop\n      0x40\n      dup3\n      add\n      mload\n      dup2\n      0x02\n      add\n      exp(0x0100, 0x00)\n      dup2\n      sload\n      dup2\n      0xffffffffffffffffffffffffffffffffffffffff\n      mul\n      not\n      and\n      swap1\n      dup4\n      0xffffffffffffffffffffffffffffffffffffffff\n      and\n      mul\n      or\n      swap1\n      sstore\n      pop\n      0x60\n      dup3\n      add\n      mload\n      dup2\n      0x03\n      add\n      sstore\n      0x80\n      dup3\n      add\n      mload\n      dup2\n      0x04\n      add\n      exp(0x0100, 0x00)\n      dup2\n      sload\n      dup2\n      0xff\n      mul\n      not\n      and\n      swap1\n      dup4\n      iszero\n      iszero\n      mul\n      or\n      swap1\n      sstore\n      pop\n      0xa0\n      dup3\n      add\n      mload\n      dup2\n      0x05\n      add\n      sstore\n      swap1\n      pop\n      pop\n        /* \"contract.sol\":2177:2194  transactionHashes */\n      0x04\n        /* \"contract.sol\":2200:2206  txHash */\n      dup2\n        /* \"contract.sol\":2177:2207  transactionHashes.push(txHash) */\n      swap1\n      dup1\n      0x01\n      dup2\n      sload\n      add\n      dup1\n      dup3\n      sstore\n      dup1\n      swap2\n      pop\n      pop\n      0x01\n      swap1\n      sub\n      swap1\n      0x00\n      mstore\n      keccak256(0x00, 0x20)\n      add\n      0x00\n      swap1\n      swap2\n      swap1\n      swap2\n      swap1\n      swap2\n      pop\n      sstore\n        /* \"contract.sol\":2259:2269  msg.sender */\n      caller\n        /* \"contract.sol\":2223:2292  TransactionCreated(ticketId, buyer, msg.sender, ticket.price, txHash) */\n      0xffffffffffffffffffffffffffffffffffffffff\n      and\n        /* \"contract.sol\":2252:2257  buyer */\n      dup4\n        /* \"contract.sol\":2223:2292  TransactionCreated(ticketId, buyer, msg.sender, ticket.price, txHash) */\n      0xffffffffffffffffffffffffffffffffffffffff\n      and\n        /* \"contract.sol\":2242:2250  ticketId */\n      dup6\n        /* \"contract.sol\":2223:2292  TransactionCreated(ticketId, buyer, msg.sender, ticket.price, txHash) */\n      0x134a388716b167dae2534ca04765e55a86d3e6e1181931c2d9524f94da09c83b\n        /* \"contract.sol\":2271:2277  ticket */\n      dup6\n        /* \"contract.sol\":2271:2283  ticket.price */\n      0x40\n      add\n      mload\n        /* \"contract.sol\":2285:2291  txHash */\n      dup6\n        /* \"contract.sol\":2223:2292  TransactionCreated(ticketId, buyer, msg.sender, ticket.price, txHash) */\n      mload(0x40)\n      tag_141\n      swap3\n      swap2\n      swap1\n      tag_142\n      jump\t// in\n    tag_141:\n      mload(0x40)\n      dup1\n      swap2\n      sub\n      swap1\n      log4\n        /* \"contract.sol\":1752:2299  {... */\n      pop\n      pop\n        /* \"contract.sol\":1683:2299  function createTransaction(uint256 ticketId, address buyer) external {... */\n      pop\n      pop\n      jump\t// out\n        /* \"contract.sol\":3146:3262  function getTicket(uint256 ticketId) external view returns (Ticket memory) {... */\n    tag_56:\n        /* \"contract.sol\":3206:3219  Ticket memory */\n      tag_143\n      tag_144\n      jump\t// in\n    tag_143:\n        /* \"contract.sol\":3238:3245  tickets */\n      0x01\n        /* \"contract.sol\":3238:3255  tickets[ticketId] */\n      0x00\n        /* \"contract.sol\":3246:3254  ticketId */\n      dup4\n        /* \"contract.sol\":3238:3255  tickets[ticketId] */\n      dup2\n      mstore\n      0x20\n      add\n      swap1\n      dup2\n      mstore\n      0x20\n      add\n      0x00\n      keccak256\n        /* \"contract.sol\":3231:3255  return tickets[ticketId] */\n      mload(0x40)\n      dup1\n      0x80\n      add\n      0x40\n      mstore\n      swap1\n      dup2\n      0x00\n      dup3\n      add\n      sload\n      dup2\n      mstore\n      0x20\n      add\n      0x01\n      dup3\n      add\n      0x00\n      swap1\n      sload\n      swap1\n      0x0100\n      exp\n      swap1\n      div\n      0xffffffffffffffffffffffffffffffffffffffff\n      and\n      0xffffffffffffffffffffffffffffffffffffffff\n      and\n      0xffffffffffffffffffffffffffffffffffffffff\n      and\n      dup2\n      mstore\n      0x20\n      add\n      0x02\n      dup3\n      add\n      sload\n      dup2\n      mstore\n      0x20\n      add\n      0x03\n      dup3\n      add\n      0x00\n      swap1\n      sload\n      swap1\n      0x0100\n      exp\n      swap1\n      div\n      0xff\n      and\n      iszero\n      iszero\n      iszero\n      iszero\n      dup2\n      mstore\n      pop\n      pop\n      swap1\n      pop\n        /* \"contract.sol\":3146:3262  function getTicket(uint256 ticketId) external view returns (Ticket memory) {... */\n      swap2\n      swap1\n      pop\n      jump\t// out\n        /* \"contract.sol\":3401:4012  function getTicketsByUser(address user) external view returns (Ticket[] memory) {... */\n    tag_62:\n        /* \"contract.sol\":3464:3479  Ticket[] memory */\n      0x60\n        /* \"contract.sol\":3491:3504  uint256 count */\n      0x00\n        /* \"contract.sol\":3523:3532  uint256 i */\n      dup1\n        /* \"contract.sol\":3518:3670  for (uint256 i = 0; i < ticketIds.length; i++) {... */\n    tag_147:\n        /* \"contract.sol\":3542:3551  ticketIds */\n      0x03\n        /* \"contract.sol\":3542:3558  ticketIds.length */\n      dup1\n      sload\n      swap1\n      pop\n        /* \"contract.sol\":3538:3539  i */\n      dup2\n        /* \"contract.sol\":3538:3558  i < ticketIds.length */\n      lt\n        /* \"contract.sol\":3518:3670  for (uint256 i = 0; i < ticketIds.length; i++) {... */\n      iszero\n      tag_148\n      jumpi\n        /* \"contract.sol\":3614:3618  user */\n      dup4\n        /* \"contract.sol\":3583:3618  tickets[ticketIds[i]].owner == user */\n      0xffffffffffffffffffffffffffffffffffffffff\n      and\n        /* \"contract.sol\":3583:3590  tickets */\n      0x01\n        /* \"contract.sol\":3583:3604  tickets[ticketIds[i]] */\n      0x00\n        /* \"contract.sol\":3591:3600  ticketIds */\n      0x03\n        /* \"contract.sol\":3601:3602  i */\n      dup5\n        /* \"contract.sol\":3591:3603  ticketIds[i] */\n      dup2\n      sload\n      dup2\n      lt\n      tag_150\n      jumpi\n      tag_151\n      tag_76\n      jump\t// in\n    tag_151:\n    tag_150:\n      swap1\n      0x00\n      mstore\n      keccak256(0x00, 0x20)\n      add\n      sload\n        /* \"contract.sol\":3583:3604  tickets[ticketIds[i]] */\n      dup2\n      mstore\n      0x20\n      add\n      swap1\n      dup2\n      mstore\n      0x20\n      add\n      0x00\n      keccak256\n        /* \"contract.sol\":3583:3610  tickets[ticketIds[i]].owner */\n      0x01\n      add\n      0x00\n      swap1\n      sload\n      swap1\n      0x0100\n      exp\n      swap1\n      div\n      0xffffffffffffffffffffffffffffffffffffffff\n      and\n        /* \"contract.sol\":3583:3618  tickets[ticketIds[i]].owner == user */\n      0xffffffffffffffffffffffffffffffffffffffff\n      and\n      sub\n        /* \"contract.sol\":3579:3660  if (tickets[ticketIds[i]].owner == user) {... */\n      tag_153\n      jumpi\n        /* \"contract.sol\":3638:3645  count++ */\n      dup2\n      dup1\n      tag_154\n      swap1\n      tag_81\n      jump\t// in\n    tag_154:\n      swap3\n      pop\n      pop\n        /* \"contract.sol\":3579:3660  if (tickets[ticketIds[i]].owner == user) {... */\n    tag_153:\n        /* \"contract.sol\":3560:3563  i++ */\n      dup1\n      dup1\n      0x01\n      add\n      swap2\n      pop\n      pop\n        /* \"contract.sol\":3518:3670  for (uint256 i = 0; i < ticketIds.length; i++) {... */\n      jump(tag_147)\n    tag_148:\n      pop\n        /* \"contract.sol\":3680:3707  Ticket[] memory userTickets */\n      0x00\n        /* \"contract.sol\":3723:3728  count */\n      dup2\n        /* \"contract.sol\":3710:3729  new Ticket[](count) */\n      0xffffffffffffffff\n      dup2\n      gt\n      iszero\n      tag_155\n      jumpi\n      tag_156\n      tag_84\n      jump\t// in\n    tag_156:\n    tag_155:\n      mload(0x40)\n      swap1\n      dup1\n      dup3\n      mstore\n      dup1\n      0x20\n      mul\n      0x20\n      add\n      dup3\n      add\n      0x40\n      mstore\n      dup1\n      iszero\n      tag_157\n      jumpi\n      dup2\n      0x20\n      add\n    tag_158:\n      tag_159\n      tag_144\n      jump\t// in\n    tag_159:\n      dup2\n      mstore\n      0x20\n      add\n      swap1\n      0x01\n      swap1\n      sub\n      swap1\n      dup2\n      tag_158\n      jumpi\n      swap1\n      pop\n    tag_157:\n      pop\n        /* \"contract.sol\":3680:3729  Ticket[] memory userTickets = new Ticket[](count) */\n      swap1\n      pop\n        /* \"contract.sol\":3739:3752  uint256 index */\n      0x00\n        /* \"contract.sol\":3771:3780  uint256 i */\n      dup1\n        /* \"contract.sol\":3766:3978  for (uint256 i = 0; i < ticketIds.length; i++) {... */\n    tag_160:\n        /* \"contract.sol\":3790:3799  ticketIds */\n      0x03\n        /* \"contract.sol\":3790:3806  ticketIds.length */\n      dup1\n      sload\n      swap1\n      pop\n        /* \"contract.sol\":3786:3787  i */\n      dup2\n        /* \"contract.sol\":3786:3806  i < ticketIds.length */\n      lt\n        /* \"contract.sol\":3766:3978  for (uint256 i = 0; i < ticketIds.length; i++) {... */\n      iszero\n      tag_161\n      jumpi\n        /* \"contract.sol\":3862:3866  user */\n      dup6\n        /* \"contract.sol\":3831:3866  tickets[ticketIds[i]].owner == user */\n      0xffffffffffffffffffffffffffffffffffffffff\n      and\n        /* \"contract.sol\":3831:3838  tickets */\n      0x01\n        /* \"contract.sol\":3831:3852  tickets[ticketIds[i]] */\n      0x00\n        /* \"contract.sol\":3839:3848  ticketIds */\n      0x03\n        /* \"contract.sol\":3849:3850  i */\n      dup5\n        /* \"contract.sol\":3839:3851  ticketIds[i] */\n      dup2\n      sload\n      dup2\n      lt\n      tag_163\n      jumpi\n      tag_164\n      tag_76\n      jump\t// in\n    tag_164:\n    tag_163:\n      swap1\n      0x00\n      mstore\n      keccak256(0x00, 0x20)\n      add\n      sload\n        /* \"contract.sol\":3831:3852  tickets[ticketIds[i]] */\n      dup2\n      mstore\n      0x20\n      add\n      swap1\n      dup2\n      mstore\n      0x20\n      add\n      0x00\n      keccak256\n        /* \"contract.sol\":3831:3858  tickets[ticketIds[i]].owner */\n      0x01\n      add\n      0x00\n      swap1\n      sload\n      swap1\n      0x0100\n      exp\n      swap1\n      div\n      0xffffffffffffffffffffffffffffffffffffffff\n      and\n        /* \"contract.sol\":3831:3866  tickets[ticketIds[i]].owner == user */\n      0xffffffffffffffffffffffffffffffffffffffff\n      and\n      sub\n        /* \"contract.sol\":3827:3968  if (tickets[ticketIds[i]].owner == user) {... */\n      tag_166\n      jumpi\n        /* \"contract.sol\":3907:3914  tickets */\n      0x01\n        /* \"contract.sol\":3907:3928  tickets[ticketIds[i]] */\n      0x00\n        /* \"contract.sol\":3915:3924  ticketIds */\n      0x03\n        /* \"contract.sol\":3925:3926  i */\n      dup4\n        /* \"contract.sol\":3915:3927  ticketIds[i] */\n      dup2\n      sload\n      dup2\n      lt\n      tag_167\n      jumpi\n      tag_168\n      tag_76\n      jump\t// in\n    tag_168:\n    tag_167:\n      swap1\n      0x00\n      mstore\n      keccak256(0x00, 0x20)\n      add\n      sload\n        /* \"contract.sol\":3907:3928  tickets[ticketIds[i]] */\n      dup2\n      mstore\n      0x20\n      add\n      swap1\n      dup2\n      mstore\n      0x20\n      add\n      0x00\n      keccak256\n        /* \"contract.sol\":3886:3928  userTickets[index] = tickets[ticketIds[i]] */\n      mload(0x40)\n      dup1\n      0x80\n      add\n      0x40\n      mstore\n      swap1\n      dup2\n      0x00\n      dup3\n      add\n      sload\n      dup2\n      mstore\n      0x20\n      add\n      0x01\n      dup3\n      add\n      0x00\n      swap1\n      sload\n      swap1\n      0x0100\n      exp\n      swap1\n      div\n      0xffffffffffffffffffffffffffffffffffffffff\n      and\n      0xffffffffffffffffffffffffffffffffffffffff\n      and\n      0xffffffffffffffffffffffffffffffffffffffff\n      and\n      dup2\n      mstore\n      0x20\n      add\n      0x02\n      dup3\n      add\n      sload\n      dup2\n      mstore\n      0x20\n      add\n      0x03\n      dup3\n      add\n      0x00\n      swap1\n      sload\n      swap1\n      0x0100\n      exp\n      swap1\n      div\n      0xff\n      and\n      iszero\n      iszero\n      iszero\n      iszero\n      dup2\n      mstore\n      pop\n      pop\n        /* \"contract.sol\":3886:3897  userTickets */\n      dup4\n        /* \"contract.sol\":3898:3903  index */\n      dup4\n        /* \"contract.sol\":3886:3904  userTickets[index] */\n      dup2\n      mload\n      dup2\n      lt\n      tag_170\n      jumpi\n      tag_171\n      tag_76\n      jump\t// in\n    tag_171:\n    tag_170:\n      0x20\n      mul\n      0x20\n      add\n      add\n        /* \"contract.sol\":3886:3928  userTickets[index] = tickets[ticketIds[i]] */\n      dup2\n      swap1\n      mstore\n      pop\n        /* \"contract.sol\":3946:3953  index++ */\n      dup2\n      dup1\n      tag_172\n      swap1\n      tag_81\n      jump\t// in\n    tag_172:\n      swap3\n      pop\n      pop\n        /* \"contract.sol\":3827:3968  if (tickets[ticketIds[i]].owner == user) {... */\n    tag_166:\n        /* \"contract.sol\":3808:3811  i++ */\n      dup1\n      dup1\n      0x01\n      add\n      swap2\n      pop\n      pop\n        /* \"contract.sol\":3766:3978  for (uint256 i = 0; i < ticketIds.length; i++) {... */\n      jump(tag_160)\n    tag_161:\n      pop\n        /* \"contract.sol\":3994:4005  userTickets */\n      dup2\n        /* \"contract.sol\":3987:4005  return userTickets */\n      swap4\n      pop\n      pop\n      pop\n      pop\n        /* \"contract.sol\":3401:4012  function getTicketsByUser(address user) external view returns (Ticket[] memory) {... */\n      swap2\n      swap1\n      pop\n      jump\t// out\n        /* \"contract.sol\":90:110  address public admin */\n    tag_67:\n      0x00\n      dup1\n      sload\n      swap1\n      0x0100\n      exp\n      swap1\n      div\n      0xffffffffffffffffffffffffffffffffffffffff\n      and\n      dup2\n      jump\t// out\n    tag_88:\n      mload(0x40)\n      dup1\n      0xc0\n      add\n      0x40\n      mstore\n      dup1\n      0x00\n      dup2\n      mstore\n      0x20\n      add\n      and(0xffffffffffffffffffffffffffffffffffffffff, 0x00)\n      dup2\n      mstore\n      0x20\n      add\n      and(0xffffffffffffffffffffffffffffffffffffffff, 0x00)\n      dup2\n      mstore\n      0x20\n      add\n      0x00\n      dup2\n      mstore\n      0x20\n      add\n      iszero(iszero(0x00))\n      dup2\n      mstore\n      0x20\n      add\n      0x00\n      dup1\n      not\n      and\n      dup2\n      mstore\n      pop\n      swap1\n      jump\t// out\n    tag_144:\n      mload(0x40)\n      dup1\n      0x80\n      add\n      0x40\n      mstore\n      dup1\n      0x00\n      dup2\n      mstore\n      0x20\n      add\n      and(0xffffffffffffffffffffffffffffffffffffffff, 0x00)\n      dup2\n      mstore\n      0x20\n      add\n      0x00\n      dup2\n      mstore\n      0x20\n      add\n      iszero(iszero(0x00))\n      dup2\n      mstore\n      pop\n      swap1\n      jump\t// out\n        /* \"#utility.yul\":88:205   */\n    tag_174:\n        /* \"#utility.yul\":197:198   */\n      0x00\n        /* \"#utility.yul\":194:195   */\n      dup1\n        /* \"#utility.yul\":187:199   */\n      revert\n        /* \"#utility.yul\":334:460   */\n    tag_176:\n        /* \"#utility.yul\":371:378   */\n      0x00\n        /* \"#utility.yul\":411:453   */\n      0xffffffffffffffffffffffffffffffffffffffff\n        /* \"#utility.yul\":404:409   */\n      dup3\n        /* \"#utility.yul\":400:454   */\n      and\n        /* \"#utility.yul\":389:454   */\n      swap1\n      pop\n        /* \"#utility.yul\":334:460   */\n      swap2\n      swap1\n      pop\n      jump\t// out\n        /* \"#utility.yul\":466:562   */\n    tag_177:\n        /* \"#utility.yul\":503:510   */\n      0x00\n        /* \"#utility.yul\":532:556   */\n      tag_241\n        /* \"#utility.yul\":550:555   */\n      dup3\n        /* \"#utility.yul\":532:556   */\n      tag_176\n      jump\t// in\n    tag_241:\n        /* \"#utility.yul\":521:556   */\n      swap1\n      pop\n        /* \"#utility.yul\":466:562   */\n      swap2\n      swap1\n      pop\n      jump\t// out\n        /* \"#utility.yul\":568:690   */\n    tag_178:\n        /* \"#utility.yul\":641:665   */\n      tag_243\n        /* \"#utility.yul\":659:664   */\n      dup2\n        /* \"#utility.yul\":641:665   */\n      tag_177\n      jump\t// in\n    tag_243:\n        /* \"#utility.yul\":634:639   */\n      dup2\n        /* \"#utility.yul\":631:666   */\n      eq\n        /* \"#utility.yul\":621:684   */\n      tag_244\n      jumpi\n        /* \"#utility.yul\":680:681   */\n      0x00\n        /* \"#utility.yul\":677:678   */\n      dup1\n        /* \"#utility.yul\":670:682   */\n      revert\n        /* \"#utility.yul\":621:684   */\n    tag_244:\n        /* \"#utility.yul\":568:690   */\n      pop\n      jump\t// out\n        /* \"#utility.yul\":696:835   */\n    tag_179:\n        /* \"#utility.yul\":742:747   */\n      0x00\n        /* \"#utility.yul\":780:786   */\n      dup2\n        /* \"#utility.yul\":767:787   */\n      calldataload\n        /* \"#utility.yul\":758:787   */\n      swap1\n      pop\n        /* \"#utility.yul\":796:829   */\n      tag_246\n        /* \"#utility.yul\":823:828   */\n      dup2\n        /* \"#utility.yul\":796:829   */\n      tag_178\n      jump\t// in\n    tag_246:\n        /* \"#utility.yul\":696:835   */\n      swap3\n      swap2\n      pop\n      pop\n      jump\t// out\n        /* \"#utility.yul\":841:1170   */\n    tag_16:\n        /* \"#utility.yul\":900:906   */\n      0x00\n        /* \"#utility.yul\":949:951   */\n      0x20\n        /* \"#utility.yul\":937:946   */\n      dup3\n        /* \"#utility.yul\":928:935   */\n      dup5\n        /* \"#utility.yul\":924:947   */\n      sub\n        /* \"#utility.yul\":920:952   */\n      slt\n        /* \"#utility.yul\":917:1036   */\n      iszero\n      tag_248\n      jumpi\n        /* \"#utility.yul\":955:1034   */\n      tag_249\n      tag_174\n      jump\t// in\n    tag_249:\n        /* \"#utility.yul\":917:1036   */\n    tag_248:\n        /* \"#utility.yul\":1075:1076   */\n      0x00\n        /* \"#utility.yul\":1100:1153   */\n      tag_250\n        /* \"#utility.yul\":1145:1152   */\n      dup5\n        /* \"#utility.yul\":1136:1142   */\n      dup3\n        /* \"#utility.yul\":1125:1134   */\n      dup6\n        /* \"#utility.yul\":1121:1143   */\n      add\n        /* \"#utility.yul\":1100:1153   */\n      tag_179\n      jump\t// in\n    tag_250:\n        /* \"#utility.yul\":1090:1153   */\n      swap2\n      pop\n        /* \"#utility.yul\":1046:1163   */\n      pop\n        /* \"#utility.yul\":841:1170   */\n      swap3\n      swap2\n      pop\n      pop\n      jump\t// out\n        /* \"#utility.yul\":1176:1317   */\n    tag_180:\n        /* \"#utility.yul\":1270:1276   */\n      0x00\n        /* \"#utility.yul\":1304:1309   */\n      dup2\n        /* \"#utility.yul\":1298:1310   */\n      mload\n        /* \"#utility.yul\":1288:1310   */\n      swap1\n      pop\n        /* \"#utility.yul\":1176:1317   */\n      swap2\n      swap1\n      pop\n      jump\t// out\n        /* \"#utility.yul\":1323:1534   */\n    tag_181:\n        /* \"#utility.yul\":1449:1460   */\n      0x00\n        /* \"#utility.yul\":1483:1489   */\n      dup3\n        /* \"#utility.yul\":1478:1481   */\n      dup3\n        /* \"#utility.yul\":1471:1490   */\n      mstore\n        /* \"#utility.yul\":1523:1527   */\n      0x20\n        /* \"#utility.yul\":1518:1521   */\n      dup3\n        /* \"#utility.yul\":1514:1528   */\n      add\n        /* \"#utility.yul\":1499:1528   */\n      swap1\n      pop\n        /* \"#utility.yul\":1323:1534   */\n      swap3\n      swap2\n      pop\n      pop\n      jump\t// out\n        /* \"#utility.yul\":1540:1699   */\n    tag_182:\n        /* \"#utility.yul\":1634:1638   */\n      0x00\n        /* \"#utility.yul\":1657:1660   */\n      dup2\n        /* \"#utility.yul\":1649:1660   */\n      swap1\n      pop\n        /* \"#utility.yul\":1687:1691   */\n      0x20\n        /* \"#utility.yul\":1682:1685   */\n      dup3\n        /* \"#utility.yul\":1678:1692   */\n      add\n        /* \"#utility.yul\":1670:1692   */\n      swap1\n      pop\n        /* \"#utility.yul\":1540:1699   */\n      swap2\n      swap1\n      pop\n      jump\t// out\n        /* \"#utility.yul\":1705:1782   */\n    tag_183:\n        /* \"#utility.yul\":1742:1749   */\n      0x00\n        /* \"#utility.yul\":1771:1776   */\n      dup2\n        /* \"#utility.yul\":1760:1776   */\n      swap1\n      pop\n        /* \"#utility.yul\":1705:1782   */\n      swap2\n      swap1\n      pop\n      jump\t// out\n        /* \"#utility.yul\":1788:1896   */\n    tag_184:\n        /* \"#utility.yul\":1865:1889   */\n      tag_256\n        /* \"#utility.yul\":1883:1888   */\n      dup2\n        /* \"#utility.yul\":1865:1889   */\n      tag_183\n      jump\t// in\n    tag_256:\n        /* \"#utility.yul\":1860:1863   */\n      dup3\n        /* \"#utility.yul\":1853:1890   */\n      mstore\n        /* \"#utility.yul\":1788:1896   */\n      pop\n      pop\n      jump\t// out\n        /* \"#utility.yul\":1902:2010   */\n    tag_185:\n        /* \"#utility.yul\":1979:2003   */\n      tag_258\n        /* \"#utility.yul\":1997:2002   */\n      dup2\n        /* \"#utility.yul\":1979:2003   */\n      tag_177\n      jump\t// in\n    tag_258:\n        /* \"#utility.yul\":1974:1977   */\n      dup3\n        /* \"#utility.yul\":1967:2004   */\n      mstore\n        /* \"#utility.yul\":1902:2010   */\n      pop\n      pop\n      jump\t// out\n        /* \"#utility.yul\":2016:2106   */\n    tag_186:\n        /* \"#utility.yul\":2050:2057   */\n      0x00\n        /* \"#utility.yul\":2093:2098   */\n      dup2\n        /* \"#utility.yul\":2086:2099   */\n      iszero\n        /* \"#utility.yul\":2079:2100   */\n      iszero\n        /* \"#utility.yul\":2068:2100   */\n      swap1\n      pop\n        /* \"#utility.yul\":2016:2106   */\n      swap2\n      swap1\n      pop\n      jump\t// out\n        /* \"#utility.yul\":2112:2211   */\n    tag_187:\n        /* \"#utility.yul\":2183:2204   */\n      tag_261\n        /* \"#utility.yul\":2198:2203   */\n      dup2\n        /* \"#utility.yul\":2183:2204   */\n      tag_186\n      jump\t// in\n    tag_261:\n        /* \"#utility.yul\":2178:2181   */\n      dup3\n        /* \"#utility.yul\":2171:2205   */\n      mstore\n        /* \"#utility.yul\":2112:2211   */\n      pop\n      pop\n      jump\t// out\n        /* \"#utility.yul\":2217:2294   */\n    tag_188:\n        /* \"#utility.yul\":2254:2261   */\n      0x00\n        /* \"#utility.yul\":2283:2288   */\n      dup2\n        /* \"#utility.yul\":2272:2288   */\n      swap1\n      pop\n        /* \"#utility.yul\":2217:2294   */\n      swap2\n      swap1\n      pop\n      jump\t// out\n        /* \"#utility.yul\":2300:2408   */\n    tag_189:\n        /* \"#utility.yul\":2377:2401   */\n      tag_264\n        /* \"#utility.yul\":2395:2400   */\n      dup2\n        /* \"#utility.yul\":2377:2401   */\n      tag_188\n      jump\t// in\n    tag_264:\n        /* \"#utility.yul\":2372:2375   */\n      dup3\n        /* \"#utility.yul\":2365:2402   */\n      mstore\n        /* \"#utility.yul\":2300:2408   */\n      pop\n      pop\n      jump\t// out\n        /* \"#utility.yul\":2498:3704   */\n    tag_190:\n        /* \"#utility.yul\":2639:2643   */\n      0xc0\n        /* \"#utility.yul\":2634:2637   */\n      dup3\n        /* \"#utility.yul\":2630:2644   */\n      add\n        /* \"#utility.yul\":2730:2734   */\n      0x00\n        /* \"#utility.yul\":2723:2728   */\n      dup3\n        /* \"#utility.yul\":2719:2735   */\n      add\n        /* \"#utility.yul\":2713:2736   */\n      mload\n        /* \"#utility.yul\":2749:2812   */\n      tag_266\n        /* \"#utility.yul\":2806:2810   */\n      0x00\n        /* \"#utility.yul\":2801:2804   */\n      dup6\n        /* \"#utility.yul\":2797:2811   */\n      add\n        /* \"#utility.yul\":2783:2795   */\n      dup3\n        /* \"#utility.yul\":2749:2812   */\n      tag_184\n      jump\t// in\n    tag_266:\n        /* \"#utility.yul\":2654:2822   */\n      pop\n        /* \"#utility.yul\":2905:2909   */\n      0x20\n        /* \"#utility.yul\":2898:2903   */\n      dup3\n        /* \"#utility.yul\":2894:2910   */\n      add\n        /* \"#utility.yul\":2888:2911   */\n      mload\n        /* \"#utility.yul\":2924:2987   */\n      tag_267\n        /* \"#utility.yul\":2981:2985   */\n      0x20\n        /* \"#utility.yul\":2976:2979   */\n      dup6\n        /* \"#utility.yul\":2972:2986   */\n      add\n        /* \"#utility.yul\":2958:2970   */\n      dup3\n        /* \"#utility.yul\":2924:2987   */\n      tag_185\n      jump\t// in\n    tag_267:\n        /* \"#utility.yul\":2832:2997   */\n      pop\n        /* \"#utility.yul\":3081:3085   */\n      0x40\n        /* \"#utility.yul\":3074:3079   */\n      dup3\n        /* \"#utility.yul\":3070:3086   */\n      add\n        /* \"#utility.yul\":3064:3087   */\n      mload\n        /* \"#utility.yul\":3100:3163   */\n      tag_268\n        /* \"#utility.yul\":3157:3161   */\n      0x40\n        /* \"#utility.yul\":3152:3155   */\n      dup6\n        /* \"#utility.yul\":3148:3162   */\n      add\n        /* \"#utility.yul\":3134:3146   */\n      dup3\n        /* \"#utility.yul\":3100:3163   */\n      tag_185\n      jump\t// in\n    tag_268:\n        /* \"#utility.yul\":3007:3173   */\n      pop\n        /* \"#utility.yul\":3256:3260   */\n      0x60\n        /* \"#utility.yul\":3249:3254   */\n      dup3\n        /* \"#utility.yul\":3245:3261   */\n      add\n        /* \"#utility.yul\":3239:3262   */\n      mload\n        /* \"#utility.yul\":3275:3338   */\n      tag_269\n        /* \"#utility.yul\":3332:3336   */\n      0x60\n        /* \"#utility.yul\":3327:3330   */\n      dup6\n        /* \"#utility.yul\":3323:3337   */\n      add\n        /* \"#utility.yul\":3309:3321   */\n      dup3\n        /* \"#utility.yul\":3275:3338   */\n      tag_184\n      jump\t// in\n    tag_269:\n        /* \"#utility.yul\":3183:3348   */\n      pop\n        /* \"#utility.yul\":3437:3441   */\n      0x80\n        /* \"#utility.yul\":3430:3435   */\n      dup3\n        /* \"#utility.yul\":3426:3442   */\n      add\n        /* \"#utility.yul\":3420:3443   */\n      mload\n        /* \"#utility.yul\":3456:3513   */\n      tag_270\n        /* \"#utility.yul\":3507:3511   */\n      0x80\n        /* \"#utility.yul\":3502:3505   */\n      dup6\n        /* \"#utility.yul\":3498:3512   */\n      add\n        /* \"#utility.yul\":3484:3496   */\n      dup3\n        /* \"#utility.yul\":3456:3513   */\n      tag_187\n      jump\t// in\n    tag_270:\n        /* \"#utility.yul\":3358:3523   */\n      pop\n        /* \"#utility.yul\":3605:3609   */\n      0xa0\n        /* \"#utility.yul\":3598:3603   */\n      dup3\n        /* \"#utility.yul\":3594:3610   */\n      add\n        /* \"#utility.yul\":3588:3611   */\n      mload\n        /* \"#utility.yul\":3624:3687   */\n      tag_271\n        /* \"#utility.yul\":3681:3685   */\n      0xa0\n        /* \"#utility.yul\":3676:3679   */\n      dup6\n        /* \"#utility.yul\":3672:3686   */\n      add\n        /* \"#utility.yul\":3658:3670   */\n      dup3\n        /* \"#utility.yul\":3624:3687   */\n      tag_189\n      jump\t// in\n    tag_271:\n        /* \"#utility.yul\":3533:3697   */\n      pop\n        /* \"#utility.yul\":2608:3704   */\n      pop\n        /* \"#utility.yul\":2498:3704   */\n      pop\n      pop\n      jump\t// out\n        /* \"#utility.yul\":3710:3997   */\n    tag_191:\n        /* \"#utility.yul\":3833:3843   */\n      0x00\n        /* \"#utility.yul\":3854:3954   */\n      tag_273\n        /* \"#utility.yul\":3950:3953   */\n      dup4\n        /* \"#utility.yul\":3942:3948   */\n      dup4\n        /* \"#utility.yul\":3854:3954   */\n      tag_190\n      jump\t// in\n    tag_273:\n        /* \"#utility.yul\":3986:3990   */\n      0xc0\n        /* \"#utility.yul\":3981:3984   */\n      dup4\n        /* \"#utility.yul\":3977:3991   */\n      add\n        /* \"#utility.yul\":3963:3991   */\n      swap1\n      pop\n        /* \"#utility.yul\":3710:3997   */\n      swap3\n      swap2\n      pop\n      pop\n      jump\t// out\n        /* \"#utility.yul\":4003:4143   */\n    tag_192:\n        /* \"#utility.yul\":4100:4104   */\n      0x00\n        /* \"#utility.yul\":4132:4136   */\n      0x20\n        /* \"#utility.yul\":4127:4130   */\n      dup3\n        /* \"#utility.yul\":4123:4137   */\n      add\n        /* \"#utility.yul\":4115:4137   */\n      swap1\n      pop\n        /* \"#utility.yul\":4003:4143   */\n      swap2\n      swap1\n      pop\n      jump\t// out\n        /* \"#utility.yul\":4237:5185   */\n    tag_193:\n        /* \"#utility.yul\":4410:4413   */\n      0x00\n        /* \"#utility.yul\":4439:4520   */\n      tag_276\n        /* \"#utility.yul\":4514:4519   */\n      dup3\n        /* \"#utility.yul\":4439:4520   */\n      tag_180\n      jump\t// in\n    tag_276:\n        /* \"#utility.yul\":4536:4649   */\n      tag_277\n        /* \"#utility.yul\":4642:4648   */\n      dup2\n        /* \"#utility.yul\":4637:4640   */\n      dup6\n        /* \"#utility.yul\":4536:4649   */\n      tag_181\n      jump\t// in\n    tag_277:\n        /* \"#utility.yul\":4529:4649   */\n      swap4\n      pop\n        /* \"#utility.yul\":4673:4756   */\n      tag_278\n        /* \"#utility.yul\":4750:4755   */\n      dup4\n        /* \"#utility.yul\":4673:4756   */\n      tag_182\n      jump\t// in\n    tag_278:\n        /* \"#utility.yul\":4779:4786   */\n      dup1\n        /* \"#utility.yul\":4810:4811   */\n      0x00\n        /* \"#utility.yul\":4795:5160   */\n    tag_279:\n        /* \"#utility.yul\":4820:4826   */\n      dup4\n        /* \"#utility.yul\":4817:4818   */\n      dup2\n        /* \"#utility.yul\":4814:4827   */\n      lt\n        /* \"#utility.yul\":4795:5160   */\n      iszero\n      tag_281\n      jumpi\n        /* \"#utility.yul\":4896:4902   */\n      dup2\n        /* \"#utility.yul\":4890:4903   */\n      mload\n        /* \"#utility.yul\":4923:5040   */\n      tag_282\n        /* \"#utility.yul\":5036:5039   */\n      dup9\n        /* \"#utility.yul\":5021:5034   */\n      dup3\n        /* \"#utility.yul\":4923:5040   */\n      tag_191\n      jump\t// in\n    tag_282:\n        /* \"#utility.yul\":4916:5040   */\n      swap8\n      pop\n        /* \"#utility.yul\":5063:5150   */\n      tag_283\n        /* \"#utility.yul\":5143:5149   */\n      dup4\n        /* \"#utility.yul\":5063:5150   */\n      tag_192\n      jump\t// in\n    tag_283:\n        /* \"#utility.yul\":5053:5150   */\n      swap3\n      pop\n        /* \"#utility.yul\":4855:5160   */\n      pop\n        /* \"#utility.yul\":4842:4843   */\n      0x01\n        /* \"#utility.yul\":4839:4840   */\n      dup2\n        /* \"#utility.yul\":4835:4844   */\n      add\n        /* \"#utility.yul\":4830:4844   */\n      swap1\n      pop\n        /* \"#utility.yul\":4795:5160   */\n      jump(tag_279)\n    tag_281:\n        /* \"#utility.yul\":4799:4813   */\n      pop\n        /* \"#utility.yul\":5176:5179   */\n      dup6\n        /* \"#utility.yul\":5169:5179   */\n      swap4\n      pop\n        /* \"#utility.yul\":4415:5185   */\n      pop\n      pop\n      pop\n        /* \"#utility.yul\":4237:5185   */\n      swap3\n      swap2\n      pop\n      pop\n      jump\t// out\n        /* \"#utility.yul\":5191:5672   */\n    tag_19:\n        /* \"#utility.yul\":5388:5392   */\n      0x00\n        /* \"#utility.yul\":5426:5428   */\n      0x20\n        /* \"#utility.yul\":5415:5424   */\n      dup3\n        /* \"#utility.yul\":5411:5429   */\n      add\n        /* \"#utility.yul\":5403:5429   */\n      swap1\n      pop\n        /* \"#utility.yul\":5475:5484   */\n      dup2\n        /* \"#utility.yul\":5469:5473   */\n      dup2\n        /* \"#utility.yul\":5465:5485   */\n      sub\n        /* \"#utility.yul\":5461:5462   */\n      0x00\n        /* \"#utility.yul\":5450:5459   */\n      dup4\n        /* \"#utility.yul\":5446:5463   */\n      add\n        /* \"#utility.yul\":5439:5486   */\n      mstore\n        /* \"#utility.yul\":5503:5665   */\n      tag_285\n        /* \"#utility.yul\":5660:5664   */\n      dup2\n        /* \"#utility.yul\":5651:5657   */\n      dup5\n        /* \"#utility.yul\":5503:5665   */\n      tag_193\n      jump\t// in\n    tag_285:\n        /* \"#utility.yul\":5495:5665   */\n      swap1\n      pop\n        /* \"#utility.yul\":5191:5672   */\n      swap3\n      swap2\n      pop\n      pop\n      jump\t// out\n        /* \"#utility.yul\":5678:5800   */\n    tag_194:\n        /* \"#utility.yul\":5751:5775   */\n      tag_287\n        /* \"#utility.yul\":5769:5774   */\n      dup2\n        /* \"#utility.yul\":5751:5775   */\n      tag_183\n      jump\t// in\n    tag_287:\n        /* \"#utility.yul\":5744:5749   */\n      dup2\n        /* \"#utility.yul\":5741:5776   */\n      eq\n        /* \"#utility.yul\":5731:5794   */\n      tag_288\n      jumpi\n        /* \"#utility.yul\":5790:5791   */\n      0x00\n        /* \"#utility.yul\":5787:5788   */\n      dup1\n        /* \"#utility.yul\":5780:5792   */\n      revert\n        /* \"#utility.yul\":5731:5794   */\n    tag_288:\n        /* \"#utility.yul\":5678:5800   */\n      pop\n      jump\t// out\n        /* \"#utility.yul\":5806:5945   */\n    tag_195:\n        /* \"#utility.yul\":5852:5857   */\n      0x00\n        /* \"#utility.yul\":5890:5896   */\n      dup2\n        /* \"#utility.yul\":5877:5897   */\n      calldataload\n        /* \"#utility.yul\":5868:5897   */\n      swap1\n      pop\n        /* \"#utility.yul\":5906:5939   */\n      tag_290\n        /* \"#utility.yul\":5933:5938   */\n      dup2\n        /* \"#utility.yul\":5906:5939   */\n      tag_194\n      jump\t// in\n    tag_290:\n        /* \"#utility.yul\":5806:5945   */\n      swap3\n      swap2\n      pop\n      pop\n      jump\t// out\n        /* \"#utility.yul\":5951:6425   */\n    tag_23:\n        /* \"#utility.yul\":6019:6025   */\n      0x00\n        /* \"#utility.yul\":6027:6033   */\n      dup1\n        /* \"#utility.yul\":6076:6078   */\n      0x40\n        /* \"#utility.yul\":6064:6073   */\n      dup4\n        /* \"#utility.yul\":6055:6062   */\n      dup6\n        /* \"#utility.yul\":6051:6074   */\n      sub\n        /* \"#utility.yul\":6047:6079   */\n      slt\n        /* \"#utility.yul\":6044:6163   */\n      iszero\n      tag_292\n      jumpi\n        /* \"#utility.yul\":6082:6161   */\n      tag_293\n      tag_174\n      jump\t// in\n    tag_293:\n        /* \"#utility.yul\":6044:6163   */\n    tag_292:\n        /* \"#utility.yul\":6202:6203   */\n      0x00\n        /* \"#utility.yul\":6227:6280   */\n      tag_294\n        /* \"#utility.yul\":6272:6279   */\n      dup6\n        /* \"#utility.yul\":6263:6269   */\n      dup3\n        /* \"#utility.yul\":6252:6261   */\n      dup7\n        /* \"#utility.yul\":6248:6270   */\n      add\n        /* \"#utility.yul\":6227:6280   */\n      tag_195\n      jump\t// in\n    tag_294:\n        /* \"#utility.yul\":6217:6280   */\n      swap3\n      pop\n        /* \"#utility.yul\":6173:6290   */\n      pop\n        /* \"#utility.yul\":6329:6331   */\n      0x20\n        /* \"#utility.yul\":6355:6408   */\n      tag_295\n        /* \"#utility.yul\":6400:6407   */\n      dup6\n        /* \"#utility.yul\":6391:6397   */\n      dup3\n        /* \"#utility.yul\":6380:6389   */\n      dup7\n        /* \"#utility.yul\":6376:6398   */\n      add\n        /* \"#utility.yul\":6355:6408   */\n      tag_195\n      jump\t// in\n    tag_295:\n        /* \"#utility.yul\":6345:6408   */\n      swap2\n      pop\n        /* \"#utility.yul\":6300:6418   */\n      pop\n        /* \"#utility.yul\":5951:6425   */\n      swap3\n      pop\n      swap3\n      swap1\n      pop\n      jump\t// out\n        /* \"#utility.yul\":6431:6553   */\n    tag_196:\n        /* \"#utility.yul\":6504:6528   */\n      tag_297\n        /* \"#utility.yul\":6522:6527   */\n      dup2\n        /* \"#utility.yul\":6504:6528   */\n      tag_188\n      jump\t// in\n    tag_297:\n        /* \"#utility.yul\":6497:6502   */\n      dup2\n        /* \"#utility.yul\":6494:6529   */\n      eq\n        /* \"#utility.yul\":6484:6547   */\n      tag_298\n      jumpi\n        /* \"#utility.yul\":6543:6544   */\n      0x00\n        /* \"#utility.yul\":6540:6541   */\n      dup1\n        /* \"#utility.yul\":6533:6545   */\n      revert\n        /* \"#utility.yul\":6484:6547   */\n    tag_298:\n        /* \"#utility.yul\":6431:6553   */\n      pop\n      jump\t// out\n        /* \"#utility.yul\":6559:6698   */\n    tag_197:\n        /* \"#utility.yul\":6605:6610   */\n      0x00\n        /* \"#utility.yul\":6643:6649   */\n      dup2\n        /* \"#utility.yul\":6630:6650   */\n      calldataload\n        /* \"#utility.yul\":6621:6650   */\n      swap1\n      pop\n        /* \"#utility.yul\":6659:6692   */\n      tag_300\n        /* \"#utility.yul\":6686:6691   */\n      dup2\n        /* \"#utility.yul\":6659:6692   */\n      tag_196\n      jump\t// in\n    tag_300:\n        /* \"#utility.yul\":6559:6698   */\n      swap3\n      swap2\n      pop\n      pop\n      jump\t// out\n        /* \"#utility.yul\":6704:7033   */\n    tag_27:\n        /* \"#utility.yul\":6763:6769   */\n      0x00\n        /* \"#utility.yul\":6812:6814   */\n      0x20\n        /* \"#utility.yul\":6800:6809   */\n      dup3\n        /* \"#utility.yul\":6791:6798   */\n      dup5\n        /* \"#utility.yul\":6787:6810   */\n      sub\n        /* \"#utility.yul\":6783:6815   */\n      slt\n        /* \"#utility.yul\":6780:6899   */\n      iszero\n      tag_302\n      jumpi\n        /* \"#utility.yul\":6818:6897   */\n      tag_303\n      tag_174\n      jump\t// in\n    tag_303:\n        /* \"#utility.yul\":6780:6899   */\n    tag_302:\n        /* \"#utility.yul\":6938:6939   */\n      0x00\n        /* \"#utility.yul\":6963:7016   */\n      tag_304\n        /* \"#utility.yul\":7008:7015   */\n      dup5\n        /* \"#utility.yul\":6999:7005   */\n      dup3\n        /* \"#utility.yul\":6988:6997   */\n      dup6\n        /* \"#utility.yul\":6984:7006   */\n      add\n        /* \"#utility.yul\":6963:7016   */\n      tag_197\n      jump\t// in\n    tag_304:\n        /* \"#utility.yul\":6953:7016   */\n      swap2\n      pop\n        /* \"#utility.yul\":6909:7026   */\n      pop\n        /* \"#utility.yul\":6704:7033   */\n      swap3\n      swap2\n      pop\n      pop\n      jump\t// out\n        /* \"#utility.yul\":7123:8339   */\n    tag_198:\n        /* \"#utility.yul\":7274:7278   */\n      0xc0\n        /* \"#utility.yul\":7269:7272   */\n      dup3\n        /* \"#utility.yul\":7265:7279   */\n      add\n        /* \"#utility.yul\":7365:7369   */\n      0x00\n        /* \"#utility.yul\":7358:7363   */\n      dup3\n        /* \"#utility.yul\":7354:7370   */\n      add\n        /* \"#utility.yul\":7348:7371   */\n      mload\n        /* \"#utility.yul\":7384:7447   */\n      tag_306\n        /* \"#utility.yul\":7441:7445   */\n      0x00\n        /* \"#utility.yul\":7436:7439   */\n      dup6\n        /* \"#utility.yul\":7432:7446   */\n      add\n        /* \"#utility.yul\":7418:7430   */\n      dup3\n        /* \"#utility.yul\":7384:7447   */\n      tag_184\n      jump\t// in\n    tag_306:\n        /* \"#utility.yul\":7289:7457   */\n      pop\n        /* \"#utility.yul\":7540:7544   */\n      0x20\n        /* \"#utility.yul\":7533:7538   */\n      dup3\n        /* \"#utility.yul\":7529:7545   */\n      add\n        /* \"#utility.yul\":7523:7546   */\n      mload\n        /* \"#utility.yul\":7559:7622   */\n      tag_307\n        /* \"#utility.yul\":7616:7620   */\n      0x20\n        /* \"#utility.yul\":7611:7614   */\n      dup6\n        /* \"#utility.yul\":7607:7621   */\n      add\n        /* \"#utility.yul\":7593:7605   */\n      dup3\n        /* \"#utility.yul\":7559:7622   */\n      tag_185\n      jump\t// in\n    tag_307:\n        /* \"#utility.yul\":7467:7632   */\n      pop\n        /* \"#utility.yul\":7716:7720   */\n      0x40\n        /* \"#utility.yul\":7709:7714   */\n      dup3\n        /* \"#utility.yul\":7705:7721   */\n      add\n        /* \"#utility.yul\":7699:7722   */\n      mload\n        /* \"#utility.yul\":7735:7798   */\n      tag_308\n        /* \"#utility.yul\":7792:7796   */\n      0x40\n        /* \"#utility.yul\":7787:7790   */\n      dup6\n        /* \"#utility.yul\":7783:7797   */\n      add\n        /* \"#utility.yul\":7769:7781   */\n      dup3\n        /* \"#utility.yul\":7735:7798   */\n      tag_185\n      jump\t// in\n    tag_308:\n        /* \"#utility.yul\":7642:7808   */\n      pop\n        /* \"#utility.yul\":7891:7895   */\n      0x60\n        /* \"#utility.yul\":7884:7889   */\n      dup3\n        /* \"#utility.yul\":7880:7896   */\n      add\n        /* \"#utility.yul\":7874:7897   */\n      mload\n        /* \"#utility.yul\":7910:7973   */\n      tag_309\n        /* \"#utility.yul\":7967:7971   */\n      0x60\n        /* \"#utility.yul\":7962:7965   */\n      dup6\n        /* \"#utility.yul\":7958:7972   */\n      add\n        /* \"#utility.yul\":7944:7956   */\n      dup3\n        /* \"#utility.yul\":7910:7973   */\n      tag_184\n      jump\t// in\n    tag_309:\n        /* \"#utility.yul\":7818:7983   */\n      pop\n        /* \"#utility.yul\":8072:8076   */\n      0x80\n        /* \"#utility.yul\":8065:8070   */\n      dup3\n        /* \"#utility.yul\":8061:8077   */\n      add\n        /* \"#utility.yul\":8055:8078   */\n      mload\n        /* \"#utility.yul\":8091:8148   */\n      tag_310\n        /* \"#utility.yul\":8142:8146   */\n      0x80\n        /* \"#utility.yul\":8137:8140   */\n      dup6\n        /* \"#utility.yul\":8133:8147   */\n      add\n        /* \"#utility.yul\":8119:8131   */\n      dup3\n        /* \"#utility.yul\":8091:8148   */\n      tag_187\n      jump\t// in\n    tag_310:\n        /* \"#utility.yul\":7993:8158   */\n      pop\n        /* \"#utility.yul\":8240:8244   */\n      0xa0\n        /* \"#utility.yul\":8233:8238   */\n      dup3\n        /* \"#utility.yul\":8229:8245   */\n      add\n        /* \"#utility.yul\":8223:8246   */\n      mload\n        /* \"#utility.yul\":8259:8322   */\n      tag_311\n        /* \"#utility.yul\":8316:8320   */\n      0xa0\n        /* \"#utility.yul\":8311:8314   */\n      dup6\n        /* \"#utility.yul\":8307:8321   */\n      add\n        /* \"#utility.yul\":8293:8305   */\n      dup3\n        /* \"#utility.yul\":8259:8322   */\n      tag_189\n      jump\t// in\n    tag_311:\n        /* \"#utility.yul\":8168:8332   */\n      pop\n        /* \"#utility.yul\":7243:8339   */\n      pop\n        /* \"#utility.yul\":7123:8339   */\n      pop\n      pop\n      jump\t// out\n        /* \"#utility.yul\":8345:8676   */\n    tag_34:\n        /* \"#utility.yul\":8492:8496   */\n      0x00\n        /* \"#utility.yul\":8530:8533   */\n      0xc0\n        /* \"#utility.yul\":8519:8528   */\n      dup3\n        /* \"#utility.yul\":8515:8534   */\n      add\n        /* \"#utility.yul\":8507:8534   */\n      swap1\n      pop\n        /* \"#utility.yul\":8544:8669   */\n      tag_313\n        /* \"#utility.yul\":8666:8667   */\n      0x00\n        /* \"#utility.yul\":8655:8664   */\n      dup4\n        /* \"#utility.yul\":8651:8668   */\n      add\n        /* \"#utility.yul\":8642:8648   */\n      dup5\n        /* \"#utility.yul\":8544:8669   */\n      tag_198\n      jump\t// in\n    tag_313:\n        /* \"#utility.yul\":8345:8676   */\n      swap3\n      swap2\n      pop\n      pop\n      jump\t// out\n        /* \"#utility.yul\":8682:9011   */\n    tag_38:\n        /* \"#utility.yul\":8741:8747   */\n      0x00\n        /* \"#utility.yul\":8790:8792   */\n      0x20\n        /* \"#utility.yul\":8778:8787   */\n      dup3\n        /* \"#utility.yul\":8769:8776   */\n      dup5\n        /* \"#utility.yul\":8765:8788   */\n      sub\n        /* \"#utility.yul\":8761:8793   */\n      slt\n        /* \"#utility.yul\":8758:8877   */\n      iszero\n      tag_315\n      jumpi\n        /* \"#utility.yul\":8796:8875   */\n      tag_316\n      tag_174\n      jump\t// in\n    tag_316:\n        /* \"#utility.yul\":8758:8877   */\n    tag_315:\n        /* \"#utility.yul\":8916:8917   */\n      0x00\n        /* \"#utility.yul\":8941:8994   */\n      tag_317\n        /* \"#utility.yul\":8986:8993   */\n      dup5\n        /* \"#utility.yul\":8977:8983   */\n      dup3\n        /* \"#utility.yul\":8966:8975   */\n      dup6\n        /* \"#utility.yul\":8962:8984   */\n      add\n        /* \"#utility.yul\":8941:8994   */\n      tag_195\n      jump\t// in\n    tag_317:\n        /* \"#utility.yul\":8931:8994   */\n      swap2\n      pop\n        /* \"#utility.yul\":8887:9004   */\n      pop\n        /* \"#utility.yul\":8682:9011   */\n      swap3\n      swap2\n      pop\n      pop\n      jump\t// out\n        /* \"#utility.yul\":9017:9135   */\n    tag_199:\n        /* \"#utility.yul\":9104:9128   */\n      tag_319\n        /* \"#utility.yul\":9122:9127   */\n      dup2\n        /* \"#utility.yul\":9104:9128   */\n      tag_183\n      jump\t// in\n    tag_319:\n        /* \"#utility.yul\":9099:9102   */\n      dup3\n        /* \"#utility.yul\":9092:9129   */\n      mstore\n        /* \"#utility.yul\":9017:9135   */\n      pop\n      pop\n      jump\t// out\n        /* \"#utility.yul\":9141:9259   */\n    tag_200:\n        /* \"#utility.yul\":9228:9252   */\n      tag_321\n        /* \"#utility.yul\":9246:9251   */\n      dup2\n        /* \"#utility.yul\":9228:9252   */\n      tag_177\n      jump\t// in\n    tag_321:\n        /* \"#utility.yul\":9223:9226   */\n      dup3\n        /* \"#utility.yul\":9216:9253   */\n      mstore\n        /* \"#utility.yul\":9141:9259   */\n      pop\n      pop\n      jump\t// out\n        /* \"#utility.yul\":9265:9374   */\n    tag_201:\n        /* \"#utility.yul\":9346:9367   */\n      tag_323\n        /* \"#utility.yul\":9361:9366   */\n      dup2\n        /* \"#utility.yul\":9346:9367   */\n      tag_186\n      jump\t// in\n    tag_323:\n        /* \"#utility.yul\":9341:9344   */\n      dup3\n        /* \"#utility.yul\":9334:9368   */\n      mstore\n        /* \"#utility.yul\":9265:9374   */\n      pop\n      pop\n      jump\t// out\n        /* \"#utility.yul\":9380:9921   */\n    tag_41:\n        /* \"#utility.yul\":9551:9555   */\n      0x00\n        /* \"#utility.yul\":9589:9592   */\n      0x80\n        /* \"#utility.yul\":9578:9587   */\n      dup3\n        /* \"#utility.yul\":9574:9593   */\n      add\n        /* \"#utility.yul\":9566:9593   */\n      swap1\n      pop\n        /* \"#utility.yul\":9603:9674   */\n      tag_325\n        /* \"#utility.yul\":9671:9672   */\n      0x00\n        /* \"#utility.yul\":9660:9669   */\n      dup4\n        /* \"#utility.yul\":9656:9673   */\n      add\n        /* \"#utility.yul\":9647:9653   */\n      dup8\n        /* \"#utility.yul\":9603:9674   */\n      tag_199\n      jump\t// in\n    tag_325:\n        /* \"#utility.yul\":9684:9756   */\n      tag_326\n        /* \"#utility.yul\":9752:9754   */\n      0x20\n        /* \"#utility.yul\":9741:9750   */\n      dup4\n        /* \"#utility.yul\":9737:9755   */\n      add\n        /* \"#utility.yul\":9728:9734   */\n      dup7\n        /* \"#utility.yul\":9684:9756   */\n      tag_200\n      jump\t// in\n    tag_326:\n        /* \"#utility.yul\":9766:9838   */\n      tag_327\n        /* \"#utility.yul\":9834:9836   */\n      0x40\n        /* \"#utility.yul\":9823:9832   */\n      dup4\n        /* \"#utility.yul\":9819:9837   */\n      add\n        /* \"#utility.yul\":9810:9816   */\n      dup6\n        /* \"#utility.yul\":9766:9838   */\n      tag_199\n      jump\t// in\n    tag_327:\n        /* \"#utility.yul\":9848:9914   */\n      tag_328\n        /* \"#utility.yul\":9910:9912   */\n      0x60\n        /* \"#utility.yul\":9899:9908   */\n      dup4\n        /* \"#utility.yul\":9895:9913   */\n      add\n        /* \"#utility.yul\":9886:9892   */\n      dup5\n        /* \"#utility.yul\":9848:9914   */\n      tag_201\n      jump\t// in\n    tag_328:\n        /* \"#utility.yul\":9380:9921   */\n      swap6\n      swap5\n      pop\n      pop\n      pop\n      pop\n      pop\n      jump\t// out\n        /* \"#utility.yul\":9927:10045   */\n    tag_202:\n        /* \"#utility.yul\":10014:10038   */\n      tag_330\n        /* \"#utility.yul\":10032:10037   */\n      dup2\n        /* \"#utility.yul\":10014:10038   */\n      tag_188\n      jump\t// in\n    tag_330:\n        /* \"#utility.yul\":10009:10012   */\n      dup3\n        /* \"#utility.yul\":10002:10039   */\n      mstore\n        /* \"#utility.yul\":9927:10045   */\n      pop\n      pop\n      jump\t// out\n        /* \"#utility.yul\":10051:10814   */\n    tag_47:\n        /* \"#utility.yul\":10278:10282   */\n      0x00\n        /* \"#utility.yul\":10316:10319   */\n      0xc0\n        /* \"#utility.yul\":10305:10314   */\n      dup3\n        /* \"#utility.yul\":10301:10320   */\n      add\n        /* \"#utility.yul\":10293:10320   */\n      swap1\n      pop\n        /* \"#utility.yul\":10330:10401   */\n      tag_332\n        /* \"#utility.yul\":10398:10399   */\n      0x00\n        /* \"#utility.yul\":10387:10396   */\n      dup4\n        /* \"#utility.yul\":10383:10400   */\n      add\n        /* \"#utility.yul\":10374:10380   */\n      dup10\n        /* \"#utility.yul\":10330:10401   */\n      tag_199\n      jump\t// in\n    tag_332:\n        /* \"#utility.yul\":10411:10483   */\n      tag_333\n        /* \"#utility.yul\":10479:10481   */\n      0x20\n        /* \"#utility.yul\":10468:10477   */\n      dup4\n        /* \"#utility.yul\":10464:10482   */\n      add\n        /* \"#utility.yul\":10455:10461   */\n      dup9\n        /* \"#utility.yul\":10411:10483   */\n      tag_200\n      jump\t// in\n    tag_333:\n        /* \"#utility.yul\":10493:10565   */\n      tag_334\n        /* \"#utility.yul\":10561:10563   */\n      0x40\n        /* \"#utility.yul\":10550:10559   */\n      dup4\n        /* \"#utility.yul\":10546:10564   */\n      add\n        /* \"#utility.yul\":10537:10543   */\n      dup8\n        /* \"#utility.yul\":10493:10565   */\n      tag_200\n      jump\t// in\n    tag_334:\n        /* \"#utility.yul\":10575:10647   */\n      tag_335\n        /* \"#utility.yul\":10643:10645   */\n      0x60\n        /* \"#utility.yul\":10632:10641   */\n      dup4\n        /* \"#utility.yul\":10628:10646   */\n      add\n        /* \"#utility.yul\":10619:10625   */\n      dup7\n        /* \"#utility.yul\":10575:10647   */\n      tag_199\n      jump\t// in\n    tag_335:\n        /* \"#utility.yul\":10657:10724   */\n      tag_336\n        /* \"#utility.yul\":10719:10722   */\n      0x80\n        /* \"#utility.yul\":10708:10717   */\n      dup4\n        /* \"#utility.yul\":10704:10723   */\n      add\n        /* \"#utility.yul\":10695:10701   */\n      dup6\n        /* \"#utility.yul\":10657:10724   */\n      tag_201\n      jump\t// in\n    tag_336:\n        /* \"#utility.yul\":10734:10807   */\n      tag_337\n        /* \"#utility.yul\":10802:10805   */\n      0xa0\n        /* \"#utility.yul\":10791:10800   */\n      dup4\n        /* \"#utility.yul\":10787:10806   */\n      add\n        /* \"#utility.yul\":10778:10784   */\n      dup5\n        /* \"#utility.yul\":10734:10807   */\n      tag_202\n      jump\t// in\n    tag_337:\n        /* \"#utility.yul\":10051:10814   */\n      swap8\n      swap7\n      pop\n      pop\n      pop\n      pop\n      pop\n      pop\n      pop\n      jump\t// out\n        /* \"#utility.yul\":10820:11294   */\n    tag_51:\n        /* \"#utility.yul\":10888:10894   */\n      0x00\n        /* \"#utility.yul\":10896:10902   */\n      dup1\n        /* \"#utility.yul\":10945:10947   */\n      0x40\n        /* \"#utility.yul\":10933:10942   */\n      dup4\n        /* \"#utility.yul\":10924:10931   */\n      dup6\n        /* \"#utility.yul\":10920:10943   */\n      sub\n        /* \"#utility.yul\":10916:10948   */\n      slt\n        /* \"#utility.yul\":10913:11032   */\n      iszero\n      tag_339\n      jumpi\n        /* \"#utility.yul\":10951:11030   */\n      tag_340\n      tag_174\n      jump\t// in\n    tag_340:\n        /* \"#utility.yul\":10913:11032   */\n    tag_339:\n        /* \"#utility.yul\":11071:11072   */\n      0x00\n        /* \"#utility.yul\":11096:11149   */\n      tag_341\n        /* \"#utility.yul\":11141:11148   */\n      dup6\n        /* \"#utility.yul\":11132:11138   */\n      dup3\n        /* \"#utility.yul\":11121:11130   */\n      dup7\n        /* \"#utility.yul\":11117:11139   */\n      add\n        /* \"#utility.yul\":11096:11149   */\n      tag_195\n      jump\t// in\n    tag_341:\n        /* \"#utility.yul\":11086:11149   */\n      swap3\n      pop\n        /* \"#utility.yul\":11042:11159   */\n      pop\n        /* \"#utility.yul\":11198:11200   */\n      0x20\n        /* \"#utility.yul\":11224:11277   */\n      tag_342\n        /* \"#utility.yul\":11269:11276   */\n      dup6\n        /* \"#utility.yul\":11260:11266   */\n      dup3\n        /* \"#utility.yul\":11249:11258   */\n      dup7\n        /* \"#utility.yul\":11245:11267   */\n      add\n        /* \"#utility.yul\":11224:11277   */\n      tag_179\n      jump\t// in\n    tag_342:\n        /* \"#utility.yul\":11214:11277   */\n      swap2\n      pop\n        /* \"#utility.yul\":11169:11287   */\n      pop\n        /* \"#utility.yul\":10820:11294   */\n      swap3\n      pop\n      swap3\n      swap1\n      pop\n      jump\t// out\n        /* \"#utility.yul\":11374:12224   */\n    tag_203:\n        /* \"#utility.yul\":11515:11519   */\n      0x80\n        /* \"#utility.yul\":11510:11513   */\n      dup3\n        /* \"#utility.yul\":11506:11520   */\n      add\n        /* \"#utility.yul\":11600:11604   */\n      0x00\n        /* \"#utility.yul\":11593:11598   */\n      dup3\n        /* \"#utility.yul\":11589:11605   */\n      add\n        /* \"#utility.yul\":11583:11606   */\n      mload\n        /* \"#utility.yul\":11619:11682   */\n      tag_344\n        /* \"#utility.yul\":11676:11680   */\n      0x00\n        /* \"#utility.yul\":11671:11674   */\n      dup6\n        /* \"#utility.yul\":11667:11681   */\n      add\n        /* \"#utility.yul\":11653:11665   */\n      dup3\n        /* \"#utility.yul\":11619:11682   */\n      tag_184\n      jump\t// in\n    tag_344:\n        /* \"#utility.yul\":11530:11692   */\n      pop\n        /* \"#utility.yul\":11775:11779   */\n      0x20\n        /* \"#utility.yul\":11768:11773   */\n      dup3\n        /* \"#utility.yul\":11764:11780   */\n      add\n        /* \"#utility.yul\":11758:11781   */\n      mload\n        /* \"#utility.yul\":11794:11857   */\n      tag_345\n        /* \"#utility.yul\":11851:11855   */\n      0x20\n        /* \"#utility.yul\":11846:11849   */\n      dup6\n        /* \"#utility.yul\":11842:11856   */\n      add\n        /* \"#utility.yul\":11828:11840   */\n      dup3\n        /* \"#utility.yul\":11794:11857   */\n      tag_185\n      jump\t// in\n    tag_345:\n        /* \"#utility.yul\":11702:11867   */\n      pop\n        /* \"#utility.yul\":11950:11954   */\n      0x40\n        /* \"#utility.yul\":11943:11948   */\n      dup3\n        /* \"#utility.yul\":11939:11955   */\n      add\n        /* \"#utility.yul\":11933:11956   */\n      mload\n        /* \"#utility.yul\":11969:12032   */\n      tag_346\n        /* \"#utility.yul\":12026:12030   */\n      0x40\n        /* \"#utility.yul\":12021:12024   */\n      dup6\n        /* \"#utility.yul\":12017:12031   */\n      add\n        /* \"#utility.yul\":12003:12015   */\n      dup3\n        /* \"#utility.yul\":11969:12032   */\n      tag_184\n      jump\t// in\n    tag_346:\n        /* \"#utility.yul\":11877:12042   */\n      pop\n        /* \"#utility.yul\":12131:12135   */\n      0x60\n        /* \"#utility.yul\":12124:12129   */\n      dup3\n        /* \"#utility.yul\":12120:12136   */\n      add\n        /* \"#utility.yul\":12114:12137   */\n      mload\n        /* \"#utility.yul\":12150:12207   */\n      tag_347\n        /* \"#utility.yul\":12201:12205   */\n      0x60\n        /* \"#utility.yul\":12196:12199   */\n      dup6\n        /* \"#utility.yul\":12192:12206   */\n      add\n        /* \"#utility.yul\":12178:12190   */\n      dup3\n        /* \"#utility.yul\":12150:12207   */\n      tag_187\n      jump\t// in\n    tag_347:\n        /* \"#utility.yul\":12052:12217   */\n      pop\n        /* \"#utility.yul\":11484:12224   */\n      pop\n        /* \"#utility.yul\":11374:12224   */\n      pop\n      pop\n      jump\t// out\n        /* \"#utility.yul\":12230:12541   */\n    tag_58:\n        /* \"#utility.yul\":12367:12371   */\n      0x00\n        /* \"#utility.yul\":12405:12408   */\n      0x80\n        /* \"#utility.yul\":12394:12403   */\n      dup3\n        /* \"#utility.yul\":12390:12409   */\n      add\n        /* \"#utility.yul\":12382:12409   */\n      swap1\n      pop\n        /* \"#utility.yul\":12419:12534   */\n      tag_349\n        /* \"#utility.yul\":12531:12532   */\n      0x00\n        /* \"#utility.yul\":12520:12529   */\n      dup4\n        /* \"#utility.yul\":12516:12533   */\n      add\n        /* \"#utility.yul\":12507:12513   */\n      dup5\n        /* \"#utility.yul\":12419:12534   */\n      tag_203\n      jump\t// in\n    tag_349:\n        /* \"#utility.yul\":12230:12541   */\n      swap3\n      swap2\n      pop\n      pop\n      jump\t// out\n        /* \"#utility.yul\":12547:12683   */\n    tag_204:\n        /* \"#utility.yul\":12636:12642   */\n      0x00\n        /* \"#utility.yul\":12670:12675   */\n      dup2\n        /* \"#utility.yul\":12664:12676   */\n      mload\n        /* \"#utility.yul\":12654:12676   */\n      swap1\n      pop\n        /* \"#utility.yul\":12547:12683   */\n      swap2\n      swap1\n      pop\n      jump\t// out\n        /* \"#utility.yul\":12689:12895   */\n    tag_205:\n        /* \"#utility.yul\":12810:12821   */\n      0x00\n        /* \"#utility.yul\":12844:12850   */\n      dup3\n        /* \"#utility.yul\":12839:12842   */\n      dup3\n        /* \"#utility.yul\":12832:12851   */\n      mstore\n        /* \"#utility.yul\":12884:12888   */\n      0x20\n        /* \"#utility.yul\":12879:12882   */\n      dup3\n        /* \"#utility.yul\":12875:12889   */\n      add\n        /* \"#utility.yul\":12860:12889   */\n      swap1\n      pop\n        /* \"#utility.yul\":12689:12895   */\n      swap3\n      swap2\n      pop\n      pop\n      jump\t// out\n        /* \"#utility.yul\":12901:13055   */\n    tag_206:\n        /* \"#utility.yul\":12990:12994   */\n      0x00\n        /* \"#utility.yul\":13013:13016   */\n      dup2\n        /* \"#utility.yul\":13005:13016   */\n      swap1\n      pop\n        /* \"#utility.yul\":13043:13047   */\n      0x20\n        /* \"#utility.yul\":13038:13041   */\n      dup3\n        /* \"#utility.yul\":13034:13048   */\n      add\n        /* \"#utility.yul\":13026:13048   */\n      swap1\n      pop\n        /* \"#utility.yul\":12901:13055   */\n      swap2\n      swap1\n      pop\n      jump\t// out\n        /* \"#utility.yul\":13135:13975   */\n    tag_207:\n        /* \"#utility.yul\":13266:13270   */\n      0x80\n        /* \"#utility.yul\":13261:13264   */\n      dup3\n        /* \"#utility.yul\":13257:13271   */\n      add\n        /* \"#utility.yul\":13351:13355   */\n      0x00\n        /* \"#utility.yul\":13344:13349   */\n      dup3\n        /* \"#utility.yul\":13340:13356   */\n      add\n        /* \"#utility.yul\":13334:13357   */\n      mload\n        /* \"#utility.yul\":13370:13433   */\n      tag_354\n        /* \"#utility.yul\":13427:13431   */\n      0x00\n        /* \"#utility.yul\":13422:13425   */\n      dup6\n        /* \"#utility.yul\":13418:13432   */\n      add\n        /* \"#utility.yul\":13404:13416   */\n      dup3\n        /* \"#utility.yul\":13370:13433   */\n      tag_184\n      jump\t// in\n    tag_354:\n        /* \"#utility.yul\":13281:13443   */\n      pop\n        /* \"#utility.yul\":13526:13530   */\n      0x20\n        /* \"#utility.yul\":13519:13524   */\n      dup3\n        /* \"#utility.yul\":13515:13531   */\n      add\n        /* \"#utility.yul\":13509:13532   */\n      mload\n        /* \"#utility.yul\":13545:13608   */\n      tag_355\n        /* \"#utility.yul\":13602:13606   */\n      0x20\n        /* \"#utility.yul\":13597:13600   */\n      dup6\n        /* \"#utility.yul\":13593:13607   */\n      add\n        /* \"#utility.yul\":13579:13591   */\n      dup3\n        /* \"#utility.yul\":13545:13608   */\n      tag_185\n      jump\t// in\n    tag_355:\n        /* \"#utility.yul\":13453:13618   */\n      pop\n        /* \"#utility.yul\":13701:13705   */\n      0x40\n        /* \"#utility.yul\":13694:13699   */\n      dup3\n        /* \"#utility.yul\":13690:13706   */\n      add\n        /* \"#utility.yul\":13684:13707   */\n      mload\n        /* \"#utility.yul\":13720:13783   */\n      tag_356\n        /* \"#utility.yul\":13777:13781   */\n      0x40\n        /* \"#utility.yul\":13772:13775   */\n      dup6\n        /* \"#utility.yul\":13768:13782   */\n      add\n        /* \"#utility.yul\":13754:13766   */\n      dup3\n        /* \"#utility.yul\":13720:13783   */\n      tag_184\n      jump\t// in\n    tag_356:\n        /* \"#utility.yul\":13628:13793   */\n      pop\n        /* \"#utility.yul\":13882:13886   */\n      0x60\n        /* \"#utility.yul\":13875:13880   */\n      dup3\n        /* \"#utility.yul\":13871:13887   */\n      add\n        /* \"#utility.yul\":13865:13888   */\n      mload\n        /* \"#utility.yul\":13901:13958   */\n      tag_357\n        /* \"#utility.yul\":13952:13956   */\n      0x60\n        /* \"#utility.yul\":13947:13950   */\n      dup6\n        /* \"#utility.yul\":13943:13957   */\n      add\n        /* \"#utility.yul\":13929:13941   */\n      dup3\n        /* \"#utility.yul\":13901:13958   */\n      tag_187\n      jump\t// in\n    tag_357:\n        /* \"#utility.yul\":13803:13968   */\n      pop\n        /* \"#utility.yul\":13235:13975   */\n      pop\n        /* \"#utility.yul\":13135:13975   */\n      pop\n      pop\n      jump\t// out\n        /* \"#utility.yul\":13981:14248   */\n    tag_208:\n        /* \"#utility.yul\":14094:14104   */\n      0x00\n        /* \"#utility.yul\":14115:14205   */\n      tag_359\n        /* \"#utility.yul\":14201:14204   */\n      dup4\n        /* \"#utility.yul\":14193:14199   */\n      dup4\n        /* \"#utility.yul\":14115:14205   */\n      tag_207\n      jump\t// in\n    tag_359:\n        /* \"#utility.yul\":14237:14241   */\n      0x80\n        /* \"#utility.yul\":14232:14235   */\n      dup4\n        /* \"#utility.yul\":14228:14242   */\n      add\n        /* \"#utility.yul\":14214:14242   */\n      swap1\n      pop\n        /* \"#utility.yul\":13981:14248   */\n      swap3\n      swap2\n      pop\n      pop\n      jump\t// out\n        /* \"#utility.yul\":14254:14389   */\n    tag_209:\n        /* \"#utility.yul\":14346:14350   */\n      0x00\n        /* \"#utility.yul\":14378:14382   */\n      0x20\n        /* \"#utility.yul\":14373:14376   */\n      dup3\n        /* \"#utility.yul\":14369:14383   */\n      add\n        /* \"#utility.yul\":14361:14383   */\n      swap1\n      pop\n        /* \"#utility.yul\":14254:14389   */\n      swap2\n      swap1\n      pop\n      jump\t// out\n        /* \"#utility.yul\":14473:15381   */\n    tag_210:\n        /* \"#utility.yul\":14636:14639   */\n      0x00\n        /* \"#utility.yul\":14665:14741   */\n      tag_362\n        /* \"#utility.yul\":14735:14740   */\n      dup3\n        /* \"#utility.yul\":14665:14741   */\n      tag_204\n      jump\t// in\n    tag_362:\n        /* \"#utility.yul\":14757:14865   */\n      tag_363\n        /* \"#utility.yul\":14858:14864   */\n      dup2\n        /* \"#utility.yul\":14853:14856   */\n      dup6\n        /* \"#utility.yul\":14757:14865   */\n      tag_205\n      jump\t// in\n    tag_363:\n        /* \"#utility.yul\":14750:14865   */\n      swap4\n      pop\n        /* \"#utility.yul\":14889:14967   */\n      tag_364\n        /* \"#utility.yul\":14961:14966   */\n      dup4\n        /* \"#utility.yul\":14889:14967   */\n      tag_206\n      jump\t// in\n    tag_364:\n        /* \"#utility.yul\":14990:14997   */\n      dup1\n        /* \"#utility.yul\":15021:15022   */\n      0x00\n        /* \"#utility.yul\":15006:15356   */\n    tag_365:\n        /* \"#utility.yul\":15031:15037   */\n      dup4\n        /* \"#utility.yul\":15028:15029   */\n      dup2\n        /* \"#utility.yul\":15025:15038   */\n      lt\n        /* \"#utility.yul\":15006:15356   */\n      iszero\n      tag_367\n      jumpi\n        /* \"#utility.yul\":15107:15113   */\n      dup2\n        /* \"#utility.yul\":15101:15114   */\n      mload\n        /* \"#utility.yul\":15134:15241   */\n      tag_368\n        /* \"#utility.yul\":15237:15240   */\n      dup9\n        /* \"#utility.yul\":15222:15235   */\n      dup3\n        /* \"#utility.yul\":15134:15241   */\n      tag_208\n      jump\t// in\n    tag_368:\n        /* \"#utility.yul\":15127:15241   */\n      swap8\n      pop\n        /* \"#utility.yul\":15264:15346   */\n      tag_369\n        /* \"#utility.yul\":15339:15345   */\n      dup4\n        /* \"#utility.yul\":15264:15346   */\n      tag_209\n      jump\t// in\n    tag_369:\n        /* \"#utility.yul\":15254:15346   */\n      swap3\n      pop\n        /* \"#utility.yul\":15066:15356   */\n      pop\n        /* \"#utility.yul\":15053:15054   */\n      0x01\n        /* \"#utility.yul\":15050:15051   */\n      dup2\n        /* \"#utility.yul\":15046:15055   */\n      add\n        /* \"#utility.yul\":15041:15055   */\n      swap1\n      pop\n        /* \"#utility.yul\":15006:15356   */\n      jump(tag_365)\n    tag_367:\n        /* \"#utility.yul\":15010:15024   */\n      pop\n        /* \"#utility.yul\":15372:15375   */\n      dup6\n        /* \"#utility.yul\":15365:15375   */\n      swap4\n      pop\n        /* \"#utility.yul\":14641:15381   */\n      pop\n      pop\n      pop\n        /* \"#utility.yul\":14473:15381   */\n      swap3\n      swap2\n      pop\n      pop\n      jump\t// out\n        /* \"#utility.yul\":15387:15848   */\n    tag_64:\n        /* \"#utility.yul\":15574:15578   */\n      0x00\n        /* \"#utility.yul\":15612:15614   */\n      0x20\n        /* \"#utility.yul\":15601:15610   */\n      dup3\n        /* \"#utility.yul\":15597:15615   */\n      add\n        /* \"#utility.yul\":15589:15615   */\n      swap1\n      pop\n        /* \"#utility.yul\":15661:15670   */\n      dup2\n        /* \"#utility.yul\":15655:15659   */\n      dup2\n        /* \"#utility.yul\":15651:15671   */\n      sub\n        /* \"#utility.yul\":15647:15648   */\n      0x00\n        /* \"#utility.yul\":15636:15645   */\n      dup4\n        /* \"#utility.yul\":15632:15649   */\n      add\n        /* \"#utility.yul\":15625:15672   */\n      mstore\n        /* \"#utility.yul\":15689:15841   */\n      tag_371\n        /* \"#utility.yul\":15836:15840   */\n      dup2\n        /* \"#utility.yul\":15827:15833   */\n      dup5\n        /* \"#utility.yul\":15689:15841   */\n      tag_210\n      jump\t// in\n    tag_371:\n        /* \"#utility.yul\":15681:15841   */\n      swap1\n      pop\n        /* \"#utility.yul\":15387:15848   */\n      swap3\n      swap2\n      pop\n      pop\n      jump\t// out\n        /* \"#utility.yul\":15854:16076   */\n    tag_69:\n        /* \"#utility.yul\":15947:15951   */\n      0x00\n        /* \"#utility.yul\":15985:15987   */\n      0x20\n        /* \"#utility.yul\":15974:15983   */\n      dup3\n        /* \"#utility.yul\":15970:15988   */\n      add\n        /* \"#utility.yul\":15962:15988   */\n      swap1\n      pop\n        /* \"#utility.yul\":15998:16069   */\n      tag_373\n        /* \"#utility.yul\":16066:16067   */\n      0x00\n        /* \"#utility.yul\":16055:16064   */\n      dup4\n        /* \"#utility.yul\":16051:16068   */\n      add\n        /* \"#utility.yul\":16042:16048   */\n      dup5\n        /* \"#utility.yul\":15998:16069   */\n      tag_200\n      jump\t// in\n    tag_373:\n        /* \"#utility.yul\":15854:16076   */\n      swap3\n      swap2\n      pop\n      pop\n      jump\t// out\n        /* \"#utility.yul\":16082:16262   */\n    tag_76:\n        /* \"#utility.yul\":16130:16207   */\n      0x4e487b7100000000000000000000000000000000000000000000000000000000\n        /* \"#utility.yul\":16127:16128   */\n      0x00\n        /* \"#utility.yul\":16120:16208   */\n      mstore\n        /* \"#utility.yul\":16227:16231   */\n      0x32\n        /* \"#utility.yul\":16224:16225   */\n      0x04\n        /* \"#utility.yul\":16217:16232   */\n      mstore\n        /* \"#utility.yul\":16251:16255   */\n      0x24\n        /* \"#utility.yul\":16248:16249   */\n      0x00\n        /* \"#utility.yul\":16241:16256   */\n      revert\n        /* \"#utility.yul\":16268:16448   */\n    tag_211:\n        /* \"#utility.yul\":16316:16393   */\n      0x4e487b7100000000000000000000000000000000000000000000000000000000\n        /* \"#utility.yul\":16313:16314   */\n      0x00\n        /* \"#utility.yul\":16306:16394   */\n      mstore\n        /* \"#utility.yul\":16413:16417   */\n      0x11\n        /* \"#utility.yul\":16410:16411   */\n      0x04\n        /* \"#utility.yul\":16403:16418   */\n      mstore\n        /* \"#utility.yul\":16437:16441   */\n      0x24\n        /* \"#utility.yul\":16434:16435   */\n      0x00\n        /* \"#utility.yul\":16427:16442   */\n      revert\n        /* \"#utility.yul\":16454:16687   */\n    tag_81:\n        /* \"#utility.yul\":16493:16496   */\n      0x00\n        /* \"#utility.yul\":16516:16540   */\n      tag_377\n        /* \"#utility.yul\":16534:16539   */\n      dup3\n        /* \"#utility.yul\":16516:16540   */\n      tag_183\n      jump\t// in\n    tag_377:\n        /* \"#utility.yul\":16507:16540   */\n      swap2\n      pop\n        /* \"#utility.yul\":16562:16628   */\n      0xffffffffffffffffffffffffffffffffffffffffffffffffffffffffffffffff\n        /* \"#utility.yul\":16555:16560   */\n      dup3\n        /* \"#utility.yul\":16552:16629   */\n      sub\n        /* \"#utility.yul\":16549:16652   */\n      tag_378\n      jumpi\n        /* \"#utility.yul\":16632:16650   */\n      tag_379\n      tag_211\n      jump\t// in\n    tag_379:\n        /* \"#utility.yul\":16549:16652   */\n    tag_378:\n        /* \"#utility.yul\":16679:16680   */\n      0x01\n        /* \"#utility.yul\":16672:16677   */\n      dup3\n        /* \"#utility.yul\":16668:16681   */\n      add\n        /* \"#utility.yul\":16661:16681   */\n      swap1\n      pop\n        /* \"#utility.yul\":16454:16687   */\n      swap2\n      swap1\n      pop\n      jump\t// out\n        /* \"#utility.yul\":16693:16873   */\n    tag_84:\n        /* \"#utility.yul\":16741:16818   */\n      0x4e487b7100000000000000000000000000000000000000000000000000000000\n        /* \"#utility.yul\":16738:16739   */\n      0x00\n        /* \"#utility.yul\":16731:16819   */\n      mstore\n        /* \"#utility.yul\":16838:16842   */\n      0x41\n        /* \"#utility.yul\":16835:16836   */\n      0x04\n        /* \"#utility.yul\":16828:16843   */\n      mstore\n        /* \"#utility.yul\":16862:16866   */\n      0x24\n        /* \"#utility.yul\":16859:16860   */\n      0x00\n        /* \"#utility.yul\":16852:16867   */\n      revert\n        /* \"#utility.yul\":16879:17101   */\n    tag_104:\n        /* \"#utility.yul\":16972:16976   */\n      0x00\n        /* \"#utility.yul\":17010:17012   */\n      0x20\n        /* \"#utility.yul\":16999:17008   */\n      dup3\n        /* \"#utility.yul\":16995:17013   */\n      add\n        /* \"#utility.yul\":16987:17013   */\n      swap1\n      pop\n        /* \"#utility.yul\":17023:17094   */\n      tag_382\n        /* \"#utility.yul\":17091:17092   */\n      0x00\n        /* \"#utility.yul\":17080:17089   */\n      dup4\n        /* \"#utility.yul\":17076:17093   */\n      add\n        /* \"#utility.yul\":17067:17073   */\n      dup5\n        /* \"#utility.yul\":17023:17094   */\n      tag_199\n      jump\t// in\n    tag_382:\n        /* \"#utility.yul\":16879:17101   */\n      swap3\n      swap2\n      pop\n      pop\n      jump\t// out\n        /* \"#utility.yul\":17107:17276   */\n    tag_212:\n        /* \"#utility.yul\":17191:17202   */\n      0x00\n        /* \"#utility.yul\":17225:17231   */\n      dup3\n        /* \"#utility.yul\":17220:17223   */\n      dup3\n        /* \"#utility.yul\":17213:17232   */\n      mstore\n        /* \"#utility.yul\":17265:17269   */\n      0x20\n        /* \"#utility.yul\":17260:17263   */\n      dup3\n        /* \"#utility.yul\":17256:17270   */\n      add\n        /* \"#utility.yul\":17241:17270   */\n      swap1\n      pop\n        /* \"#utility.yul\":17107:17276   */\n      swap3\n      swap2\n      pop\n      pop\n      jump\t// out\n        /* \"#utility.yul\":17282:17513   */\n    tag_213:\n        /* \"#utility.yul\":17422:17456   */\n      0x4f6e6c7920746865206f776e65722063616e206d616b6520746865207469636b\n        /* \"#utility.yul\":17418:17419   */\n      0x00\n        /* \"#utility.yul\":17410:17416   */\n      dup3\n        /* \"#utility.yul\":17406:17420   */\n      add\n        /* \"#utility.yul\":17399:17457   */\n      mstore\n        /* \"#utility.yul\":17491:17505   */\n      0x657420617661696c61626c650000000000000000000000000000000000000000\n        /* \"#utility.yul\":17486:17488   */\n      0x20\n        /* \"#utility.yul\":17478:17484   */\n      dup3\n        /* \"#utility.yul\":17474:17489   */\n      add\n        /* \"#utility.yul\":17467:17506   */\n      mstore\n        /* \"#utility.yul\":17282:17513   */\n      pop\n      jump\t// out\n        /* \"#utility.yul\":17519:17885   */\n    tag_214:\n        /* \"#utility.yul\":17661:17664   */\n      0x00\n        /* \"#utility.yul\":17682:17749   */\n      tag_386\n        /* \"#utility.yul\":17746:17748   */\n      0x2c\n        /* \"#utility.yul\":17741:17744   */\n      dup4\n        /* \"#utility.yul\":17682:17749   */\n      tag_212\n      jump\t// in\n    tag_386:\n        /* \"#utility.yul\":17675:17749   */\n      swap2\n      pop\n        /* \"#utility.yul\":17758:17851   */\n      tag_387\n        /* \"#utility.yul\":17847:17850   */\n      dup3\n        /* \"#utility.yul\":17758:17851   */\n      tag_213\n      jump\t// in\n    tag_387:\n        /* \"#utility.yul\":17876:17878   */\n      0x40\n        /* \"#utility.yul\":17871:17874   */\n      dup3\n        /* \"#utility.yul\":17867:17879   */\n      add\n        /* \"#utility.yul\":17860:17879   */\n      swap1\n      pop\n        /* \"#utility.yul\":17519:17885   */\n      swap2\n      swap1\n      pop\n      jump\t// out\n        /* \"#utility.yul\":17891:18310   */\n    tag_108:\n        /* \"#utility.yul\":18057:18061   */\n      0x00\n        /* \"#utility.yul\":18095:18097   */\n      0x20\n        /* \"#utility.yul\":18084:18093   */\n      dup3\n        /* \"#utility.yul\":18080:18098   */\n      add\n        /* \"#utility.yul\":18072:18098   */\n      swap1\n      pop\n        /* \"#utility.yul\":18144:18153   */\n      dup2\n        /* \"#utility.yul\":18138:18142   */\n      dup2\n        /* \"#utility.yul\":18134:18154   */\n      sub\n        /* \"#utility.yul\":18130:18131   */\n      0x00\n        /* \"#utility.yul\":18119:18128   */\n      dup4\n        /* \"#utility.yul\":18115:18132   */\n      add\n        /* \"#utility.yul\":18108:18155   */\n      mstore\n        /* \"#utility.yul\":18172:18303   */\n      tag_389\n        /* \"#utility.yul\":18298:18302   */\n      dup2\n        /* \"#utility.yul\":18172:18303   */\n      tag_214\n      jump\t// in\n    tag_389:\n        /* \"#utility.yul\":18164:18303   */\n      swap1\n      pop\n        /* \"#utility.yul\":17891:18310   */\n      swap2\n      swap1\n      pop\n      jump\t// out\n        /* \"#utility.yul\":18316:18493   */\n    tag_215:\n        /* \"#utility.yul\":18456:18485   */\n      0x5469636b657420697320616c726561647920617661696c61626c650000000000\n        /* \"#utility.yul\":18452:18453   */\n      0x00\n        /* \"#utility.yul\":18444:18450   */\n      dup3\n        /* \"#utility.yul\":18440:18454   */\n      add\n        /* \"#utility.yul\":18433:18486   */\n      mstore\n        /* \"#utility.yul\":18316:18493   */\n      pop\n      jump\t// out\n        /* \"#utility.yul\":18499:18865   */\n    tag_216:\n        /* \"#utility.yul\":18641:18644   */\n      0x00\n        /* \"#utility.yul\":18662:18729   */\n      tag_392\n        /* \"#utility.yul\":18726:18728   */\n      0x1b\n        /* \"#utility.yul\":18721:18724   */\n      dup4\n        /* \"#utility.yul\":18662:18729   */\n      tag_212\n      jump\t// in\n    tag_392:\n        /* \"#utility.yul\":18655:18729   */\n      swap2\n      pop\n        /* \"#utility.yul\":18738:18831   */\n      tag_393\n        /* \"#utility.yul\":18827:18830   */\n      dup3\n        /* \"#utility.yul\":18738:18831   */\n      tag_215\n      jump\t// in\n    tag_393:\n        /* \"#utility.yul\":18856:18858   */\n      0x20\n        /* \"#utility.yul\":18851:18854   */\n      dup3\n        /* \"#utility.yul\":18847:18859   */\n      add\n        /* \"#utility.yul\":18840:18859   */\n      swap1\n      pop\n        /* \"#utility.yul\":18499:18865   */\n      swap2\n      swap1\n      pop\n      jump\t// out\n        /* \"#utility.yul\":18871:19290   */\n    tag_111:\n        /* \"#utility.yul\":19037:19041   */\n      0x00\n        /* \"#utility.yul\":19075:19077   */\n      0x20\n        /* \"#utility.yul\":19064:19073   */\n      dup3\n        /* \"#utility.yul\":19060:19078   */\n      add\n        /* \"#utility.yul\":19052:19078   */\n      swap1\n      pop\n        /* \"#utility.yul\":19124:19133   */\n      dup2\n        /* \"#utility.yul\":19118:19122   */\n      dup2\n        /* \"#utility.yul\":19114:19134   */\n      sub\n        /* \"#utility.yul\":19110:19111   */\n      0x00\n        /* \"#utility.yul\":19099:19108   */\n      dup4\n        /* \"#utility.yul\":19095:19112   */\n      add\n        /* \"#utility.yul\":19088:19135   */\n      mstore\n        /* \"#utility.yul\":19152:19283   */\n      tag_395\n        /* \"#utility.yul\":19278:19282   */\n      dup2\n        /* \"#utility.yul\":19152:19283   */\n      tag_216\n      jump\t// in\n    tag_395:\n        /* \"#utility.yul\":19144:19283   */\n      swap1\n      pop\n        /* \"#utility.yul\":18871:19290   */\n      swap2\n      swap1\n      pop\n      jump\t// out\n        /* \"#utility.yul\":19296:19475   */\n    tag_217:\n        /* \"#utility.yul\":19436:19467   */\n      0x5472616e73616374696f6e20616c726561647920636f6d706c65746564000000\n        /* \"#utility.yul\":19432:19433   */\n      0x00\n        /* \"#utility.yul\":19424:19430   */\n      dup3\n        /* \"#utility.yul\":19420:19434   */\n      add\n        /* \"#utility.yul\":19413:19468   */\n      mstore\n        /* \"#utility.yul\":19296:19475   */\n      pop\n      jump\t// out\n        /* \"#utility.yul\":19481:19847   */\n    tag_218:\n        /* \"#utility.yul\":19623:19626   */\n      0x00\n        /* \"#utility.yul\":19644:19711   */\n      tag_398\n        /* \"#utility.yul\":19708:19710   */\n      0x1d\n        /* \"#utility.yul\":19703:19706   */\n      dup4\n        /* \"#utility.yul\":19644:19711   */\n      tag_212\n      jump\t// in\n    tag_398:\n        /* \"#utility.yul\":19637:19711   */\n      swap2\n      pop\n        /* \"#utility.yul\":19720:19813   */\n      tag_399\n        /* \"#utility.yul\":19809:19812   */\n      dup3\n        /* \"#utility.yul\":19720:19813   */\n      tag_217\n      jump\t// in\n    tag_399:\n        /* \"#utility.yul\":19838:19840   */\n      0x20\n        /* \"#utility.yul\":19833:19836   */\n      dup3\n        /* \"#utility.yul\":19829:19841   */\n      add\n        /* \"#utility.yul\":19822:19841   */\n      swap1\n      pop\n        /* \"#utility.yul\":19481:19847   */\n      swap2\n      swap1\n      pop\n      jump\t// out\n        /* \"#utility.yul\":19853:20272   */\n    tag_116:\n        /* \"#utility.yul\":20019:20023   */\n      0x00\n        /* \"#utility.yul\":20057:20059   */\n      0x20\n        /* \"#utility.yul\":20046:20055   */\n      dup3\n        /* \"#utility.yul\":20042:20060   */\n      add\n        /* \"#utility.yul\":20034:20060   */\n      swap1\n      pop\n        /* \"#utility.yul\":20106:20115   */\n      dup2\n        /* \"#utility.yul\":20100:20104   */\n      dup2\n        /* \"#utility.yul\":20096:20116   */\n      sub\n        /* \"#utility.yul\":20092:20093   */\n      0x00\n        /* \"#utility.yul\":20081:20090   */\n      dup4\n        /* \"#utility.yul\":20077:20094   */\n      add\n        /* \"#utility.yul\":20070:20117   */\n      mstore\n        /* \"#utility.yul\":20134:20265   */\n      tag_401\n        /* \"#utility.yul\":20260:20264   */\n      dup2\n        /* \"#utility.yul\":20134:20265   */\n      tag_218\n      jump\t// in\n    tag_401:\n        /* \"#utility.yul\":20126:20265   */\n      swap1\n      pop\n        /* \"#utility.yul\":19853:20272   */\n      swap2\n      swap1\n      pop\n      jump\t// out\n        /* \"#utility.yul\":20278:20448   */\n    tag_219:\n        /* \"#utility.yul\":20418:20440   */\n      0x496e73756666696369656e74207061796d656e74000000000000000000000000\n        /* \"#utility.yul\":20414:20415   */\n      0x00\n        /* \"#utility.yul\":20406:20412   */\n      dup3\n        /* \"#utility.yul\":20402:20416   */\n      add\n        /* \"#utility.yul\":20395:20441   */\n      mstore\n        /* \"#utility.yul\":20278:20448   */\n      pop\n      jump\t// out\n        /* \"#utility.yul\":20454:20820   */\n    tag_220:\n        /* \"#utility.yul\":20596:20599   */\n      0x00\n        /* \"#utility.yul\":20617:20684   */\n      tag_404\n        /* \"#utility.yul\":20681:20683   */\n      0x14\n        /* \"#utility.yul\":20676:20679   */\n      dup4\n        /* \"#utility.yul\":20617:20684   */\n      tag_212\n      jump\t// in\n    tag_404:\n        /* \"#utility.yul\":20610:20684   */\n      swap2\n      pop\n        /* \"#utility.yul\":20693:20786   */\n      tag_405\n        /* \"#utility.yul\":20782:20785   */\n      dup3\n        /* \"#utility.yul\":20693:20786   */\n      tag_219\n      jump\t// in\n    tag_405:\n        /* \"#utility.yul\":20811:20813   */\n      0x20\n        /* \"#utility.yul\":20806:20809   */\n      dup3\n        /* \"#utility.yul\":20802:20814   */\n      add\n        /* \"#utility.yul\":20795:20814   */\n      swap1\n      pop\n        /* \"#utility.yul\":20454:20820   */\n      swap2\n      swap1\n      pop\n      jump\t// out\n        /* \"#utility.yul\":20826:21245   */\n    tag_119:\n        /* \"#utility.yul\":20992:20996   */\n      0x00\n        /* \"#utility.yul\":21030:21032   */\n      0x20\n        /* \"#utility.yul\":21019:21028   */\n      dup3\n        /* \"#utility.yul\":21015:21033   */\n      add\n        /* \"#utility.yul\":21007:21033   */\n      swap1\n      pop\n        /* \"#utility.yul\":21079:21088   */\n      dup2\n        /* \"#utility.yul\":21073:21077   */\n      dup2\n        /* \"#utility.yul\":21069:21089   */\n      sub\n        /* \"#utility.yul\":21065:21066   */\n      0x00\n        /* \"#utility.yul\":21054:21063   */\n      dup4\n        /* \"#utility.yul\":21050:21067   */\n      add\n        /* \"#utility.yul\":21043:21090   */\n      mstore\n        /* \"#utility.yul\":21107:21238   */\n      tag_407\n        /* \"#utility.yul\":21233:21237   */\n      dup2\n        /* \"#utility.yul\":21107:21238   */\n      tag_220\n      jump\t// in\n    tag_407:\n        /* \"#utility.yul\":21099:21238   */\n      swap1\n      pop\n        /* \"#utility.yul\":20826:21245   */\n      swap2\n      swap1\n      pop\n      jump\t// out\n        /* \"#utility.yul\":21251:21424   */\n    tag_221:\n        /* \"#utility.yul\":21391:21416   */\n      0x4275796572206973206e6f74207265636f676e697a6564000000000000000000\n        /* \"#utility.yul\":21387:21388   */\n      0x00\n        /* \"#utility.yul\":21379:21385   */\n      dup3\n        /* \"#utility.yul\":21375:21389   */\n      add\n        /* \"#utility.yul\":21368:21417   */\n      mstore\n        /* \"#utility.yul\":21251:21424   */\n      pop\n      jump\t// out\n        /* \"#utility.yul\":21430:21796   */\n    tag_222:\n        /* \"#utility.yul\":21572:21575   */\n      0x00\n        /* \"#utility.yul\":21593:21660   */\n      tag_410\n        /* \"#utility.yul\":21657:21659   */\n      0x17\n        /* \"#utility.yul\":21652:21655   */\n      dup4\n        /* \"#utility.yul\":21593:21660   */\n      tag_212\n      jump\t// in\n    tag_410:\n        /* \"#utility.yul\":21586:21660   */\n      swap2\n      pop\n        /* \"#utility.yul\":21669:21762   */\n      tag_411\n        /* \"#utility.yul\":21758:21761   */\n      dup3\n        /* \"#utility.yul\":21669:21762   */\n      tag_221\n      jump\t// in\n    tag_411:\n        /* \"#utility.yul\":21787:21789   */\n      0x20\n        /* \"#utility.yul\":21782:21785   */\n      dup3\n        /* \"#utility.yul\":21778:21790   */\n      add\n        /* \"#utility.yul\":21771:21790   */\n      swap1\n      pop\n        /* \"#utility.yul\":21430:21796   */\n      swap2\n      swap1\n      pop\n      jump\t// out\n        /* \"#utility.yul\":21802:22221   */\n    tag_122:\n        /* \"#utility.yul\":21968:21972   */\n      0x00\n        /* \"#utility.yul\":22006:22008   */\n      0x20\n        /* \"#utility.yul\":21995:22004   */\n      dup3\n        /* \"#utility.yul\":21991:22009   */\n      add\n        /* \"#utility.yul\":21983:22009   */\n      swap1\n      pop\n        /* \"#utility.yul\":22055:22064   */\n      dup2\n        /* \"#utility.yul\":22049:22053   */\n      dup2\n        /* \"#utility.yul\":22045:22065   */\n      sub\n        /* \"#utility.yul\":22041:22042   */\n      0x00\n        /* \"#utility.yul\":22030:22039   */\n      dup4\n        /* \"#utility.yul\":22026:22043   */\n      add\n        /* \"#utility.yul\":22019:22066   */\n      mstore\n        /* \"#utility.yul\":22083:22214   */\n      tag_413\n        /* \"#utility.yul\":22209:22213   */\n      dup2\n        /* \"#utility.yul\":22083:22214   */\n      tag_222\n      jump\t// in\n    tag_413:\n        /* \"#utility.yul\":22075:22214   */\n      swap1\n      pop\n        /* \"#utility.yul\":21802:22221   */\n      swap2\n      swap1\n      pop\n      jump\t// out\n        /* \"#utility.yul\":22227:22406   */\n    tag_223:\n        /* \"#utility.yul\":22367:22398   */\n      0x5469636b6574206973206e6f206c6f6e67657220617661696c61626c65000000\n        /* \"#utility.yul\":22363:22364   */\n      0x00\n        /* \"#utility.yul\":22355:22361   */\n      dup3\n        /* \"#utility.yul\":22351:22365   */\n      add\n        /* \"#utility.yul\":22344:22399   */\n      mstore\n        /* \"#utility.yul\":22227:22406   */\n      pop\n      jump\t// out\n        /* \"#utility.yul\":22412:22778   */\n    tag_224:\n        /* \"#utility.yul\":22554:22557   */\n      0x00\n        /* \"#utility.yul\":22575:22642   */\n      tag_416\n        /* \"#utility.yul\":22639:22641   */\n      0x1d\n        /* \"#utility.yul\":22634:22637   */\n      dup4\n        /* \"#utility.yul\":22575:22642   */\n      tag_212\n      jump\t// in\n    tag_416:\n        /* \"#utility.yul\":22568:22642   */\n      swap2\n      pop\n        /* \"#utility.yul\":22651:22744   */\n      tag_417\n        /* \"#utility.yul\":22740:22743   */\n      dup3\n        /* \"#utility.yul\":22651:22744   */\n      tag_223\n      jump\t// in\n    tag_417:\n        /* \"#utility.yul\":22769:22771   */\n      0x20\n        /* \"#utility.yul\":22764:22767   */\n      dup3\n        /* \"#utility.yul\":22760:22772   */\n      add\n        /* \"#utility.yul\":22753:22772   */\n      swap1\n      pop\n        /* \"#utility.yul\":22412:22778   */\n      swap2\n      swap1\n      pop\n      jump\t// out\n        /* \"#utility.yul\":22784:23203   */\n    tag_125:\n        /* \"#utility.yul\":22950:22954   */\n      0x00\n        /* \"#utility.yul\":22988:22990   */\n      0x20\n        /* \"#utility.yul\":22977:22986   */\n      dup3\n        /* \"#utility.yul\":22973:22991   */\n      add\n        /* \"#utility.yul\":22965:22991   */\n      swap1\n      pop\n        /* \"#utility.yul\":23037:23046   */\n      dup2\n        /* \"#utility.yul\":23031:23035   */\n      dup2\n        /* \"#utility.yul\":23027:23047   */\n      sub\n        /* \"#utility.yul\":23023:23024   */\n      0x00\n        /* \"#utility.yul\":23012:23021   */\n      dup4\n        /* \"#utility.yul\":23008:23025   */\n      add\n        /* \"#utility.yul\":23001:23048   */\n      mstore\n        /* \"#utility.yul\":23065:23196   */\n      tag_419\n        /* \"#utility.yul\":23191:23195   */\n      dup2\n        /* \"#utility.yul\":23065:23196   */\n      tag_224\n      jump\t// in\n    tag_419:\n        /* \"#utility.yul\":23057:23196   */\n      swap1\n      pop\n        /* \"#utility.yul\":22784:23203   */\n      swap2\n      swap1\n      pop\n      jump\t// out\n        /* \"#utility.yul\":23209:23382   */\n    tag_225:\n        /* \"#utility.yul\":23349:23374   */\n      0x5469636b6574206973206e6f7420617661696c61626c65000000000000000000\n        /* \"#utility.yul\":23345:23346   */\n      0x00\n        /* \"#utility.yul\":23337:23343   */\n      dup3\n        /* \"#utility.yul\":23333:23347   */\n      add\n        /* \"#utility.yul\":23326:23375   */\n      mstore\n        /* \"#utility.yul\":23209:23382   */\n      pop\n      jump\t// out\n        /* \"#utility.yul\":23388:23754   */\n    tag_226:\n        /* \"#utility.yul\":23530:23533   */\n      0x00\n        /* \"#utility.yul\":23551:23618   */\n      tag_422\n        /* \"#utility.yul\":23615:23617   */\n      0x17\n        /* \"#utility.yul\":23610:23613   */\n      dup4\n        /* \"#utility.yul\":23551:23618   */\n      tag_212\n      jump\t// in\n    tag_422:\n        /* \"#utility.yul\":23544:23618   */\n      swap2\n      pop\n        /* \"#utility.yul\":23627:23720   */\n      tag_423\n        /* \"#utility.yul\":23716:23719   */\n      dup3\n        /* \"#utility.yul\":23627:23720   */\n      tag_225\n      jump\t// in\n    tag_423:\n        /* \"#utility.yul\":23745:23747   */\n      0x20\n        /* \"#utility.yul\":23740:23743   */\n      dup3\n        /* \"#utility.yul\":23736:23748   */\n      add\n        /* \"#utility.yul\":23729:23748   */\n      swap1\n      pop\n        /* \"#utility.yul\":23388:23754   */\n      swap2\n      swap1\n      pop\n      jump\t// out\n        /* \"#utility.yul\":23760:24179   */\n    tag_134:\n        /* \"#utility.yul\":23926:23930   */\n      0x00\n        /* \"#utility.yul\":23964:23966   */\n      0x20\n        /* \"#utility.yul\":23953:23962   */\n      dup3\n        /* \"#utility.yul\":23949:23967   */\n      add\n        /* \"#utility.yul\":23941:23967   */\n      swap1\n      pop\n        /* \"#utility.yul\":24013:24022   */\n      dup2\n        /* \"#utility.yul\":24007:24011   */\n      dup2\n        /* \"#utility.yul\":24003:24023   */\n      sub\n        /* \"#utility.yul\":23999:24000   */\n      0x00\n        /* \"#utility.yul\":23988:23997   */\n      dup4\n        /* \"#utility.yul\":23984:24001   */\n      add\n        /* \"#utility.yul\":23977:24024   */\n      mstore\n        /* \"#utility.yul\":24041:24172   */\n      tag_425\n        /* \"#utility.yul\":24167:24171   */\n      dup2\n        /* \"#utility.yul\":24041:24172   */\n      tag_226\n      jump\t// in\n    tag_425:\n        /* \"#utility.yul\":24033:24172   */\n      swap1\n      pop\n        /* \"#utility.yul\":23760:24179   */\n      swap2\n      swap1\n      pop\n      jump\t// out\n        /* \"#utility.yul\":24185:24366   */\n    tag_227:\n        /* \"#utility.yul\":24325:24358   */\n      0x546865206f776e65722063616e2774206275792074686973207469636b657400\n        /* \"#utility.yul\":24321:24322   */\n      0x00\n        /* \"#utility.yul\":24313:24319   */\n      dup3\n        /* \"#utility.yul\":24309:24323   */\n      add\n        /* \"#utility.yul\":24302:24359   */\n      mstore\n        /* \"#utility.yul\":24185:24366   */\n      pop\n      jump\t// out\n        /* \"#utility.yul\":24372:24738   */\n    tag_228:\n        /* \"#utility.yul\":24514:24517   */\n      0x00\n        /* \"#utility.yul\":24535:24602   */\n      tag_428\n        /* \"#utility.yul\":24599:24601   */\n      0x1f\n        /* \"#utility.yul\":24594:24597   */\n      dup4\n        /* \"#utility.yul\":24535:24602   */\n      tag_212\n      jump\t// in\n    tag_428:\n        /* \"#utility.yul\":24528:24602   */\n      swap2\n      pop\n        /* \"#utility.yul\":24611:24704   */\n      tag_429\n        /* \"#utility.yul\":24700:24703   */\n      dup3\n        /* \"#utility.yul\":24611:24704   */\n      tag_227\n      jump\t// in\n    tag_429:\n        /* \"#utility.yul\":24729:24731   */\n      0x20\n        /* \"#utility.yul\":24724:24727   */\n      dup3\n        /* \"#utility.yul\":24720:24732   */\n      add\n        /* \"#utility.yul\":24713:24732   */\n      swap1\n      pop\n        /* \"#utility.yul\":24372:24738   */\n      swap2\n      swap1\n      pop\n      jump\t// out\n        /* \"#utility.yul\":24744:25163   */\n    tag_137:\n        /* \"#utility.yul\":24910:24914   */\n      0x00\n        /* \"#utility.yul\":24948:24950   */\n      0x20\n        /* \"#utility.yul\":24937:24946   */\n      dup3\n        /* \"#utility.yul\":24933:24951   */\n      add\n        /* \"#utility.yul\":24925:24951   */\n      swap1\n      pop\n        /* \"#utility.yul\":24997:25006   */\n      dup2\n        /* \"#utility.yul\":24991:24995   */\n      dup2\n        /* \"#utility.yul\":24987:25007   */\n      sub\n        /* \"#utility.yul\":24983:24984   */\n      0x00\n        /* \"#utility.yul\":24972:24981   */\n      dup4\n        /* \"#utility.yul\":24968:24985   */\n      add\n        /* \"#utility.yul\":24961:25008   */\n      mstore\n        /* \"#utility.yul\":25025:25156   */\n      tag_431\n        /* \"#utility.yul\":25151:25155   */\n      dup2\n        /* \"#utility.yul\":25025:25156   */\n      tag_228\n      jump\t// in\n    tag_431:\n        /* \"#utility.yul\":25017:25156   */\n      swap1\n      pop\n        /* \"#utility.yul\":24744:25163   */\n      swap2\n      swap1\n      pop\n      jump\t// out\n        /* \"#utility.yul\":25169:25248   */\n    tag_229:\n        /* \"#utility.yul\":25208:25215   */\n      0x00\n        /* \"#utility.yul\":25237:25242   */\n      dup2\n        /* \"#utility.yul\":25226:25242   */\n      swap1\n      pop\n        /* \"#utility.yul\":25169:25248   */\n      swap2\n      swap1\n      pop\n      jump\t// out\n        /* \"#utility.yul\":25254:25411   */\n    tag_230:\n        /* \"#utility.yul\":25359:25404   */\n      tag_434\n        /* \"#utility.yul\":25379:25403   */\n      tag_435\n        /* \"#utility.yul\":25397:25402   */\n      dup3\n        /* \"#utility.yul\":25379:25403   */\n      tag_183\n      jump\t// in\n    tag_435:\n        /* \"#utility.yul\":25359:25404   */\n      tag_229\n      jump\t// in\n    tag_434:\n        /* \"#utility.yul\":25354:25357   */\n      dup3\n        /* \"#utility.yul\":25347:25405   */\n      mstore\n        /* \"#utility.yul\":25254:25411   */\n      pop\n      pop\n      jump\t// out\n        /* \"#utility.yul\":25417:25511   */\n    tag_231:\n        /* \"#utility.yul\":25450:25458   */\n      0x00\n        /* \"#utility.yul\":25498:25503   */\n      dup2\n        /* \"#utility.yul\":25494:25496   */\n      0x60\n        /* \"#utility.yul\":25490:25504   */\n      shl\n        /* \"#utility.yul\":25469:25504   */\n      swap1\n      pop\n        /* \"#utility.yul\":25417:25511   */\n      swap2\n      swap1\n      pop\n      jump\t// out\n        /* \"#utility.yul\":25517:25611   */\n    tag_232:\n        /* \"#utility.yul\":25556:25563   */\n      0x00\n        /* \"#utility.yul\":25585:25605   */\n      tag_438\n        /* \"#utility.yul\":25599:25604   */\n      dup3\n        /* \"#utility.yul\":25585:25605   */\n      tag_231\n      jump\t// in\n    tag_438:\n        /* \"#utility.yul\":25574:25605   */\n      swap1\n      pop\n        /* \"#utility.yul\":25517:25611   */\n      swap2\n      swap1\n      pop\n      jump\t// out\n        /* \"#utility.yul\":25617:25717   */\n    tag_233:\n        /* \"#utility.yul\":25656:25663   */\n      0x00\n        /* \"#utility.yul\":25685:25711   */\n      tag_440\n        /* \"#utility.yul\":25705:25710   */\n      dup3\n        /* \"#utility.yul\":25685:25711   */\n      tag_232\n      jump\t// in\n    tag_440:\n        /* \"#utility.yul\":25674:25711   */\n      swap1\n      pop\n        /* \"#utility.yul\":25617:25717   */\n      swap2\n      swap1\n      pop\n      jump\t// out\n        /* \"#utility.yul\":25723:25880   */\n    tag_234:\n        /* \"#utility.yul\":25828:25873   */\n      tag_442\n        /* \"#utility.yul\":25848:25872   */\n      tag_443\n        /* \"#utility.yul\":25866:25871   */\n      dup3\n        /* \"#utility.yul\":25848:25872   */\n      tag_177\n      jump\t// in\n    tag_443:\n        /* \"#utility.yul\":25828:25873   */\n      tag_233\n      jump\t// in\n    tag_442:\n        /* \"#utility.yul\":25823:25826   */\n      dup3\n        /* \"#utility.yul\":25816:25874   */\n      mstore\n        /* \"#utility.yul\":25723:25880   */\n      pop\n      pop\n      jump\t// out\n        /* \"#utility.yul\":25886:26706   */\n    tag_139:\n        /* \"#utility.yul\":26110:26113   */\n      0x00\n        /* \"#utility.yul\":26125:26200   */\n      tag_445\n        /* \"#utility.yul\":26196:26199   */\n      dup3\n        /* \"#utility.yul\":26187:26193   */\n      dup9\n        /* \"#utility.yul\":26125:26200   */\n      tag_230\n      jump\t// in\n    tag_445:\n        /* \"#utility.yul\":26225:26227   */\n      0x20\n        /* \"#utility.yul\":26220:26223   */\n      dup3\n        /* \"#utility.yul\":26216:26228   */\n      add\n        /* \"#utility.yul\":26209:26228   */\n      swap2\n      pop\n        /* \"#utility.yul\":26238:26313   */\n      tag_446\n        /* \"#utility.yul\":26309:26312   */\n      dup3\n        /* \"#utility.yul\":26300:26306   */\n      dup8\n        /* \"#utility.yul\":26238:26313   */\n      tag_234\n      jump\t// in\n    tag_446:\n        /* \"#utility.yul\":26338:26340   */\n      0x14\n        /* \"#utility.yul\":26333:26336   */\n      dup3\n        /* \"#utility.yul\":26329:26341   */\n      add\n        /* \"#utility.yul\":26322:26341   */\n      swap2\n      pop\n        /* \"#utility.yul\":26351:26426   */\n      tag_447\n        /* \"#utility.yul\":26422:26425   */\n      dup3\n        /* \"#utility.yul\":26413:26419   */\n      dup7\n        /* \"#utility.yul\":26351:26426   */\n      tag_234\n      jump\t// in\n    tag_447:\n        /* \"#utility.yul\":26451:26453   */\n      0x14\n        /* \"#utility.yul\":26446:26449   */\n      dup3\n        /* \"#utility.yul\":26442:26454   */\n      add\n        /* \"#utility.yul\":26435:26454   */\n      swap2\n      pop\n        /* \"#utility.yul\":26464:26539   */\n      tag_448\n        /* \"#utility.yul\":26535:26538   */\n      dup3\n        /* \"#utility.yul\":26526:26532   */\n      dup6\n        /* \"#utility.yul\":26464:26539   */\n      tag_230\n      jump\t// in\n    tag_448:\n        /* \"#utility.yul\":26564:26566   */\n      0x20\n        /* \"#utility.yul\":26559:26562   */\n      dup3\n        /* \"#utility.yul\":26555:26567   */\n      add\n        /* \"#utility.yul\":26548:26567   */\n      swap2\n      pop\n        /* \"#utility.yul\":26577:26652   */\n      tag_449\n        /* \"#utility.yul\":26648:26651   */\n      dup3\n        /* \"#utility.yul\":26639:26645   */\n      dup5\n        /* \"#utility.yul\":26577:26652   */\n      tag_230\n      jump\t// in\n    tag_449:\n        /* \"#utility.yul\":26677:26679   */\n      0x20\n        /* \"#utility.yul\":26672:26675   */\n      dup3\n        /* \"#utility.yul\":26668:26680   */\n      add\n        /* \"#utility.yul\":26661:26680   */\n      swap2\n      pop\n        /* \"#utility.yul\":26697:26700   */\n      dup2\n        /* \"#utility.yul\":26690:26700   */\n      swap1\n      pop\n        /* \"#utility.yul\":25886:26706   */\n      swap7\n      swap6\n      pop\n      pop\n      pop\n      pop\n      pop\n      pop\n      jump\t// out\n        /* \"#utility.yul\":26712:27044   */\n    tag_142:\n        /* \"#utility.yul\":26833:26837   */\n      0x00\n        /* \"#utility.yul\":26871:26873   */\n      0x40\n        /* \"#utility.yul\":26860:26869   */\n      dup3\n        /* \"#utility.yul\":26856:26874   */\n      add\n        /* \"#utility.yul\":26848:26874   */\n      swap1\n      pop\n        /* \"#utility.yul\":26884:26955   */\n      tag_451\n        /* \"#utility.yul\":26952:26953   */\n      0x00\n        /* \"#utility.yul\":26941:26950   */\n      dup4\n        /* \"#utility.yul\":26937:26954   */\n      add\n        /* \"#utility.yul\":26928:26934   */\n      dup6\n        /* \"#utility.yul\":26884:26955   */\n      tag_199\n      jump\t// in\n    tag_451:\n        /* \"#utility.yul\":26965:27037   */\n      tag_452\n        /* \"#utility.yul\":27033:27035   */\n      0x20\n        /* \"#utility.yul\":27022:27031   */\n      dup4\n        /* \"#utility.yul\":27018:27036   */\n      add\n        /* \"#utility.yul\":27009:27015   */\n      dup5\n        /* \"#utility.yul\":26965:27037   */\n      tag_202\n      jump\t// in\n    tag_452:\n        /* \"#utility.yul\":26712:27044   */\n      swap4\n      swap3\n      pop\n      pop\n      pop\n      jump\t// out\n\n    auxdata: 0xa2646970667358221220bf0245bcb81a5abdaabb65fa23478d4bcf4850facab52bdc6e17db13c2fc97dd64736f6c634300081a0033\n}\n",
				"bytecode": {
					"linkReferences": {},
					"object": "6080604052348015600f57600080fd5b506123218061001f6000396000f3fe6080604052600436106100915760003560e01c8063642f2eaf11610059578063642f2eaf146101955780637cf4c543146101d75780637dc379fa14610200578063e5b0b1001461023d578063f851a4401461027a57610091565b8063047ac364146100965780631540451e146100d35780633a74717d146100fc5780634aae13ca1461011857806350b4471214610155575b600080fd5b3480156100a257600080fd5b506100bd60048036038101906100b89190611743565b6102a5565b6040516100ca91906118f6565b60405180910390f35b3480156100df57600080fd5b506100fa60048036038101906100f59190611944565b6106b5565b005b610116600480360381019061011191906119b0565b6109cb565b005b34801561012457600080fd5b5061013f600480360381019061013a91906119b0565b610d44565b60405161014c9190611a58565b60405180910390f35b34801561016157600080fd5b5061017c60048036038101906101779190611a73565b610e56565b60405161018c9493929190611acd565b60405180910390f35b3480156101a157600080fd5b506101bc60048036038101906101b791906119b0565b610eb3565b6040516101ce96959493929190611b21565b60405180910390f35b3480156101e357600080fd5b506101fe60048036038101906101f99190611b82565b610f3c565b005b34801561020c57600080fd5b5061022760048036038101906102229190611a73565b6112b5565b6040516102349190611c17565b60405180910390f35b34801561024957600080fd5b50610264600480360381019061025f9190611743565b611367565b6040516102719190611d36565b60405180910390f35b34801561028657600080fd5b5061028f611615565b60405161029c9190611d58565b60405180910390f35b60606000805b60048054905081101561046c57600060026000600484815481106102d2576102d1611d73565b5b906000526020600020015481526020019081526020016000206040518060c0016040529081600082015481526020016001820160009054906101000a900473ffffffffffffffffffffffffffffffffffffffff1673ffffffffffffffffffffffffffffffffffffffff1673ffffffffffffffffffffffffffffffffffffffff1681526020016002820160009054906101000a900473ffffffffffffffffffffffffffffffffffffffff1673ffffffffffffffffffffffffffffffffffffffff1673ffffffffffffffffffffffffffffffffffffffff168152602001600382015481526020016004820160009054906101000a900460ff1615151515815260200160058201548152505090508473ffffffffffffffffffffffffffffffffffffffff16816020015173ffffffffffffffffffffffffffffffffffffffff16148061044a57508473ffffffffffffffffffffffffffffffffffffffff16816040015173ffffffffffffffffffffffffffffffffffffffff16145b1561045e57828061045a90611dd1565b9350505b5080806001019150506102ab565b5060008167ffffffffffffffff81111561048957610488611e19565b5b6040519080825280602002602001820160405280156104c257816020015b6104af611639565b8152602001906001900390816104a75790505b5090506000805b6004805490508110156106a957600060026000600484815481106104f0576104ef611d73565b5b906000526020600020015481526020019081526020016000206040518060c0016040529081600082015481526020016001820160009054906101000a900473ffffffffffffffffffffffffffffffffffffffff1673ffffffffffffffffffffffffffffffffffffffff1673ffffffffffffffffffffffffffffffffffffffff1681526020016002820160009054906101000a900473ffffffffffffffffffffffffffffffffffffffff1673ffffffffffffffffffffffffffffffffffffffff1673ffffffffffffffffffffffffffffffffffffffff168152602001600382015481526020016004820160009054906101000a900460ff1615151515815260200160058201548152505090508673ffffffffffffffffffffffffffffffffffffffff16816020015173ffffffffffffffffffffffffffffffffffffffff16148061066857508673ffffffffffffffffffffffffffffffffffffffff16816040015173ffffffffffffffffffffffffffffffffffffffff16145b1561069b578084848151811061068157610680611d73565b5b6020026020010181905250828061069790611dd1565b9350505b5080806001019150506104c9565b50819350505050919050565b6000600160008481526020019081526020016000209050600073ffffffffffffffffffffffffffffffffffffffff168160010160009054906101000a900473ffffffffffffffffffffffffffffffffffffffff1673ffffffffffffffffffffffffffffffffffffffff160361086c5760405180608001604052808481526020013373ffffffffffffffffffffffffffffffffffffffff16815260200183815260200160011515815250600160008581526020019081526020016000206000820151816000015560208201518160010160006101000a81548173ffffffffffffffffffffffffffffffffffffffff021916908373ffffffffffffffffffffffffffffffffffffffff1602179055506040820151816002015560608201518160030160006101000a81548160ff02191690831515021790555090505060038390806001815401808255809150506001900390600052602060002001600090919091909150553373ffffffffffffffffffffffffffffffffffffffff16837f885aea068dfc8d64b3da0c1131d16d6e26947c043fb441c446de14a01087540d8460405161085f9190611e48565b60405180910390a36109c6565b3373ffffffffffffffffffffffffffffffffffffffff168160010160009054906101000a900473ffffffffffffffffffffffffffffffffffffffff1673ffffffffffffffffffffffffffffffffffffffff16146108fe576040517f08c379a00000000000000000000000000000000000000000000000000000000081526004016108f590611ee6565b60405180910390fd5b8060030160009054906101000a900460ff1615610950576040517f08c379a000000000000000000000000000000000000000000000000000000000815260040161094790611f52565b60405180910390fd5b60018160030160006101000a81548160ff0219169083151502179055508181600201819055503373ffffffffffffffffffffffffffffffffffffffff16837f885aea068dfc8d64b3da0c1131d16d6e26947c043fb441c446de14a01087540d846040516109bd9190611e48565b60405180910390a35b505050565b60006002600083815260200190815260200160002090508060040160009054906101000a900460ff1615610a34576040517f08c379a0000000000000000000000000000000000000000000000000000000008152600401610a2b90611fbe565b60405180910390fd5b8060030154341015610a7b576040517f08c379a0000000000000000000000000000000000000000000000000000000008152600401610a729061202a565b60405180910390fd5b3373ffffffffffffffffffffffffffffffffffffffff168160010160009054906101000a900473ffffffffffffffffffffffffffffffffffffffff1673ffffffffffffffffffffffffffffffffffffffff1614610b0d576040517f08c379a0000000000000000000000000000000000000000000000000000000008152600401610b0490612096565b60405180910390fd5b6000600160008360000154815260200190815260200160002090508060030160009054906101000a900460ff16610b79576040517f08c379a0000000000000000000000000000000000000000000000000000000008152600401610b7090612102565b60405180910390fd5b8160020160009054906101000a900473ffffffffffffffffffffffffffffffffffffffff1673ffffffffffffffffffffffffffffffffffffffff166108fc83600301549081150290604051600060405180830381858888f19350505050158015610be7573d6000803e3d6000fd5b508160010160009054906101000a900473ffffffffffffffffffffffffffffffffffffffff168160010160006101000a81548173ffffffffffffffffffffffffffffffffffffffff021916908373ffffffffffffffffffffffffffffffffffffffff16021790555060008160030160006101000a81548160ff02191690831515021790555060018260040160006101000a81548160ff0219169083151502179055508160020160009054906101000a900473ffffffffffffffffffffffffffffffffffffffff1673ffffffffffffffffffffffffffffffffffffffff168260010160009054906101000a900473ffffffffffffffffffffffffffffffffffffffff1673ffffffffffffffffffffffffffffffffffffffff1683600001547f37a13dcf7266fe3681e46ca252ea4f79e8a76da88ae9446f99242fbc014a6c398560030154604051610d379190611e48565b60405180910390a4505050565b610d4c611639565b600260008381526020019081526020016000206040518060c0016040529081600082015481526020016001820160009054906101000a900473ffffffffffffffffffffffffffffffffffffffff1673ffffffffffffffffffffffffffffffffffffffff1673ffffffffffffffffffffffffffffffffffffffff1681526020016002820160009054906101000a900473ffffffffffffffffffffffffffffffffffffffff1673ffffffffffffffffffffffffffffffffffffffff1673ffffffffffffffffffffffffffffffffffffffff168152602001600382015481526020016004820160009054906101000a900460ff161515151581526020016005820154815250509050919050565b60016020528060005260406000206000915090508060000154908060010160009054906101000a900473ffffffffffffffffffffffffffffffffffffffff16908060020154908060030160009054906101000a900460ff16905084565b60026020528060005260406000206000915090508060000154908060010160009054906101000a900473ffffffffffffffffffffffffffffffffffffffff16908060020160009054906101000a900473ffffffffffffffffffffffffffffffffffffffff16908060030154908060040160009054906101000a900460ff16908060050154905086565b600060016000848152602001908152602001600020604051806080016040529081600082015481526020016001820160009054906101000a900473ffffffffffffffffffffffffffffffffffffffff1673ffffffffffffffffffffffffffffffffffffffff1673ffffffffffffffffffffffffffffffffffffffff168152602001600282015481526020016003820160009054906101000a900460ff16151515158152505090508060600151611027576040517f08c379a000000000000000000000000000000000000000000000000000000000815260040161101e9061216e565b60405180910390fd5b3373ffffffffffffffffffffffffffffffffffffffff16816020015173ffffffffffffffffffffffffffffffffffffffff1603611099576040517f08c379a0000000000000000000000000000000000000000000000000000000008152600401611090906121da565b60405180910390fd5b6000838383602001518460400151426040516020016110bc959493929190612263565b6040516020818303038152906040528051906020012090506040518060c001604052808581526020018473ffffffffffffffffffffffffffffffffffffffff168152602001836020015173ffffffffffffffffffffffffffffffffffffffff1681526020018360400151815260200160001515815260200182815250600260008381526020019081526020016000206000820151816000015560208201518160010160006101000a81548173ffffffffffffffffffffffffffffffffffffffff021916908373ffffffffffffffffffffffffffffffffffffffff16021790555060408201518160020160006101000a81548173ffffffffffffffffffffffffffffffffffffffff021916908373ffffffffffffffffffffffffffffffffffffffff1602179055506060820151816003015560808201518160040160006101000a81548160ff02191690831515021790555060a0820151816005015590505060048190806001815401808255809150506001900390600052602060002001600090919091909150553373ffffffffffffffffffffffffffffffffffffffff168373ffffffffffffffffffffffffffffffffffffffff16857f134a388716b167dae2534ca04765e55a86d3e6e1181931c2d9524f94da09c83b8560400151856040516112a79291906122c2565b60405180910390a450505050565b6112bd6116a0565b60016000838152602001908152602001600020604051806080016040529081600082015481526020016001820160009054906101000a900473ffffffffffffffffffffffffffffffffffffffff1673ffffffffffffffffffffffffffffffffffffffff1673ffffffffffffffffffffffffffffffffffffffff168152602001600282015481526020016003820160009054906101000a900460ff1615151515815250509050919050565b60606000805b60038054905081101561141d578373ffffffffffffffffffffffffffffffffffffffff1660016000600384815481106113a9576113a8611d73565b5b9060005260206000200154815260200190815260200160002060010160009054906101000a900473ffffffffffffffffffffffffffffffffffffffff1673ffffffffffffffffffffffffffffffffffffffff160361141057818061140c90611dd1565b9250505b808060010191505061136d565b5060008167ffffffffffffffff81111561143a57611439611e19565b5b60405190808252806020026020018201604052801561147357816020015b6114606116a0565b8152602001906001900390816114585790505b5090506000805b600380549050811015611609578573ffffffffffffffffffffffffffffffffffffffff1660016000600384815481106114b6576114b5611d73565b5b9060005260206000200154815260200190815260200160002060010160009054906101000a900473ffffffffffffffffffffffffffffffffffffffff1673ffffffffffffffffffffffffffffffffffffffff16036115fc57600160006003838154811061152657611525611d73565b5b90600052602060002001548152602001908152602001600020604051806080016040529081600082015481526020016001820160009054906101000a900473ffffffffffffffffffffffffffffffffffffffff1673ffffffffffffffffffffffffffffffffffffffff1673ffffffffffffffffffffffffffffffffffffffff168152602001600282015481526020016003820160009054906101000a900460ff1615151515815250508383815181106115e2576115e1611d73565b5b602002602001018190525081806115f890611dd1565b9250505b808060010191505061147a565b50819350505050919050565b60008054906101000a900473ffffffffffffffffffffffffffffffffffffffff1681565b6040518060c0016040528060008152602001600073ffffffffffffffffffffffffffffffffffffffff168152602001600073ffffffffffffffffffffffffffffffffffffffff16815260200160008152602001600015158152602001600080191681525090565b604051806080016040528060008152602001600073ffffffffffffffffffffffffffffffffffffffff168152602001600081526020016000151581525090565b600080fd5b600073ffffffffffffffffffffffffffffffffffffffff82169050919050565b6000611710826116e5565b9050919050565b61172081611705565b811461172b57600080fd5b50565b60008135905061173d81611717565b92915050565b600060208284031215611759576117586116e0565b5b60006117678482850161172e565b91505092915050565b600081519050919050565b600082825260208201905092915050565b6000819050602082019050919050565b6000819050919050565b6117af8161179c565b82525050565b6117be81611705565b82525050565b60008115159050919050565b6117d9816117c4565b82525050565b6000819050919050565b6117f2816117df565b82525050565b60c08201600082015161180e60008501826117a6565b50602082015161182160208501826117b5565b50604082015161183460408501826117b5565b50606082015161184760608501826117a6565b50608082015161185a60808501826117d0565b5060a082015161186d60a08501826117e9565b50505050565b600061187f83836117f8565b60c08301905092915050565b6000602082019050919050565b60006118a382611770565b6118ad818561177b565b93506118b88361178c565b8060005b838110156118e95781516118d08882611873565b97506118db8361188b565b9250506001810190506118bc565b5085935050505092915050565b600060208201905081810360008301526119108184611898565b905092915050565b6119218161179c565b811461192c57600080fd5b50565b60008135905061193e81611918565b92915050565b6000806040838503121561195b5761195a6116e0565b5b60006119698582860161192f565b925050602061197a8582860161192f565b9150509250929050565b61198d816117df565b811461199857600080fd5b50565b6000813590506119aa81611984565b92915050565b6000602082840312156119c6576119c56116e0565b5b60006119d48482850161199b565b91505092915050565b60c0820160008201516119f360008501826117a6565b506020820151611a0660208501826117b5565b506040820151611a1960408501826117b5565b506060820151611a2c60608501826117a6565b506080820151611a3f60808501826117d0565b5060a0820151611a5260a08501826117e9565b50505050565b600060c082019050611a6d60008301846119dd565b92915050565b600060208284031215611a8957611a886116e0565b5b6000611a978482850161192f565b91505092915050565b611aa98161179c565b82525050565b611ab881611705565b82525050565b611ac7816117c4565b82525050565b6000608082019050611ae26000830187611aa0565b611aef6020830186611aaf565b611afc6040830185611aa0565b611b096060830184611abe565b95945050505050565b611b1b816117df565b82525050565b600060c082019050611b366000830189611aa0565b611b436020830188611aaf565b611b506040830187611aaf565b611b5d6060830186611aa0565b611b6a6080830185611abe565b611b7760a0830184611b12565b979650505050505050565b60008060408385031215611b9957611b986116e0565b5b6000611ba78582860161192f565b9250506020611bb88582860161172e565b9150509250929050565b608082016000820151611bd860008501826117a6565b506020820151611beb60208501826117b5565b506040820151611bfe60408501826117a6565b506060820151611c1160608501826117d0565b50505050565b6000608082019050611c2c6000830184611bc2565b92915050565b600081519050919050565b600082825260208201905092915050565b6000819050602082019050919050565b608082016000820151611c7460008501826117a6565b506020820151611c8760208501826117b5565b506040820151611c9a60408501826117a6565b506060820151611cad60608501826117d0565b50505050565b6000611cbf8383611c5e565b60808301905092915050565b6000602082019050919050565b6000611ce382611c32565b611ced8185611c3d565b9350611cf883611c4e565b8060005b83811015611d29578151611d108882611cb3565b9750611d1b83611ccb565b925050600181019050611cfc565b5085935050505092915050565b60006020820190508181036000830152611d508184611cd8565b905092915050565b6000602082019050611d6d6000830184611aaf565b92915050565b7f4e487b7100000000000000000000000000000000000000000000000000000000600052603260045260246000fd5b7f4e487b7100000000000000000000000000000000000000000000000000000000600052601160045260246000fd5b6000611ddc8261179c565b91507fffffffffffffffffffffffffffffffffffffffffffffffffffffffffffffffff8203611e0e57611e0d611da2565b5b600182019050919050565b7f4e487b7100000000000000000000000000000000000000000000000000000000600052604160045260246000fd5b6000602082019050611e5d6000830184611aa0565b92915050565b600082825260208201905092915050565b7f4f6e6c7920746865206f776e65722063616e206d616b6520746865207469636b60008201527f657420617661696c61626c650000000000000000000000000000000000000000602082015250565b6000611ed0602c83611e63565b9150611edb82611e74565b604082019050919050565b60006020820190508181036000830152611eff81611ec3565b9050919050565b7f5469636b657420697320616c726561647920617661696c61626c650000000000600082015250565b6000611f3c601b83611e63565b9150611f4782611f06565b602082019050919050565b60006020820190508181036000830152611f6b81611f2f565b9050919050565b7f5472616e73616374696f6e20616c726561647920636f6d706c65746564000000600082015250565b6000611fa8601d83611e63565b9150611fb382611f72565b602082019050919050565b60006020820190508181036000830152611fd781611f9b565b9050919050565b7f496e73756666696369656e74207061796d656e74000000000000000000000000600082015250565b6000612014601483611e63565b915061201f82611fde565b602082019050919050565b6000602082019050818103600083015261204381612007565b9050919050565b7f4275796572206973206e6f74207265636f676e697a6564000000000000000000600082015250565b6000612080601783611e63565b915061208b8261204a565b602082019050919050565b600060208201905081810360008301526120af81612073565b9050919050565b7f5469636b6574206973206e6f206c6f6e67657220617661696c61626c65000000600082015250565b60006120ec601d83611e63565b91506120f7826120b6565b602082019050919050565b6000602082019050818103600083015261211b816120df565b9050919050565b7f5469636b6574206973206e6f7420617661696c61626c65000000000000000000600082015250565b6000612158601783611e63565b915061216382612122565b602082019050919050565b600060208201905081810360008301526121878161214b565b9050919050565b7f546865206f776e65722063616e2774206275792074686973207469636b657400600082015250565b60006121c4601f83611e63565b91506121cf8261218e565b602082019050919050565b600060208201905081810360008301526121f3816121b7565b9050919050565b6000819050919050565b6122156122108261179c565b6121fa565b82525050565b60008160601b9050919050565b60006122338261221b565b9050919050565b600061224582612228565b9050919050565b61225d61225882611705565b61223a565b82525050565b600061226f8288612204565b60208201915061227f828761224c565b60148201915061228f828661224c565b60148201915061229f8285612204565b6020820191506122af8284612204565b6020820191508190509695505050505050565b60006040820190506122d76000830185611aa0565b6122e46020830184611b12565b939250505056fea2646970667358221220bf0245bcb81a5abdaabb65fa23478d4bcf4850facab52bdc6e17db13c2fc97dd64736f6c634300081a0033",
					"opcodes": "PUSH1 0x80 PUSH1 0x40 MSTORE CALLVALUE DUP1 ISZERO PUSH1 0xF JUMPI PUSH1 0x0 DUP1 REVERT JUMPDEST POP PUSH2 0x2321 DUP1 PUSH2 0x1F PUSH1 0x0 CODECOPY PUSH1 0x0 RETURN INVALID PUSH1 0x80 PUSH1 0x40 MSTORE PUSH1 0x4 CALLDATASIZE LT PUSH2 0x91 JUMPI PUSH1 0x0 CALLDATALOAD PUSH1 0xE0 SHR DUP1 PUSH4 0x642F2EAF GT PUSH2 0x59 JUMPI DUP1 PUSH4 0x642F2EAF EQ PUSH2 0x195 JUMPI DUP1 PUSH4 0x7CF4C543 EQ PUSH2 0x1D7 JUMPI DUP1 PUSH4 0x7DC379FA EQ PUSH2 0x200 JUMPI DUP1 PUSH4 0xE5B0B100 EQ PUSH2 0x23D JUMPI DUP1 PUSH4 0xF851A440 EQ PUSH2 0x27A JUMPI PUSH2 0x91 JUMP JUMPDEST DUP1 PUSH4 0x47AC364 EQ PUSH2 0x96 JUMPI DUP1 PUSH4 0x1540451E EQ PUSH2 0xD3 JUMPI DUP1 PUSH4 0x3A74717D EQ PUSH2 0xFC JUMPI DUP1 PUSH4 0x4AAE13CA EQ PUSH2 0x118 JUMPI DUP1 PUSH4 0x50B44712 EQ PUSH2 0x155 JUMPI JUMPDEST PUSH1 0x0 DUP1 REVERT JUMPDEST CALLVALUE DUP1 ISZERO PUSH2 0xA2 JUMPI PUSH1 0x0 DUP1 REVERT JUMPDEST POP PUSH2 0xBD PUSH1 0x4 DUP1 CALLDATASIZE SUB DUP2 ADD SWAP1 PUSH2 0xB8 SWAP2 SWAP1 PUSH2 0x1743 JUMP JUMPDEST PUSH2 0x2A5 JUMP JUMPDEST PUSH1 0x40 MLOAD PUSH2 0xCA SWAP2 SWAP1 PUSH2 0x18F6 JUMP JUMPDEST PUSH1 0x40 MLOAD DUP1 SWAP2 SUB SWAP1 RETURN JUMPDEST CALLVALUE DUP1 ISZERO PUSH2 0xDF JUMPI PUSH1 0x0 DUP1 REVERT JUMPDEST POP PUSH2 0xFA PUSH1 0x4 DUP1 CALLDATASIZE SUB DUP2 ADD SWAP1 PUSH2 0xF5 SWAP2 SWAP1 PUSH2 0x1944 JUMP JUMPDEST PUSH2 0x6B5 JUMP JUMPDEST STOP JUMPDEST PUSH2 0x116 PUSH1 0x4 DUP1 CALLDATASIZE SUB DUP2 ADD SWAP1 PUSH2 0x111 SWAP2 SWAP1 PUSH2 0x19B0 JUMP JUMPDEST PUSH2 0x9CB JUMP JUMPDEST STOP JUMPDEST CALLVALUE DUP1 ISZERO PUSH2 0x124 JUMPI PUSH1 0x0 DUP1 REVERT JUMPDEST POP PUSH2 0x13F PUSH1 0x4 DUP1 CALLDATASIZE SUB DUP2 ADD SWAP1 PUSH2 0x13A SWAP2 SWAP1 PUSH2 0x19B0 JUMP JUMPDEST PUSH2 0xD44 JUMP JUMPDEST PUSH1 0x40 MLOAD PUSH2 0x14C SWAP2 SWAP1 PUSH2 0x1A58 JUMP JUMPDEST PUSH1 0x40 MLOAD DUP1 SWAP2 SUB SWAP1 RETURN JUMPDEST CALLVALUE DUP1 ISZERO PUSH2 0x161 JUMPI PUSH1 0x0 DUP1 REVERT JUMPDEST POP PUSH2 0x17C PUSH1 0x4 DUP1 CALLDATASIZE SUB DUP2 ADD SWAP1 PUSH2 0x177 SWAP2 SWAP1 PUSH2 0x1A73 JUMP JUMPDEST PUSH2 0xE56 JUMP JUMPDEST PUSH1 0x40 MLOAD PUSH2 0x18C SWAP5 SWAP4 SWAP3 SWAP2 SWAP1 PUSH2 0x1ACD JUMP JUMPDEST PUSH1 0x40 MLOAD DUP1 SWAP2 SUB SWAP1 RETURN JUMPDEST CALLVALUE DUP1 ISZERO PUSH2 0x1A1 JUMPI PUSH1 0x0 DUP1 REVERT JUMPDEST POP PUSH2 0x1BC PUSH1 0x4 DUP1 CALLDATASIZE SUB DUP2 ADD SWAP1 PUSH2 0x1B7 SWAP2 SWAP1 PUSH2 0x19B0 JUMP JUMPDEST PUSH2 0xEB3 JUMP JUMPDEST PUSH1 0x40 MLOAD PUSH2 0x1CE SWAP7 SWAP6 SWAP5 SWAP4 SWAP3 SWAP2 SWAP1 PUSH2 0x1B21 JUMP JUMPDEST PUSH1 0x40 MLOAD DUP1 SWAP2 SUB SWAP1 RETURN JUMPDEST CALLVALUE DUP1 ISZERO PUSH2 0x1E3 JUMPI PUSH1 0x0 DUP1 REVERT JUMPDEST POP PUSH2 0x1FE PUSH1 0x4 DUP1 CALLDATASIZE SUB DUP2 ADD SWAP1 PUSH2 0x1F9 SWAP2 SWAP1 PUSH2 0x1B82 JUMP JUMPDEST PUSH2 0xF3C JUMP JUMPDEST STOP JUMPDEST CALLVALUE DUP1 ISZERO PUSH2 0x20C JUMPI PUSH1 0x0 DUP1 REVERT JUMPDEST POP PUSH2 0x227 PUSH1 0x4 DUP1 CALLDATASIZE SUB DUP2 ADD SWAP1 PUSH2 0x222 SWAP2 SWAP1 PUSH2 0x1A73 JUMP JUMPDEST PUSH2 0x12B5 JUMP JUMPDEST PUSH1 0x40 MLOAD PUSH2 0x234 SWAP2 SWAP1 PUSH2 0x1C17 JUMP JUMPDEST PUSH1 0x40 MLOAD DUP1 SWAP2 SUB SWAP1 RETURN JUMPDEST CALLVALUE DUP1 ISZERO PUSH2 0x249 JUMPI PUSH1 0x0 DUP1 REVERT JUMPDEST POP PUSH2 0x264 PUSH1 0x4 DUP1 CALLDATASIZE SUB DUP2 ADD SWAP1 PUSH2 0x25F SWAP2 SWAP1 PUSH2 0x1743 JUMP JUMPDEST PUSH2 0x1367 JUMP JUMPDEST PUSH1 0x40 MLOAD PUSH2 0x271 SWAP2 SWAP1 PUSH2 0x1D36 JUMP JUMPDEST PUSH1 0x40 MLOAD DUP1 SWAP2 SUB SWAP1 RETURN JUMPDEST CALLVALUE DUP1 ISZERO PUSH2 0x286 JUMPI PUSH1 0x0 DUP1 REVERT JUMPDEST POP PUSH2 0x28F PUSH2 0x1615 JUMP JUMPDEST PUSH1 0x40 MLOAD PUSH2 0x29C SWAP2 SWAP1 PUSH2 0x1D58 JUMP JUMPDEST PUSH1 0x40 MLOAD DUP1 SWAP2 SUB SWAP1 RETURN JUMPDEST PUSH1 0x60 PUSH1 0x0 DUP1 JUMPDEST PUSH1 0x4 DUP1 SLOAD SWAP1 POP DUP2 LT ISZERO PUSH2 0x46C JUMPI PUSH1 0x0 PUSH1 0x2 PUSH1 0x0 PUSH1 0x4 DUP5 DUP2 SLOAD DUP2 LT PUSH2 0x2D2 JUMPI PUSH2 0x2D1 PUSH2 0x1D73 JUMP JUMPDEST JUMPDEST SWAP1 PUSH1 0x0 MSTORE PUSH1 0x20 PUSH1 0x0 KECCAK256 ADD SLOAD DUP2 MSTORE PUSH1 0x20 ADD SWAP1 DUP2 MSTORE PUSH1 0x20 ADD PUSH1 0x0 KECCAK256 PUSH1 0x40 MLOAD DUP1 PUSH1 0xC0 ADD PUSH1 0x40 MSTORE SWAP1 DUP2 PUSH1 0x0 DUP3 ADD SLOAD DUP2 MSTORE PUSH1 0x20 ADD PUSH1 0x1 DUP3 ADD PUSH1 0x0 SWAP1 SLOAD SWAP1 PUSH2 0x100 EXP SWAP1 DIV PUSH20 0xFFFFFFFFFFFFFFFFFFFFFFFFFFFFFFFFFFFFFFFF AND PUSH20 0xFFFFFFFFFFFFFFFFFFFFFFFFFFFFFFFFFFFFFFFF AND PUSH20 0xFFFFFFFFFFFFFFFFFFFFFFFFFFFFFFFFFFFFFFFF AND DUP2 MSTORE PUSH1 0x20 ADD PUSH1 0x2 DUP3 ADD PUSH1 0x0 SWAP1 SLOAD SWAP1 PUSH2 0x100 EXP SWAP1 DIV PUSH20 0xFFFFFFFFFFFFFFFFFFFFFFFFFFFFFFFFFFFFFFFF AND PUSH20 0xFFFFFFFFFFFFFFFFFFFFFFFFFFFFFFFFFFFFFFFF AND PUSH20 0xFFFFFFFFFFFFFFFFFFFFFFFFFFFFFFFFFFFFFFFF AND DUP2 MSTORE PUSH1 0x20 ADD PUSH1 0x3 DUP3 ADD SLOAD DUP2 MSTORE PUSH1 0x20 ADD PUSH1 0x4 DUP3 ADD PUSH1 0x0 SWAP1 SLOAD SWAP1 PUSH2 0x100 EXP SWAP1 DIV PUSH1 0xFF AND ISZERO ISZERO ISZERO ISZERO DUP2 MSTORE PUSH1 0x20 ADD PUSH1 0x5 DUP3 ADD SLOAD DUP2 MSTORE POP POP SWAP1 POP DUP5 PUSH20 0xFFFFFFFFFFFFFFFFFFFFFFFFFFFFFFFFFFFFFFFF AND DUP2 PUSH1 0x20 ADD MLOAD PUSH20 0xFFFFFFFFFFFFFFFFFFFFFFFFFFFFFFFFFFFFFFFF AND EQ DUP1 PUSH2 0x44A JUMPI POP DUP5 PUSH20 0xFFFFFFFFFFFFFFFFFFFFFFFFFFFFFFFFFFFFFFFF AND DUP2 PUSH1 0x40 ADD MLOAD PUSH20 0xFFFFFFFFFFFFFFFFFFFFFFFFFFFFFFFFFFFFFFFF AND EQ JUMPDEST ISZERO PUSH2 0x45E JUMPI DUP3 DUP1 PUSH2 0x45A SWAP1 PUSH2 0x1DD1 JUMP JUMPDEST SWAP4 POP POP JUMPDEST POP DUP1 DUP1 PUSH1 0x1 ADD SWAP2 POP POP PUSH2 0x2AB JUMP JUMPDEST POP PUSH1 0x0 DUP2 PUSH8 0xFFFFFFFFFFFFFFFF DUP2 GT ISZERO PUSH2 0x489 JUMPI PUSH2 0x488 PUSH2 0x1E19 JUMP JUMPDEST JUMPDEST PUSH1 0x40 MLOAD SWAP1 DUP1 DUP3 MSTORE DUP1 PUSH1 0x20 MUL PUSH1 0x20 ADD DUP3 ADD PUSH1 0x40 MSTORE DUP1 ISZERO PUSH2 0x4C2 JUMPI DUP2 PUSH1 0x20 ADD JUMPDEST PUSH2 0x4AF PUSH2 0x1639 JUMP JUMPDEST DUP2 MSTORE PUSH1 0x20 ADD SWAP1 PUSH1 0x1 SWAP1 SUB SWAP1 DUP2 PUSH2 0x4A7 JUMPI SWAP1 POP JUMPDEST POP SWAP1 POP PUSH1 0x0 DUP1 JUMPDEST PUSH1 0x4 DUP1 SLOAD SWAP1 POP DUP2 LT ISZERO PUSH2 0x6A9 JUMPI PUSH1 0x0 PUSH1 0x2 PUSH1 0x0 PUSH1 0x4 DUP5 DUP2 SLOAD DUP2 LT PUSH2 0x4F0 JUMPI PUSH2 0x4EF PUSH2 0x1D73 JUMP JUMPDEST JUMPDEST SWAP1 PUSH1 0x0 MSTORE PUSH1 0x20 PUSH1 0x0 KECCAK256 ADD SLOAD DUP2 MSTORE PUSH1 0x20 ADD SWAP1 DUP2 MSTORE PUSH1 0x20 ADD PUSH1 0x0 KECCAK256 PUSH1 0x40 MLOAD DUP1 PUSH1 0xC0 ADD PUSH1 0x40 MSTORE SWAP1 DUP2 PUSH1 0x0 DUP3 ADD SLOAD DUP2 MSTORE PUSH1 0x20 ADD PUSH1 0x1 DUP3 ADD PUSH1 0x0 SWAP1 SLOAD SWAP1 PUSH2 0x100 EXP SWAP1 DIV PUSH20 0xFFFFFFFFFFFFFFFFFFFFFFFFFFFFFFFFFFFFFFFF AND PUSH20 0xFFFFFFFFFFFFFFFFFFFFFFFFFFFFFFFFFFFFFFFF AND PUSH20 0xFFFFFFFFFFFFFFFFFFFFFFFFFFFFFFFFFFFFFFFF AND DUP2 MSTORE PUSH1 0x20 ADD PUSH1 0x2 DUP3 ADD PUSH1 0x0 SWAP1 SLOAD SWAP1 PUSH2 0x100 EXP SWAP1 DIV PUSH20 0xFFFFFFFFFFFFFFFFFFFFFFFFFFFFFFFFFFFFFFFF AND PUSH20 0xFFFFFFFFFFFFFFFFFFFFFFFFFFFFFFFFFFFFFFFF AND PUSH20 0xFFFFFFFFFFFFFFFFFFFFFFFFFFFFFFFFFFFFFFFF AND DUP2 MSTORE PUSH1 0x20 ADD PUSH1 0x3 DUP3 ADD SLOAD DUP2 MSTORE PUSH1 0x20 ADD PUSH1 0x4 DUP3 ADD PUSH1 0x0 SWAP1 SLOAD SWAP1 PUSH2 0x100 EXP SWAP1 DIV PUSH1 0xFF AND ISZERO ISZERO ISZERO ISZERO DUP2 MSTORE PUSH1 0x20 ADD PUSH1 0x5 DUP3 ADD SLOAD DUP2 MSTORE POP POP SWAP1 POP DUP7 PUSH20 0xFFFFFFFFFFFFFFFFFFFFFFFFFFFFFFFFFFFFFFFF AND DUP2 PUSH1 0x20 ADD MLOAD PUSH20 0xFFFFFFFFFFFFFFFFFFFFFFFFFFFFFFFFFFFFFFFF AND EQ DUP1 PUSH2 0x668 JUMPI POP DUP7 PUSH20 0xFFFFFFFFFFFFFFFFFFFFFFFFFFFFFFFFFFFFFFFF AND DUP2 PUSH1 0x40 ADD MLOAD PUSH20 0xFFFFFFFFFFFFFFFFFFFFFFFFFFFFFFFFFFFFFFFF AND EQ JUMPDEST ISZERO PUSH2 0x69B JUMPI DUP1 DUP5 DUP5 DUP2 MLOAD DUP2 LT PUSH2 0x681 JUMPI PUSH2 0x680 PUSH2 0x1D73 JUMP JUMPDEST JUMPDEST PUSH1 0x20 MUL PUSH1 0x20 ADD ADD DUP2 SWAP1 MSTORE POP DUP3 DUP1 PUSH2 0x697 SWAP1 PUSH2 0x1DD1 JUMP JUMPDEST SWAP4 POP POP JUMPDEST POP DUP1 DUP1 PUSH1 0x1 ADD SWAP2 POP POP PUSH2 0x4C9 JUMP JUMPDEST POP DUP2 SWAP4 POP POP POP POP SWAP2 SWAP1 POP JUMP JUMPDEST PUSH1 0x0 PUSH1 0x1 PUSH1 0x0 DUP5 DUP2 MSTORE PUSH1 0x20 ADD SWAP1 DUP2 MSTORE PUSH1 0x20 ADD PUSH1 0x0 KECCAK256 SWAP1 POP PUSH1 0x0 PUSH20 0xFFFFFFFFFFFFFFFFFFFFFFFFFFFFFFFFFFFFFFFF AND DUP2 PUSH1 0x1 ADD PUSH1 0x0 SWAP1 SLOAD SWAP1 PUSH2 0x100 EXP SWAP1 DIV PUSH20 0xFFFFFFFFFFFFFFFFFFFFFFFFFFFFFFFFFFFFFFFF AND PUSH20 0xFFFFFFFFFFFFFFFFFFFFFFFFFFFFFFFFFFFFFFFF AND SUB PUSH2 0x86C JUMPI PUSH1 0x40 MLOAD DUP1 PUSH1 0x80 ADD PUSH1 0x40 MSTORE DUP1 DUP5 DUP2 MSTORE PUSH1 0x20 ADD CALLER PUSH20 0xFFFFFFFFFFFFFFFFFFFFFFFFFFFFFFFFFFFFFFFF AND DUP2 MSTORE PUSH1 0x20 ADD DUP4 DUP2 MSTORE PUSH1 0x20 ADD PUSH1 0x1 ISZERO ISZERO DUP2 MSTORE POP PUSH1 0x1 PUSH1 0x0 DUP6 DUP2 MSTORE PUSH1 0x20 ADD SWAP1 DUP2 MSTORE PUSH1 0x20 ADD PUSH1 0x0 KECCAK256 PUSH1 0x0 DUP3 ADD MLOAD DUP2 PUSH1 0x0 ADD SSTORE PUSH1 0x20 DUP3 ADD MLOAD DUP2 PUSH1 0x1 ADD PUSH1 0x0 PUSH2 0x100 EXP DUP2 SLOAD DUP2 PUSH20 0xFFFFFFFFFFFFFFFFFFFFFFFFFFFFFFFFFFFFFFFF MUL NOT AND SWAP1 DUP4 PUSH20 0xFFFFFFFFFFFFFFFFFFFFFFFFFFFFFFFFFFFFFFFF AND MUL OR SWAP1 SSTORE POP PUSH1 0x40 DUP3 ADD MLOAD DUP2 PUSH1 0x2 ADD SSTORE PUSH1 0x60 DUP3 ADD MLOAD DUP2 PUSH1 0x3 ADD PUSH1 0x0 PUSH2 0x100 EXP DUP2 SLOAD DUP2 PUSH1 0xFF MUL NOT AND SWAP1 DUP4 ISZERO ISZERO MUL OR SWAP1 SSTORE POP SWAP1 POP POP PUSH1 0x3 DUP4 SWAP1 DUP1 PUSH1 0x1 DUP2 SLOAD ADD DUP1 DUP3 SSTORE DUP1 SWAP2 POP POP PUSH1 0x1 SWAP1 SUB SWAP1 PUSH1 0x0 MSTORE PUSH1 0x20 PUSH1 0x0 KECCAK256 ADD PUSH1 0x0 SWAP1 SWAP2 SWAP1 SWAP2 SWAP1 SWAP2 POP SSTORE CALLER PUSH20 0xFFFFFFFFFFFFFFFFFFFFFFFFFFFFFFFFFFFFFFFF AND DUP4 PUSH32 0x885AEA068DFC8D64B3DA0C1131D16D6E26947C043FB441C446DE14A01087540D DUP5 PUSH1 0x40 MLOAD PUSH2 0x85F SWAP2 SWAP1 PUSH2 0x1E48 JUMP JUMPDEST PUSH1 0x40 MLOAD DUP1 SWAP2 SUB SWAP1 LOG3 PUSH2 0x9C6 JUMP JUMPDEST CALLER PUSH20 0xFFFFFFFFFFFFFFFFFFFFFFFFFFFFFFFFFFFFFFFF AND DUP2 PUSH1 0x1 ADD PUSH1 0x0 SWAP1 SLOAD SWAP1 PUSH2 0x100 EXP SWAP1 DIV PUSH20 0xFFFFFFFFFFFFFFFFFFFFFFFFFFFFFFFFFFFFFFFF AND PUSH20 0xFFFFFFFFFFFFFFFFFFFFFFFFFFFFFFFFFFFFFFFF AND EQ PUSH2 0x8FE JUMPI PUSH1 0x40 MLOAD PUSH32 0x8C379A000000000000000000000000000000000000000000000000000000000 DUP2 MSTORE PUSH1 0x4 ADD PUSH2 0x8F5 SWAP1 PUSH2 0x1EE6 JUMP JUMPDEST PUSH1 0x40 MLOAD DUP1 SWAP2 SUB SWAP1 REVERT JUMPDEST DUP1 PUSH1 0x3 ADD PUSH1 0x0 SWAP1 SLOAD SWAP1 PUSH2 0x100 EXP SWAP1 DIV PUSH1 0xFF AND ISZERO PUSH2 0x950 JUMPI PUSH1 0x40 MLOAD PUSH32 0x8C379A000000000000000000000000000000000000000000000000000000000 DUP2 MSTORE PUSH1 0x4 ADD PUSH2 0x947 SWAP1 PUSH2 0x1F52 JUMP JUMPDEST PUSH1 0x40 MLOAD DUP1 SWAP2 SUB SWAP1 REVERT JUMPDEST PUSH1 0x1 DUP2 PUSH1 0x3 ADD PUSH1 0x0 PUSH2 0x100 EXP DUP2 SLOAD DUP2 PUSH1 0xFF MUL NOT AND SWAP1 DUP4 ISZERO ISZERO MUL OR SWAP1 SSTORE POP DUP2 DUP2 PUSH1 0x2 ADD DUP2 SWAP1 SSTORE POP CALLER PUSH20 0xFFFFFFFFFFFFFFFFFFFFFFFFFFFFFFFFFFFFFFFF AND DUP4 PUSH32 0x885AEA068DFC8D64B3DA0C1131D16D6E26947C043FB441C446DE14A01087540D DUP5 PUSH1 0x40 MLOAD PUSH2 0x9BD SWAP2 SWAP1 PUSH2 0x1E48 JUMP JUMPDEST PUSH1 0x40 MLOAD DUP1 SWAP2 SUB SWAP1 LOG3 JUMPDEST POP POP POP JUMP JUMPDEST PUSH1 0x0 PUSH1 0x2 PUSH1 0x0 DUP4 DUP2 MSTORE PUSH1 0x20 ADD SWAP1 DUP2 MSTORE PUSH1 0x20 ADD PUSH1 0x0 KECCAK256 SWAP1 POP DUP1 PUSH1 0x4 ADD PUSH1 0x0 SWAP1 SLOAD SWAP1 PUSH2 0x100 EXP SWAP1 DIV PUSH1 0xFF AND ISZERO PUSH2 0xA34 JUMPI PUSH1 0x40 MLOAD PUSH32 0x8C379A000000000000000000000000000000000000000000000000000000000 DUP2 MSTORE PUSH1 0x4 ADD PUSH2 0xA2B SWAP1 PUSH2 0x1FBE JUMP JUMPDEST PUSH1 0x40 MLOAD DUP1 SWAP2 SUB SWAP1 REVERT JUMPDEST DUP1 PUSH1 0x3 ADD SLOAD CALLVALUE LT ISZERO PUSH2 0xA7B JUMPI PUSH1 0x40 MLOAD PUSH32 0x8C379A000000000000000000000000000000000000000000000000000000000 DUP2 MSTORE PUSH1 0x4 ADD PUSH2 0xA72 SWAP1 PUSH2 0x202A JUMP JUMPDEST PUSH1 0x40 MLOAD DUP1 SWAP2 SUB SWAP1 REVERT JUMPDEST CALLER PUSH20 0xFFFFFFFFFFFFFFFFFFFFFFFFFFFFFFFFFFFFFFFF AND DUP2 PUSH1 0x1 ADD PUSH1 0x0 SWAP1 SLOAD SWAP1 PUSH2 0x100 EXP SWAP1 DIV PUSH20 0xFFFFFFFFFFFFFFFFFFFFFFFFFFFFFFFFFFFFFFFF AND PUSH20 0xFFFFFFFFFFFFFFFFFFFFFFFFFFFFFFFFFFFFFFFF AND EQ PUSH2 0xB0D JUMPI PUSH1 0x40 MLOAD PUSH32 0x8C379A000000000000000000000000000000000000000000000000000000000 DUP2 MSTORE PUSH1 0x4 ADD PUSH2 0xB04 SWAP1 PUSH2 0x2096 JUMP JUMPDEST PUSH1 0x40 MLOAD DUP1 SWAP2 SUB SWAP1 REVERT JUMPDEST PUSH1 0x0 PUSH1 0x1 PUSH1 0x0 DUP4 PUSH1 0x0 ADD SLOAD DUP2 MSTORE PUSH1 0x20 ADD SWAP1 DUP2 MSTORE PUSH1 0x20 ADD PUSH1 0x0 KECCAK256 SWAP1 POP DUP1 PUSH1 0x3 ADD PUSH1 0x0 SWAP1 SLOAD SWAP1 PUSH2 0x100 EXP SWAP1 DIV PUSH1 0xFF AND PUSH2 0xB79 JUMPI PUSH1 0x40 MLOAD PUSH32 0x8C379A000000000000000000000000000000000000000000000000000000000 DUP2 MSTORE PUSH1 0x4 ADD PUSH2 0xB70 SWAP1 PUSH2 0x2102 JUMP JUMPDEST PUSH1 0x40 MLOAD DUP1 SWAP2 SUB SWAP1 REVERT JUMPDEST DUP2 PUSH1 0x2 ADD PUSH1 0x0 SWAP1 SLOAD SWAP1 PUSH2 0x100 EXP SWAP1 DIV PUSH20 0xFFFFFFFFFFFFFFFFFFFFFFFFFFFFFFFFFFFFFFFF AND PUSH20 0xFFFFFFFFFFFFFFFFFFFFFFFFFFFFFFFFFFFFFFFF AND PUSH2 0x8FC DUP4 PUSH1 0x3 ADD SLOAD SWAP1 DUP2 ISZERO MUL SWAP1 PUSH1 0x40 MLOAD PUSH1 0x0 PUSH1 0x40 MLOAD DUP1 DUP4 SUB DUP2 DUP6 DUP9 DUP9 CALL SWAP4 POP POP POP POP ISZERO DUP1 ISZERO PUSH2 0xBE7 JUMPI RETURNDATASIZE PUSH1 0x0 DUP1 RETURNDATACOPY RETURNDATASIZE PUSH1 0x0 REVERT JUMPDEST POP DUP2 PUSH1 0x1 ADD PUSH1 0x0 SWAP1 SLOAD SWAP1 PUSH2 0x100 EXP SWAP1 DIV PUSH20 0xFFFFFFFFFFFFFFFFFFFFFFFFFFFFFFFFFFFFFFFF AND DUP2 PUSH1 0x1 ADD PUSH1 0x0 PUSH2 0x100 EXP DUP2 SLOAD DUP2 PUSH20 0xFFFFFFFFFFFFFFFFFFFFFFFFFFFFFFFFFFFFFFFF MUL NOT AND SWAP1 DUP4 PUSH20 0xFFFFFFFFFFFFFFFFFFFFFFFFFFFFFFFFFFFFFFFF AND MUL OR SWAP1 SSTORE POP PUSH1 0x0 DUP2 PUSH1 0x3 ADD PUSH1 0x0 PUSH2 0x100 EXP DUP2 SLOAD DUP2 PUSH1 0xFF MUL NOT AND SWAP1 DUP4 ISZERO ISZERO MUL OR SWAP1 SSTORE POP PUSH1 0x1 DUP3 PUSH1 0x4 ADD PUSH1 0x0 PUSH2 0x100 EXP DUP2 SLOAD DUP2 PUSH1 0xFF MUL NOT AND SWAP1 DUP4 ISZERO ISZERO MUL OR SWAP1 SSTORE POP DUP2 PUSH1 0x2 ADD PUSH1 0x0 SWAP1 SLOAD SWAP1 PUSH2 0x100 EXP SWAP1 DIV PUSH20 0xFFFFFFFFFFFFFFFFFFFFFFFFFFFFFFFFFFFFFFFF AND PUSH20 0xFFFFFFFFFFFFFFFFFFFFFFFFFFFFFFFFFFFFFFFF AND DUP3 PUSH1 0x1 ADD PUSH1 0x0 SWAP1 SLOAD SWAP1 PUSH2 0x100 EXP SWAP1 DIV PUSH20 0xFFFFFFFFFFFFFFFFFFFFFFFFFFFFFFFFFFFFFFFF AND PUSH20 0xFFFFFFFFFFFFFFFFFFFFFFFFFFFFFFFFFFFFFFFF AND DUP4 PUSH1 0x0 ADD SLOAD PUSH32 0x37A13DCF7266FE3681E46CA252EA4F79E8A76DA88AE9446F99242FBC014A6C39 DUP6 PUSH1 0x3 ADD SLOAD PUSH1 0x40 MLOAD PUSH2 0xD37 SWAP2 SWAP1 PUSH2 0x1E48 JUMP JUMPDEST PUSH1 0x40 MLOAD DUP1 SWAP2 SUB SWAP1 LOG4 POP POP POP JUMP JUMPDEST PUSH2 0xD4C PUSH2 0x1639 JUMP JUMPDEST PUSH1 0x2 PUSH1 0x0 DUP4 DUP2 MSTORE PUSH1 0x20 ADD SWAP1 DUP2 MSTORE PUSH1 0x20 ADD PUSH1 0x0 KECCAK256 PUSH1 0x40 MLOAD DUP1 PUSH1 0xC0 ADD PUSH1 0x40 MSTORE SWAP1 DUP2 PUSH1 0x0 DUP3 ADD SLOAD DUP2 MSTORE PUSH1 0x20 ADD PUSH1 0x1 DUP3 ADD PUSH1 0x0 SWAP1 SLOAD SWAP1 PUSH2 0x100 EXP SWAP1 DIV PUSH20 0xFFFFFFFFFFFFFFFFFFFFFFFFFFFFFFFFFFFFFFFF AND PUSH20 0xFFFFFFFFFFFFFFFFFFFFFFFFFFFFFFFFFFFFFFFF AND PUSH20 0xFFFFFFFFFFFFFFFFFFFFFFFFFFFFFFFFFFFFFFFF AND DUP2 MSTORE PUSH1 0x20 ADD PUSH1 0x2 DUP3 ADD PUSH1 0x0 SWAP1 SLOAD SWAP1 PUSH2 0x100 EXP SWAP1 DIV PUSH20 0xFFFFFFFFFFFFFFFFFFFFFFFFFFFFFFFFFFFFFFFF AND PUSH20 0xFFFFFFFFFFFFFFFFFFFFFFFFFFFFFFFFFFFFFFFF AND PUSH20 0xFFFFFFFFFFFFFFFFFFFFFFFFFFFFFFFFFFFFFFFF AND DUP2 MSTORE PUSH1 0x20 ADD PUSH1 0x3 DUP3 ADD SLOAD DUP2 MSTORE PUSH1 0x20 ADD PUSH1 0x4 DUP3 ADD PUSH1 0x0 SWAP1 SLOAD SWAP1 PUSH2 0x100 EXP SWAP1 DIV PUSH1 0xFF AND ISZERO ISZERO ISZERO ISZERO DUP2 MSTORE PUSH1 0x20 ADD PUSH1 0x5 DUP3 ADD SLOAD DUP2 MSTORE POP POP SWAP1 POP SWAP2 SWAP1 POP JUMP JUMPDEST PUSH1 0x1 PUSH1 0x20 MSTORE DUP1 PUSH1 0x0 MSTORE PUSH1 0x40 PUSH1 0x0 KECCAK256 PUSH1 0x0 SWAP2 POP SWAP1 POP DUP1 PUSH1 0x0 ADD SLOAD SWAP1 DUP1 PUSH1 0x1 ADD PUSH1 0x0 SWAP1 SLOAD SWAP1 PUSH2 0x100 EXP SWAP1 DIV PUSH20 0xFFFFFFFFFFFFFFFFFFFFFFFFFFFFFFFFFFFFFFFF AND SWAP1 DUP1 PUSH1 0x2 ADD SLOAD SWAP1 DUP1 PUSH1 0x3 ADD PUSH1 0x0 SWAP1 SLOAD SWAP1 PUSH2 0x100 EXP SWAP1 DIV PUSH1 0xFF AND SWAP1 POP DUP5 JUMP JUMPDEST PUSH1 0x2 PUSH1 0x20 MSTORE DUP1 PUSH1 0x0 MSTORE PUSH1 0x40 PUSH1 0x0 KECCAK256 PUSH1 0x0 SWAP2 POP SWAP1 POP DUP1 PUSH1 0x0 ADD SLOAD SWAP1 DUP1 PUSH1 0x1 ADD PUSH1 0x0 SWAP1 SLOAD SWAP1 PUSH2 0x100 EXP SWAP1 DIV PUSH20 0xFFFFFFFFFFFFFFFFFFFFFFFFFFFFFFFFFFFFFFFF AND SWAP1 DUP1 PUSH1 0x2 ADD PUSH1 0x0 SWAP1 SLOAD SWAP1 PUSH2 0x100 EXP SWAP1 DIV PUSH20 0xFFFFFFFFFFFFFFFFFFFFFFFFFFFFFFFFFFFFFFFF AND SWAP1 DUP1 PUSH1 0x3 ADD SLOAD SWAP1 DUP1 PUSH1 0x4 ADD PUSH1 0x0 SWAP1 SLOAD SWAP1 PUSH2 0x100 EXP SWAP1 DIV PUSH1 0xFF AND SWAP1 DUP1 PUSH1 0x5 ADD SLOAD SWAP1 POP DUP7 JUMP JUMPDEST PUSH1 0x0 PUSH1 0x1 PUSH1 0x0 DUP5 DUP2 MSTORE PUSH1 0x20 ADD SWAP1 DUP2 MSTORE PUSH1 0x20 ADD PUSH1 0x0 KECCAK256 PUSH1 0x40 MLOAD DUP1 PUSH1 0x80 ADD PUSH1 0x40 MSTORE SWAP1 DUP2 PUSH1 0x0 DUP3 ADD SLOAD DUP2 MSTORE PUSH1 0x20 ADD PUSH1 0x1 DUP3 ADD PUSH1 0x0 SWAP1 SLOAD SWAP1 PUSH2 0x100 EXP SWAP1 DIV PUSH20 0xFFFFFFFFFFFFFFFFFFFFFFFFFFFFFFFFFFFFFFFF AND PUSH20 0xFFFFFFFFFFFFFFFFFFFFFFFFFFFFFFFFFFFFFFFF AND PUSH20 0xFFFFFFFFFFFFFFFFFFFFFFFFFFFFFFFFFFFFFFFF AND DUP2 MSTORE PUSH1 0x20 ADD PUSH1 0x2 DUP3 ADD SLOAD DUP2 MSTORE PUSH1 0x20 ADD PUSH1 0x3 DUP3 ADD PUSH1 0x0 SWAP1 SLOAD SWAP1 PUSH2 0x100 EXP SWAP1 DIV PUSH1 0xFF AND ISZERO ISZERO ISZERO ISZERO DUP2 MSTORE POP POP SWAP1 POP DUP1 PUSH1 0x60 ADD MLOAD PUSH2 0x1027 JUMPI PUSH1 0x40 MLOAD PUSH32 0x8C379A000000000000000000000000000000000000000000000000000000000 DUP2 MSTORE PUSH1 0x4 ADD PUSH2 0x101E SWAP1 PUSH2 0x216E JUMP JUMPDEST PUSH1 0x40 MLOAD DUP1 SWAP2 SUB SWAP1 REVERT JUMPDEST CALLER PUSH20 0xFFFFFFFFFFFFFFFFFFFFFFFFFFFFFFFFFFFFFFFF AND DUP2 PUSH1 0x20 ADD MLOAD PUSH20 0xFFFFFFFFFFFFFFFFFFFFFFFFFFFFFFFFFFFFFFFF AND SUB PUSH2 0x1099 JUMPI PUSH1 0x40 MLOAD PUSH32 0x8C379A000000000000000000000000000000000000000000000000000000000 DUP2 MSTORE PUSH1 0x4 ADD PUSH2 0x1090 SWAP1 PUSH2 0x21DA JUMP JUMPDEST PUSH1 0x40 MLOAD DUP1 SWAP2 SUB SWAP1 REVERT JUMPDEST PUSH1 0x0 DUP4 DUP4 DUP4 PUSH1 0x20 ADD MLOAD DUP5 PUSH1 0x40 ADD MLOAD TIMESTAMP PUSH1 0x40 MLOAD PUSH1 0x20 ADD PUSH2 0x10BC SWAP6 SWAP5 SWAP4 SWAP3 SWAP2 SWAP1 PUSH2 0x2263 JUMP JUMPDEST PUSH1 0x40 MLOAD PUSH1 0x20 DUP2 DUP4 SUB SUB DUP2 MSTORE SWAP1 PUSH1 0x40 MSTORE DUP1 MLOAD SWAP1 PUSH1 0x20 ADD KECCAK256 SWAP1 POP PUSH1 0x40 MLOAD DUP1 PUSH1 0xC0 ADD PUSH1 0x40 MSTORE DUP1 DUP6 DUP2 MSTORE PUSH1 0x20 ADD DUP5 PUSH20 0xFFFFFFFFFFFFFFFFFFFFFFFFFFFFFFFFFFFFFFFF AND DUP2 MSTORE PUSH1 0x20 ADD DUP4 PUSH1 0x20 ADD MLOAD PUSH20 0xFFFFFFFFFFFFFFFFFFFFFFFFFFFFFFFFFFFFFFFF AND DUP2 MSTORE PUSH1 0x20 ADD DUP4 PUSH1 0x40 ADD MLOAD DUP2 MSTORE PUSH1 0x20 ADD PUSH1 0x0 ISZERO ISZERO DUP2 MSTORE PUSH1 0x20 ADD DUP3 DUP2 MSTORE POP PUSH1 0x2 PUSH1 0x0 DUP4 DUP2 MSTORE PUSH1 0x20 ADD SWAP1 DUP2 MSTORE PUSH1 0x20 ADD PUSH1 0x0 KECCAK256 PUSH1 0x0 DUP3 ADD MLOAD DUP2 PUSH1 0x0 ADD SSTORE PUSH1 0x20 DUP3 ADD MLOAD DUP2 PUSH1 0x1 ADD PUSH1 0x0 PUSH2 0x100 EXP DUP2 SLOAD DUP2 PUSH20 0xFFFFFFFFFFFFFFFFFFFFFFFFFFFFFFFFFFFFFFFF MUL NOT AND SWAP1 DUP4 PUSH20 0xFFFFFFFFFFFFFFFFFFFFFFFFFFFFFFFFFFFFFFFF AND MUL OR SWAP1 SSTORE POP PUSH1 0x40 DUP3 ADD MLOAD DUP2 PUSH1 0x2 ADD PUSH1 0x0 PUSH2 0x100 EXP DUP2 SLOAD DUP2 PUSH20 0xFFFFFFFFFFFFFFFFFFFFFFFFFFFFFFFFFFFFFFFF MUL NOT AND SWAP1 DUP4 PUSH20 0xFFFFFFFFFFFFFFFFFFFFFFFFFFFFFFFFFFFFFFFF AND MUL OR SWAP1 SSTORE POP PUSH1 0x60 DUP3 ADD MLOAD DUP2 PUSH1 0x3 ADD SSTORE PUSH1 0x80 DUP3 ADD MLOAD DUP2 PUSH1 0x4 ADD PUSH1 0x0 PUSH2 0x100 EXP DUP2 SLOAD DUP2 PUSH1 0xFF MUL NOT AND SWAP1 DUP4 ISZERO ISZERO MUL OR SWAP1 SSTORE POP PUSH1 0xA0 DUP3 ADD MLOAD DUP2 PUSH1 0x5 ADD SSTORE SWAP1 POP POP PUSH1 0x4 DUP2 SWAP1 DUP1 PUSH1 0x1 DUP2 SLOAD ADD DUP1 DUP3 SSTORE DUP1 SWAP2 POP POP PUSH1 0x1 SWAP1 SUB SWAP1 PUSH1 0x0 MSTORE PUSH1 0x20 PUSH1 0x0 KECCAK256 ADD PUSH1 0x0 SWAP1 SWAP2 SWAP1 SWAP2 SWAP1 SWAP2 POP SSTORE CALLER PUSH20 0xFFFFFFFFFFFFFFFFFFFFFFFFFFFFFFFFFFFFFFFF AND DUP4 PUSH20 0xFFFFFFFFFFFFFFFFFFFFFFFFFFFFFFFFFFFFFFFF AND DUP6 PUSH32 0x134A388716B167DAE2534CA04765E55A86D3E6E1181931C2D9524F94DA09C83B DUP6 PUSH1 0x40 ADD MLOAD DUP6 PUSH1 0x40 MLOAD PUSH2 0x12A7 SWAP3 SWAP2 SWAP1 PUSH2 0x22C2 JUMP JUMPDEST PUSH1 0x40 MLOAD DUP1 SWAP2 SUB SWAP1 LOG4 POP POP POP POP JUMP JUMPDEST PUSH2 0x12BD PUSH2 0x16A0 JUMP JUMPDEST PUSH1 0x1 PUSH1 0x0 DUP4 DUP2 MSTORE PUSH1 0x20 ADD SWAP1 DUP2 MSTORE PUSH1 0x20 ADD PUSH1 0x0 KECCAK256 PUSH1 0x40 MLOAD DUP1 PUSH1 0x80 ADD PUSH1 0x40 MSTORE SWAP1 DUP2 PUSH1 0x0 DUP3 ADD SLOAD DUP2 MSTORE PUSH1 0x20 ADD PUSH1 0x1 DUP3 ADD PUSH1 0x0 SWAP1 SLOAD SWAP1 PUSH2 0x100 EXP SWAP1 DIV PUSH20 0xFFFFFFFFFFFFFFFFFFFFFFFFFFFFFFFFFFFFFFFF AND PUSH20 0xFFFFFFFFFFFFFFFFFFFFFFFFFFFFFFFFFFFFFFFF AND PUSH20 0xFFFFFFFFFFFFFFFFFFFFFFFFFFFFFFFFFFFFFFFF AND DUP2 MSTORE PUSH1 0x20 ADD PUSH1 0x2 DUP3 ADD SLOAD DUP2 MSTORE PUSH1 0x20 ADD PUSH1 0x3 DUP3 ADD PUSH1 0x0 SWAP1 SLOAD SWAP1 PUSH2 0x100 EXP SWAP1 DIV PUSH1 0xFF AND ISZERO ISZERO ISZERO ISZERO DUP2 MSTORE POP POP SWAP1 POP SWAP2 SWAP1 POP JUMP JUMPDEST PUSH1 0x60 PUSH1 0x0 DUP1 JUMPDEST PUSH1 0x3 DUP1 SLOAD SWAP1 POP DUP2 LT ISZERO PUSH2 0x141D JUMPI DUP4 PUSH20 0xFFFFFFFFFFFFFFFFFFFFFFFFFFFFFFFFFFFFFFFF AND PUSH1 0x1 PUSH1 0x0 PUSH1 0x3 DUP5 DUP2 SLOAD DUP2 LT PUSH2 0x13A9 JUMPI PUSH2 0x13A8 PUSH2 0x1D73 JUMP JUMPDEST JUMPDEST SWAP1 PUSH1 0x0 MSTORE PUSH1 0x20 PUSH1 0x0 KECCAK256 ADD SLOAD DUP2 MSTORE PUSH1 0x20 ADD SWAP1 DUP2 MSTORE PUSH1 0x20 ADD PUSH1 0x0 KECCAK256 PUSH1 0x1 ADD PUSH1 0x0 SWAP1 SLOAD SWAP1 PUSH2 0x100 EXP SWAP1 DIV PUSH20 0xFFFFFFFFFFFFFFFFFFFFFFFFFFFFFFFFFFFFFFFF AND PUSH20 0xFFFFFFFFFFFFFFFFFFFFFFFFFFFFFFFFFFFFFFFF AND SUB PUSH2 0x1410 JUMPI DUP2 DUP1 PUSH2 0x140C SWAP1 PUSH2 0x1DD1 JUMP JUMPDEST SWAP3 POP POP JUMPDEST DUP1 DUP1 PUSH1 0x1 ADD SWAP2 POP POP PUSH2 0x136D JUMP JUMPDEST POP PUSH1 0x0 DUP2 PUSH8 0xFFFFFFFFFFFFFFFF DUP2 GT ISZERO PUSH2 0x143A JUMPI PUSH2 0x1439 PUSH2 0x1E19 JUMP JUMPDEST JUMPDEST PUSH1 0x40 MLOAD SWAP1 DUP1 DUP3 MSTORE DUP1 PUSH1 0x20 MUL PUSH1 0x20 ADD DUP3 ADD PUSH1 0x40 MSTORE DUP1 ISZERO PUSH2 0x1473 JUMPI DUP2 PUSH1 0x20 ADD JUMPDEST PUSH2 0x1460 PUSH2 0x16A0 JUMP JUMPDEST DUP2 MSTORE PUSH1 0x20 ADD SWAP1 PUSH1 0x1 SWAP1 SUB SWAP1 DUP2 PUSH2 0x1458 JUMPI SWAP1 POP JUMPDEST POP SWAP1 POP PUSH1 0x0 DUP1 JUMPDEST PUSH1 0x3 DUP1 SLOAD SWAP1 POP DUP2 LT ISZERO PUSH2 0x1609 JUMPI DUP6 PUSH20 0xFFFFFFFFFFFFFFFFFFFFFFFFFFFFFFFFFFFFFFFF AND PUSH1 0x1 PUSH1 0x0 PUSH1 0x3 DUP5 DUP2 SLOAD DUP2 LT PUSH2 0x14B6 JUMPI PUSH2 0x14B5 PUSH2 0x1D73 JUMP JUMPDEST JUMPDEST SWAP1 PUSH1 0x0 MSTORE PUSH1 0x20 PUSH1 0x0 KECCAK256 ADD SLOAD DUP2 MSTORE PUSH1 0x20 ADD SWAP1 DUP2 MSTORE PUSH1 0x20 ADD PUSH1 0x0 KECCAK256 PUSH1 0x1 ADD PUSH1 0x0 SWAP1 SLOAD SWAP1 PUSH2 0x100 EXP SWAP1 DIV PUSH20 0xFFFFFFFFFFFFFFFFFFFFFFFFFFFFFFFFFFFFFFFF AND PUSH20 0xFFFFFFFFFFFFFFFFFFFFFFFFFFFFFFFFFFFFFFFF AND SUB PUSH2 0x15FC JUMPI PUSH1 0x1 PUSH1 0x0 PUSH1 0x3 DUP4 DUP2 SLOAD DUP2 LT PUSH2 0x1526 JUMPI PUSH2 0x1525 PUSH2 0x1D73 JUMP JUMPDEST JUMPDEST SWAP1 PUSH1 0x0 MSTORE PUSH1 0x20 PUSH1 0x0 KECCAK256 ADD SLOAD DUP2 MSTORE PUSH1 0x20 ADD SWAP1 DUP2 MSTORE PUSH1 0x20 ADD PUSH1 0x0 KECCAK256 PUSH1 0x40 MLOAD DUP1 PUSH1 0x80 ADD PUSH1 0x40 MSTORE SWAP1 DUP2 PUSH1 0x0 DUP3 ADD SLOAD DUP2 MSTORE PUSH1 0x20 ADD PUSH1 0x1 DUP3 ADD PUSH1 0x0 SWAP1 SLOAD SWAP1 PUSH2 0x100 EXP SWAP1 DIV PUSH20 0xFFFFFFFFFFFFFFFFFFFFFFFFFFFFFFFFFFFFFFFF AND PUSH20 0xFFFFFFFFFFFFFFFFFFFFFFFFFFFFFFFFFFFFFFFF AND PUSH20 0xFFFFFFFFFFFFFFFFFFFFFFFFFFFFFFFFFFFFFFFF AND DUP2 MSTORE PUSH1 0x20 ADD PUSH1 0x2 DUP3 ADD SLOAD DUP2 MSTORE PUSH1 0x20 ADD PUSH1 0x3 DUP3 ADD PUSH1 0x0 SWAP1 SLOAD SWAP1 PUSH2 0x100 EXP SWAP1 DIV PUSH1 0xFF AND ISZERO ISZERO ISZERO ISZERO DUP2 MSTORE POP POP DUP4 DUP4 DUP2 MLOAD DUP2 LT PUSH2 0x15E2 JUMPI PUSH2 0x15E1 PUSH2 0x1D73 JUMP JUMPDEST JUMPDEST PUSH1 0x20 MUL PUSH1 0x20 ADD ADD DUP2 SWAP1 MSTORE POP DUP2 DUP1 PUSH2 0x15F8 SWAP1 PUSH2 0x1DD1 JUMP JUMPDEST SWAP3 POP POP JUMPDEST DUP1 DUP1 PUSH1 0x1 ADD SWAP2 POP POP PUSH2 0x147A JUMP JUMPDEST POP DUP2 SWAP4 POP POP POP POP SWAP2 SWAP1 POP JUMP JUMPDEST PUSH1 0x0 DUP1 SLOAD SWAP1 PUSH2 0x100 EXP SWAP1 DIV PUSH20 0xFFFFFFFFFFFFFFFFFFFFFFFFFFFFFFFFFFFFFFFF AND DUP2 JUMP JUMPDEST PUSH1 0x40 MLOAD DUP1 PUSH1 0xC0 ADD PUSH1 0x40 MSTORE DUP1 PUSH1 0x0 DUP2 MSTORE PUSH1 0x20 ADD PUSH1 0x0 PUSH20 0xFFFFFFFFFFFFFFFFFFFFFFFFFFFFFFFFFFFFFFFF AND DUP2 MSTORE PUSH1 0x20 ADD PUSH1 0x0 PUSH20 0xFFFFFFFFFFFFFFFFFFFFFFFFFFFFFFFFFFFFFFFF AND DUP2 MSTORE PUSH1 0x20 ADD PUSH1 0x0 DUP2 MSTORE PUSH1 0x20 ADD PUSH1 0x0 ISZERO ISZERO DUP2 MSTORE PUSH1 0x20 ADD PUSH1 0x0 DUP1 NOT AND DUP2 MSTORE POP SWAP1 JUMP JUMPDEST PUSH1 0x40 MLOAD DUP1 PUSH1 0x80 ADD PUSH1 0x40 MSTORE DUP1 PUSH1 0x0 DUP2 MSTORE PUSH1 0x20 ADD PUSH1 0x0 PUSH20 0xFFFFFFFFFFFFFFFFFFFFFFFFFFFFFFFFFFFFFFFF AND DUP2 MSTORE PUSH1 0x20 ADD PUSH1 0x0 DUP2 MSTORE PUSH1 0x20 ADD PUSH1 0x0 ISZERO ISZERO DUP2 MSTORE POP SWAP1 JUMP JUMPDEST PUSH1 0x0 DUP1 REVERT JUMPDEST PUSH1 0x0 PUSH20 0xFFFFFFFFFFFFFFFFFFFFFFFFFFFFFFFFFFFFFFFF DUP3 AND SWAP1 POP SWAP2 SWAP1 POP JUMP JUMPDEST PUSH1 0x0 PUSH2 0x1710 DUP3 PUSH2 0x16E5 JUMP JUMPDEST SWAP1 POP SWAP2 SWAP1 POP JUMP JUMPDEST PUSH2 0x1720 DUP2 PUSH2 0x1705 JUMP JUMPDEST DUP2 EQ PUSH2 0x172B JUMPI PUSH1 0x0 DUP1 REVERT JUMPDEST POP JUMP JUMPDEST PUSH1 0x0 DUP2 CALLDATALOAD SWAP1 POP PUSH2 0x173D DUP2 PUSH2 0x1717 JUMP JUMPDEST SWAP3 SWAP2 POP POP JUMP JUMPDEST PUSH1 0x0 PUSH1 0x20 DUP3 DUP5 SUB SLT ISZERO PUSH2 0x1759 JUMPI PUSH2 0x1758 PUSH2 0x16E0 JUMP JUMPDEST JUMPDEST PUSH1 0x0 PUSH2 0x1767 DUP5 DUP3 DUP6 ADD PUSH2 0x172E JUMP JUMPDEST SWAP2 POP POP SWAP3 SWAP2 POP POP JUMP JUMPDEST PUSH1 0x0 DUP2 MLOAD SWAP1 POP SWAP2 SWAP1 POP JUMP JUMPDEST PUSH1 0x0 DUP3 DUP3 MSTORE PUSH1 0x20 DUP3 ADD SWAP1 POP SWAP3 SWAP2 POP POP JUMP JUMPDEST PUSH1 0x0 DUP2 SWAP1 POP PUSH1 0x20 DUP3 ADD SWAP1 POP SWAP2 SWAP1 POP JUMP JUMPDEST PUSH1 0x0 DUP2 SWAP1 POP SWAP2 SWAP1 POP JUMP JUMPDEST PUSH2 0x17AF DUP2 PUSH2 0x179C JUMP JUMPDEST DUP3 MSTORE POP POP JUMP JUMPDEST PUSH2 0x17BE DUP2 PUSH2 0x1705 JUMP JUMPDEST DUP3 MSTORE POP POP JUMP JUMPDEST PUSH1 0x0 DUP2 ISZERO ISZERO SWAP1 POP SWAP2 SWAP1 POP JUMP JUMPDEST PUSH2 0x17D9 DUP2 PUSH2 0x17C4 JUMP JUMPDEST DUP3 MSTORE POP POP JUMP JUMPDEST PUSH1 0x0 DUP2 SWAP1 POP SWAP2 SWAP1 POP JUMP JUMPDEST PUSH2 0x17F2 DUP2 PUSH2 0x17DF JUMP JUMPDEST DUP3 MSTORE POP POP JUMP JUMPDEST PUSH1 0xC0 DUP3 ADD PUSH1 0x0 DUP3 ADD MLOAD PUSH2 0x180E PUSH1 0x0 DUP6 ADD DUP3 PUSH2 0x17A6 JUMP JUMPDEST POP PUSH1 0x20 DUP3 ADD MLOAD PUSH2 0x1821 PUSH1 0x20 DUP6 ADD DUP3 PUSH2 0x17B5 JUMP JUMPDEST POP PUSH1 0x40 DUP3 ADD MLOAD PUSH2 0x1834 PUSH1 0x40 DUP6 ADD DUP3 PUSH2 0x17B5 JUMP JUMPDEST POP PUSH1 0x60 DUP3 ADD MLOAD PUSH2 0x1847 PUSH1 0x60 DUP6 ADD DUP3 PUSH2 0x17A6 JUMP JUMPDEST POP PUSH1 0x80 DUP3 ADD MLOAD PUSH2 0x185A PUSH1 0x80 DUP6 ADD DUP3 PUSH2 0x17D0 JUMP JUMPDEST POP PUSH1 0xA0 DUP3 ADD MLOAD PUSH2 0x186D PUSH1 0xA0 DUP6 ADD DUP3 PUSH2 0x17E9 JUMP JUMPDEST POP POP POP POP JUMP JUMPDEST PUSH1 0x0 PUSH2 0x187F DUP4 DUP4 PUSH2 0x17F8 JUMP JUMPDEST PUSH1 0xC0 DUP4 ADD SWAP1 POP SWAP3 SWAP2 POP POP JUMP JUMPDEST PUSH1 0x0 PUSH1 0x20 DUP3 ADD SWAP1 POP SWAP2 SWAP1 POP JUMP JUMPDEST PUSH1 0x0 PUSH2 0x18A3 DUP3 PUSH2 0x1770 JUMP JUMPDEST PUSH2 0x18AD DUP2 DUP6 PUSH2 0x177B JUMP JUMPDEST SWAP4 POP PUSH2 0x18B8 DUP4 PUSH2 0x178C JUMP JUMPDEST DUP1 PUSH1 0x0 JUMPDEST DUP4 DUP2 LT ISZERO PUSH2 0x18E9 JUMPI DUP2 MLOAD PUSH2 0x18D0 DUP9 DUP3 PUSH2 0x1873 JUMP JUMPDEST SWAP8 POP PUSH2 0x18DB DUP4 PUSH2 0x188B JUMP JUMPDEST SWAP3 POP POP PUSH1 0x1 DUP2 ADD SWAP1 POP PUSH2 0x18BC JUMP JUMPDEST POP DUP6 SWAP4 POP POP POP POP SWAP3 SWAP2 POP POP JUMP JUMPDEST PUSH1 0x0 PUSH1 0x20 DUP3 ADD SWAP1 POP DUP2 DUP2 SUB PUSH1 0x0 DUP4 ADD MSTORE PUSH2 0x1910 DUP2 DUP5 PUSH2 0x1898 JUMP JUMPDEST SWAP1 POP SWAP3 SWAP2 POP POP JUMP JUMPDEST PUSH2 0x1921 DUP2 PUSH2 0x179C JUMP JUMPDEST DUP2 EQ PUSH2 0x192C JUMPI PUSH1 0x0 DUP1 REVERT JUMPDEST POP JUMP JUMPDEST PUSH1 0x0 DUP2 CALLDATALOAD SWAP1 POP PUSH2 0x193E DUP2 PUSH2 0x1918 JUMP JUMPDEST SWAP3 SWAP2 POP POP JUMP JUMPDEST PUSH1 0x0 DUP1 PUSH1 0x40 DUP4 DUP6 SUB SLT ISZERO PUSH2 0x195B JUMPI PUSH2 0x195A PUSH2 0x16E0 JUMP JUMPDEST JUMPDEST PUSH1 0x0 PUSH2 0x1969 DUP6 DUP3 DUP7 ADD PUSH2 0x192F JUMP JUMPDEST SWAP3 POP POP PUSH1 0x20 PUSH2 0x197A DUP6 DUP3 DUP7 ADD PUSH2 0x192F JUMP JUMPDEST SWAP2 POP POP SWAP3 POP SWAP3 SWAP1 POP JUMP JUMPDEST PUSH2 0x198D DUP2 PUSH2 0x17DF JUMP JUMPDEST DUP2 EQ PUSH2 0x1998 JUMPI PUSH1 0x0 DUP1 REVERT JUMPDEST POP JUMP JUMPDEST PUSH1 0x0 DUP2 CALLDATALOAD SWAP1 POP PUSH2 0x19AA DUP2 PUSH2 0x1984 JUMP JUMPDEST SWAP3 SWAP2 POP POP JUMP JUMPDEST PUSH1 0x0 PUSH1 0x20 DUP3 DUP5 SUB SLT ISZERO PUSH2 0x19C6 JUMPI PUSH2 0x19C5 PUSH2 0x16E0 JUMP JUMPDEST JUMPDEST PUSH1 0x0 PUSH2 0x19D4 DUP5 DUP3 DUP6 ADD PUSH2 0x199B JUMP JUMPDEST SWAP2 POP POP SWAP3 SWAP2 POP POP JUMP JUMPDEST PUSH1 0xC0 DUP3 ADD PUSH1 0x0 DUP3 ADD MLOAD PUSH2 0x19F3 PUSH1 0x0 DUP6 ADD DUP3 PUSH2 0x17A6 JUMP JUMPDEST POP PUSH1 0x20 DUP3 ADD MLOAD PUSH2 0x1A06 PUSH1 0x20 DUP6 ADD DUP3 PUSH2 0x17B5 JUMP JUMPDEST POP PUSH1 0x40 DUP3 ADD MLOAD PUSH2 0x1A19 PUSH1 0x40 DUP6 ADD DUP3 PUSH2 0x17B5 JUMP JUMPDEST POP PUSH1 0x60 DUP3 ADD MLOAD PUSH2 0x1A2C PUSH1 0x60 DUP6 ADD DUP3 PUSH2 0x17A6 JUMP JUMPDEST POP PUSH1 0x80 DUP3 ADD MLOAD PUSH2 0x1A3F PUSH1 0x80 DUP6 ADD DUP3 PUSH2 0x17D0 JUMP JUMPDEST POP PUSH1 0xA0 DUP3 ADD MLOAD PUSH2 0x1A52 PUSH1 0xA0 DUP6 ADD DUP3 PUSH2 0x17E9 JUMP JUMPDEST POP POP POP POP JUMP JUMPDEST PUSH1 0x0 PUSH1 0xC0 DUP3 ADD SWAP1 POP PUSH2 0x1A6D PUSH1 0x0 DUP4 ADD DUP5 PUSH2 0x19DD JUMP JUMPDEST SWAP3 SWAP2 POP POP JUMP JUMPDEST PUSH1 0x0 PUSH1 0x20 DUP3 DUP5 SUB SLT ISZERO PUSH2 0x1A89 JUMPI PUSH2 0x1A88 PUSH2 0x16E0 JUMP JUMPDEST JUMPDEST PUSH1 0x0 PUSH2 0x1A97 DUP5 DUP3 DUP6 ADD PUSH2 0x192F JUMP JUMPDEST SWAP2 POP POP SWAP3 SWAP2 POP POP JUMP JUMPDEST PUSH2 0x1AA9 DUP2 PUSH2 0x179C JUMP JUMPDEST DUP3 MSTORE POP POP JUMP JUMPDEST PUSH2 0x1AB8 DUP2 PUSH2 0x1705 JUMP JUMPDEST DUP3 MSTORE POP POP JUMP JUMPDEST PUSH2 0x1AC7 DUP2 PUSH2 0x17C4 JUMP JUMPDEST DUP3 MSTORE POP POP JUMP JUMPDEST PUSH1 0x0 PUSH1 0x80 DUP3 ADD SWAP1 POP PUSH2 0x1AE2 PUSH1 0x0 DUP4 ADD DUP8 PUSH2 0x1AA0 JUMP JUMPDEST PUSH2 0x1AEF PUSH1 0x20 DUP4 ADD DUP7 PUSH2 0x1AAF JUMP JUMPDEST PUSH2 0x1AFC PUSH1 0x40 DUP4 ADD DUP6 PUSH2 0x1AA0 JUMP JUMPDEST PUSH2 0x1B09 PUSH1 0x60 DUP4 ADD DUP5 PUSH2 0x1ABE JUMP JUMPDEST SWAP6 SWAP5 POP POP POP POP POP JUMP JUMPDEST PUSH2 0x1B1B DUP2 PUSH2 0x17DF JUMP JUMPDEST DUP3 MSTORE POP POP JUMP JUMPDEST PUSH1 0x0 PUSH1 0xC0 DUP3 ADD SWAP1 POP PUSH2 0x1B36 PUSH1 0x0 DUP4 ADD DUP10 PUSH2 0x1AA0 JUMP JUMPDEST PUSH2 0x1B43 PUSH1 0x20 DUP4 ADD DUP9 PUSH2 0x1AAF JUMP JUMPDEST PUSH2 0x1B50 PUSH1 0x40 DUP4 ADD DUP8 PUSH2 0x1AAF JUMP JUMPDEST PUSH2 0x1B5D PUSH1 0x60 DUP4 ADD DUP7 PUSH2 0x1AA0 JUMP JUMPDEST PUSH2 0x1B6A PUSH1 0x80 DUP4 ADD DUP6 PUSH2 0x1ABE JUMP JUMPDEST PUSH2 0x1B77 PUSH1 0xA0 DUP4 ADD DUP5 PUSH2 0x1B12 JUMP JUMPDEST SWAP8 SWAP7 POP POP POP POP POP POP POP JUMP JUMPDEST PUSH1 0x0 DUP1 PUSH1 0x40 DUP4 DUP6 SUB SLT ISZERO PUSH2 0x1B99 JUMPI PUSH2 0x1B98 PUSH2 0x16E0 JUMP JUMPDEST JUMPDEST PUSH1 0x0 PUSH2 0x1BA7 DUP6 DUP3 DUP7 ADD PUSH2 0x192F JUMP JUMPDEST SWAP3 POP POP PUSH1 0x20 PUSH2 0x1BB8 DUP6 DUP3 DUP7 ADD PUSH2 0x172E JUMP JUMPDEST SWAP2 POP POP SWAP3 POP SWAP3 SWAP1 POP JUMP JUMPDEST PUSH1 0x80 DUP3 ADD PUSH1 0x0 DUP3 ADD MLOAD PUSH2 0x1BD8 PUSH1 0x0 DUP6 ADD DUP3 PUSH2 0x17A6 JUMP JUMPDEST POP PUSH1 0x20 DUP3 ADD MLOAD PUSH2 0x1BEB PUSH1 0x20 DUP6 ADD DUP3 PUSH2 0x17B5 JUMP JUMPDEST POP PUSH1 0x40 DUP3 ADD MLOAD PUSH2 0x1BFE PUSH1 0x40 DUP6 ADD DUP3 PUSH2 0x17A6 JUMP JUMPDEST POP PUSH1 0x60 DUP3 ADD MLOAD PUSH2 0x1C11 PUSH1 0x60 DUP6 ADD DUP3 PUSH2 0x17D0 JUMP JUMPDEST POP POP POP POP JUMP JUMPDEST PUSH1 0x0 PUSH1 0x80 DUP3 ADD SWAP1 POP PUSH2 0x1C2C PUSH1 0x0 DUP4 ADD DUP5 PUSH2 0x1BC2 JUMP JUMPDEST SWAP3 SWAP2 POP POP JUMP JUMPDEST PUSH1 0x0 DUP2 MLOAD SWAP1 POP SWAP2 SWAP1 POP JUMP JUMPDEST PUSH1 0x0 DUP3 DUP3 MSTORE PUSH1 0x20 DUP3 ADD SWAP1 POP SWAP3 SWAP2 POP POP JUMP JUMPDEST PUSH1 0x0 DUP2 SWAP1 POP PUSH1 0x20 DUP3 ADD SWAP1 POP SWAP2 SWAP1 POP JUMP JUMPDEST PUSH1 0x80 DUP3 ADD PUSH1 0x0 DUP3 ADD MLOAD PUSH2 0x1C74 PUSH1 0x0 DUP6 ADD DUP3 PUSH2 0x17A6 JUMP JUMPDEST POP PUSH1 0x20 DUP3 ADD MLOAD PUSH2 0x1C87 PUSH1 0x20 DUP6 ADD DUP3 PUSH2 0x17B5 JUMP JUMPDEST POP PUSH1 0x40 DUP3 ADD MLOAD PUSH2 0x1C9A PUSH1 0x40 DUP6 ADD DUP3 PUSH2 0x17A6 JUMP JUMPDEST POP PUSH1 0x60 DUP3 ADD MLOAD PUSH2 0x1CAD PUSH1 0x60 DUP6 ADD DUP3 PUSH2 0x17D0 JUMP JUMPDEST POP POP POP POP JUMP JUMPDEST PUSH1 0x0 PUSH2 0x1CBF DUP4 DUP4 PUSH2 0x1C5E JUMP JUMPDEST PUSH1 0x80 DUP4 ADD SWAP1 POP SWAP3 SWAP2 POP POP JUMP JUMPDEST PUSH1 0x0 PUSH1 0x20 DUP3 ADD SWAP1 POP SWAP2 SWAP1 POP JUMP JUMPDEST PUSH1 0x0 PUSH2 0x1CE3 DUP3 PUSH2 0x1C32 JUMP JUMPDEST PUSH2 0x1CED DUP2 DUP6 PUSH2 0x1C3D JUMP JUMPDEST SWAP4 POP PUSH2 0x1CF8 DUP4 PUSH2 0x1C4E JUMP JUMPDEST DUP1 PUSH1 0x0 JUMPDEST DUP4 DUP2 LT ISZERO PUSH2 0x1D29 JUMPI DUP2 MLOAD PUSH2 0x1D10 DUP9 DUP3 PUSH2 0x1CB3 JUMP JUMPDEST SWAP8 POP PUSH2 0x1D1B DUP4 PUSH2 0x1CCB JUMP JUMPDEST SWAP3 POP POP PUSH1 0x1 DUP2 ADD SWAP1 POP PUSH2 0x1CFC JUMP JUMPDEST POP DUP6 SWAP4 POP POP POP POP SWAP3 SWAP2 POP POP JUMP JUMPDEST PUSH1 0x0 PUSH1 0x20 DUP3 ADD SWAP1 POP DUP2 DUP2 SUB PUSH1 0x0 DUP4 ADD MSTORE PUSH2 0x1D50 DUP2 DUP5 PUSH2 0x1CD8 JUMP JUMPDEST SWAP1 POP SWAP3 SWAP2 POP POP JUMP JUMPDEST PUSH1 0x0 PUSH1 0x20 DUP3 ADD SWAP1 POP PUSH2 0x1D6D PUSH1 0x0 DUP4 ADD DUP5 PUSH2 0x1AAF JUMP JUMPDEST SWAP3 SWAP2 POP POP JUMP JUMPDEST PUSH32 0x4E487B7100000000000000000000000000000000000000000000000000000000 PUSH1 0x0 MSTORE PUSH1 0x32 PUSH1 0x4 MSTORE PUSH1 0x24 PUSH1 0x0 REVERT JUMPDEST PUSH32 0x4E487B7100000000000000000000000000000000000000000000000000000000 PUSH1 0x0 MSTORE PUSH1 0x11 PUSH1 0x4 MSTORE PUSH1 0x24 PUSH1 0x0 REVERT JUMPDEST PUSH1 0x0 PUSH2 0x1DDC DUP3 PUSH2 0x179C JUMP JUMPDEST SWAP2 POP PUSH32 0xFFFFFFFFFFFFFFFFFFFFFFFFFFFFFFFFFFFFFFFFFFFFFFFFFFFFFFFFFFFFFFFF DUP3 SUB PUSH2 0x1E0E JUMPI PUSH2 0x1E0D PUSH2 0x1DA2 JUMP JUMPDEST JUMPDEST PUSH1 0x1 DUP3 ADD SWAP1 POP SWAP2 SWAP1 POP JUMP JUMPDEST PUSH32 0x4E487B7100000000000000000000000000000000000000000000000000000000 PUSH1 0x0 MSTORE PUSH1 0x41 PUSH1 0x4 MSTORE PUSH1 0x24 PUSH1 0x0 REVERT JUMPDEST PUSH1 0x0 PUSH1 0x20 DUP3 ADD SWAP1 POP PUSH2 0x1E5D PUSH1 0x0 DUP4 ADD DUP5 PUSH2 0x1AA0 JUMP JUMPDEST SWAP3 SWAP2 POP POP JUMP JUMPDEST PUSH1 0x0 DUP3 DUP3 MSTORE PUSH1 0x20 DUP3 ADD SWAP1 POP SWAP3 SWAP2 POP POP JUMP JUMPDEST PUSH32 0x4F6E6C7920746865206F776E65722063616E206D616B6520746865207469636B PUSH1 0x0 DUP3 ADD MSTORE PUSH32 0x657420617661696C61626C650000000000000000000000000000000000000000 PUSH1 0x20 DUP3 ADD MSTORE POP JUMP JUMPDEST PUSH1 0x0 PUSH2 0x1ED0 PUSH1 0x2C DUP4 PUSH2 0x1E63 JUMP JUMPDEST SWAP2 POP PUSH2 0x1EDB DUP3 PUSH2 0x1E74 JUMP JUMPDEST PUSH1 0x40 DUP3 ADD SWAP1 POP SWAP2 SWAP1 POP JUMP JUMPDEST PUSH1 0x0 PUSH1 0x20 DUP3 ADD SWAP1 POP DUP2 DUP2 SUB PUSH1 0x0 DUP4 ADD MSTORE PUSH2 0x1EFF DUP2 PUSH2 0x1EC3 JUMP JUMPDEST SWAP1 POP SWAP2 SWAP1 POP JUMP JUMPDEST PUSH32 0x5469636B657420697320616C726561647920617661696C61626C650000000000 PUSH1 0x0 DUP3 ADD MSTORE POP JUMP JUMPDEST PUSH1 0x0 PUSH2 0x1F3C PUSH1 0x1B DUP4 PUSH2 0x1E63 JUMP JUMPDEST SWAP2 POP PUSH2 0x1F47 DUP3 PUSH2 0x1F06 JUMP JUMPDEST PUSH1 0x20 DUP3 ADD SWAP1 POP SWAP2 SWAP1 POP JUMP JUMPDEST PUSH1 0x0 PUSH1 0x20 DUP3 ADD SWAP1 POP DUP2 DUP2 SUB PUSH1 0x0 DUP4 ADD MSTORE PUSH2 0x1F6B DUP2 PUSH2 0x1F2F JUMP JUMPDEST SWAP1 POP SWAP2 SWAP1 POP JUMP JUMPDEST PUSH32 0x5472616E73616374696F6E20616C726561647920636F6D706C65746564000000 PUSH1 0x0 DUP3 ADD MSTORE POP JUMP JUMPDEST PUSH1 0x0 PUSH2 0x1FA8 PUSH1 0x1D DUP4 PUSH2 0x1E63 JUMP JUMPDEST SWAP2 POP PUSH2 0x1FB3 DUP3 PUSH2 0x1F72 JUMP JUMPDEST PUSH1 0x20 DUP3 ADD SWAP1 POP SWAP2 SWAP1 POP JUMP JUMPDEST PUSH1 0x0 PUSH1 0x20 DUP3 ADD SWAP1 POP DUP2 DUP2 SUB PUSH1 0x0 DUP4 ADD MSTORE PUSH2 0x1FD7 DUP2 PUSH2 0x1F9B JUMP JUMPDEST SWAP1 POP SWAP2 SWAP1 POP JUMP JUMPDEST PUSH32 0x496E73756666696369656E74207061796D656E74000000000000000000000000 PUSH1 0x0 DUP3 ADD MSTORE POP JUMP JUMPDEST PUSH1 0x0 PUSH2 0x2014 PUSH1 0x14 DUP4 PUSH2 0x1E63 JUMP JUMPDEST SWAP2 POP PUSH2 0x201F DUP3 PUSH2 0x1FDE JUMP JUMPDEST PUSH1 0x20 DUP3 ADD SWAP1 POP SWAP2 SWAP1 POP JUMP JUMPDEST PUSH1 0x0 PUSH1 0x20 DUP3 ADD SWAP1 POP DUP2 DUP2 SUB PUSH1 0x0 DUP4 ADD MSTORE PUSH2 0x2043 DUP2 PUSH2 0x2007 JUMP JUMPDEST SWAP1 POP SWAP2 SWAP1 POP JUMP JUMPDEST PUSH32 0x4275796572206973206E6F74207265636F676E697A6564000000000000000000 PUSH1 0x0 DUP3 ADD MSTORE POP JUMP JUMPDEST PUSH1 0x0 PUSH2 0x2080 PUSH1 0x17 DUP4 PUSH2 0x1E63 JUMP JUMPDEST SWAP2 POP PUSH2 0x208B DUP3 PUSH2 0x204A JUMP JUMPDEST PUSH1 0x20 DUP3 ADD SWAP1 POP SWAP2 SWAP1 POP JUMP JUMPDEST PUSH1 0x0 PUSH1 0x20 DUP3 ADD SWAP1 POP DUP2 DUP2 SUB PUSH1 0x0 DUP4 ADD MSTORE PUSH2 0x20AF DUP2 PUSH2 0x2073 JUMP JUMPDEST SWAP1 POP SWAP2 SWAP1 POP JUMP JUMPDEST PUSH32 0x5469636B6574206973206E6F206C6F6E67657220617661696C61626C65000000 PUSH1 0x0 DUP3 ADD MSTORE POP JUMP JUMPDEST PUSH1 0x0 PUSH2 0x20EC PUSH1 0x1D DUP4 PUSH2 0x1E63 JUMP JUMPDEST SWAP2 POP PUSH2 0x20F7 DUP3 PUSH2 0x20B6 JUMP JUMPDEST PUSH1 0x20 DUP3 ADD SWAP1 POP SWAP2 SWAP1 POP JUMP JUMPDEST PUSH1 0x0 PUSH1 0x20 DUP3 ADD SWAP1 POP DUP2 DUP2 SUB PUSH1 0x0 DUP4 ADD MSTORE PUSH2 0x211B DUP2 PUSH2 0x20DF JUMP JUMPDEST SWAP1 POP SWAP2 SWAP1 POP JUMP JUMPDEST PUSH32 0x5469636B6574206973206E6F7420617661696C61626C65000000000000000000 PUSH1 0x0 DUP3 ADD MSTORE POP JUMP JUMPDEST PUSH1 0x0 PUSH2 0x2158 PUSH1 0x17 DUP4 PUSH2 0x1E63 JUMP JUMPDEST SWAP2 POP PUSH2 0x2163 DUP3 PUSH2 0x2122 JUMP JUMPDEST PUSH1 0x20 DUP3 ADD SWAP1 POP SWAP2 SWAP1 POP JUMP JUMPDEST PUSH1 0x0 PUSH1 0x20 DUP3 ADD SWAP1 POP DUP2 DUP2 SUB PUSH1 0x0 DUP4 ADD MSTORE PUSH2 0x2187 DUP2 PUSH2 0x214B JUMP JUMPDEST SWAP1 POP SWAP2 SWAP1 POP JUMP JUMPDEST PUSH32 0x546865206F776E65722063616E2774206275792074686973207469636B657400 PUSH1 0x0 DUP3 ADD MSTORE POP JUMP JUMPDEST PUSH1 0x0 PUSH2 0x21C4 PUSH1 0x1F DUP4 PUSH2 0x1E63 JUMP JUMPDEST SWAP2 POP PUSH2 0x21CF DUP3 PUSH2 0x218E JUMP JUMPDEST PUSH1 0x20 DUP3 ADD SWAP1 POP SWAP2 SWAP1 POP JUMP JUMPDEST PUSH1 0x0 PUSH1 0x20 DUP3 ADD SWAP1 POP DUP2 DUP2 SUB PUSH1 0x0 DUP4 ADD MSTORE PUSH2 0x21F3 DUP2 PUSH2 0x21B7 JUMP JUMPDEST SWAP1 POP SWAP2 SWAP1 POP JUMP JUMPDEST PUSH1 0x0 DUP2 SWAP1 POP SWAP2 SWAP1 POP JUMP JUMPDEST PUSH2 0x2215 PUSH2 0x2210 DUP3 PUSH2 0x179C JUMP JUMPDEST PUSH2 0x21FA JUMP JUMPDEST DUP3 MSTORE POP POP JUMP JUMPDEST PUSH1 0x0 DUP2 PUSH1 0x60 SHL SWAP1 POP SWAP2 SWAP1 POP JUMP JUMPDEST PUSH1 0x0 PUSH2 0x2233 DUP3 PUSH2 0x221B JUMP JUMPDEST SWAP1 POP SWAP2 SWAP1 POP JUMP JUMPDEST PUSH1 0x0 PUSH2 0x2245 DUP3 PUSH2 0x2228 JUMP JUMPDEST SWAP1 POP SWAP2 SWAP1 POP JUMP JUMPDEST PUSH2 0x225D PUSH2 0x2258 DUP3 PUSH2 0x1705 JUMP JUMPDEST PUSH2 0x223A JUMP JUMPDEST DUP3 MSTORE POP POP JUMP JUMPDEST PUSH1 0x0 PUSH2 0x226F DUP3 DUP9 PUSH2 0x2204 JUMP JUMPDEST PUSH1 0x20 DUP3 ADD SWAP2 POP PUSH2 0x227F DUP3 DUP8 PUSH2 0x224C JUMP JUMPDEST PUSH1 0x14 DUP3 ADD SWAP2 POP PUSH2 0x228F DUP3 DUP7 PUSH2 0x224C JUMP JUMPDEST PUSH1 0x14 DUP3 ADD SWAP2 POP PUSH2 0x229F DUP3 DUP6 PUSH2 0x2204 JUMP JUMPDEST PUSH1 0x20 DUP3 ADD SWAP2 POP PUSH2 0x22AF DUP3 DUP5 PUSH2 0x2204 JUMP JUMPDEST PUSH1 0x20 DUP3 ADD SWAP2 POP DUP2 SWAP1 POP SWAP7 SWAP6 POP POP POP POP POP POP JUMP JUMPDEST PUSH1 0x0 PUSH1 0x40 DUP3 ADD SWAP1 POP PUSH2 0x22D7 PUSH1 0x0 DUP4 ADD DUP6 PUSH2 0x1AA0 JUMP JUMPDEST PUSH2 0x22E4 PUSH1 0x20 DUP4 ADD DUP5 PUSH2 0x1B12 JUMP JUMPDEST SWAP4 SWAP3 POP POP POP JUMP INVALID LOG2 PUSH5 0x6970667358 0x22 SLT KECCAK256 0xBF MUL GASLIMIT 0xBC 0xB8 BYTE GAS 0xBD 0xAA 0xBB PUSH6 0xFA23478D4BCF BASEFEE POP STATICCALL 0xCA 0xB5 0x2B 0xDC PUSH15 0x17DB13C2FC97DD64736F6C63430008 BYTE STOP CALLER "
				},
				"gasEstimates": {
					"creation": {
						"codeDepositCost": "1798600",
						"executionCost": "1898",
						"totalCost": "1800498"
					},
					"external": {
						"admin()": "699",
						"createTransaction(uint256,address)": "infinite",
						"getTicket(uint256)": "infinite",
						"getTicketsByUser(address)": "infinite",
						"getTransaction(bytes32)": "infinite",
						"getTransactionsByUser(address)": "infinite",
						"issueTicket(uint256,uint256)": "infinite",
						"processPayment(bytes32)": "infinite",
						"tickets(uint256)": "infinite",
						"transactions(bytes32)": "infinite"
					}
				},
				"methodIdentifiers": {
					"admin()": "f851a440",
					"createTransaction(uint256,address)": "7cf4c543",
					"getTicket(uint256)": "7dc379fa",
					"getTicketsByUser(address)": "e5b0b100",
					"getTransaction(bytes32)": "4aae13ca",
					"getTransactionsByUser(address)": "047ac364",
					"issueTicket(uint256,uint256)": "1540451e",
					"processPayment(bytes32)": "3a74717d",
					"tickets(uint256)": "50b44712",
					"transactions(bytes32)": "642f2eaf"
				}
			},
			"storageLayout": {
				"storage": [
					{
						"astId": 3,
						"contract": "contract.sol:TicketMarketplace",
						"label": "admin",
						"offset": 0,
						"slot": "0",
						"type": "t_address"
					},
					{
						"astId": 30,
						"contract": "contract.sol:TicketMarketplace",
						"label": "tickets",
						"offset": 0,
						"slot": "1",
						"type": "t_mapping(t_uint256,t_struct(Ticket)12_storage)"
					},
					{
						"astId": 35,
						"contract": "contract.sol:TicketMarketplace",
						"label": "transactions",
						"offset": 0,
						"slot": "2",
						"type": "t_mapping(t_bytes32,t_struct(Transaction)25_storage)"
					},
					{
						"astId": 38,
						"contract": "contract.sol:TicketMarketplace",
						"label": "ticketIds",
						"offset": 0,
						"slot": "3",
						"type": "t_array(t_uint256)dyn_storage"
					},
					{
						"astId": 41,
						"contract": "contract.sol:TicketMarketplace",
						"label": "transactionHashes",
						"offset": 0,
						"slot": "4",
						"type": "t_array(t_bytes32)dyn_storage"
					}
				],
				"types": {
					"t_address": {
						"encoding": "inplace",
						"label": "address",
						"numberOfBytes": "20"
					},
					"t_array(t_bytes32)dyn_storage": {
						"base": "t_bytes32",
						"encoding": "dynamic_array",
						"label": "bytes32[]",
						"numberOfBytes": "32"
					},
					"t_array(t_uint256)dyn_storage": {
						"base": "t_uint256",
						"encoding": "dynamic_array",
						"label": "uint256[]",
						"numberOfBytes": "32"
					},
					"t_bool": {
						"encoding": "inplace",
						"label": "bool",
						"numberOfBytes": "1"
					},
					"t_bytes32": {
						"encoding": "inplace",
						"label": "bytes32",
						"numberOfBytes": "32"
					},
					"t_mapping(t_bytes32,t_struct(Transaction)25_storage)": {
						"encoding": "mapping",
						"key": "t_bytes32",
						"label": "mapping(bytes32 => struct TicketMarketplace.Transaction)",
						"numberOfBytes": "32",
						"value": "t_struct(Transaction)25_storage"
					},
					"t_mapping(t_uint256,t_struct(Ticket)12_storage)": {
						"encoding": "mapping",
						"key": "t_uint256",
						"label": "mapping(uint256 => struct TicketMarketplace.Ticket)",
						"numberOfBytes": "32",
						"value": "t_struct(Ticket)12_storage"
					},
					"t_struct(Ticket)12_storage": {
						"encoding": "inplace",
						"label": "struct TicketMarketplace.Ticket",
						"members": [
							{
								"astId": 5,
								"contract": "contract.sol:TicketMarketplace",
								"label": "id",
								"offset": 0,
								"slot": "0",
								"type": "t_uint256"
							},
							{
								"astId": 7,
								"contract": "contract.sol:TicketMarketplace",
								"label": "owner",
								"offset": 0,
								"slot": "1",
								"type": "t_address"
							},
							{
								"astId": 9,
								"contract": "contract.sol:TicketMarketplace",
								"label": "price",
								"offset": 0,
								"slot": "2",
								"type": "t_uint256"
							},
							{
								"astId": 11,
								"contract": "contract.sol:TicketMarketplace",
								"label": "isAvailable",
								"offset": 0,
								"slot": "3",
								"type": "t_bool"
							}
						],
						"numberOfBytes": "128"
					},
					"t_struct(Transaction)25_storage": {
						"encoding": "inplace",
						"label": "struct TicketMarketplace.Transaction",
						"members": [
							{
								"astId": 14,
								"contract": "contract.sol:TicketMarketplace",
								"label": "ticketId",
								"offset": 0,
								"slot": "0",
								"type": "t_uint256"
							},
							{
								"astId": 16,
								"contract": "contract.sol:TicketMarketplace",
								"label": "buyer",
								"offset": 0,
								"slot": "1",
								"type": "t_address"
							},
							{
								"astId": 18,
								"contract": "contract.sol:TicketMarketplace",
								"label": "seller",
								"offset": 0,
								"slot": "2",
								"type": "t_address"
							},
							{
								"astId": 20,
								"contract": "contract.sol:TicketMarketplace",
								"label": "price",
								"offset": 0,
								"slot": "3",
								"type": "t_uint256"
							},
							{
								"astId": 22,
								"contract": "contract.sol:TicketMarketplace",
								"label": "isCompleted",
								"offset": 0,
								"slot": "4",
								"type": "t_bool"
							},
							{
								"astId": 24,
								"contract": "contract.sol:TicketMarketplace",
								"label": "hash",
								"offset": 0,
								"slot": "5",
								"type": "t_bytes32"
							}
						],
						"numberOfBytes": "192"
					},
					"t_uint256": {
						"encoding": "inplace",
						"label": "uint256",
						"numberOfBytes": "32"
					}
				}
			},
			"userdoc": {
				"kind": "user",
				"methods": {},
				"version": 1
			}
		}
	}
}