{
	"contract.sol": {
		"TicketMarketplace": {
			"abi": [
				{
					"anonymous": false,
					"inputs": [
						{
							"indexed": true,
							"internalType": "uint256",
							"name": "ticketId",
							"type": "uint256"
						},
						{
							"indexed": true,
							"internalType": "address",
							"name": "buyer",
							"type": "address"
						},
						{
							"indexed": true,
							"internalType": "address",
							"name": "seller",
							"type": "address"
						},
						{
							"indexed": false,
							"internalType": "uint256",
							"name": "price",
							"type": "uint256"
						}
					],
					"name": "PaymentProcessed",
					"type": "event"
				},
				{
					"anonymous": false,
					"inputs": [
						{
							"indexed": true,
							"internalType": "uint256",
							"name": "ticketId",
							"type": "uint256"
						},
						{
							"indexed": true,
							"internalType": "address",
							"name": "owner",
							"type": "address"
						},
						{
							"indexed": false,
							"internalType": "uint256",
							"name": "price",
							"type": "uint256"
						}
					],
					"name": "TicketIssued",
					"type": "event"
				},
				{
					"anonymous": false,
					"inputs": [
						{
							"indexed": true,
							"internalType": "uint256",
							"name": "ticketId",
							"type": "uint256"
						},
						{
							"indexed": true,
							"internalType": "address",
							"name": "buyer",
							"type": "address"
						},
						{
							"indexed": true,
							"internalType": "address",
							"name": "seller",
							"type": "address"
						},
						{
							"indexed": false,
							"internalType": "uint256",
							"name": "price",
							"type": "uint256"
						},
						{
							"indexed": false,
							"internalType": "bytes32",
							"name": "hash",
							"type": "bytes32"
						}
					],
					"name": "TransactionCreated",
					"type": "event"
				},
				{
					"inputs": [],
					"name": "admin",
					"outputs": [
						{
							"internalType": "address",
							"name": "",
							"type": "address"
						}
					],
					"stateMutability": "view",
					"type": "function"
				},
				{
					"inputs": [
						{
							"internalType": "uint256",
							"name": "ticketId",
							"type": "uint256"
						},
						{
							"internalType": "address",
							"name": "buyer",
							"type": "address"
						}
					],
					"name": "createTransaction",
					"outputs": [],
					"stateMutability": "nonpayable",
					"type": "function"
				},
				{
					"inputs": [
						{
							"internalType": "uint256",
							"name": "ticketId",
							"type": "uint256"
						}
					],
					"name": "getTicket",
					"outputs": [
						{
							"components": [
								{
									"internalType": "uint256",
									"name": "id",
									"type": "uint256"
								},
								{
									"internalType": "address",
									"name": "owner",
									"type": "address"
								},
								{
									"internalType": "uint256",
									"name": "price",
									"type": "uint256"
								},
								{
									"internalType": "bool",
									"name": "isAvailable",
									"type": "bool"
								}
							],
							"internalType": "struct TicketMarketplace.Ticket",
							"name": "",
							"type": "tuple"
						}
					],
					"stateMutability": "view",
					"type": "function"
				},
				{
					"inputs": [
						{
							"internalType": "address",
							"name": "user",
							"type": "address"
						}
					],
					"name": "getTicketsByUser",
					"outputs": [
						{
							"components": [
								{
									"internalType": "uint256",
									"name": "id",
									"type": "uint256"
								},
								{
									"internalType": "address",
									"name": "owner",
									"type": "address"
								},
								{
									"internalType": "uint256",
									"name": "price",
									"type": "uint256"
								},
								{
									"internalType": "bool",
									"name": "isAvailable",
									"type": "bool"
								}
							],
							"internalType": "struct TicketMarketplace.Ticket[]",
							"name": "",
							"type": "tuple[]"
						}
					],
					"stateMutability": "view",
					"type": "function"
				},
				{
					"inputs": [
						{
							"internalType": "bytes32",
							"name": "txHash",
							"type": "bytes32"
						}
					],
					"name": "getTransaction",
					"outputs": [
						{
							"components": [
								{
									"internalType": "uint256",
									"name": "ticketId",
									"type": "uint256"
								},
								{
									"internalType": "address",
									"name": "buyer",
									"type": "address"
								},
								{
									"internalType": "address",
									"name": "seller",
									"type": "address"
								},
								{
									"internalType": "uint256",
									"name": "price",
									"type": "uint256"
								},
								{
									"internalType": "bool",
									"name": "isCompleted",
									"type": "bool"
								},
								{
									"internalType": "bytes32",
									"name": "hash",
									"type": "bytes32"
								}
							],
							"internalType": "struct TicketMarketplace.Transaction",
							"name": "",
							"type": "tuple"
						}
					],
					"stateMutability": "view",
					"type": "function"
				},
				{
					"inputs": [
						{
							"internalType": "address",
							"name": "user",
							"type": "address"
						}
					],
					"name": "getTransactionsByUser",
					"outputs": [
						{
							"components": [
								{
									"internalType": "uint256",
									"name": "ticketId",
									"type": "uint256"
								},
								{
									"internalType": "address",
									"name": "buyer",
									"type": "address"
								},
								{
									"internalType": "address",
									"name": "seller",
									"type": "address"
								},
								{
									"internalType": "uint256",
									"name": "price",
									"type": "uint256"
								},
								{
									"internalType": "bool",
									"name": "isCompleted",
									"type": "bool"
								},
								{
									"internalType": "bytes32",
									"name": "hash",
									"type": "bytes32"
								}
							],
							"internalType": "struct TicketMarketplace.Transaction[]",
							"name": "",
							"type": "tuple[]"
						}
					],
					"stateMutability": "view",
					"type": "function"
				},
				{
					"inputs": [
						{
							"internalType": "uint256",
							"name": "ticketId",
							"type": "uint256"
						},
						{
							"internalType": "uint256",
							"name": "price",
							"type": "uint256"
						}
					],
					"name": "issueTicket",
					"outputs": [],
					"stateMutability": "nonpayable",
					"type": "function"
				},
				{
					"inputs": [
						{
							"internalType": "bytes32",
							"name": "txHash",
							"type": "bytes32"
						}
					],
					"name": "processPayment",
					"outputs": [],
					"stateMutability": "payable",
					"type": "function"
				},
				{
					"inputs": [
						{
							"internalType": "uint256",
							"name": "",
							"type": "uint256"
						}
					],
					"name": "tickets",
					"outputs": [
						{
							"internalType": "uint256",
							"name": "id",
							"type": "uint256"
						},
						{
							"internalType": "address",
							"name": "owner",
							"type": "address"
						},
						{
							"internalType": "uint256",
							"name": "price",
							"type": "uint256"
						},
						{
							"internalType": "bool",
							"name": "isAvailable",
							"type": "bool"
						}
					],
					"stateMutability": "view",
					"type": "function"
				},
				{
					"inputs": [
						{
							"internalType": "bytes32",
							"name": "",
							"type": "bytes32"
						}
					],
					"name": "transactions",
					"outputs": [
						{
							"internalType": "uint256",
							"name": "ticketId",
							"type": "uint256"
						},
						{
							"internalType": "address",
							"name": "buyer",
							"type": "address"
						},
						{
							"internalType": "address",
							"name": "seller",
							"type": "address"
						},
						{
							"internalType": "uint256",
							"name": "price",
							"type": "uint256"
						},
						{
							"internalType": "bool",
							"name": "isCompleted",
							"type": "bool"
						},
						{
							"internalType": "bytes32",
							"name": "hash",
							"type": "bytes32"
						}
					],
					"stateMutability": "view",
					"type": "function"
				}
			],
			"devdoc": {
				"kind": "dev",
				"methods": {},
				"version": 1
			},
			"evm": {
				"assembly": "    /* \"contract.sol\":57:4398  contract TicketMarketplace {... */\n  mstore(0x40, 0x80)\n  callvalue\n  dup1\n  iszero\n  tag_1\n  jumpi\n  0x00\n  dup1\n  revert\ntag_1:\n  pop\n  dataSize(sub_0)\n  dup1\n  dataOffset(sub_0)\n  0x00\n  codecopy\n  0x00\n  return\nstop\n\nsub_0: assembly {\n        /* \"contract.sol\":57:4398  contract TicketMarketplace {... */\n      mstore(0x40, 0x80)\n      jumpi(tag_1, lt(calldatasize, 0x04))\n      shr(0xe0, calldataload(0x00))\n      dup1\n      0x642f2eaf\n      gt\n      tag_12\n      jumpi\n      dup1\n      0x642f2eaf\n      eq\n      tag_7\n      jumpi\n      dup1\n      0x7cf4c543\n      eq\n      tag_8\n      jumpi\n      dup1\n      0x7dc379fa\n      eq\n      tag_9\n      jumpi\n      dup1\n      0xe5b0b100\n      eq\n      tag_10\n      jumpi\n      dup1\n      0xf851a440\n      eq\n      tag_11\n      jumpi\n      jump(tag_1)\n    tag_12:\n      dup1\n      0x047ac364\n      eq\n      tag_2\n      jumpi\n      dup1\n      0x1540451e\n      eq\n      tag_3\n      jumpi\n      dup1\n      0x3a74717d\n      eq\n      tag_4\n      jumpi\n      dup1\n      0x4aae13ca\n      eq\n      tag_5\n      jumpi\n      dup1\n      0x50b44712\n      eq\n      tag_6\n      jumpi\n    tag_1:\n      0x00\n      dup1\n      revert\n        /* \"contract.sol\":3577:4396  function getTransactionsByUser(address user) external view returns (Transaction[] memory) {... */\n    tag_2:\n      callvalue\n      dup1\n      iszero\n      tag_13\n      jumpi\n      0x00\n      dup1\n      revert\n    tag_13:\n      pop\n      tag_14\n      0x04\n      dup1\n      calldatasize\n      sub\n      dup2\n      add\n      swap1\n      tag_15\n      swap2\n      swap1\n      tag_16\n      jump\t// in\n    tag_15:\n      tag_17\n      jump\t// in\n    tag_14:\n      mload(0x40)\n      tag_18\n      swap2\n      swap1\n      tag_19\n      jump\t// in\n    tag_18:\n      mload(0x40)\n      dup1\n      swap2\n      sub\n      swap1\n      return\n        /* \"contract.sol\":928:1240  function issueTicket(uint256 ticketId, uint256 price) external {... */\n    tag_3:\n      callvalue\n      dup1\n      iszero\n      tag_20\n      jumpi\n      0x00\n      dup1\n      revert\n    tag_20:\n      pop\n      tag_21\n      0x04\n      dup1\n      calldatasize\n      sub\n      dup2\n      add\n      swap1\n      tag_22\n      swap2\n      swap1\n      tag_23\n      jump\t// in\n    tag_22:\n      tag_24\n      jump\t// in\n    tag_21:\n      stop\n        /* \"contract.sol\":1864:2699  function processPayment(bytes32 txHash) external payable {... */\n    tag_4:\n      tag_25\n      0x04\n      dup1\n      calldatasize\n      sub\n      dup2\n      add\n      swap1\n      tag_26\n      swap2\n      swap1\n      tag_27\n      jump\t// in\n    tag_26:\n      tag_28\n      jump\t// in\n    tag_25:\n      stop\n        /* \"contract.sol\":2827:2954  function getTransaction(bytes32 txHash) external view returns (Transaction memory) {... */\n    tag_5:\n      callvalue\n      dup1\n      iszero\n      tag_29\n      jumpi\n      0x00\n      dup1\n      revert\n    tag_29:\n      pop\n      tag_30\n      0x04\n      dup1\n      calldatasize\n      sub\n      dup2\n      add\n      swap1\n      tag_31\n      swap2\n      swap1\n      tag_27\n      jump\t// in\n    tag_31:\n      tag_32\n      jump\t// in\n    tag_30:\n      mload(0x40)\n      tag_33\n      swap2\n      swap1\n      tag_34\n      jump\t// in\n    tag_33:\n      mload(0x40)\n      dup1\n      swap2\n      sub\n      swap1\n      return\n        /* \"contract.sol\":412:453  mapping(uint256 => Ticket) public tickets */\n    tag_6:\n      callvalue\n      dup1\n      iszero\n      tag_35\n      jumpi\n      0x00\n      dup1\n      revert\n    tag_35:\n      pop\n      tag_36\n      0x04\n      dup1\n      calldatasize\n      sub\n      dup2\n      add\n      swap1\n      tag_37\n      swap2\n      swap1\n      tag_38\n      jump\t// in\n    tag_37:\n      tag_39\n      jump\t// in\n    tag_36:\n      mload(0x40)\n      tag_40\n      swap5\n      swap4\n      swap3\n      swap2\n      swap1\n      tag_41\n      jump\t// in\n    tag_40:\n      mload(0x40)\n      dup1\n      swap2\n      sub\n      swap1\n      return\n        /* \"contract.sol\":459:510  mapping(bytes32 => Transaction) public transactions */\n    tag_7:\n      callvalue\n      dup1\n      iszero\n      tag_42\n      jumpi\n      0x00\n      dup1\n      revert\n    tag_42:\n      pop\n      tag_43\n      0x04\n      dup1\n      calldatasize\n      sub\n      dup2\n      add\n      swap1\n      tag_44\n      swap2\n      swap1\n      tag_27\n      jump\t// in\n    tag_44:\n      tag_45\n      jump\t// in\n    tag_43:\n      mload(0x40)\n      tag_46\n      swap7\n      swap6\n      swap5\n      swap4\n      swap3\n      swap2\n      swap1\n      tag_47\n      jump\t// in\n    tag_46:\n      mload(0x40)\n      dup1\n      swap2\n      sub\n      swap1\n      return\n        /* \"contract.sol\":1246:1858  function createTransaction(uint256 ticketId, address buyer) external {... */\n    tag_8:\n      callvalue\n      dup1\n      iszero\n      tag_48\n      jumpi\n      0x00\n      dup1\n      revert\n    tag_48:\n      pop\n      tag_49\n      0x04\n      dup1\n      calldatasize\n      sub\n      dup2\n      add\n      swap1\n      tag_50\n      swap2\n      swap1\n      tag_51\n      jump\t// in\n    tag_50:\n      tag_52\n      jump\t// in\n    tag_49:\n      stop\n        /* \"contract.sol\":2705:2821  function getTicket(uint256 ticketId) external view returns (Ticket memory) {... */\n    tag_9:\n      callvalue\n      dup1\n      iszero\n      tag_53\n      jumpi\n      0x00\n      dup1\n      revert\n    tag_53:\n      pop\n      tag_54\n      0x04\n      dup1\n      calldatasize\n      sub\n      dup2\n      add\n      swap1\n      tag_55\n      swap2\n      swap1\n      tag_38\n      jump\t// in\n    tag_55:\n      tag_56\n      jump\t// in\n    tag_54:\n      mload(0x40)\n      tag_57\n      swap2\n      swap1\n      tag_58\n      jump\t// in\n    tag_57:\n      mload(0x40)\n      dup1\n      swap2\n      sub\n      swap1\n      return\n        /* \"contract.sol\":2960:3571  function getTicketsByUser(address user) external view returns (Ticket[] memory) {... */\n    tag_10:\n      callvalue\n      dup1\n      iszero\n      tag_59\n      jumpi\n      0x00\n      dup1\n      revert\n    tag_59:\n      pop\n      tag_60\n      0x04\n      dup1\n      calldatasize\n      sub\n      dup2\n      add\n      swap1\n      tag_61\n      swap2\n      swap1\n      tag_16\n      jump\t// in\n    tag_61:\n      tag_62\n      jump\t// in\n    tag_60:\n      mload(0x40)\n      tag_63\n      swap2\n      swap1\n      tag_64\n      jump\t// in\n    tag_63:\n      mload(0x40)\n      dup1\n      swap2\n      sub\n      swap1\n      return\n        /* \"contract.sol\":90:110  address public admin */\n    tag_11:\n      callvalue\n      dup1\n      iszero\n      tag_65\n      jumpi\n      0x00\n      dup1\n      revert\n    tag_65:\n      pop\n      tag_66\n      tag_67\n      jump\t// in\n    tag_66:\n      mload(0x40)\n      tag_68\n      swap2\n      swap1\n      tag_69\n      jump\t// in\n    tag_68:\n      mload(0x40)\n      dup1\n      swap2\n      sub\n      swap1\n      return\n        /* \"contract.sol\":3577:4396  function getTransactionsByUser(address user) external view returns (Transaction[] memory) {... */\n    tag_17:\n        /* \"contract.sol\":3645:3665  Transaction[] memory */\n      0x60\n        /* \"contract.sol\":3677:3690  uint256 count */\n      0x00\n        /* \"contract.sol\":3709:3718  uint256 i */\n      dup1\n        /* \"contract.sol\":3704:3950  for (uint256 i = 0; i < transactionHashes.length; i++) {... */\n    tag_71:\n        /* \"contract.sol\":3728:3745  transactionHashes */\n      0x04\n        /* \"contract.sol\":3728:3752  transactionHashes.length */\n      dup1\n      sload\n      swap1\n      pop\n        /* \"contract.sol\":3724:3725  i */\n      dup2\n        /* \"contract.sol\":3724:3752  i < transactionHashes.length */\n      lt\n        /* \"contract.sol\":3704:3950  for (uint256 i = 0; i < transactionHashes.length; i++) {... */\n      iszero\n      tag_72\n      jumpi\n        /* \"contract.sol\":3773:3798  Transaction memory txData */\n      0x00\n        /* \"contract.sol\":3801:3813  transactions */\n      0x02\n        /* \"contract.sol\":3801:3835  transactions[transactionHashes[i]] */\n      0x00\n        /* \"contract.sol\":3814:3831  transactionHashes */\n      0x04\n        /* \"contract.sol\":3832:3833  i */\n      dup5\n        /* \"contract.sol\":3814:3834  transactionHashes[i] */\n      dup2\n      sload\n      dup2\n      lt\n      tag_74\n      jumpi\n      tag_75\n      tag_76\n      jump\t// in\n    tag_75:\n    tag_74:\n      swap1\n      0x00\n      mstore\n      keccak256(0x00, 0x20)\n      add\n      sload\n        /* \"contract.sol\":3801:3835  transactions[transactionHashes[i]] */\n      dup2\n      mstore\n      0x20\n      add\n      swap1\n      dup2\n      mstore\n      0x20\n      add\n      0x00\n      keccak256\n        /* \"contract.sol\":3773:3835  Transaction memory txData = transactions[transactionHashes[i]] */\n      mload(0x40)\n      dup1\n      0xc0\n      add\n      0x40\n      mstore\n      swap1\n      dup2\n      0x00\n      dup3\n      add\n      sload\n      dup2\n      mstore\n      0x20\n      add\n      0x01\n      dup3\n      add\n      0x00\n      swap1\n      sload\n      swap1\n      0x0100\n      exp\n      swap1\n      div\n      0xffffffffffffffffffffffffffffffffffffffff\n      and\n      0xffffffffffffffffffffffffffffffffffffffff\n      and\n      0xffffffffffffffffffffffffffffffffffffffff\n      and\n      dup2\n      mstore\n      0x20\n      add\n      0x02\n      dup3\n      add\n      0x00\n      swap1\n      sload\n      swap1\n      0x0100\n      exp\n      swap1\n      div\n      0xffffffffffffffffffffffffffffffffffffffff\n      and\n      0xffffffffffffffffffffffffffffffffffffffff\n      and\n      0xffffffffffffffffffffffffffffffffffffffff\n      and\n      dup2\n      mstore\n      0x20\n      add\n      0x03\n      dup3\n      add\n      sload\n      dup2\n      mstore\n      0x20\n      add\n      0x04\n      dup3\n      add\n      0x00\n      swap1\n      sload\n      swap1\n      0x0100\n      exp\n      swap1\n      div\n      0xff\n      and\n      iszero\n      iszero\n      iszero\n      iszero\n      dup2\n      mstore\n      0x20\n      add\n      0x05\n      dup3\n      add\n      sload\n      dup2\n      mstore\n      pop\n      pop\n      swap1\n      pop\n        /* \"contract.sol\":3869:3873  user */\n      dup5\n        /* \"contract.sol\":3853:3873  txData.buyer == user */\n      0xffffffffffffffffffffffffffffffffffffffff\n      and\n        /* \"contract.sol\":3853:3859  txData */\n      dup2\n        /* \"contract.sol\":3853:3865  txData.buyer */\n      0x20\n      add\n      mload\n        /* \"contract.sol\":3853:3873  txData.buyer == user */\n      0xffffffffffffffffffffffffffffffffffffffff\n      and\n      eq\n        /* \"contract.sol\":3853:3898  txData.buyer == user || txData.seller == user */\n      dup1\n      tag_78\n      jumpi\n      pop\n        /* \"contract.sol\":3894:3898  user */\n      dup5\n        /* \"contract.sol\":3877:3898  txData.seller == user */\n      0xffffffffffffffffffffffffffffffffffffffff\n      and\n        /* \"contract.sol\":3877:3883  txData */\n      dup2\n        /* \"contract.sol\":3877:3890  txData.seller */\n      0x40\n      add\n      mload\n        /* \"contract.sol\":3877:3898  txData.seller == user */\n      0xffffffffffffffffffffffffffffffffffffffff\n      and\n      eq\n        /* \"contract.sol\":3853:3898  txData.buyer == user || txData.seller == user */\n    tag_78:\n        /* \"contract.sol\":3849:3940  if (txData.buyer == user || txData.seller == user) {... */\n      iszero\n      tag_79\n      jumpi\n        /* \"contract.sol\":3918:3925  count++ */\n      dup3\n      dup1\n      tag_80\n      swap1\n      tag_81\n      jump\t// in\n    tag_80:\n      swap4\n      pop\n      pop\n        /* \"contract.sol\":3849:3940  if (txData.buyer == user || txData.seller == user) {... */\n    tag_79:\n        /* \"contract.sol\":3759:3950  {... */\n      pop\n        /* \"contract.sol\":3754:3757  i++ */\n      dup1\n      dup1\n      0x01\n      add\n      swap2\n      pop\n      pop\n        /* \"contract.sol\":3704:3950  for (uint256 i = 0; i < transactionHashes.length; i++) {... */\n      jump(tag_71)\n    tag_72:\n      pop\n        /* \"contract.sol\":3960:3997  Transaction[] memory userTransactions */\n      0x00\n        /* \"contract.sol\":4018:4023  count */\n      dup2\n        /* \"contract.sol\":4000:4024  new Transaction[](count) */\n      0xffffffffffffffff\n      dup2\n      gt\n      iszero\n      tag_82\n      jumpi\n      tag_83\n      tag_84\n      jump\t// in\n    tag_83:\n    tag_82:\n      mload(0x40)\n      swap1\n      dup1\n      dup3\n      mstore\n      dup1\n      0x20\n      mul\n      0x20\n      add\n      dup3\n      add\n      0x40\n      mstore\n      dup1\n      iszero\n      tag_85\n      jumpi\n      dup2\n      0x20\n      add\n    tag_86:\n      tag_87\n      tag_88\n      jump\t// in\n    tag_87:\n      dup2\n      mstore\n      0x20\n      add\n      swap1\n      0x01\n      swap1\n      sub\n      swap1\n      dup2\n      tag_86\n      jumpi\n      swap1\n      pop\n    tag_85:\n      pop\n        /* \"contract.sol\":3960:4024  Transaction[] memory userTransactions = new Transaction[](count) */\n      swap1\n      pop\n        /* \"contract.sol\":4034:4047  uint256 index */\n      0x00\n        /* \"contract.sol\":4066:4075  uint256 i */\n      dup1\n        /* \"contract.sol\":4061:4357  for (uint256 i = 0; i < transactionHashes.length; i++) {... */\n    tag_89:\n        /* \"contract.sol\":4085:4102  transactionHashes */\n      0x04\n        /* \"contract.sol\":4085:4109  transactionHashes.length */\n      dup1\n      sload\n      swap1\n      pop\n        /* \"contract.sol\":4081:4082  i */\n      dup2\n        /* \"contract.sol\":4081:4109  i < transactionHashes.length */\n      lt\n        /* \"contract.sol\":4061:4357  for (uint256 i = 0; i < transactionHashes.length; i++) {... */\n      iszero\n      tag_90\n      jumpi\n        /* \"contract.sol\":4130:4155  Transaction memory txData */\n      0x00\n        /* \"contract.sol\":4158:4170  transactions */\n      0x02\n        /* \"contract.sol\":4158:4192  transactions[transactionHashes[i]] */\n      0x00\n        /* \"contract.sol\":4171:4188  transactionHashes */\n      0x04\n        /* \"contract.sol\":4189:4190  i */\n      dup5\n        /* \"contract.sol\":4171:4191  transactionHashes[i] */\n      dup2\n      sload\n      dup2\n      lt\n      tag_92\n      jumpi\n      tag_93\n      tag_76\n      jump\t// in\n    tag_93:\n    tag_92:\n      swap1\n      0x00\n      mstore\n      keccak256(0x00, 0x20)\n      add\n      sload\n        /* \"contract.sol\":4158:4192  transactions[transactionHashes[i]] */\n      dup2\n      mstore\n      0x20\n      add\n      swap1\n      dup2\n      mstore\n      0x20\n      add\n      0x00\n      keccak256\n        /* \"contract.sol\":4130:4192  Transaction memory txData = transactions[transactionHashes[i]] */\n      mload(0x40)\n      dup1\n      0xc0\n      add\n      0x40\n      mstore\n      swap1\n      dup2\n      0x00\n      dup3\n      add\n      sload\n      dup2\n      mstore\n      0x20\n      add\n      0x01\n      dup3\n      add\n      0x00\n      swap1\n      sload\n      swap1\n      0x0100\n      exp\n      swap1\n      div\n      0xffffffffffffffffffffffffffffffffffffffff\n      and\n      0xffffffffffffffffffffffffffffffffffffffff\n      and\n      0xffffffffffffffffffffffffffffffffffffffff\n      and\n      dup2\n      mstore\n      0x20\n      add\n      0x02\n      dup3\n      add\n      0x00\n      swap1\n      sload\n      swap1\n      0x0100\n      exp\n      swap1\n      div\n      0xffffffffffffffffffffffffffffffffffffffff\n      and\n      0xffffffffffffffffffffffffffffffffffffffff\n      and\n      0xffffffffffffffffffffffffffffffffffffffff\n      and\n      dup2\n      mstore\n      0x20\n      add\n      0x03\n      dup3\n      add\n      sload\n      dup2\n      mstore\n      0x20\n      add\n      0x04\n      dup3\n      add\n      0x00\n      swap1\n      sload\n      swap1\n      0x0100\n      exp\n      swap1\n      div\n      0xff\n      and\n      iszero\n      iszero\n      iszero\n      iszero\n      dup2\n      mstore\n      0x20\n      add\n      0x05\n      dup3\n      add\n      sload\n      dup2\n      mstore\n      pop\n      pop\n      swap1\n      pop\n        /* \"contract.sol\":4226:4230  user */\n      dup7\n        /* \"contract.sol\":4210:4230  txData.buyer == user */\n      0xffffffffffffffffffffffffffffffffffffffff\n      and\n        /* \"contract.sol\":4210:4216  txData */\n      dup2\n        /* \"contract.sol\":4210:4222  txData.buyer */\n      0x20\n      add\n      mload\n        /* \"contract.sol\":4210:4230  txData.buyer == user */\n      0xffffffffffffffffffffffffffffffffffffffff\n      and\n      eq\n        /* \"contract.sol\":4210:4255  txData.buyer == user || txData.seller == user */\n      dup1\n      tag_95\n      jumpi\n      pop\n        /* \"contract.sol\":4251:4255  user */\n      dup7\n        /* \"contract.sol\":4234:4255  txData.seller == user */\n      0xffffffffffffffffffffffffffffffffffffffff\n      and\n        /* \"contract.sol\":4234:4240  txData */\n      dup2\n        /* \"contract.sol\":4234:4247  txData.seller */\n      0x40\n      add\n      mload\n        /* \"contract.sol\":4234:4255  txData.seller == user */\n      0xffffffffffffffffffffffffffffffffffffffff\n      and\n      eq\n        /* \"contract.sol\":4210:4255  txData.buyer == user || txData.seller == user */\n    tag_95:\n        /* \"contract.sol\":4206:4347  if (txData.buyer == user || txData.seller == user) {... */\n      iszero\n      tag_96\n      jumpi\n        /* \"contract.sol\":4301:4307  txData */\n      dup1\n        /* \"contract.sol\":4275:4291  userTransactions */\n      dup5\n        /* \"contract.sol\":4292:4297  index */\n      dup5\n        /* \"contract.sol\":4275:4298  userTransactions[index] */\n      dup2\n      mload\n      dup2\n      lt\n      tag_97\n      jumpi\n      tag_98\n      tag_76\n      jump\t// in\n    tag_98:\n    tag_97:\n      0x20\n      mul\n      0x20\n      add\n      add\n        /* \"contract.sol\":4275:4307  userTransactions[index] = txData */\n      dup2\n      swap1\n      mstore\n      pop\n        /* \"contract.sol\":4325:4332  index++ */\n      dup3\n      dup1\n      tag_99\n      swap1\n      tag_81\n      jump\t// in\n    tag_99:\n      swap4\n      pop\n      pop\n        /* \"contract.sol\":4206:4347  if (txData.buyer == user || txData.seller == user) {... */\n    tag_96:\n        /* \"contract.sol\":4116:4357  {... */\n      pop\n        /* \"contract.sol\":4111:4114  i++ */\n      dup1\n      dup1\n      0x01\n      add\n      swap2\n      pop\n      pop\n        /* \"contract.sol\":4061:4357  for (uint256 i = 0; i < transactionHashes.length; i++) {... */\n      jump(tag_89)\n    tag_90:\n      pop\n        /* \"contract.sol\":4373:4389  userTransactions */\n      dup2\n        /* \"contract.sol\":4366:4389  return userTransactions */\n      swap4\n      pop\n      pop\n      pop\n      pop\n        /* \"contract.sol\":3577:4396  function getTransactionsByUser(address user) external view returns (Transaction[] memory) {... */\n      swap2\n      swap1\n      pop\n      jump\t// out\n        /* \"contract.sol\":928:1240  function issueTicket(uint256 ticketId, uint256 price) external {... */\n    tag_24:\n        /* \"contract.sol\":1044:1045  0 */\n      0x00\n        /* \"contract.sol\":1009:1046  tickets[ticketId].owner == address(0) */\n      0xffffffffffffffffffffffffffffffffffffffff\n      and\n        /* \"contract.sol\":1009:1016  tickets */\n      0x01\n        /* \"contract.sol\":1009:1026  tickets[ticketId] */\n      0x00\n        /* \"contract.sol\":1017:1025  ticketId */\n      dup5\n        /* \"contract.sol\":1009:1026  tickets[ticketId] */\n      dup2\n      mstore\n      0x20\n      add\n      swap1\n      dup2\n      mstore\n      0x20\n      add\n      0x00\n      keccak256\n        /* \"contract.sol\":1009:1032  tickets[ticketId].owner */\n      0x01\n      add\n      0x00\n      swap1\n      sload\n      swap1\n      0x0100\n      exp\n      swap1\n      div\n      0xffffffffffffffffffffffffffffffffffffffff\n      and\n        /* \"contract.sol\":1009:1046  tickets[ticketId].owner == address(0) */\n      0xffffffffffffffffffffffffffffffffffffffff\n      and\n      eq\n        /* \"contract.sol\":1001:1072  require(tickets[ticketId].owner == address(0), \"Ticket already exists\") */\n      tag_101\n      jumpi\n      mload(0x40)\n      0x08c379a000000000000000000000000000000000000000000000000000000000\n      dup2\n      mstore\n      0x04\n      add\n      tag_102\n      swap1\n      tag_103\n      jump\t// in\n    tag_102:\n      mload(0x40)\n      dup1\n      swap2\n      sub\n      swap1\n      revert\n    tag_101:\n        /* \"contract.sol\":1102:1143  Ticket(ticketId, msg.sender, price, true) */\n      mload(0x40)\n      dup1\n      0x80\n      add\n      0x40\n      mstore\n      dup1\n        /* \"contract.sol\":1109:1117  ticketId */\n      dup4\n        /* \"contract.sol\":1102:1143  Ticket(ticketId, msg.sender, price, true) */\n      dup2\n      mstore\n      0x20\n      add\n        /* \"contract.sol\":1119:1129  msg.sender */\n      caller\n        /* \"contract.sol\":1102:1143  Ticket(ticketId, msg.sender, price, true) */\n      0xffffffffffffffffffffffffffffffffffffffff\n      and\n      dup2\n      mstore\n      0x20\n      add\n        /* \"contract.sol\":1131:1136  price */\n      dup3\n        /* \"contract.sol\":1102:1143  Ticket(ticketId, msg.sender, price, true) */\n      dup2\n      mstore\n      0x20\n      add\n        /* \"contract.sol\":1138:1142  true */\n      0x01\n        /* \"contract.sol\":1102:1143  Ticket(ticketId, msg.sender, price, true) */\n      iszero\n      iszero\n      dup2\n      mstore\n      pop\n        /* \"contract.sol\":1082:1089  tickets */\n      0x01\n        /* \"contract.sol\":1082:1099  tickets[ticketId] */\n      0x00\n        /* \"contract.sol\":1090:1098  ticketId */\n      dup5\n        /* \"contract.sol\":1082:1099  tickets[ticketId] */\n      dup2\n      mstore\n      0x20\n      add\n      swap1\n      dup2\n      mstore\n      0x20\n      add\n      0x00\n      keccak256\n        /* \"contract.sol\":1082:1143  tickets[ticketId] = Ticket(ticketId, msg.sender, price, true) */\n      0x00\n      dup3\n      add\n      mload\n      dup2\n      0x00\n      add\n      sstore\n      0x20\n      dup3\n      add\n      mload\n      dup2\n      0x01\n      add\n      exp(0x0100, 0x00)\n      dup2\n      sload\n      dup2\n      0xffffffffffffffffffffffffffffffffffffffff\n      mul\n      not\n      and\n      swap1\n      dup4\n      0xffffffffffffffffffffffffffffffffffffffff\n      and\n      mul\n      or\n      swap1\n      sstore\n      pop\n      0x40\n      dup3\n      add\n      mload\n      dup2\n      0x02\n      add\n      sstore\n      0x60\n      dup3\n      add\n      mload\n      dup2\n      0x03\n      add\n      exp(0x0100, 0x00)\n      dup2\n      sload\n      dup2\n      0xff\n      mul\n      not\n      and\n      swap1\n      dup4\n      iszero\n      iszero\n      mul\n      or\n      swap1\n      sstore\n      pop\n      swap1\n      pop\n      pop\n        /* \"contract.sol\":1153:1162  ticketIds */\n      0x03\n        /* \"contract.sol\":1168:1176  ticketId */\n      dup3\n        /* \"contract.sol\":1153:1177  ticketIds.push(ticketId) */\n      swap1\n      dup1\n      0x01\n      dup2\n      sload\n      add\n      dup1\n      dup3\n      sstore\n      dup1\n      swap2\n      pop\n      pop\n      0x01\n      swap1\n      sub\n      swap1\n      0x00\n      mstore\n      keccak256(0x00, 0x20)\n      add\n      0x00\n      swap1\n      swap2\n      swap1\n      swap2\n      swap1\n      swap2\n      pop\n      sstore\n        /* \"contract.sol\":1215:1225  msg.sender */\n      caller\n        /* \"contract.sol\":1192:1233  TicketIssued(ticketId, msg.sender, price) */\n      0xffffffffffffffffffffffffffffffffffffffff\n      and\n        /* \"contract.sol\":1205:1213  ticketId */\n      dup3\n        /* \"contract.sol\":1192:1233  TicketIssued(ticketId, msg.sender, price) */\n      0x885aea068dfc8d64b3da0c1131d16d6e26947c043fb441c446de14a01087540d\n        /* \"contract.sol\":1227:1232  price */\n      dup4\n        /* \"contract.sol\":1192:1233  TicketIssued(ticketId, msg.sender, price) */\n      mload(0x40)\n      tag_105\n      swap2\n      swap1\n      tag_106\n      jump\t// in\n    tag_105:\n      mload(0x40)\n      dup1\n      swap2\n      sub\n      swap1\n      log3\n        /* \"contract.sol\":928:1240  function issueTicket(uint256 ticketId, uint256 price) external {... */\n      pop\n      pop\n      jump\t// out\n        /* \"contract.sol\":1864:2699  function processPayment(bytes32 txHash) external payable {... */\n    tag_28:\n        /* \"contract.sol\":1931:1957  Transaction storage txData */\n      0x00\n        /* \"contract.sol\":1960:1972  transactions */\n      0x02\n        /* \"contract.sol\":1960:1980  transactions[txHash] */\n      0x00\n        /* \"contract.sol\":1973:1979  txHash */\n      dup4\n        /* \"contract.sol\":1960:1980  transactions[txHash] */\n      dup2\n      mstore\n      0x20\n      add\n      swap1\n      dup2\n      mstore\n      0x20\n      add\n      0x00\n      keccak256\n        /* \"contract.sol\":1931:1980  Transaction storage txData = transactions[txHash] */\n      swap1\n      pop\n        /* \"contract.sol\":1999:2005  txData */\n      dup1\n        /* \"contract.sol\":1999:2017  txData.isCompleted */\n      0x04\n      add\n      0x00\n      swap1\n      sload\n      swap1\n      0x0100\n      exp\n      swap1\n      div\n      0xff\n      and\n        /* \"contract.sol\":1998:2017  !txData.isCompleted */\n      iszero\n        /* \"contract.sol\":1990:2051  require(!txData.isCompleted, \"Transaction already completed\") */\n      tag_108\n      jumpi\n      mload(0x40)\n      0x08c379a000000000000000000000000000000000000000000000000000000000\n      dup2\n      mstore\n      0x04\n      add\n      tag_109\n      swap1\n      tag_110\n      jump\t// in\n    tag_109:\n      mload(0x40)\n      dup1\n      swap2\n      sub\n      swap1\n      revert\n    tag_108:\n        /* \"contract.sol\":2082:2088  txData */\n      dup1\n        /* \"contract.sol\":2082:2094  txData.price */\n      0x03\n      add\n      sload\n        /* \"contract.sol\":2069:2078  msg.value */\n      callvalue\n        /* \"contract.sol\":2069:2094  msg.value >= txData.price */\n      lt\n      iszero\n        /* \"contract.sol\":2061:2119  require(msg.value >= txData.price, \"Insufficient payment\") */\n      tag_111\n      jumpi\n      mload(0x40)\n      0x08c379a000000000000000000000000000000000000000000000000000000000\n      dup2\n      mstore\n      0x04\n      add\n      tag_112\n      swap1\n      tag_113\n      jump\t// in\n    tag_112:\n      mload(0x40)\n      dup1\n      swap2\n      sub\n      swap1\n      revert\n    tag_111:\n        /* \"contract.sol\":2153:2163  msg.sender */\n      caller\n        /* \"contract.sol\":2137:2163  txData.buyer == msg.sender */\n      0xffffffffffffffffffffffffffffffffffffffff\n      and\n        /* \"contract.sol\":2137:2143  txData */\n      dup2\n        /* \"contract.sol\":2137:2149  txData.buyer */\n      0x01\n      add\n      0x00\n      swap1\n      sload\n      swap1\n      0x0100\n      exp\n      swap1\n      div\n      0xffffffffffffffffffffffffffffffffffffffff\n      and\n        /* \"contract.sol\":2137:2163  txData.buyer == msg.sender */\n      0xffffffffffffffffffffffffffffffffffffffff\n      and\n      eq\n        /* \"contract.sol\":2129:2191  require(txData.buyer == msg.sender, \"Buyer is not recognized\") */\n      tag_114\n      jumpi\n      mload(0x40)\n      0x08c379a000000000000000000000000000000000000000000000000000000000\n      dup2\n      mstore\n      0x04\n      add\n      tag_115\n      swap1\n      tag_116\n      jump\t// in\n    tag_115:\n      mload(0x40)\n      dup1\n      swap2\n      sub\n      swap1\n      revert\n    tag_114:\n        /* \"contract.sol\":2202:2223  Ticket storage ticket */\n      0x00\n        /* \"contract.sol\":2226:2233  tickets */\n      0x01\n        /* \"contract.sol\":2226:2250  tickets[txData.ticketId] */\n      0x00\n        /* \"contract.sol\":2234:2240  txData */\n      dup4\n        /* \"contract.sol\":2234:2249  txData.ticketId */\n      0x00\n      add\n      sload\n        /* \"contract.sol\":2226:2250  tickets[txData.ticketId] */\n      dup2\n      mstore\n      0x20\n      add\n      swap1\n      dup2\n      mstore\n      0x20\n      add\n      0x00\n      keccak256\n        /* \"contract.sol\":2202:2250  Ticket storage ticket = tickets[txData.ticketId] */\n      swap1\n      pop\n        /* \"contract.sol\":2268:2274  ticket */\n      dup1\n        /* \"contract.sol\":2268:2286  ticket.isAvailable */\n      0x03\n      add\n      0x00\n      swap1\n      sload\n      swap1\n      0x0100\n      exp\n      swap1\n      div\n      0xff\n      and\n        /* \"contract.sol\":2260:2320  require(ticket.isAvailable, \"Ticket is no longer available\") */\n      tag_117\n      jumpi\n      mload(0x40)\n      0x08c379a000000000000000000000000000000000000000000000000000000000\n      dup2\n      mstore\n      0x04\n      add\n      tag_118\n      swap1\n      tag_119\n      jump\t// in\n    tag_118:\n      mload(0x40)\n      dup1\n      swap2\n      sub\n      swap1\n      revert\n    tag_117:\n        /* \"contract.sol\":2377:2383  txData */\n      dup2\n        /* \"contract.sol\":2377:2390  txData.seller */\n      0x02\n      add\n      0x00\n      swap1\n      sload\n      swap1\n      0x0100\n      exp\n      swap1\n      div\n      0xffffffffffffffffffffffffffffffffffffffff\n      and\n        /* \"contract.sol\":2369:2400  payable(txData.seller).transfer */\n      0xffffffffffffffffffffffffffffffffffffffff\n      and\n        /* \"contract.sol\":2369:2414  payable(txData.seller).transfer(txData.price) */\n      0x08fc\n        /* \"contract.sol\":2401:2407  txData */\n      dup4\n        /* \"contract.sol\":2401:2413  txData.price */\n      0x03\n      add\n      sload\n        /* \"contract.sol\":2369:2414  payable(txData.seller).transfer(txData.price) */\n      swap1\n      dup2\n      iszero\n      mul\n      swap1\n      mload(0x40)\n      0x00\n      mload(0x40)\n      dup1\n      dup4\n      sub\n      dup2\n      dup6\n      dup9\n      dup9\n      call\n      swap4\n      pop\n      pop\n      pop\n      pop\n      iszero\n      dup1\n      iszero\n      tag_121\n      jumpi\n      returndatasize\n      0x00\n      dup1\n      returndatacopy\n      revert(0x00, returndatasize)\n    tag_121:\n      pop\n        /* \"contract.sol\":2475:2481  txData */\n      dup2\n        /* \"contract.sol\":2475:2487  txData.buyer */\n      0x01\n      add\n      0x00\n      swap1\n      sload\n      swap1\n      0x0100\n      exp\n      swap1\n      div\n      0xffffffffffffffffffffffffffffffffffffffff\n      and\n        /* \"contract.sol\":2460:2466  ticket */\n      dup2\n        /* \"contract.sol\":2460:2472  ticket.owner */\n      0x01\n      add\n      0x00\n        /* \"contract.sol\":2460:2487  ticket.owner = txData.buyer */\n      0x0100\n      exp\n      dup2\n      sload\n      dup2\n      0xffffffffffffffffffffffffffffffffffffffff\n      mul\n      not\n      and\n      swap1\n      dup4\n      0xffffffffffffffffffffffffffffffffffffffff\n      and\n      mul\n      or\n      swap1\n      sstore\n      pop\n        /* \"contract.sol\":2518:2523  false */\n      0x00\n        /* \"contract.sol\":2497:2503  ticket */\n      dup2\n        /* \"contract.sol\":2497:2515  ticket.isAvailable */\n      0x03\n      add\n      0x00\n        /* \"contract.sol\":2497:2523  ticket.isAvailable = false */\n      0x0100\n      exp\n      dup2\n      sload\n      dup2\n      0xff\n      mul\n      not\n      and\n      swap1\n      dup4\n      iszero\n      iszero\n      mul\n      or\n      swap1\n      sstore\n      pop\n        /* \"contract.sol\":2596:2600  true */\n      0x01\n        /* \"contract.sol\":2575:2581  txData */\n      dup3\n        /* \"contract.sol\":2575:2593  txData.isCompleted */\n      0x04\n      add\n      0x00\n        /* \"contract.sol\":2575:2600  txData.isCompleted = true */\n      0x0100\n      exp\n      dup2\n      sload\n      dup2\n      0xff\n      mul\n      not\n      and\n      swap1\n      dup4\n      iszero\n      iszero\n      mul\n      or\n      swap1\n      sstore\n      pop\n        /* \"contract.sol\":2664:2670  txData */\n      dup2\n        /* \"contract.sol\":2664:2677  txData.seller */\n      0x02\n      add\n      0x00\n      swap1\n      sload\n      swap1\n      0x0100\n      exp\n      swap1\n      div\n      0xffffffffffffffffffffffffffffffffffffffff\n      and\n        /* \"contract.sol\":2616:2692  PaymentProcessed(txData.ticketId, txData.buyer, txData.seller, txData.price) */\n      0xffffffffffffffffffffffffffffffffffffffff\n      and\n        /* \"contract.sol\":2650:2656  txData */\n      dup3\n        /* \"contract.sol\":2650:2662  txData.buyer */\n      0x01\n      add\n      0x00\n      swap1\n      sload\n      swap1\n      0x0100\n      exp\n      swap1\n      div\n      0xffffffffffffffffffffffffffffffffffffffff\n      and\n        /* \"contract.sol\":2616:2692  PaymentProcessed(txData.ticketId, txData.buyer, txData.seller, txData.price) */\n      0xffffffffffffffffffffffffffffffffffffffff\n      and\n        /* \"contract.sol\":2633:2639  txData */\n      dup4\n        /* \"contract.sol\":2633:2648  txData.ticketId */\n      0x00\n      add\n      sload\n        /* \"contract.sol\":2616:2692  PaymentProcessed(txData.ticketId, txData.buyer, txData.seller, txData.price) */\n      0x37a13dcf7266fe3681e46ca252ea4f79e8a76da88ae9446f99242fbc014a6c39\n        /* \"contract.sol\":2679:2685  txData */\n      dup6\n        /* \"contract.sol\":2679:2691  txData.price */\n      0x03\n      add\n      sload\n        /* \"contract.sol\":2616:2692  PaymentProcessed(txData.ticketId, txData.buyer, txData.seller, txData.price) */\n      mload(0x40)\n      tag_122\n      swap2\n      swap1\n      tag_106\n      jump\t// in\n    tag_122:\n      mload(0x40)\n      dup1\n      swap2\n      sub\n      swap1\n      log4\n        /* \"contract.sol\":1921:2699  {... */\n      pop\n      pop\n        /* \"contract.sol\":1864:2699  function processPayment(bytes32 txHash) external payable {... */\n      pop\n      jump\t// out\n        /* \"contract.sol\":2827:2954  function getTransaction(bytes32 txHash) external view returns (Transaction memory) {... */\n    tag_32:\n        /* \"contract.sol\":2890:2908  Transaction memory */\n      tag_123\n      tag_88\n      jump\t// in\n    tag_123:\n        /* \"contract.sol\":2927:2939  transactions */\n      0x02\n        /* \"contract.sol\":2927:2947  transactions[txHash] */\n      0x00\n        /* \"contract.sol\":2940:2946  txHash */\n      dup4\n        /* \"contract.sol\":2927:2947  transactions[txHash] */\n      dup2\n      mstore\n      0x20\n      add\n      swap1\n      dup2\n      mstore\n      0x20\n      add\n      0x00\n      keccak256\n        /* \"contract.sol\":2920:2947  return transactions[txHash] */\n      mload(0x40)\n      dup1\n      0xc0\n      add\n      0x40\n      mstore\n      swap1\n      dup2\n      0x00\n      dup3\n      add\n      sload\n      dup2\n      mstore\n      0x20\n      add\n      0x01\n      dup3\n      add\n      0x00\n      swap1\n      sload\n      swap1\n      0x0100\n      exp\n      swap1\n      div\n      0xffffffffffffffffffffffffffffffffffffffff\n      and\n      0xffffffffffffffffffffffffffffffffffffffff\n      and\n      0xffffffffffffffffffffffffffffffffffffffff\n      and\n      dup2\n      mstore\n      0x20\n      add\n      0x02\n      dup3\n      add\n      0x00\n      swap1\n      sload\n      swap1\n      0x0100\n      exp\n      swap1\n      div\n      0xffffffffffffffffffffffffffffffffffffffff\n      and\n      0xffffffffffffffffffffffffffffffffffffffff\n      and\n      0xffffffffffffffffffffffffffffffffffffffff\n      and\n      dup2\n      mstore\n      0x20\n      add\n      0x03\n      dup3\n      add\n      sload\n      dup2\n      mstore\n      0x20\n      add\n      0x04\n      dup3\n      add\n      0x00\n      swap1\n      sload\n      swap1\n      0x0100\n      exp\n      swap1\n      div\n      0xff\n      and\n      iszero\n      iszero\n      iszero\n      iszero\n      dup2\n      mstore\n      0x20\n      add\n      0x05\n      dup3\n      add\n      sload\n      dup2\n      mstore\n      pop\n      pop\n      swap1\n      pop\n        /* \"contract.sol\":2827:2954  function getTransaction(bytes32 txHash) external view returns (Transaction memory) {... */\n      swap2\n      swap1\n      pop\n      jump\t// out\n        /* \"contract.sol\":412:453  mapping(uint256 => Ticket) public tickets */\n    tag_39:\n      mstore(0x20, 0x01)\n      dup1\n      0x00\n      mstore\n      keccak256(0x00, 0x40)\n      0x00\n      swap2\n      pop\n      swap1\n      pop\n      dup1\n      0x00\n      add\n      sload\n      swap1\n      dup1\n      0x01\n      add\n      0x00\n      swap1\n      sload\n      swap1\n      0x0100\n      exp\n      swap1\n      div\n      0xffffffffffffffffffffffffffffffffffffffff\n      and\n      swap1\n      dup1\n      0x02\n      add\n      sload\n      swap1\n      dup1\n      0x03\n      add\n      0x00\n      swap1\n      sload\n      swap1\n      0x0100\n      exp\n      swap1\n      div\n      0xff\n      and\n      swap1\n      pop\n      dup5\n      jump\t// out\n        /* \"contract.sol\":459:510  mapping(bytes32 => Transaction) public transactions */\n    tag_45:\n      mstore(0x20, 0x02)\n      dup1\n      0x00\n      mstore\n      keccak256(0x00, 0x40)\n      0x00\n      swap2\n      pop\n      swap1\n      pop\n      dup1\n      0x00\n      add\n      sload\n      swap1\n      dup1\n      0x01\n      add\n      0x00\n      swap1\n      sload\n      swap1\n      0x0100\n      exp\n      swap1\n      div\n      0xffffffffffffffffffffffffffffffffffffffff\n      and\n      swap1\n      dup1\n      0x02\n      add\n      0x00\n      swap1\n      sload\n      swap1\n      0x0100\n      exp\n      swap1\n      div\n      0xffffffffffffffffffffffffffffffffffffffff\n      and\n      swap1\n      dup1\n      0x03\n      add\n      sload\n      swap1\n      dup1\n      0x04\n      add\n      0x00\n      swap1\n      sload\n      swap1\n      0x0100\n      exp\n      swap1\n      div\n      0xff\n      and\n      swap1\n      dup1\n      0x05\n      add\n      sload\n      swap1\n      pop\n      dup7\n      jump\t// out\n        /* \"contract.sol\":1246:1858  function createTransaction(uint256 ticketId, address buyer) external {... */\n    tag_52:\n        /* \"contract.sol\":1325:1345  Ticket memory ticket */\n      0x00\n        /* \"contract.sol\":1348:1355  tickets */\n      0x01\n        /* \"contract.sol\":1348:1365  tickets[ticketId] */\n      0x00\n        /* \"contract.sol\":1356:1364  ticketId */\n      dup5\n        /* \"contract.sol\":1348:1365  tickets[ticketId] */\n      dup2\n      mstore\n      0x20\n      add\n      swap1\n      dup2\n      mstore\n      0x20\n      add\n      0x00\n      keccak256\n        /* \"contract.sol\":1325:1365  Ticket memory ticket = tickets[ticketId] */\n      mload(0x40)\n      dup1\n      0x80\n      add\n      0x40\n      mstore\n      swap1\n      dup2\n      0x00\n      dup3\n      add\n      sload\n      dup2\n      mstore\n      0x20\n      add\n      0x01\n      dup3\n      add\n      0x00\n      swap1\n      sload\n      swap1\n      0x0100\n      exp\n      swap1\n      div\n      0xffffffffffffffffffffffffffffffffffffffff\n      and\n      0xffffffffffffffffffffffffffffffffffffffff\n      and\n      0xffffffffffffffffffffffffffffffffffffffff\n      and\n      dup2\n      mstore\n      0x20\n      add\n      0x02\n      dup3\n      add\n      sload\n      dup2\n      mstore\n      0x20\n      add\n      0x03\n      dup3\n      add\n      0x00\n      swap1\n      sload\n      swap1\n      0x0100\n      exp\n      swap1\n      div\n      0xff\n      and\n      iszero\n      iszero\n      iszero\n      iszero\n      dup2\n      mstore\n      pop\n      pop\n      swap1\n      pop\n        /* \"contract.sol\":1383:1389  ticket */\n      dup1\n        /* \"contract.sol\":1383:1401  ticket.isAvailable */\n      0x60\n      add\n      mload\n        /* \"contract.sol\":1375:1429  require(ticket.isAvailable, \"Ticket is not available\") */\n      tag_126\n      jumpi\n      mload(0x40)\n      0x08c379a000000000000000000000000000000000000000000000000000000000\n      dup2\n      mstore\n      0x04\n      add\n      tag_127\n      swap1\n      tag_128\n      jump\t// in\n    tag_127:\n      mload(0x40)\n      dup1\n      swap2\n      sub\n      swap1\n      revert\n    tag_126:\n        /* \"contract.sol\":1463:1473  msg.sender */\n      caller\n        /* \"contract.sol\":1447:1473  ticket.owner != msg.sender */\n      0xffffffffffffffffffffffffffffffffffffffff\n      and\n        /* \"contract.sol\":1447:1453  ticket */\n      dup2\n        /* \"contract.sol\":1447:1459  ticket.owner */\n      0x20\n      add\n      mload\n        /* \"contract.sol\":1447:1473  ticket.owner != msg.sender */\n      0xffffffffffffffffffffffffffffffffffffffff\n      and\n      sub\n        /* \"contract.sol\":1439:1509  require(ticket.owner != msg.sender, \"The owner can't buy this ticket\") */\n      tag_129\n      jumpi\n      mload(0x40)\n      0x08c379a000000000000000000000000000000000000000000000000000000000\n      dup2\n      mstore\n      0x04\n      add\n      tag_130\n      swap1\n      tag_131\n      jump\t// in\n    tag_130:\n      mload(0x40)\n      dup1\n      swap2\n      sub\n      swap1\n      revert\n    tag_129:\n        /* \"contract.sol\":1520:1534  bytes32 txHash */\n      0x00\n        /* \"contract.sol\":1564:1572  ticketId */\n      dup4\n        /* \"contract.sol\":1574:1579  buyer */\n      dup4\n        /* \"contract.sol\":1581:1591  msg.sender */\n      caller\n        /* \"contract.sol\":1593:1599  ticket */\n      dup5\n        /* \"contract.sol\":1593:1605  ticket.price */\n      0x40\n      add\n      mload\n        /* \"contract.sol\":1607:1622  block.timestamp */\n      timestamp\n        /* \"contract.sol\":1547:1623  abi.encodePacked(ticketId, buyer, msg.sender, ticket.price, block.timestamp) */\n      add(0x20, mload(0x40))\n      tag_132\n      swap6\n      swap5\n      swap4\n      swap3\n      swap2\n      swap1\n      tag_133\n      jump\t// in\n    tag_132:\n      mload(0x40)\n      0x20\n      dup2\n      dup4\n      sub\n      sub\n      dup2\n      mstore\n      swap1\n      0x40\n      mstore\n        /* \"contract.sol\":1537:1624  keccak256(abi.encodePacked(ticketId, buyer, msg.sender, ticket.price, block.timestamp)) */\n      dup1\n      mload\n      swap1\n      0x20\n      add\n      keccak256\n        /* \"contract.sol\":1520:1624  bytes32 txHash = keccak256(abi.encodePacked(ticketId, buyer, msg.sender, ticket.price, block.timestamp)) */\n      swap1\n      pop\n        /* \"contract.sol\":1657:1726  Transaction(ticketId, buyer, msg.sender, ticket.price, false, txHash) */\n      mload(0x40)\n      dup1\n      0xc0\n      add\n      0x40\n      mstore\n      dup1\n        /* \"contract.sol\":1669:1677  ticketId */\n      dup6\n        /* \"contract.sol\":1657:1726  Transaction(ticketId, buyer, msg.sender, ticket.price, false, txHash) */\n      dup2\n      mstore\n      0x20\n      add\n        /* \"contract.sol\":1679:1684  buyer */\n      dup5\n        /* \"contract.sol\":1657:1726  Transaction(ticketId, buyer, msg.sender, ticket.price, false, txHash) */\n      0xffffffffffffffffffffffffffffffffffffffff\n      and\n      dup2\n      mstore\n      0x20\n      add\n        /* \"contract.sol\":1686:1696  msg.sender */\n      caller\n        /* \"contract.sol\":1657:1726  Transaction(ticketId, buyer, msg.sender, ticket.price, false, txHash) */\n      0xffffffffffffffffffffffffffffffffffffffff\n      and\n      dup2\n      mstore\n      0x20\n      add\n        /* \"contract.sol\":1698:1704  ticket */\n      dup4\n        /* \"contract.sol\":1698:1710  ticket.price */\n      0x40\n      add\n      mload\n        /* \"contract.sol\":1657:1726  Transaction(ticketId, buyer, msg.sender, ticket.price, false, txHash) */\n      dup2\n      mstore\n      0x20\n      add\n        /* \"contract.sol\":1712:1717  false */\n      0x00\n        /* \"contract.sol\":1657:1726  Transaction(ticketId, buyer, msg.sender, ticket.price, false, txHash) */\n      iszero\n      iszero\n      dup2\n      mstore\n      0x20\n      add\n        /* \"contract.sol\":1719:1725  txHash */\n      dup3\n        /* \"contract.sol\":1657:1726  Transaction(ticketId, buyer, msg.sender, ticket.price, false, txHash) */\n      dup2\n      mstore\n      pop\n        /* \"contract.sol\":1634:1646  transactions */\n      0x02\n        /* \"contract.sol\":1634:1654  transactions[txHash] */\n      0x00\n        /* \"contract.sol\":1647:1653  txHash */\n      dup4\n        /* \"contract.sol\":1634:1654  transactions[txHash] */\n      dup2\n      mstore\n      0x20\n      add\n      swap1\n      dup2\n      mstore\n      0x20\n      add\n      0x00\n      keccak256\n        /* \"contract.sol\":1634:1726  transactions[txHash] = Transaction(ticketId, buyer, msg.sender, ticket.price, false, txHash) */\n      0x00\n      dup3\n      add\n      mload\n      dup2\n      0x00\n      add\n      sstore\n      0x20\n      dup3\n      add\n      mload\n      dup2\n      0x01\n      add\n      exp(0x0100, 0x00)\n      dup2\n      sload\n      dup2\n      0xffffffffffffffffffffffffffffffffffffffff\n      mul\n      not\n      and\n      swap1\n      dup4\n      0xffffffffffffffffffffffffffffffffffffffff\n      and\n      mul\n      or\n      swap1\n      sstore\n      pop\n      0x40\n      dup3\n      add\n      mload\n      dup2\n      0x02\n      add\n      exp(0x0100, 0x00)\n      dup2\n      sload\n      dup2\n      0xffffffffffffffffffffffffffffffffffffffff\n      mul\n      not\n      and\n      swap1\n      dup4\n      0xffffffffffffffffffffffffffffffffffffffff\n      and\n      mul\n      or\n      swap1\n      sstore\n      pop\n      0x60\n      dup3\n      add\n      mload\n      dup2\n      0x03\n      add\n      sstore\n      0x80\n      dup3\n      add\n      mload\n      dup2\n      0x04\n      add\n      exp(0x0100, 0x00)\n      dup2\n      sload\n      dup2\n      0xff\n      mul\n      not\n      and\n      swap1\n      dup4\n      iszero\n      iszero\n      mul\n      or\n      swap1\n      sstore\n      pop\n      0xa0\n      dup3\n      add\n      mload\n      dup2\n      0x05\n      add\n      sstore\n      swap1\n      pop\n      pop\n        /* \"contract.sol\":1736:1753  transactionHashes */\n      0x04\n        /* \"contract.sol\":1759:1765  txHash */\n      dup2\n        /* \"contract.sol\":1736:1766  transactionHashes.push(txHash) */\n      swap1\n      dup1\n      0x01\n      dup2\n      sload\n      add\n      dup1\n      dup3\n      sstore\n      dup1\n      swap2\n      pop\n      pop\n      0x01\n      swap1\n      sub\n      swap1\n      0x00\n      mstore\n      keccak256(0x00, 0x20)\n      add\n      0x00\n      swap1\n      swap2\n      swap1\n      swap2\n      swap1\n      swap2\n      pop\n      sstore\n        /* \"contract.sol\":1818:1828  msg.sender */\n      caller\n        /* \"contract.sol\":1782:1851  TransactionCreated(ticketId, buyer, msg.sender, ticket.price, txHash) */\n      0xffffffffffffffffffffffffffffffffffffffff\n      and\n        /* \"contract.sol\":1811:1816  buyer */\n      dup4\n        /* \"contract.sol\":1782:1851  TransactionCreated(ticketId, buyer, msg.sender, ticket.price, txHash) */\n      0xffffffffffffffffffffffffffffffffffffffff\n      and\n        /* \"contract.sol\":1801:1809  ticketId */\n      dup6\n        /* \"contract.sol\":1782:1851  TransactionCreated(ticketId, buyer, msg.sender, ticket.price, txHash) */\n      0x134a388716b167dae2534ca04765e55a86d3e6e1181931c2d9524f94da09c83b\n        /* \"contract.sol\":1830:1836  ticket */\n      dup6\n        /* \"contract.sol\":1830:1842  ticket.price */\n      0x40\n      add\n      mload\n        /* \"contract.sol\":1844:1850  txHash */\n      dup6\n        /* \"contract.sol\":1782:1851  TransactionCreated(ticketId, buyer, msg.sender, ticket.price, txHash) */\n      mload(0x40)\n      tag_135\n      swap3\n      swap2\n      swap1\n      tag_136\n      jump\t// in\n    tag_135:\n      mload(0x40)\n      dup1\n      swap2\n      sub\n      swap1\n      log4\n        /* \"contract.sol\":1315:1858  {... */\n      pop\n      pop\n        /* \"contract.sol\":1246:1858  function createTransaction(uint256 ticketId, address buyer) external {... */\n      pop\n      pop\n      jump\t// out\n        /* \"contract.sol\":2705:2821  function getTicket(uint256 ticketId) external view returns (Ticket memory) {... */\n    tag_56:\n        /* \"contract.sol\":2765:2778  Ticket memory */\n      tag_137\n      tag_138\n      jump\t// in\n    tag_137:\n        /* \"contract.sol\":2797:2804  tickets */\n      0x01\n        /* \"contract.sol\":2797:2814  tickets[ticketId] */\n      0x00\n        /* \"contract.sol\":2805:2813  ticketId */\n      dup4\n        /* \"contract.sol\":2797:2814  tickets[ticketId] */\n      dup2\n      mstore\n      0x20\n      add\n      swap1\n      dup2\n      mstore\n      0x20\n      add\n      0x00\n      keccak256\n        /* \"contract.sol\":2790:2814  return tickets[ticketId] */\n      mload(0x40)\n      dup1\n      0x80\n      add\n      0x40\n      mstore\n      swap1\n      dup2\n      0x00\n      dup3\n      add\n      sload\n      dup2\n      mstore\n      0x20\n      add\n      0x01\n      dup3\n      add\n      0x00\n      swap1\n      sload\n      swap1\n      0x0100\n      exp\n      swap1\n      div\n      0xffffffffffffffffffffffffffffffffffffffff\n      and\n      0xffffffffffffffffffffffffffffffffffffffff\n      and\n      0xffffffffffffffffffffffffffffffffffffffff\n      and\n      dup2\n      mstore\n      0x20\n      add\n      0x02\n      dup3\n      add\n      sload\n      dup2\n      mstore\n      0x20\n      add\n      0x03\n      dup3\n      add\n      0x00\n      swap1\n      sload\n      swap1\n      0x0100\n      exp\n      swap1\n      div\n      0xff\n      and\n      iszero\n      iszero\n      iszero\n      iszero\n      dup2\n      mstore\n      pop\n      pop\n      swap1\n      pop\n        /* \"contract.sol\":2705:2821  function getTicket(uint256 ticketId) external view returns (Ticket memory) {... */\n      swap2\n      swap1\n      pop\n      jump\t// out\n        /* \"contract.sol\":2960:3571  function getTicketsByUser(address user) external view returns (Ticket[] memory) {... */\n    tag_62:\n        /* \"contract.sol\":3023:3038  Ticket[] memory */\n      0x60\n        /* \"contract.sol\":3050:3063  uint256 count */\n      0x00\n        /* \"contract.sol\":3082:3091  uint256 i */\n      dup1\n        /* \"contract.sol\":3077:3229  for (uint256 i = 0; i < ticketIds.length; i++) {... */\n    tag_141:\n        /* \"contract.sol\":3101:3110  ticketIds */\n      0x03\n        /* \"contract.sol\":3101:3117  ticketIds.length */\n      dup1\n      sload\n      swap1\n      pop\n        /* \"contract.sol\":3097:3098  i */\n      dup2\n        /* \"contract.sol\":3097:3117  i < ticketIds.length */\n      lt\n        /* \"contract.sol\":3077:3229  for (uint256 i = 0; i < ticketIds.length; i++) {... */\n      iszero\n      tag_142\n      jumpi\n        /* \"contract.sol\":3173:3177  user */\n      dup4\n        /* \"contract.sol\":3142:3177  tickets[ticketIds[i]].owner == user */\n      0xffffffffffffffffffffffffffffffffffffffff\n      and\n        /* \"contract.sol\":3142:3149  tickets */\n      0x01\n        /* \"contract.sol\":3142:3163  tickets[ticketIds[i]] */\n      0x00\n        /* \"contract.sol\":3150:3159  ticketIds */\n      0x03\n        /* \"contract.sol\":3160:3161  i */\n      dup5\n        /* \"contract.sol\":3150:3162  ticketIds[i] */\n      dup2\n      sload\n      dup2\n      lt\n      tag_144\n      jumpi\n      tag_145\n      tag_76\n      jump\t// in\n    tag_145:\n    tag_144:\n      swap1\n      0x00\n      mstore\n      keccak256(0x00, 0x20)\n      add\n      sload\n        /* \"contract.sol\":3142:3163  tickets[ticketIds[i]] */\n      dup2\n      mstore\n      0x20\n      add\n      swap1\n      dup2\n      mstore\n      0x20\n      add\n      0x00\n      keccak256\n        /* \"contract.sol\":3142:3169  tickets[ticketIds[i]].owner */\n      0x01\n      add\n      0x00\n      swap1\n      sload\n      swap1\n      0x0100\n      exp\n      swap1\n      div\n      0xffffffffffffffffffffffffffffffffffffffff\n      and\n        /* \"contract.sol\":3142:3177  tickets[ticketIds[i]].owner == user */\n      0xffffffffffffffffffffffffffffffffffffffff\n      and\n      sub\n        /* \"contract.sol\":3138:3219  if (tickets[ticketIds[i]].owner == user) {... */\n      tag_147\n      jumpi\n        /* \"contract.sol\":3197:3204  count++ */\n      dup2\n      dup1\n      tag_148\n      swap1\n      tag_81\n      jump\t// in\n    tag_148:\n      swap3\n      pop\n      pop\n        /* \"contract.sol\":3138:3219  if (tickets[ticketIds[i]].owner == user) {... */\n    tag_147:\n        /* \"contract.sol\":3119:3122  i++ */\n      dup1\n      dup1\n      0x01\n      add\n      swap2\n      pop\n      pop\n        /* \"contract.sol\":3077:3229  for (uint256 i = 0; i < ticketIds.length; i++) {... */\n      jump(tag_141)\n    tag_142:\n      pop\n        /* \"contract.sol\":3239:3266  Ticket[] memory userTickets */\n      0x00\n        /* \"contract.sol\":3282:3287  count */\n      dup2\n        /* \"contract.sol\":3269:3288  new Ticket[](count) */\n      0xffffffffffffffff\n      dup2\n      gt\n      iszero\n      tag_149\n      jumpi\n      tag_150\n      tag_84\n      jump\t// in\n    tag_150:\n    tag_149:\n      mload(0x40)\n      swap1\n      dup1\n      dup3\n      mstore\n      dup1\n      0x20\n      mul\n      0x20\n      add\n      dup3\n      add\n      0x40\n      mstore\n      dup1\n      iszero\n      tag_151\n      jumpi\n      dup2\n      0x20\n      add\n    tag_152:\n      tag_153\n      tag_138\n      jump\t// in\n    tag_153:\n      dup2\n      mstore\n      0x20\n      add\n      swap1\n      0x01\n      swap1\n      sub\n      swap1\n      dup2\n      tag_152\n      jumpi\n      swap1\n      pop\n    tag_151:\n      pop\n        /* \"contract.sol\":3239:3288  Ticket[] memory userTickets = new Ticket[](count) */\n      swap1\n      pop\n        /* \"contract.sol\":3298:3311  uint256 index */\n      0x00\n        /* \"contract.sol\":3330:3339  uint256 i */\n      dup1\n        /* \"contract.sol\":3325:3537  for (uint256 i = 0; i < ticketIds.length; i++) {... */\n    tag_154:\n        /* \"contract.sol\":3349:3358  ticketIds */\n      0x03\n        /* \"contract.sol\":3349:3365  ticketIds.length */\n      dup1\n      sload\n      swap1\n      pop\n        /* \"contract.sol\":3345:3346  i */\n      dup2\n        /* \"contract.sol\":3345:3365  i < ticketIds.length */\n      lt\n        /* \"contract.sol\":3325:3537  for (uint256 i = 0; i < ticketIds.length; i++) {... */\n      iszero\n      tag_155\n      jumpi\n        /* \"contract.sol\":3421:3425  user */\n      dup6\n        /* \"contract.sol\":3390:3425  tickets[ticketIds[i]].owner == user */\n      0xffffffffffffffffffffffffffffffffffffffff\n      and\n        /* \"contract.sol\":3390:3397  tickets */\n      0x01\n        /* \"contract.sol\":3390:3411  tickets[ticketIds[i]] */\n      0x00\n        /* \"contract.sol\":3398:3407  ticketIds */\n      0x03\n        /* \"contract.sol\":3408:3409  i */\n      dup5\n        /* \"contract.sol\":3398:3410  ticketIds[i] */\n      dup2\n      sload\n      dup2\n      lt\n      tag_157\n      jumpi\n      tag_158\n      tag_76\n      jump\t// in\n    tag_158:\n    tag_157:\n      swap1\n      0x00\n      mstore\n      keccak256(0x00, 0x20)\n      add\n      sload\n        /* \"contract.sol\":3390:3411  tickets[ticketIds[i]] */\n      dup2\n      mstore\n      0x20\n      add\n      swap1\n      dup2\n      mstore\n      0x20\n      add\n      0x00\n      keccak256\n        /* \"contract.sol\":3390:3417  tickets[ticketIds[i]].owner */\n      0x01\n      add\n      0x00\n      swap1\n      sload\n      swap1\n      0x0100\n      exp\n      swap1\n      div\n      0xffffffffffffffffffffffffffffffffffffffff\n      and\n        /* \"contract.sol\":3390:3425  tickets[ticketIds[i]].owner == user */\n      0xffffffffffffffffffffffffffffffffffffffff\n      and\n      sub\n        /* \"contract.sol\":3386:3527  if (tickets[ticketIds[i]].owner == user) {... */\n      tag_160\n      jumpi\n        /* \"contract.sol\":3466:3473  tickets */\n      0x01\n        /* \"contract.sol\":3466:3487  tickets[ticketIds[i]] */\n      0x00\n        /* \"contract.sol\":3474:3483  ticketIds */\n      0x03\n        /* \"contract.sol\":3484:3485  i */\n      dup4\n        /* \"contract.sol\":3474:3486  ticketIds[i] */\n      dup2\n      sload\n      dup2\n      lt\n      tag_161\n      jumpi\n      tag_162\n      tag_76\n      jump\t// in\n    tag_162:\n    tag_161:\n      swap1\n      0x00\n      mstore\n      keccak256(0x00, 0x20)\n      add\n      sload\n        /* \"contract.sol\":3466:3487  tickets[ticketIds[i]] */\n      dup2\n      mstore\n      0x20\n      add\n      swap1\n      dup2\n      mstore\n      0x20\n      add\n      0x00\n      keccak256\n        /* \"contract.sol\":3445:3487  userTickets[index] = tickets[ticketIds[i]] */\n      mload(0x40)\n      dup1\n      0x80\n      add\n      0x40\n      mstore\n      swap1\n      dup2\n      0x00\n      dup3\n      add\n      sload\n      dup2\n      mstore\n      0x20\n      add\n      0x01\n      dup3\n      add\n      0x00\n      swap1\n      sload\n      swap1\n      0x0100\n      exp\n      swap1\n      div\n      0xffffffffffffffffffffffffffffffffffffffff\n      and\n      0xffffffffffffffffffffffffffffffffffffffff\n      and\n      0xffffffffffffffffffffffffffffffffffffffff\n      and\n      dup2\n      mstore\n      0x20\n      add\n      0x02\n      dup3\n      add\n      sload\n      dup2\n      mstore\n      0x20\n      add\n      0x03\n      dup3\n      add\n      0x00\n      swap1\n      sload\n      swap1\n      0x0100\n      exp\n      swap1\n      div\n      0xff\n      and\n      iszero\n      iszero\n      iszero\n      iszero\n      dup2\n      mstore\n      pop\n      pop\n        /* \"contract.sol\":3445:3456  userTickets */\n      dup4\n        /* \"contract.sol\":3457:3462  index */\n      dup4\n        /* \"contract.sol\":3445:3463  userTickets[index] */\n      dup2\n      mload\n      dup2\n      lt\n      tag_164\n      jumpi\n      tag_165\n      tag_76\n      jump\t// in\n    tag_165:\n    tag_164:\n      0x20\n      mul\n      0x20\n      add\n      add\n        /* \"contract.sol\":3445:3487  userTickets[index] = tickets[ticketIds[i]] */\n      dup2\n      swap1\n      mstore\n      pop\n        /* \"contract.sol\":3505:3512  index++ */\n      dup2\n      dup1\n      tag_166\n      swap1\n      tag_81\n      jump\t// in\n    tag_166:\n      swap3\n      pop\n      pop\n        /* \"contract.sol\":3386:3527  if (tickets[ticketIds[i]].owner == user) {... */\n    tag_160:\n        /* \"contract.sol\":3367:3370  i++ */\n      dup1\n      dup1\n      0x01\n      add\n      swap2\n      pop\n      pop\n        /* \"contract.sol\":3325:3537  for (uint256 i = 0; i < ticketIds.length; i++) {... */\n      jump(tag_154)\n    tag_155:\n      pop\n        /* \"contract.sol\":3553:3564  userTickets */\n      dup2\n        /* \"contract.sol\":3546:3564  return userTickets */\n      swap4\n      pop\n      pop\n      pop\n      pop\n        /* \"contract.sol\":2960:3571  function getTicketsByUser(address user) external view returns (Ticket[] memory) {... */\n      swap2\n      swap1\n      pop\n      jump\t// out\n        /* \"contract.sol\":90:110  address public admin */\n    tag_67:\n      0x00\n      dup1\n      sload\n      swap1\n      0x0100\n      exp\n      swap1\n      div\n      0xffffffffffffffffffffffffffffffffffffffff\n      and\n      dup2\n      jump\t// out\n    tag_88:\n      mload(0x40)\n      dup1\n      0xc0\n      add\n      0x40\n      mstore\n      dup1\n      0x00\n      dup2\n      mstore\n      0x20\n      add\n      and(0xffffffffffffffffffffffffffffffffffffffff, 0x00)\n      dup2\n      mstore\n      0x20\n      add\n      and(0xffffffffffffffffffffffffffffffffffffffff, 0x00)\n      dup2\n      mstore\n      0x20\n      add\n      0x00\n      dup2\n      mstore\n      0x20\n      add\n      iszero(iszero(0x00))\n      dup2\n      mstore\n      0x20\n      add\n      0x00\n      dup1\n      not\n      and\n      dup2\n      mstore\n      pop\n      swap1\n      jump\t// out\n    tag_138:\n      mload(0x40)\n      dup1\n      0x80\n      add\n      0x40\n      mstore\n      dup1\n      0x00\n      dup2\n      mstore\n      0x20\n      add\n      and(0xffffffffffffffffffffffffffffffffffffffff, 0x00)\n      dup2\n      mstore\n      0x20\n      add\n      0x00\n      dup2\n      mstore\n      0x20\n      add\n      iszero(iszero(0x00))\n      dup2\n      mstore\n      pop\n      swap1\n      jump\t// out\n        /* \"#utility.yul\":88:205   */\n    tag_168:\n        /* \"#utility.yul\":197:198   */\n      0x00\n        /* \"#utility.yul\":194:195   */\n      dup1\n        /* \"#utility.yul\":187:199   */\n      revert\n        /* \"#utility.yul\":334:460   */\n    tag_170:\n        /* \"#utility.yul\":371:378   */\n      0x00\n        /* \"#utility.yul\":411:453   */\n      0xffffffffffffffffffffffffffffffffffffffff\n        /* \"#utility.yul\":404:409   */\n      dup3\n        /* \"#utility.yul\":400:454   */\n      and\n        /* \"#utility.yul\":389:454   */\n      swap1\n      pop\n        /* \"#utility.yul\":334:460   */\n      swap2\n      swap1\n      pop\n      jump\t// out\n        /* \"#utility.yul\":466:562   */\n    tag_171:\n        /* \"#utility.yul\":503:510   */\n      0x00\n        /* \"#utility.yul\":532:556   */\n      tag_233\n        /* \"#utility.yul\":550:555   */\n      dup3\n        /* \"#utility.yul\":532:556   */\n      tag_170\n      jump\t// in\n    tag_233:\n        /* \"#utility.yul\":521:556   */\n      swap1\n      pop\n        /* \"#utility.yul\":466:562   */\n      swap2\n      swap1\n      pop\n      jump\t// out\n        /* \"#utility.yul\":568:690   */\n    tag_172:\n        /* \"#utility.yul\":641:665   */\n      tag_235\n        /* \"#utility.yul\":659:664   */\n      dup2\n        /* \"#utility.yul\":641:665   */\n      tag_171\n      jump\t// in\n    tag_235:\n        /* \"#utility.yul\":634:639   */\n      dup2\n        /* \"#utility.yul\":631:666   */\n      eq\n        /* \"#utility.yul\":621:684   */\n      tag_236\n      jumpi\n        /* \"#utility.yul\":680:681   */\n      0x00\n        /* \"#utility.yul\":677:678   */\n      dup1\n        /* \"#utility.yul\":670:682   */\n      revert\n        /* \"#utility.yul\":621:684   */\n    tag_236:\n        /* \"#utility.yul\":568:690   */\n      pop\n      jump\t// out\n        /* \"#utility.yul\":696:835   */\n    tag_173:\n        /* \"#utility.yul\":742:747   */\n      0x00\n        /* \"#utility.yul\":780:786   */\n      dup2\n        /* \"#utility.yul\":767:787   */\n      calldataload\n        /* \"#utility.yul\":758:787   */\n      swap1\n      pop\n        /* \"#utility.yul\":796:829   */\n      tag_238\n        /* \"#utility.yul\":823:828   */\n      dup2\n        /* \"#utility.yul\":796:829   */\n      tag_172\n      jump\t// in\n    tag_238:\n        /* \"#utility.yul\":696:835   */\n      swap3\n      swap2\n      pop\n      pop\n      jump\t// out\n        /* \"#utility.yul\":841:1170   */\n    tag_16:\n        /* \"#utility.yul\":900:906   */\n      0x00\n        /* \"#utility.yul\":949:951   */\n      0x20\n        /* \"#utility.yul\":937:946   */\n      dup3\n        /* \"#utility.yul\":928:935   */\n      dup5\n        /* \"#utility.yul\":924:947   */\n      sub\n        /* \"#utility.yul\":920:952   */\n      slt\n        /* \"#utility.yul\":917:1036   */\n      iszero\n      tag_240\n      jumpi\n        /* \"#utility.yul\":955:1034   */\n      tag_241\n      tag_168\n      jump\t// in\n    tag_241:\n        /* \"#utility.yul\":917:1036   */\n    tag_240:\n        /* \"#utility.yul\":1075:1076   */\n      0x00\n        /* \"#utility.yul\":1100:1153   */\n      tag_242\n        /* \"#utility.yul\":1145:1152   */\n      dup5\n        /* \"#utility.yul\":1136:1142   */\n      dup3\n        /* \"#utility.yul\":1125:1134   */\n      dup6\n        /* \"#utility.yul\":1121:1143   */\n      add\n        /* \"#utility.yul\":1100:1153   */\n      tag_173\n      jump\t// in\n    tag_242:\n        /* \"#utility.yul\":1090:1153   */\n      swap2\n      pop\n        /* \"#utility.yul\":1046:1163   */\n      pop\n        /* \"#utility.yul\":841:1170   */\n      swap3\n      swap2\n      pop\n      pop\n      jump\t// out\n        /* \"#utility.yul\":1176:1317   */\n    tag_174:\n        /* \"#utility.yul\":1270:1276   */\n      0x00\n        /* \"#utility.yul\":1304:1309   */\n      dup2\n        /* \"#utility.yul\":1298:1310   */\n      mload\n        /* \"#utility.yul\":1288:1310   */\n      swap1\n      pop\n        /* \"#utility.yul\":1176:1317   */\n      swap2\n      swap1\n      pop\n      jump\t// out\n        /* \"#utility.yul\":1323:1534   */\n    tag_175:\n        /* \"#utility.yul\":1449:1460   */\n      0x00\n        /* \"#utility.yul\":1483:1489   */\n      dup3\n        /* \"#utility.yul\":1478:1481   */\n      dup3\n        /* \"#utility.yul\":1471:1490   */\n      mstore\n        /* \"#utility.yul\":1523:1527   */\n      0x20\n        /* \"#utility.yul\":1518:1521   */\n      dup3\n        /* \"#utility.yul\":1514:1528   */\n      add\n        /* \"#utility.yul\":1499:1528   */\n      swap1\n      pop\n        /* \"#utility.yul\":1323:1534   */\n      swap3\n      swap2\n      pop\n      pop\n      jump\t// out\n        /* \"#utility.yul\":1540:1699   */\n    tag_176:\n        /* \"#utility.yul\":1634:1638   */\n      0x00\n        /* \"#utility.yul\":1657:1660   */\n      dup2\n        /* \"#utility.yul\":1649:1660   */\n      swap1\n      pop\n        /* \"#utility.yul\":1687:1691   */\n      0x20\n        /* \"#utility.yul\":1682:1685   */\n      dup3\n        /* \"#utility.yul\":1678:1692   */\n      add\n        /* \"#utility.yul\":1670:1692   */\n      swap1\n      pop\n        /* \"#utility.yul\":1540:1699   */\n      swap2\n      swap1\n      pop\n      jump\t// out\n        /* \"#utility.yul\":1705:1782   */\n    tag_177:\n        /* \"#utility.yul\":1742:1749   */\n      0x00\n        /* \"#utility.yul\":1771:1776   */\n      dup2\n        /* \"#utility.yul\":1760:1776   */\n      swap1\n      pop\n        /* \"#utility.yul\":1705:1782   */\n      swap2\n      swap1\n      pop\n      jump\t// out\n        /* \"#utility.yul\":1788:1896   */\n    tag_178:\n        /* \"#utility.yul\":1865:1889   */\n      tag_248\n        /* \"#utility.yul\":1883:1888   */\n      dup2\n        /* \"#utility.yul\":1865:1889   */\n      tag_177\n      jump\t// in\n    tag_248:\n        /* \"#utility.yul\":1860:1863   */\n      dup3\n        /* \"#utility.yul\":1853:1890   */\n      mstore\n        /* \"#utility.yul\":1788:1896   */\n      pop\n      pop\n      jump\t// out\n        /* \"#utility.yul\":1902:2010   */\n    tag_179:\n        /* \"#utility.yul\":1979:2003   */\n      tag_250\n        /* \"#utility.yul\":1997:2002   */\n      dup2\n        /* \"#utility.yul\":1979:2003   */\n      tag_171\n      jump\t// in\n    tag_250:\n        /* \"#utility.yul\":1974:1977   */\n      dup3\n        /* \"#utility.yul\":1967:2004   */\n      mstore\n        /* \"#utility.yul\":1902:2010   */\n      pop\n      pop\n      jump\t// out\n        /* \"#utility.yul\":2016:2106   */\n    tag_180:\n        /* \"#utility.yul\":2050:2057   */\n      0x00\n        /* \"#utility.yul\":2093:2098   */\n      dup2\n        /* \"#utility.yul\":2086:2099   */\n      iszero\n        /* \"#utility.yul\":2079:2100   */\n      iszero\n        /* \"#utility.yul\":2068:2100   */\n      swap1\n      pop\n        /* \"#utility.yul\":2016:2106   */\n      swap2\n      swap1\n      pop\n      jump\t// out\n        /* \"#utility.yul\":2112:2211   */\n    tag_181:\n        /* \"#utility.yul\":2183:2204   */\n      tag_253\n        /* \"#utility.yul\":2198:2203   */\n      dup2\n        /* \"#utility.yul\":2183:2204   */\n      tag_180\n      jump\t// in\n    tag_253:\n        /* \"#utility.yul\":2178:2181   */\n      dup3\n        /* \"#utility.yul\":2171:2205   */\n      mstore\n        /* \"#utility.yul\":2112:2211   */\n      pop\n      pop\n      jump\t// out\n        /* \"#utility.yul\":2217:2294   */\n    tag_182:\n        /* \"#utility.yul\":2254:2261   */\n      0x00\n        /* \"#utility.yul\":2283:2288   */\n      dup2\n        /* \"#utility.yul\":2272:2288   */\n      swap1\n      pop\n        /* \"#utility.yul\":2217:2294   */\n      swap2\n      swap1\n      pop\n      jump\t// out\n        /* \"#utility.yul\":2300:2408   */\n    tag_183:\n        /* \"#utility.yul\":2377:2401   */\n      tag_256\n        /* \"#utility.yul\":2395:2400   */\n      dup2\n        /* \"#utility.yul\":2377:2401   */\n      tag_182\n      jump\t// in\n    tag_256:\n        /* \"#utility.yul\":2372:2375   */\n      dup3\n        /* \"#utility.yul\":2365:2402   */\n      mstore\n        /* \"#utility.yul\":2300:2408   */\n      pop\n      pop\n      jump\t// out\n        /* \"#utility.yul\":2498:3704   */\n    tag_184:\n        /* \"#utility.yul\":2639:2643   */\n      0xc0\n        /* \"#utility.yul\":2634:2637   */\n      dup3\n        /* \"#utility.yul\":2630:2644   */\n      add\n        /* \"#utility.yul\":2730:2734   */\n      0x00\n        /* \"#utility.yul\":2723:2728   */\n      dup3\n        /* \"#utility.yul\":2719:2735   */\n      add\n        /* \"#utility.yul\":2713:2736   */\n      mload\n        /* \"#utility.yul\":2749:2812   */\n      tag_258\n        /* \"#utility.yul\":2806:2810   */\n      0x00\n        /* \"#utility.yul\":2801:2804   */\n      dup6\n        /* \"#utility.yul\":2797:2811   */\n      add\n        /* \"#utility.yul\":2783:2795   */\n      dup3\n        /* \"#utility.yul\":2749:2812   */\n      tag_178\n      jump\t// in\n    tag_258:\n        /* \"#utility.yul\":2654:2822   */\n      pop\n        /* \"#utility.yul\":2905:2909   */\n      0x20\n        /* \"#utility.yul\":2898:2903   */\n      dup3\n        /* \"#utility.yul\":2894:2910   */\n      add\n        /* \"#utility.yul\":2888:2911   */\n      mload\n        /* \"#utility.yul\":2924:2987   */\n      tag_259\n        /* \"#utility.yul\":2981:2985   */\n      0x20\n        /* \"#utility.yul\":2976:2979   */\n      dup6\n        /* \"#utility.yul\":2972:2986   */\n      add\n        /* \"#utility.yul\":2958:2970   */\n      dup3\n        /* \"#utility.yul\":2924:2987   */\n      tag_179\n      jump\t// in\n    tag_259:\n        /* \"#utility.yul\":2832:2997   */\n      pop\n        /* \"#utility.yul\":3081:3085   */\n      0x40\n        /* \"#utility.yul\":3074:3079   */\n      dup3\n        /* \"#utility.yul\":3070:3086   */\n      add\n        /* \"#utility.yul\":3064:3087   */\n      mload\n        /* \"#utility.yul\":3100:3163   */\n      tag_260\n        /* \"#utility.yul\":3157:3161   */\n      0x40\n        /* \"#utility.yul\":3152:3155   */\n      dup6\n        /* \"#utility.yul\":3148:3162   */\n      add\n        /* \"#utility.yul\":3134:3146   */\n      dup3\n        /* \"#utility.yul\":3100:3163   */\n      tag_179\n      jump\t// in\n    tag_260:\n        /* \"#utility.yul\":3007:3173   */\n      pop\n        /* \"#utility.yul\":3256:3260   */\n      0x60\n        /* \"#utility.yul\":3249:3254   */\n      dup3\n        /* \"#utility.yul\":3245:3261   */\n      add\n        /* \"#utility.yul\":3239:3262   */\n      mload\n        /* \"#utility.yul\":3275:3338   */\n      tag_261\n        /* \"#utility.yul\":3332:3336   */\n      0x60\n        /* \"#utility.yul\":3327:3330   */\n      dup6\n        /* \"#utility.yul\":3323:3337   */\n      add\n        /* \"#utility.yul\":3309:3321   */\n      dup3\n        /* \"#utility.yul\":3275:3338   */\n      tag_178\n      jump\t// in\n    tag_261:\n        /* \"#utility.yul\":3183:3348   */\n      pop\n        /* \"#utility.yul\":3437:3441   */\n      0x80\n        /* \"#utility.yul\":3430:3435   */\n      dup3\n        /* \"#utility.yul\":3426:3442   */\n      add\n        /* \"#utility.yul\":3420:3443   */\n      mload\n        /* \"#utility.yul\":3456:3513   */\n      tag_262\n        /* \"#utility.yul\":3507:3511   */\n      0x80\n        /* \"#utility.yul\":3502:3505   */\n      dup6\n        /* \"#utility.yul\":3498:3512   */\n      add\n        /* \"#utility.yul\":3484:3496   */\n      dup3\n        /* \"#utility.yul\":3456:3513   */\n      tag_181\n      jump\t// in\n    tag_262:\n        /* \"#utility.yul\":3358:3523   */\n      pop\n        /* \"#utility.yul\":3605:3609   */\n      0xa0\n        /* \"#utility.yul\":3598:3603   */\n      dup3\n        /* \"#utility.yul\":3594:3610   */\n      add\n        /* \"#utility.yul\":3588:3611   */\n      mload\n        /* \"#utility.yul\":3624:3687   */\n      tag_263\n        /* \"#utility.yul\":3681:3685   */\n      0xa0\n        /* \"#utility.yul\":3676:3679   */\n      dup6\n        /* \"#utility.yul\":3672:3686   */\n      add\n        /* \"#utility.yul\":3658:3670   */\n      dup3\n        /* \"#utility.yul\":3624:3687   */\n      tag_183\n      jump\t// in\n    tag_263:\n        /* \"#utility.yul\":3533:3697   */\n      pop\n        /* \"#utility.yul\":2608:3704   */\n      pop\n        /* \"#utility.yul\":2498:3704   */\n      pop\n      pop\n      jump\t// out\n        /* \"#utility.yul\":3710:3997   */\n    tag_185:\n        /* \"#utility.yul\":3833:3843   */\n      0x00\n        /* \"#utility.yul\":3854:3954   */\n      tag_265\n        /* \"#utility.yul\":3950:3953   */\n      dup4\n        /* \"#utility.yul\":3942:3948   */\n      dup4\n        /* \"#utility.yul\":3854:3954   */\n      tag_184\n      jump\t// in\n    tag_265:\n        /* \"#utility.yul\":3986:3990   */\n      0xc0\n        /* \"#utility.yul\":3981:3984   */\n      dup4\n        /* \"#utility.yul\":3977:3991   */\n      add\n        /* \"#utility.yul\":3963:3991   */\n      swap1\n      pop\n        /* \"#utility.yul\":3710:3997   */\n      swap3\n      swap2\n      pop\n      pop\n      jump\t// out\n        /* \"#utility.yul\":4003:4143   */\n    tag_186:\n        /* \"#utility.yul\":4100:4104   */\n      0x00\n        /* \"#utility.yul\":4132:4136   */\n      0x20\n        /* \"#utility.yul\":4127:4130   */\n      dup3\n        /* \"#utility.yul\":4123:4137   */\n      add\n        /* \"#utility.yul\":4115:4137   */\n      swap1\n      pop\n        /* \"#utility.yul\":4003:4143   */\n      swap2\n      swap1\n      pop\n      jump\t// out\n        /* \"#utility.yul\":4237:5185   */\n    tag_187:\n        /* \"#utility.yul\":4410:4413   */\n      0x00\n        /* \"#utility.yul\":4439:4520   */\n      tag_268\n        /* \"#utility.yul\":4514:4519   */\n      dup3\n        /* \"#utility.yul\":4439:4520   */\n      tag_174\n      jump\t// in\n    tag_268:\n        /* \"#utility.yul\":4536:4649   */\n      tag_269\n        /* \"#utility.yul\":4642:4648   */\n      dup2\n        /* \"#utility.yul\":4637:4640   */\n      dup6\n        /* \"#utility.yul\":4536:4649   */\n      tag_175\n      jump\t// in\n    tag_269:\n        /* \"#utility.yul\":4529:4649   */\n      swap4\n      pop\n        /* \"#utility.yul\":4673:4756   */\n      tag_270\n        /* \"#utility.yul\":4750:4755   */\n      dup4\n        /* \"#utility.yul\":4673:4756   */\n      tag_176\n      jump\t// in\n    tag_270:\n        /* \"#utility.yul\":4779:4786   */\n      dup1\n        /* \"#utility.yul\":4810:4811   */\n      0x00\n        /* \"#utility.yul\":4795:5160   */\n    tag_271:\n        /* \"#utility.yul\":4820:4826   */\n      dup4\n        /* \"#utility.yul\":4817:4818   */\n      dup2\n        /* \"#utility.yul\":4814:4827   */\n      lt\n        /* \"#utility.yul\":4795:5160   */\n      iszero\n      tag_273\n      jumpi\n        /* \"#utility.yul\":4896:4902   */\n      dup2\n        /* \"#utility.yul\":4890:4903   */\n      mload\n        /* \"#utility.yul\":4923:5040   */\n      tag_274\n        /* \"#utility.yul\":5036:5039   */\n      dup9\n        /* \"#utility.yul\":5021:5034   */\n      dup3\n        /* \"#utility.yul\":4923:5040   */\n      tag_185\n      jump\t// in\n    tag_274:\n        /* \"#utility.yul\":4916:5040   */\n      swap8\n      pop\n        /* \"#utility.yul\":5063:5150   */\n      tag_275\n        /* \"#utility.yul\":5143:5149   */\n      dup4\n        /* \"#utility.yul\":5063:5150   */\n      tag_186\n      jump\t// in\n    tag_275:\n        /* \"#utility.yul\":5053:5150   */\n      swap3\n      pop\n        /* \"#utility.yul\":4855:5160   */\n      pop\n        /* \"#utility.yul\":4842:4843   */\n      0x01\n        /* \"#utility.yul\":4839:4840   */\n      dup2\n        /* \"#utility.yul\":4835:4844   */\n      add\n        /* \"#utility.yul\":4830:4844   */\n      swap1\n      pop\n        /* \"#utility.yul\":4795:5160   */\n      jump(tag_271)\n    tag_273:\n        /* \"#utility.yul\":4799:4813   */\n      pop\n        /* \"#utility.yul\":5176:5179   */\n      dup6\n        /* \"#utility.yul\":5169:5179   */\n      swap4\n      pop\n        /* \"#utility.yul\":4415:5185   */\n      pop\n      pop\n      pop\n        /* \"#utility.yul\":4237:5185   */\n      swap3\n      swap2\n      pop\n      pop\n      jump\t// out\n        /* \"#utility.yul\":5191:5672   */\n    tag_19:\n        /* \"#utility.yul\":5388:5392   */\n      0x00\n        /* \"#utility.yul\":5426:5428   */\n      0x20\n        /* \"#utility.yul\":5415:5424   */\n      dup3\n        /* \"#utility.yul\":5411:5429   */\n      add\n        /* \"#utility.yul\":5403:5429   */\n      swap1\n      pop\n        /* \"#utility.yul\":5475:5484   */\n      dup2\n        /* \"#utility.yul\":5469:5473   */\n      dup2\n        /* \"#utility.yul\":5465:5485   */\n      sub\n        /* \"#utility.yul\":5461:5462   */\n      0x00\n        /* \"#utility.yul\":5450:5459   */\n      dup4\n        /* \"#utility.yul\":5446:5463   */\n      add\n        /* \"#utility.yul\":5439:5486   */\n      mstore\n        /* \"#utility.yul\":5503:5665   */\n      tag_277\n        /* \"#utility.yul\":5660:5664   */\n      dup2\n        /* \"#utility.yul\":5651:5657   */\n      dup5\n        /* \"#utility.yul\":5503:5665   */\n      tag_187\n      jump\t// in\n    tag_277:\n        /* \"#utility.yul\":5495:5665   */\n      swap1\n      pop\n        /* \"#utility.yul\":5191:5672   */\n      swap3\n      swap2\n      pop\n      pop\n      jump\t// out\n        /* \"#utility.yul\":5678:5800   */\n    tag_188:\n        /* \"#utility.yul\":5751:5775   */\n      tag_279\n        /* \"#utility.yul\":5769:5774   */\n      dup2\n        /* \"#utility.yul\":5751:5775   */\n      tag_177\n      jump\t// in\n    tag_279:\n        /* \"#utility.yul\":5744:5749   */\n      dup2\n        /* \"#utility.yul\":5741:5776   */\n      eq\n        /* \"#utility.yul\":5731:5794   */\n      tag_280\n      jumpi\n        /* \"#utility.yul\":5790:5791   */\n      0x00\n        /* \"#utility.yul\":5787:5788   */\n      dup1\n        /* \"#utility.yul\":5780:5792   */\n      revert\n        /* \"#utility.yul\":5731:5794   */\n    tag_280:\n        /* \"#utility.yul\":5678:5800   */\n      pop\n      jump\t// out\n        /* \"#utility.yul\":5806:5945   */\n    tag_189:\n        /* \"#utility.yul\":5852:5857   */\n      0x00\n        /* \"#utility.yul\":5890:5896   */\n      dup2\n        /* \"#utility.yul\":5877:5897   */\n      calldataload\n        /* \"#utility.yul\":5868:5897   */\n      swap1\n      pop\n        /* \"#utility.yul\":5906:5939   */\n      tag_282\n        /* \"#utility.yul\":5933:5938   */\n      dup2\n        /* \"#utility.yul\":5906:5939   */\n      tag_188\n      jump\t// in\n    tag_282:\n        /* \"#utility.yul\":5806:5945   */\n      swap3\n      swap2\n      pop\n      pop\n      jump\t// out\n        /* \"#utility.yul\":5951:6425   */\n    tag_23:\n        /* \"#utility.yul\":6019:6025   */\n      0x00\n        /* \"#utility.yul\":6027:6033   */\n      dup1\n        /* \"#utility.yul\":6076:6078   */\n      0x40\n        /* \"#utility.yul\":6064:6073   */\n      dup4\n        /* \"#utility.yul\":6055:6062   */\n      dup6\n        /* \"#utility.yul\":6051:6074   */\n      sub\n        /* \"#utility.yul\":6047:6079   */\n      slt\n        /* \"#utility.yul\":6044:6163   */\n      iszero\n      tag_284\n      jumpi\n        /* \"#utility.yul\":6082:6161   */\n      tag_285\n      tag_168\n      jump\t// in\n    tag_285:\n        /* \"#utility.yul\":6044:6163   */\n    tag_284:\n        /* \"#utility.yul\":6202:6203   */\n      0x00\n        /* \"#utility.yul\":6227:6280   */\n      tag_286\n        /* \"#utility.yul\":6272:6279   */\n      dup6\n        /* \"#utility.yul\":6263:6269   */\n      dup3\n        /* \"#utility.yul\":6252:6261   */\n      dup7\n        /* \"#utility.yul\":6248:6270   */\n      add\n        /* \"#utility.yul\":6227:6280   */\n      tag_189\n      jump\t// in\n    tag_286:\n        /* \"#utility.yul\":6217:6280   */\n      swap3\n      pop\n        /* \"#utility.yul\":6173:6290   */\n      pop\n        /* \"#utility.yul\":6329:6331   */\n      0x20\n        /* \"#utility.yul\":6355:6408   */\n      tag_287\n        /* \"#utility.yul\":6400:6407   */\n      dup6\n        /* \"#utility.yul\":6391:6397   */\n      dup3\n        /* \"#utility.yul\":6380:6389   */\n      dup7\n        /* \"#utility.yul\":6376:6398   */\n      add\n        /* \"#utility.yul\":6355:6408   */\n      tag_189\n      jump\t// in\n    tag_287:\n        /* \"#utility.yul\":6345:6408   */\n      swap2\n      pop\n        /* \"#utility.yul\":6300:6418   */\n      pop\n        /* \"#utility.yul\":5951:6425   */\n      swap3\n      pop\n      swap3\n      swap1\n      pop\n      jump\t// out\n        /* \"#utility.yul\":6431:6553   */\n    tag_190:\n        /* \"#utility.yul\":6504:6528   */\n      tag_289\n        /* \"#utility.yul\":6522:6527   */\n      dup2\n        /* \"#utility.yul\":6504:6528   */\n      tag_182\n      jump\t// in\n    tag_289:\n        /* \"#utility.yul\":6497:6502   */\n      dup2\n        /* \"#utility.yul\":6494:6529   */\n      eq\n        /* \"#utility.yul\":6484:6547   */\n      tag_290\n      jumpi\n        /* \"#utility.yul\":6543:6544   */\n      0x00\n        /* \"#utility.yul\":6540:6541   */\n      dup1\n        /* \"#utility.yul\":6533:6545   */\n      revert\n        /* \"#utility.yul\":6484:6547   */\n    tag_290:\n        /* \"#utility.yul\":6431:6553   */\n      pop\n      jump\t// out\n        /* \"#utility.yul\":6559:6698   */\n    tag_191:\n        /* \"#utility.yul\":6605:6610   */\n      0x00\n        /* \"#utility.yul\":6643:6649   */\n      dup2\n        /* \"#utility.yul\":6630:6650   */\n      calldataload\n        /* \"#utility.yul\":6621:6650   */\n      swap1\n      pop\n        /* \"#utility.yul\":6659:6692   */\n      tag_292\n        /* \"#utility.yul\":6686:6691   */\n      dup2\n        /* \"#utility.yul\":6659:6692   */\n      tag_190\n      jump\t// in\n    tag_292:\n        /* \"#utility.yul\":6559:6698   */\n      swap3\n      swap2\n      pop\n      pop\n      jump\t// out\n        /* \"#utility.yul\":6704:7033   */\n    tag_27:\n        /* \"#utility.yul\":6763:6769   */\n      0x00\n        /* \"#utility.yul\":6812:6814   */\n      0x20\n        /* \"#utility.yul\":6800:6809   */\n      dup3\n        /* \"#utility.yul\":6791:6798   */\n      dup5\n        /* \"#utility.yul\":6787:6810   */\n      sub\n        /* \"#utility.yul\":6783:6815   */\n      slt\n        /* \"#utility.yul\":6780:6899   */\n      iszero\n      tag_294\n      jumpi\n        /* \"#utility.yul\":6818:6897   */\n      tag_295\n      tag_168\n      jump\t// in\n    tag_295:\n        /* \"#utility.yul\":6780:6899   */\n    tag_294:\n        /* \"#utility.yul\":6938:6939   */\n      0x00\n        /* \"#utility.yul\":6963:7016   */\n      tag_296\n        /* \"#utility.yul\":7008:7015   */\n      dup5\n        /* \"#utility.yul\":6999:7005   */\n      dup3\n        /* \"#utility.yul\":6988:6997   */\n      dup6\n        /* \"#utility.yul\":6984:7006   */\n      add\n        /* \"#utility.yul\":6963:7016   */\n      tag_191\n      jump\t// in\n    tag_296:\n        /* \"#utility.yul\":6953:7016   */\n      swap2\n      pop\n        /* \"#utility.yul\":6909:7026   */\n      pop\n        /* \"#utility.yul\":6704:7033   */\n      swap3\n      swap2\n      pop\n      pop\n      jump\t// out\n        /* \"#utility.yul\":7123:8339   */\n    tag_192:\n        /* \"#utility.yul\":7274:7278   */\n      0xc0\n        /* \"#utility.yul\":7269:7272   */\n      dup3\n        /* \"#utility.yul\":7265:7279   */\n      add\n        /* \"#utility.yul\":7365:7369   */\n      0x00\n        /* \"#utility.yul\":7358:7363   */\n      dup3\n        /* \"#utility.yul\":7354:7370   */\n      add\n        /* \"#utility.yul\":7348:7371   */\n      mload\n        /* \"#utility.yul\":7384:7447   */\n      tag_298\n        /* \"#utility.yul\":7441:7445   */\n      0x00\n        /* \"#utility.yul\":7436:7439   */\n      dup6\n        /* \"#utility.yul\":7432:7446   */\n      add\n        /* \"#utility.yul\":7418:7430   */\n      dup3\n        /* \"#utility.yul\":7384:7447   */\n      tag_178\n      jump\t// in\n    tag_298:\n        /* \"#utility.yul\":7289:7457   */\n      pop\n        /* \"#utility.yul\":7540:7544   */\n      0x20\n        /* \"#utility.yul\":7533:7538   */\n      dup3\n        /* \"#utility.yul\":7529:7545   */\n      add\n        /* \"#utility.yul\":7523:7546   */\n      mload\n        /* \"#utility.yul\":7559:7622   */\n      tag_299\n        /* \"#utility.yul\":7616:7620   */\n      0x20\n        /* \"#utility.yul\":7611:7614   */\n      dup6\n        /* \"#utility.yul\":7607:7621   */\n      add\n        /* \"#utility.yul\":7593:7605   */\n      dup3\n        /* \"#utility.yul\":7559:7622   */\n      tag_179\n      jump\t// in\n    tag_299:\n        /* \"#utility.yul\":7467:7632   */\n      pop\n        /* \"#utility.yul\":7716:7720   */\n      0x40\n        /* \"#utility.yul\":7709:7714   */\n      dup3\n        /* \"#utility.yul\":7705:7721   */\n      add\n        /* \"#utility.yul\":7699:7722   */\n      mload\n        /* \"#utility.yul\":7735:7798   */\n      tag_300\n        /* \"#utility.yul\":7792:7796   */\n      0x40\n        /* \"#utility.yul\":7787:7790   */\n      dup6\n        /* \"#utility.yul\":7783:7797   */\n      add\n        /* \"#utility.yul\":7769:7781   */\n      dup3\n        /* \"#utility.yul\":7735:7798   */\n      tag_179\n      jump\t// in\n    tag_300:\n        /* \"#utility.yul\":7642:7808   */\n      pop\n        /* \"#utility.yul\":7891:7895   */\n      0x60\n        /* \"#utility.yul\":7884:7889   */\n      dup3\n        /* \"#utility.yul\":7880:7896   */\n      add\n        /* \"#utility.yul\":7874:7897   */\n      mload\n        /* \"#utility.yul\":7910:7973   */\n      tag_301\n        /* \"#utility.yul\":7967:7971   */\n      0x60\n        /* \"#utility.yul\":7962:7965   */\n      dup6\n        /* \"#utility.yul\":7958:7972   */\n      add\n        /* \"#utility.yul\":7944:7956   */\n      dup3\n        /* \"#utility.yul\":7910:7973   */\n      tag_178\n      jump\t// in\n    tag_301:\n        /* \"#utility.yul\":7818:7983   */\n      pop\n        /* \"#utility.yul\":8072:8076   */\n      0x80\n        /* \"#utility.yul\":8065:8070   */\n      dup3\n        /* \"#utility.yul\":8061:8077   */\n      add\n        /* \"#utility.yul\":8055:8078   */\n      mload\n        /* \"#utility.yul\":8091:8148   */\n      tag_302\n        /* \"#utility.yul\":8142:8146   */\n      0x80\n        /* \"#utility.yul\":8137:8140   */\n      dup6\n        /* \"#utility.yul\":8133:8147   */\n      add\n        /* \"#utility.yul\":8119:8131   */\n      dup3\n        /* \"#utility.yul\":8091:8148   */\n      tag_181\n      jump\t// in\n    tag_302:\n        /* \"#utility.yul\":7993:8158   */\n      pop\n        /* \"#utility.yul\":8240:8244   */\n      0xa0\n        /* \"#utility.yul\":8233:8238   */\n      dup3\n        /* \"#utility.yul\":8229:8245   */\n      add\n        /* \"#utility.yul\":8223:8246   */\n      mload\n        /* \"#utility.yul\":8259:8322   */\n      tag_303\n        /* \"#utility.yul\":8316:8320   */\n      0xa0\n        /* \"#utility.yul\":8311:8314   */\n      dup6\n        /* \"#utility.yul\":8307:8321   */\n      add\n        /* \"#utility.yul\":8293:8305   */\n      dup3\n        /* \"#utility.yul\":8259:8322   */\n      tag_183\n      jump\t// in\n    tag_303:\n        /* \"#utility.yul\":8168:8332   */\n      pop\n        /* \"#utility.yul\":7243:8339   */\n      pop\n        /* \"#utility.yul\":7123:8339   */\n      pop\n      pop\n      jump\t// out\n        /* \"#utility.yul\":8345:8676   */\n    tag_34:\n        /* \"#utility.yul\":8492:8496   */\n      0x00\n        /* \"#utility.yul\":8530:8533   */\n      0xc0\n        /* \"#utility.yul\":8519:8528   */\n      dup3\n        /* \"#utility.yul\":8515:8534   */\n      add\n        /* \"#utility.yul\":8507:8534   */\n      swap1\n      pop\n        /* \"#utility.yul\":8544:8669   */\n      tag_305\n        /* \"#utility.yul\":8666:8667   */\n      0x00\n        /* \"#utility.yul\":8655:8664   */\n      dup4\n        /* \"#utility.yul\":8651:8668   */\n      add\n        /* \"#utility.yul\":8642:8648   */\n      dup5\n        /* \"#utility.yul\":8544:8669   */\n      tag_192\n      jump\t// in\n    tag_305:\n        /* \"#utility.yul\":8345:8676   */\n      swap3\n      swap2\n      pop\n      pop\n      jump\t// out\n        /* \"#utility.yul\":8682:9011   */\n    tag_38:\n        /* \"#utility.yul\":8741:8747   */\n      0x00\n        /* \"#utility.yul\":8790:8792   */\n      0x20\n        /* \"#utility.yul\":8778:8787   */\n      dup3\n        /* \"#utility.yul\":8769:8776   */\n      dup5\n        /* \"#utility.yul\":8765:8788   */\n      sub\n        /* \"#utility.yul\":8761:8793   */\n      slt\n        /* \"#utility.yul\":8758:8877   */\n      iszero\n      tag_307\n      jumpi\n        /* \"#utility.yul\":8796:8875   */\n      tag_308\n      tag_168\n      jump\t// in\n    tag_308:\n        /* \"#utility.yul\":8758:8877   */\n    tag_307:\n        /* \"#utility.yul\":8916:8917   */\n      0x00\n        /* \"#utility.yul\":8941:8994   */\n      tag_309\n        /* \"#utility.yul\":8986:8993   */\n      dup5\n        /* \"#utility.yul\":8977:8983   */\n      dup3\n        /* \"#utility.yul\":8966:8975   */\n      dup6\n        /* \"#utility.yul\":8962:8984   */\n      add\n        /* \"#utility.yul\":8941:8994   */\n      tag_189\n      jump\t// in\n    tag_309:\n        /* \"#utility.yul\":8931:8994   */\n      swap2\n      pop\n        /* \"#utility.yul\":8887:9004   */\n      pop\n        /* \"#utility.yul\":8682:9011   */\n      swap3\n      swap2\n      pop\n      pop\n      jump\t// out\n        /* \"#utility.yul\":9017:9135   */\n    tag_193:\n        /* \"#utility.yul\":9104:9128   */\n      tag_311\n        /* \"#utility.yul\":9122:9127   */\n      dup2\n        /* \"#utility.yul\":9104:9128   */\n      tag_177\n      jump\t// in\n    tag_311:\n        /* \"#utility.yul\":9099:9102   */\n      dup3\n        /* \"#utility.yul\":9092:9129   */\n      mstore\n        /* \"#utility.yul\":9017:9135   */\n      pop\n      pop\n      jump\t// out\n        /* \"#utility.yul\":9141:9259   */\n    tag_194:\n        /* \"#utility.yul\":9228:9252   */\n      tag_313\n        /* \"#utility.yul\":9246:9251   */\n      dup2\n        /* \"#utility.yul\":9228:9252   */\n      tag_171\n      jump\t// in\n    tag_313:\n        /* \"#utility.yul\":9223:9226   */\n      dup3\n        /* \"#utility.yul\":9216:9253   */\n      mstore\n        /* \"#utility.yul\":9141:9259   */\n      pop\n      pop\n      jump\t// out\n        /* \"#utility.yul\":9265:9374   */\n    tag_195:\n        /* \"#utility.yul\":9346:9367   */\n      tag_315\n        /* \"#utility.yul\":9361:9366   */\n      dup2\n        /* \"#utility.yul\":9346:9367   */\n      tag_180\n      jump\t// in\n    tag_315:\n        /* \"#utility.yul\":9341:9344   */\n      dup3\n        /* \"#utility.yul\":9334:9368   */\n      mstore\n        /* \"#utility.yul\":9265:9374   */\n      pop\n      pop\n      jump\t// out\n        /* \"#utility.yul\":9380:9921   */\n    tag_41:\n        /* \"#utility.yul\":9551:9555   */\n      0x00\n        /* \"#utility.yul\":9589:9592   */\n      0x80\n        /* \"#utility.yul\":9578:9587   */\n      dup3\n        /* \"#utility.yul\":9574:9593   */\n      add\n        /* \"#utility.yul\":9566:9593   */\n      swap1\n      pop\n        /* \"#utility.yul\":9603:9674   */\n      tag_317\n        /* \"#utility.yul\":9671:9672   */\n      0x00\n        /* \"#utility.yul\":9660:9669   */\n      dup4\n        /* \"#utility.yul\":9656:9673   */\n      add\n        /* \"#utility.yul\":9647:9653   */\n      dup8\n        /* \"#utility.yul\":9603:9674   */\n      tag_193\n      jump\t// in\n    tag_317:\n        /* \"#utility.yul\":9684:9756   */\n      tag_318\n        /* \"#utility.yul\":9752:9754   */\n      0x20\n        /* \"#utility.yul\":9741:9750   */\n      dup4\n        /* \"#utility.yul\":9737:9755   */\n      add\n        /* \"#utility.yul\":9728:9734   */\n      dup7\n        /* \"#utility.yul\":9684:9756   */\n      tag_194\n      jump\t// in\n    tag_318:\n        /* \"#utility.yul\":9766:9838   */\n      tag_319\n        /* \"#utility.yul\":9834:9836   */\n      0x40\n        /* \"#utility.yul\":9823:9832   */\n      dup4\n        /* \"#utility.yul\":9819:9837   */\n      add\n        /* \"#utility.yul\":9810:9816   */\n      dup6\n        /* \"#utility.yul\":9766:9838   */\n      tag_193\n      jump\t// in\n    tag_319:\n        /* \"#utility.yul\":9848:9914   */\n      tag_320\n        /* \"#utility.yul\":9910:9912   */\n      0x60\n        /* \"#utility.yul\":9899:9908   */\n      dup4\n        /* \"#utility.yul\":9895:9913   */\n      add\n        /* \"#utility.yul\":9886:9892   */\n      dup5\n        /* \"#utility.yul\":9848:9914   */\n      tag_195\n      jump\t// in\n    tag_320:\n        /* \"#utility.yul\":9380:9921   */\n      swap6\n      swap5\n      pop\n      pop\n      pop\n      pop\n      pop\n      jump\t// out\n        /* \"#utility.yul\":9927:10045   */\n    tag_196:\n        /* \"#utility.yul\":10014:10038   */\n      tag_322\n        /* \"#utility.yul\":10032:10037   */\n      dup2\n        /* \"#utility.yul\":10014:10038   */\n      tag_182\n      jump\t// in\n    tag_322:\n        /* \"#utility.yul\":10009:10012   */\n      dup3\n        /* \"#utility.yul\":10002:10039   */\n      mstore\n        /* \"#utility.yul\":9927:10045   */\n      pop\n      pop\n      jump\t// out\n        /* \"#utility.yul\":10051:10814   */\n    tag_47:\n        /* \"#utility.yul\":10278:10282   */\n      0x00\n        /* \"#utility.yul\":10316:10319   */\n      0xc0\n        /* \"#utility.yul\":10305:10314   */\n      dup3\n        /* \"#utility.yul\":10301:10320   */\n      add\n        /* \"#utility.yul\":10293:10320   */\n      swap1\n      pop\n        /* \"#utility.yul\":10330:10401   */\n      tag_324\n        /* \"#utility.yul\":10398:10399   */\n      0x00\n        /* \"#utility.yul\":10387:10396   */\n      dup4\n        /* \"#utility.yul\":10383:10400   */\n      add\n        /* \"#utility.yul\":10374:10380   */\n      dup10\n        /* \"#utility.yul\":10330:10401   */\n      tag_193\n      jump\t// in\n    tag_324:\n        /* \"#utility.yul\":10411:10483   */\n      tag_325\n        /* \"#utility.yul\":10479:10481   */\n      0x20\n        /* \"#utility.yul\":10468:10477   */\n      dup4\n        /* \"#utility.yul\":10464:10482   */\n      add\n        /* \"#utility.yul\":10455:10461   */\n      dup9\n        /* \"#utility.yul\":10411:10483   */\n      tag_194\n      jump\t// in\n    tag_325:\n        /* \"#utility.yul\":10493:10565   */\n      tag_326\n        /* \"#utility.yul\":10561:10563   */\n      0x40\n        /* \"#utility.yul\":10550:10559   */\n      dup4\n        /* \"#utility.yul\":10546:10564   */\n      add\n        /* \"#utility.yul\":10537:10543   */\n      dup8\n        /* \"#utility.yul\":10493:10565   */\n      tag_194\n      jump\t// in\n    tag_326:\n        /* \"#utility.yul\":10575:10647   */\n      tag_327\n        /* \"#utility.yul\":10643:10645   */\n      0x60\n        /* \"#utility.yul\":10632:10641   */\n      dup4\n        /* \"#utility.yul\":10628:10646   */\n      add\n        /* \"#utility.yul\":10619:10625   */\n      dup7\n        /* \"#utility.yul\":10575:10647   */\n      tag_193\n      jump\t// in\n    tag_327:\n        /* \"#utility.yul\":10657:10724   */\n      tag_328\n        /* \"#utility.yul\":10719:10722   */\n      0x80\n        /* \"#utility.yul\":10708:10717   */\n      dup4\n        /* \"#utility.yul\":10704:10723   */\n      add\n        /* \"#utility.yul\":10695:10701   */\n      dup6\n        /* \"#utility.yul\":10657:10724   */\n      tag_195\n      jump\t// in\n    tag_328:\n        /* \"#utility.yul\":10734:10807   */\n      tag_329\n        /* \"#utility.yul\":10802:10805   */\n      0xa0\n        /* \"#utility.yul\":10791:10800   */\n      dup4\n        /* \"#utility.yul\":10787:10806   */\n      add\n        /* \"#utility.yul\":10778:10784   */\n      dup5\n        /* \"#utility.yul\":10734:10807   */\n      tag_196\n      jump\t// in\n    tag_329:\n        /* \"#utility.yul\":10051:10814   */\n      swap8\n      swap7\n      pop\n      pop\n      pop\n      pop\n      pop\n      pop\n      pop\n      jump\t// out\n        /* \"#utility.yul\":10820:11294   */\n    tag_51:\n        /* \"#utility.yul\":10888:10894   */\n      0x00\n        /* \"#utility.yul\":10896:10902   */\n      dup1\n        /* \"#utility.yul\":10945:10947   */\n      0x40\n        /* \"#utility.yul\":10933:10942   */\n      dup4\n        /* \"#utility.yul\":10924:10931   */\n      dup6\n        /* \"#utility.yul\":10920:10943   */\n      sub\n        /* \"#utility.yul\":10916:10948   */\n      slt\n        /* \"#utility.yul\":10913:11032   */\n      iszero\n      tag_331\n      jumpi\n        /* \"#utility.yul\":10951:11030   */\n      tag_332\n      tag_168\n      jump\t// in\n    tag_332:\n        /* \"#utility.yul\":10913:11032   */\n    tag_331:\n        /* \"#utility.yul\":11071:11072   */\n      0x00\n        /* \"#utility.yul\":11096:11149   */\n      tag_333\n        /* \"#utility.yul\":11141:11148   */\n      dup6\n        /* \"#utility.yul\":11132:11138   */\n      dup3\n        /* \"#utility.yul\":11121:11130   */\n      dup7\n        /* \"#utility.yul\":11117:11139   */\n      add\n        /* \"#utility.yul\":11096:11149   */\n      tag_189\n      jump\t// in\n    tag_333:\n        /* \"#utility.yul\":11086:11149   */\n      swap3\n      pop\n        /* \"#utility.yul\":11042:11159   */\n      pop\n        /* \"#utility.yul\":11198:11200   */\n      0x20\n        /* \"#utility.yul\":11224:11277   */\n      tag_334\n        /* \"#utility.yul\":11269:11276   */\n      dup6\n        /* \"#utility.yul\":11260:11266   */\n      dup3\n        /* \"#utility.yul\":11249:11258   */\n      dup7\n        /* \"#utility.yul\":11245:11267   */\n      add\n        /* \"#utility.yul\":11224:11277   */\n      tag_173\n      jump\t// in\n    tag_334:\n        /* \"#utility.yul\":11214:11277   */\n      swap2\n      pop\n        /* \"#utility.yul\":11169:11287   */\n      pop\n        /* \"#utility.yul\":10820:11294   */\n      swap3\n      pop\n      swap3\n      swap1\n      pop\n      jump\t// out\n        /* \"#utility.yul\":11374:12224   */\n    tag_197:\n        /* \"#utility.yul\":11515:11519   */\n      0x80\n        /* \"#utility.yul\":11510:11513   */\n      dup3\n        /* \"#utility.yul\":11506:11520   */\n      add\n        /* \"#utility.yul\":11600:11604   */\n      0x00\n        /* \"#utility.yul\":11593:11598   */\n      dup3\n        /* \"#utility.yul\":11589:11605   */\n      add\n        /* \"#utility.yul\":11583:11606   */\n      mload\n        /* \"#utility.yul\":11619:11682   */\n      tag_336\n        /* \"#utility.yul\":11676:11680   */\n      0x00\n        /* \"#utility.yul\":11671:11674   */\n      dup6\n        /* \"#utility.yul\":11667:11681   */\n      add\n        /* \"#utility.yul\":11653:11665   */\n      dup3\n        /* \"#utility.yul\":11619:11682   */\n      tag_178\n      jump\t// in\n    tag_336:\n        /* \"#utility.yul\":11530:11692   */\n      pop\n        /* \"#utility.yul\":11775:11779   */\n      0x20\n        /* \"#utility.yul\":11768:11773   */\n      dup3\n        /* \"#utility.yul\":11764:11780   */\n      add\n        /* \"#utility.yul\":11758:11781   */\n      mload\n        /* \"#utility.yul\":11794:11857   */\n      tag_337\n        /* \"#utility.yul\":11851:11855   */\n      0x20\n        /* \"#utility.yul\":11846:11849   */\n      dup6\n        /* \"#utility.yul\":11842:11856   */\n      add\n        /* \"#utility.yul\":11828:11840   */\n      dup3\n        /* \"#utility.yul\":11794:11857   */\n      tag_179\n      jump\t// in\n    tag_337:\n        /* \"#utility.yul\":11702:11867   */\n      pop\n        /* \"#utility.yul\":11950:11954   */\n      0x40\n        /* \"#utility.yul\":11943:11948   */\n      dup3\n        /* \"#utility.yul\":11939:11955   */\n      add\n        /* \"#utility.yul\":11933:11956   */\n      mload\n        /* \"#utility.yul\":11969:12032   */\n      tag_338\n        /* \"#utility.yul\":12026:12030   */\n      0x40\n        /* \"#utility.yul\":12021:12024   */\n      dup6\n        /* \"#utility.yul\":12017:12031   */\n      add\n        /* \"#utility.yul\":12003:12015   */\n      dup3\n        /* \"#utility.yul\":11969:12032   */\n      tag_178\n      jump\t// in\n    tag_338:\n        /* \"#utility.yul\":11877:12042   */\n      pop\n        /* \"#utility.yul\":12131:12135   */\n      0x60\n        /* \"#utility.yul\":12124:12129   */\n      dup3\n        /* \"#utility.yul\":12120:12136   */\n      add\n        /* \"#utility.yul\":12114:12137   */\n      mload\n        /* \"#utility.yul\":12150:12207   */\n      tag_339\n        /* \"#utility.yul\":12201:12205   */\n      0x60\n        /* \"#utility.yul\":12196:12199   */\n      dup6\n        /* \"#utility.yul\":12192:12206   */\n      add\n        /* \"#utility.yul\":12178:12190   */\n      dup3\n        /* \"#utility.yul\":12150:12207   */\n      tag_181\n      jump\t// in\n    tag_339:\n        /* \"#utility.yul\":12052:12217   */\n      pop\n        /* \"#utility.yul\":11484:12224   */\n      pop\n        /* \"#utility.yul\":11374:12224   */\n      pop\n      pop\n      jump\t// out\n        /* \"#utility.yul\":12230:12541   */\n    tag_58:\n        /* \"#utility.yul\":12367:12371   */\n      0x00\n        /* \"#utility.yul\":12405:12408   */\n      0x80\n        /* \"#utility.yul\":12394:12403   */\n      dup3\n        /* \"#utility.yul\":12390:12409   */\n      add\n        /* \"#utility.yul\":12382:12409   */\n      swap1\n      pop\n        /* \"#utility.yul\":12419:12534   */\n      tag_341\n        /* \"#utility.yul\":12531:12532   */\n      0x00\n        /* \"#utility.yul\":12520:12529   */\n      dup4\n        /* \"#utility.yul\":12516:12533   */\n      add\n        /* \"#utility.yul\":12507:12513   */\n      dup5\n        /* \"#utility.yul\":12419:12534   */\n      tag_197\n      jump\t// in\n    tag_341:\n        /* \"#utility.yul\":12230:12541   */\n      swap3\n      swap2\n      pop\n      pop\n      jump\t// out\n        /* \"#utility.yul\":12547:12683   */\n    tag_198:\n        /* \"#utility.yul\":12636:12642   */\n      0x00\n        /* \"#utility.yul\":12670:12675   */\n      dup2\n        /* \"#utility.yul\":12664:12676   */\n      mload\n        /* \"#utility.yul\":12654:12676   */\n      swap1\n      pop\n        /* \"#utility.yul\":12547:12683   */\n      swap2\n      swap1\n      pop\n      jump\t// out\n        /* \"#utility.yul\":12689:12895   */\n    tag_199:\n        /* \"#utility.yul\":12810:12821   */\n      0x00\n        /* \"#utility.yul\":12844:12850   */\n      dup3\n        /* \"#utility.yul\":12839:12842   */\n      dup3\n        /* \"#utility.yul\":12832:12851   */\n      mstore\n        /* \"#utility.yul\":12884:12888   */\n      0x20\n        /* \"#utility.yul\":12879:12882   */\n      dup3\n        /* \"#utility.yul\":12875:12889   */\n      add\n        /* \"#utility.yul\":12860:12889   */\n      swap1\n      pop\n        /* \"#utility.yul\":12689:12895   */\n      swap3\n      swap2\n      pop\n      pop\n      jump\t// out\n        /* \"#utility.yul\":12901:13055   */\n    tag_200:\n        /* \"#utility.yul\":12990:12994   */\n      0x00\n        /* \"#utility.yul\":13013:13016   */\n      dup2\n        /* \"#utility.yul\":13005:13016   */\n      swap1\n      pop\n        /* \"#utility.yul\":13043:13047   */\n      0x20\n        /* \"#utility.yul\":13038:13041   */\n      dup3\n        /* \"#utility.yul\":13034:13048   */\n      add\n        /* \"#utility.yul\":13026:13048   */\n      swap1\n      pop\n        /* \"#utility.yul\":12901:13055   */\n      swap2\n      swap1\n      pop\n      jump\t// out\n        /* \"#utility.yul\":13135:13975   */\n    tag_201:\n        /* \"#utility.yul\":13266:13270   */\n      0x80\n        /* \"#utility.yul\":13261:13264   */\n      dup3\n        /* \"#utility.yul\":13257:13271   */\n      add\n        /* \"#utility.yul\":13351:13355   */\n      0x00\n        /* \"#utility.yul\":13344:13349   */\n      dup3\n        /* \"#utility.yul\":13340:13356   */\n      add\n        /* \"#utility.yul\":13334:13357   */\n      mload\n        /* \"#utility.yul\":13370:13433   */\n      tag_346\n        /* \"#utility.yul\":13427:13431   */\n      0x00\n        /* \"#utility.yul\":13422:13425   */\n      dup6\n        /* \"#utility.yul\":13418:13432   */\n      add\n        /* \"#utility.yul\":13404:13416   */\n      dup3\n        /* \"#utility.yul\":13370:13433   */\n      tag_178\n      jump\t// in\n    tag_346:\n        /* \"#utility.yul\":13281:13443   */\n      pop\n        /* \"#utility.yul\":13526:13530   */\n      0x20\n        /* \"#utility.yul\":13519:13524   */\n      dup3\n        /* \"#utility.yul\":13515:13531   */\n      add\n        /* \"#utility.yul\":13509:13532   */\n      mload\n        /* \"#utility.yul\":13545:13608   */\n      tag_347\n        /* \"#utility.yul\":13602:13606   */\n      0x20\n        /* \"#utility.yul\":13597:13600   */\n      dup6\n        /* \"#utility.yul\":13593:13607   */\n      add\n        /* \"#utility.yul\":13579:13591   */\n      dup3\n        /* \"#utility.yul\":13545:13608   */\n      tag_179\n      jump\t// in\n    tag_347:\n        /* \"#utility.yul\":13453:13618   */\n      pop\n        /* \"#utility.yul\":13701:13705   */\n      0x40\n        /* \"#utility.yul\":13694:13699   */\n      dup3\n        /* \"#utility.yul\":13690:13706   */\n      add\n        /* \"#utility.yul\":13684:13707   */\n      mload\n        /* \"#utility.yul\":13720:13783   */\n      tag_348\n        /* \"#utility.yul\":13777:13781   */\n      0x40\n        /* \"#utility.yul\":13772:13775   */\n      dup6\n        /* \"#utility.yul\":13768:13782   */\n      add\n        /* \"#utility.yul\":13754:13766   */\n      dup3\n        /* \"#utility.yul\":13720:13783   */\n      tag_178\n      jump\t// in\n    tag_348:\n        /* \"#utility.yul\":13628:13793   */\n      pop\n        /* \"#utility.yul\":13882:13886   */\n      0x60\n        /* \"#utility.yul\":13875:13880   */\n      dup3\n        /* \"#utility.yul\":13871:13887   */\n      add\n        /* \"#utility.yul\":13865:13888   */\n      mload\n        /* \"#utility.yul\":13901:13958   */\n      tag_349\n        /* \"#utility.yul\":13952:13956   */\n      0x60\n        /* \"#utility.yul\":13947:13950   */\n      dup6\n        /* \"#utility.yul\":13943:13957   */\n      add\n        /* \"#utility.yul\":13929:13941   */\n      dup3\n        /* \"#utility.yul\":13901:13958   */\n      tag_181\n      jump\t// in\n    tag_349:\n        /* \"#utility.yul\":13803:13968   */\n      pop\n        /* \"#utility.yul\":13235:13975   */\n      pop\n        /* \"#utility.yul\":13135:13975   */\n      pop\n      pop\n      jump\t// out\n        /* \"#utility.yul\":13981:14248   */\n    tag_202:\n        /* \"#utility.yul\":14094:14104   */\n      0x00\n        /* \"#utility.yul\":14115:14205   */\n      tag_351\n        /* \"#utility.yul\":14201:14204   */\n      dup4\n        /* \"#utility.yul\":14193:14199   */\n      dup4\n        /* \"#utility.yul\":14115:14205   */\n      tag_201\n      jump\t// in\n    tag_351:\n        /* \"#utility.yul\":14237:14241   */\n      0x80\n        /* \"#utility.yul\":14232:14235   */\n      dup4\n        /* \"#utility.yul\":14228:14242   */\n      add\n        /* \"#utility.yul\":14214:14242   */\n      swap1\n      pop\n        /* \"#utility.yul\":13981:14248   */\n      swap3\n      swap2\n      pop\n      pop\n      jump\t// out\n        /* \"#utility.yul\":14254:14389   */\n    tag_203:\n        /* \"#utility.yul\":14346:14350   */\n      0x00\n        /* \"#utility.yul\":14378:14382   */\n      0x20\n        /* \"#utility.yul\":14373:14376   */\n      dup3\n        /* \"#utility.yul\":14369:14383   */\n      add\n        /* \"#utility.yul\":14361:14383   */\n      swap1\n      pop\n        /* \"#utility.yul\":14254:14389   */\n      swap2\n      swap1\n      pop\n      jump\t// out\n        /* \"#utility.yul\":14473:15381   */\n    tag_204:\n        /* \"#utility.yul\":14636:14639   */\n      0x00\n        /* \"#utility.yul\":14665:14741   */\n      tag_354\n        /* \"#utility.yul\":14735:14740   */\n      dup3\n        /* \"#utility.yul\":14665:14741   */\n      tag_198\n      jump\t// in\n    tag_354:\n        /* \"#utility.yul\":14757:14865   */\n      tag_355\n        /* \"#utility.yul\":14858:14864   */\n      dup2\n        /* \"#utility.yul\":14853:14856   */\n      dup6\n        /* \"#utility.yul\":14757:14865   */\n      tag_199\n      jump\t// in\n    tag_355:\n        /* \"#utility.yul\":14750:14865   */\n      swap4\n      pop\n        /* \"#utility.yul\":14889:14967   */\n      tag_356\n        /* \"#utility.yul\":14961:14966   */\n      dup4\n        /* \"#utility.yul\":14889:14967   */\n      tag_200\n      jump\t// in\n    tag_356:\n        /* \"#utility.yul\":14990:14997   */\n      dup1\n        /* \"#utility.yul\":15021:15022   */\n      0x00\n        /* \"#utility.yul\":15006:15356   */\n    tag_357:\n        /* \"#utility.yul\":15031:15037   */\n      dup4\n        /* \"#utility.yul\":15028:15029   */\n      dup2\n        /* \"#utility.yul\":15025:15038   */\n      lt\n        /* \"#utility.yul\":15006:15356   */\n      iszero\n      tag_359\n      jumpi\n        /* \"#utility.yul\":15107:15113   */\n      dup2\n        /* \"#utility.yul\":15101:15114   */\n      mload\n        /* \"#utility.yul\":15134:15241   */\n      tag_360\n        /* \"#utility.yul\":15237:15240   */\n      dup9\n        /* \"#utility.yul\":15222:15235   */\n      dup3\n        /* \"#utility.yul\":15134:15241   */\n      tag_202\n      jump\t// in\n    tag_360:\n        /* \"#utility.yul\":15127:15241   */\n      swap8\n      pop\n        /* \"#utility.yul\":15264:15346   */\n      tag_361\n        /* \"#utility.yul\":15339:15345   */\n      dup4\n        /* \"#utility.yul\":15264:15346   */\n      tag_203\n      jump\t// in\n    tag_361:\n        /* \"#utility.yul\":15254:15346   */\n      swap3\n      pop\n        /* \"#utility.yul\":15066:15356   */\n      pop\n        /* \"#utility.yul\":15053:15054   */\n      0x01\n        /* \"#utility.yul\":15050:15051   */\n      dup2\n        /* \"#utility.yul\":15046:15055   */\n      add\n        /* \"#utility.yul\":15041:15055   */\n      swap1\n      pop\n        /* \"#utility.yul\":15006:15356   */\n      jump(tag_357)\n    tag_359:\n        /* \"#utility.yul\":15010:15024   */\n      pop\n        /* \"#utility.yul\":15372:15375   */\n      dup6\n        /* \"#utility.yul\":15365:15375   */\n      swap4\n      pop\n        /* \"#utility.yul\":14641:15381   */\n      pop\n      pop\n      pop\n        /* \"#utility.yul\":14473:15381   */\n      swap3\n      swap2\n      pop\n      pop\n      jump\t// out\n        /* \"#utility.yul\":15387:15848   */\n    tag_64:\n        /* \"#utility.yul\":15574:15578   */\n      0x00\n        /* \"#utility.yul\":15612:15614   */\n      0x20\n        /* \"#utility.yul\":15601:15610   */\n      dup3\n        /* \"#utility.yul\":15597:15615   */\n      add\n        /* \"#utility.yul\":15589:15615   */\n      swap1\n      pop\n        /* \"#utility.yul\":15661:15670   */\n      dup2\n        /* \"#utility.yul\":15655:15659   */\n      dup2\n        /* \"#utility.yul\":15651:15671   */\n      sub\n        /* \"#utility.yul\":15647:15648   */\n      0x00\n        /* \"#utility.yul\":15636:15645   */\n      dup4\n        /* \"#utility.yul\":15632:15649   */\n      add\n        /* \"#utility.yul\":15625:15672   */\n      mstore\n        /* \"#utility.yul\":15689:15841   */\n      tag_363\n        /* \"#utility.yul\":15836:15840   */\n      dup2\n        /* \"#utility.yul\":15827:15833   */\n      dup5\n        /* \"#utility.yul\":15689:15841   */\n      tag_204\n      jump\t// in\n    tag_363:\n        /* \"#utility.yul\":15681:15841   */\n      swap1\n      pop\n        /* \"#utility.yul\":15387:15848   */\n      swap3\n      swap2\n      pop\n      pop\n      jump\t// out\n        /* \"#utility.yul\":15854:16076   */\n    tag_69:\n        /* \"#utility.yul\":15947:15951   */\n      0x00\n        /* \"#utility.yul\":15985:15987   */\n      0x20\n        /* \"#utility.yul\":15974:15983   */\n      dup3\n        /* \"#utility.yul\":15970:15988   */\n      add\n        /* \"#utility.yul\":15962:15988   */\n      swap1\n      pop\n        /* \"#utility.yul\":15998:16069   */\n      tag_365\n        /* \"#utility.yul\":16066:16067   */\n      0x00\n        /* \"#utility.yul\":16055:16064   */\n      dup4\n        /* \"#utility.yul\":16051:16068   */\n      add\n        /* \"#utility.yul\":16042:16048   */\n      dup5\n        /* \"#utility.yul\":15998:16069   */\n      tag_194\n      jump\t// in\n    tag_365:\n        /* \"#utility.yul\":15854:16076   */\n      swap3\n      swap2\n      pop\n      pop\n      jump\t// out\n        /* \"#utility.yul\":16082:16262   */\n    tag_76:\n        /* \"#utility.yul\":16130:16207   */\n      0x4e487b7100000000000000000000000000000000000000000000000000000000\n        /* \"#utility.yul\":16127:16128   */\n      0x00\n        /* \"#utility.yul\":16120:16208   */\n      mstore\n        /* \"#utility.yul\":16227:16231   */\n      0x32\n        /* \"#utility.yul\":16224:16225   */\n      0x04\n        /* \"#utility.yul\":16217:16232   */\n      mstore\n        /* \"#utility.yul\":16251:16255   */\n      0x24\n        /* \"#utility.yul\":16248:16249   */\n      0x00\n        /* \"#utility.yul\":16241:16256   */\n      revert\n        /* \"#utility.yul\":16268:16448   */\n    tag_205:\n        /* \"#utility.yul\":16316:16393   */\n      0x4e487b7100000000000000000000000000000000000000000000000000000000\n        /* \"#utility.yul\":16313:16314   */\n      0x00\n        /* \"#utility.yul\":16306:16394   */\n      mstore\n        /* \"#utility.yul\":16413:16417   */\n      0x11\n        /* \"#utility.yul\":16410:16411   */\n      0x04\n        /* \"#utility.yul\":16403:16418   */\n      mstore\n        /* \"#utility.yul\":16437:16441   */\n      0x24\n        /* \"#utility.yul\":16434:16435   */\n      0x00\n        /* \"#utility.yul\":16427:16442   */\n      revert\n        /* \"#utility.yul\":16454:16687   */\n    tag_81:\n        /* \"#utility.yul\":16493:16496   */\n      0x00\n        /* \"#utility.yul\":16516:16540   */\n      tag_369\n        /* \"#utility.yul\":16534:16539   */\n      dup3\n        /* \"#utility.yul\":16516:16540   */\n      tag_177\n      jump\t// in\n    tag_369:\n        /* \"#utility.yul\":16507:16540   */\n      swap2\n      pop\n        /* \"#utility.yul\":16562:16628   */\n      0xffffffffffffffffffffffffffffffffffffffffffffffffffffffffffffffff\n        /* \"#utility.yul\":16555:16560   */\n      dup3\n        /* \"#utility.yul\":16552:16629   */\n      sub\n        /* \"#utility.yul\":16549:16652   */\n      tag_370\n      jumpi\n        /* \"#utility.yul\":16632:16650   */\n      tag_371\n      tag_205\n      jump\t// in\n    tag_371:\n        /* \"#utility.yul\":16549:16652   */\n    tag_370:\n        /* \"#utility.yul\":16679:16680   */\n      0x01\n        /* \"#utility.yul\":16672:16677   */\n      dup3\n        /* \"#utility.yul\":16668:16681   */\n      add\n        /* \"#utility.yul\":16661:16681   */\n      swap1\n      pop\n        /* \"#utility.yul\":16454:16687   */\n      swap2\n      swap1\n      pop\n      jump\t// out\n        /* \"#utility.yul\":16693:16873   */\n    tag_84:\n        /* \"#utility.yul\":16741:16818   */\n      0x4e487b7100000000000000000000000000000000000000000000000000000000\n        /* \"#utility.yul\":16738:16739   */\n      0x00\n        /* \"#utility.yul\":16731:16819   */\n      mstore\n        /* \"#utility.yul\":16838:16842   */\n      0x41\n        /* \"#utility.yul\":16835:16836   */\n      0x04\n        /* \"#utility.yul\":16828:16843   */\n      mstore\n        /* \"#utility.yul\":16862:16866   */\n      0x24\n        /* \"#utility.yul\":16859:16860   */\n      0x00\n        /* \"#utility.yul\":16852:16867   */\n      revert\n        /* \"#utility.yul\":16879:17048   */\n    tag_206:\n        /* \"#utility.yul\":16963:16974   */\n      0x00\n        /* \"#utility.yul\":16997:17003   */\n      dup3\n        /* \"#utility.yul\":16992:16995   */\n      dup3\n        /* \"#utility.yul\":16985:17004   */\n      mstore\n        /* \"#utility.yul\":17037:17041   */\n      0x20\n        /* \"#utility.yul\":17032:17035   */\n      dup3\n        /* \"#utility.yul\":17028:17042   */\n      add\n        /* \"#utility.yul\":17013:17042   */\n      swap1\n      pop\n        /* \"#utility.yul\":16879:17048   */\n      swap3\n      swap2\n      pop\n      pop\n      jump\t// out\n        /* \"#utility.yul\":17054:17225   */\n    tag_207:\n        /* \"#utility.yul\":17194:17217   */\n      0x5469636b657420616c7265616479206578697374730000000000000000000000\n        /* \"#utility.yul\":17190:17191   */\n      0x00\n        /* \"#utility.yul\":17182:17188   */\n      dup3\n        /* \"#utility.yul\":17178:17192   */\n      add\n        /* \"#utility.yul\":17171:17218   */\n      mstore\n        /* \"#utility.yul\":17054:17225   */\n      pop\n      jump\t// out\n        /* \"#utility.yul\":17231:17597   */\n    tag_208:\n        /* \"#utility.yul\":17373:17376   */\n      0x00\n        /* \"#utility.yul\":17394:17461   */\n      tag_376\n        /* \"#utility.yul\":17458:17460   */\n      0x15\n        /* \"#utility.yul\":17453:17456   */\n      dup4\n        /* \"#utility.yul\":17394:17461   */\n      tag_206\n      jump\t// in\n    tag_376:\n        /* \"#utility.yul\":17387:17461   */\n      swap2\n      pop\n        /* \"#utility.yul\":17470:17563   */\n      tag_377\n        /* \"#utility.yul\":17559:17562   */\n      dup3\n        /* \"#utility.yul\":17470:17563   */\n      tag_207\n      jump\t// in\n    tag_377:\n        /* \"#utility.yul\":17588:17590   */\n      0x20\n        /* \"#utility.yul\":17583:17586   */\n      dup3\n        /* \"#utility.yul\":17579:17591   */\n      add\n        /* \"#utility.yul\":17572:17591   */\n      swap1\n      pop\n        /* \"#utility.yul\":17231:17597   */\n      swap2\n      swap1\n      pop\n      jump\t// out\n        /* \"#utility.yul\":17603:18022   */\n    tag_103:\n        /* \"#utility.yul\":17769:17773   */\n      0x00\n        /* \"#utility.yul\":17807:17809   */\n      0x20\n        /* \"#utility.yul\":17796:17805   */\n      dup3\n        /* \"#utility.yul\":17792:17810   */\n      add\n        /* \"#utility.yul\":17784:17810   */\n      swap1\n      pop\n        /* \"#utility.yul\":17856:17865   */\n      dup2\n        /* \"#utility.yul\":17850:17854   */\n      dup2\n        /* \"#utility.yul\":17846:17866   */\n      sub\n        /* \"#utility.yul\":17842:17843   */\n      0x00\n        /* \"#utility.yul\":17831:17840   */\n      dup4\n        /* \"#utility.yul\":17827:17844   */\n      add\n        /* \"#utility.yul\":17820:17867   */\n      mstore\n        /* \"#utility.yul\":17884:18015   */\n      tag_379\n        /* \"#utility.yul\":18010:18014   */\n      dup2\n        /* \"#utility.yul\":17884:18015   */\n      tag_208\n      jump\t// in\n    tag_379:\n        /* \"#utility.yul\":17876:18015   */\n      swap1\n      pop\n        /* \"#utility.yul\":17603:18022   */\n      swap2\n      swap1\n      pop\n      jump\t// out\n        /* \"#utility.yul\":18028:18250   */\n    tag_106:\n        /* \"#utility.yul\":18121:18125   */\n      0x00\n        /* \"#utility.yul\":18159:18161   */\n      0x20\n        /* \"#utility.yul\":18148:18157   */\n      dup3\n        /* \"#utility.yul\":18144:18162   */\n      add\n        /* \"#utility.yul\":18136:18162   */\n      swap1\n      pop\n        /* \"#utility.yul\":18172:18243   */\n      tag_381\n        /* \"#utility.yul\":18240:18241   */\n      0x00\n        /* \"#utility.yul\":18229:18238   */\n      dup4\n        /* \"#utility.yul\":18225:18242   */\n      add\n        /* \"#utility.yul\":18216:18222   */\n      dup5\n        /* \"#utility.yul\":18172:18243   */\n      tag_193\n      jump\t// in\n    tag_381:\n        /* \"#utility.yul\":18028:18250   */\n      swap3\n      swap2\n      pop\n      pop\n      jump\t// out\n        /* \"#utility.yul\":18256:18435   */\n    tag_209:\n        /* \"#utility.yul\":18396:18427   */\n      0x5472616e73616374696f6e20616c726561647920636f6d706c65746564000000\n        /* \"#utility.yul\":18392:18393   */\n      0x00\n        /* \"#utility.yul\":18384:18390   */\n      dup3\n        /* \"#utility.yul\":18380:18394   */\n      add\n        /* \"#utility.yul\":18373:18428   */\n      mstore\n        /* \"#utility.yul\":18256:18435   */\n      pop\n      jump\t// out\n        /* \"#utility.yul\":18441:18807   */\n    tag_210:\n        /* \"#utility.yul\":18583:18586   */\n      0x00\n        /* \"#utility.yul\":18604:18671   */\n      tag_384\n        /* \"#utility.yul\":18668:18670   */\n      0x1d\n        /* \"#utility.yul\":18663:18666   */\n      dup4\n        /* \"#utility.yul\":18604:18671   */\n      tag_206\n      jump\t// in\n    tag_384:\n        /* \"#utility.yul\":18597:18671   */\n      swap2\n      pop\n        /* \"#utility.yul\":18680:18773   */\n      tag_385\n        /* \"#utility.yul\":18769:18772   */\n      dup3\n        /* \"#utility.yul\":18680:18773   */\n      tag_209\n      jump\t// in\n    tag_385:\n        /* \"#utility.yul\":18798:18800   */\n      0x20\n        /* \"#utility.yul\":18793:18796   */\n      dup3\n        /* \"#utility.yul\":18789:18801   */\n      add\n        /* \"#utility.yul\":18782:18801   */\n      swap1\n      pop\n        /* \"#utility.yul\":18441:18807   */\n      swap2\n      swap1\n      pop\n      jump\t// out\n        /* \"#utility.yul\":18813:19232   */\n    tag_110:\n        /* \"#utility.yul\":18979:18983   */\n      0x00\n        /* \"#utility.yul\":19017:19019   */\n      0x20\n        /* \"#utility.yul\":19006:19015   */\n      dup3\n        /* \"#utility.yul\":19002:19020   */\n      add\n        /* \"#utility.yul\":18994:19020   */\n      swap1\n      pop\n        /* \"#utility.yul\":19066:19075   */\n      dup2\n        /* \"#utility.yul\":19060:19064   */\n      dup2\n        /* \"#utility.yul\":19056:19076   */\n      sub\n        /* \"#utility.yul\":19052:19053   */\n      0x00\n        /* \"#utility.yul\":19041:19050   */\n      dup4\n        /* \"#utility.yul\":19037:19054   */\n      add\n        /* \"#utility.yul\":19030:19077   */\n      mstore\n        /* \"#utility.yul\":19094:19225   */\n      tag_387\n        /* \"#utility.yul\":19220:19224   */\n      dup2\n        /* \"#utility.yul\":19094:19225   */\n      tag_210\n      jump\t// in\n    tag_387:\n        /* \"#utility.yul\":19086:19225   */\n      swap1\n      pop\n        /* \"#utility.yul\":18813:19232   */\n      swap2\n      swap1\n      pop\n      jump\t// out\n        /* \"#utility.yul\":19238:19408   */\n    tag_211:\n        /* \"#utility.yul\":19378:19400   */\n      0x496e73756666696369656e74207061796d656e74000000000000000000000000\n        /* \"#utility.yul\":19374:19375   */\n      0x00\n        /* \"#utility.yul\":19366:19372   */\n      dup3\n        /* \"#utility.yul\":19362:19376   */\n      add\n        /* \"#utility.yul\":19355:19401   */\n      mstore\n        /* \"#utility.yul\":19238:19408   */\n      pop\n      jump\t// out\n        /* \"#utility.yul\":19414:19780   */\n    tag_212:\n        /* \"#utility.yul\":19556:19559   */\n      0x00\n        /* \"#utility.yul\":19577:19644   */\n      tag_390\n        /* \"#utility.yul\":19641:19643   */\n      0x14\n        /* \"#utility.yul\":19636:19639   */\n      dup4\n        /* \"#utility.yul\":19577:19644   */\n      tag_206\n      jump\t// in\n    tag_390:\n        /* \"#utility.yul\":19570:19644   */\n      swap2\n      pop\n        /* \"#utility.yul\":19653:19746   */\n      tag_391\n        /* \"#utility.yul\":19742:19745   */\n      dup3\n        /* \"#utility.yul\":19653:19746   */\n      tag_211\n      jump\t// in\n    tag_391:\n        /* \"#utility.yul\":19771:19773   */\n      0x20\n        /* \"#utility.yul\":19766:19769   */\n      dup3\n        /* \"#utility.yul\":19762:19774   */\n      add\n        /* \"#utility.yul\":19755:19774   */\n      swap1\n      pop\n        /* \"#utility.yul\":19414:19780   */\n      swap2\n      swap1\n      pop\n      jump\t// out\n        /* \"#utility.yul\":19786:20205   */\n    tag_113:\n        /* \"#utility.yul\":19952:19956   */\n      0x00\n        /* \"#utility.yul\":19990:19992   */\n      0x20\n        /* \"#utility.yul\":19979:19988   */\n      dup3\n        /* \"#utility.yul\":19975:19993   */\n      add\n        /* \"#utility.yul\":19967:19993   */\n      swap1\n      pop\n        /* \"#utility.yul\":20039:20048   */\n      dup2\n        /* \"#utility.yul\":20033:20037   */\n      dup2\n        /* \"#utility.yul\":20029:20049   */\n      sub\n        /* \"#utility.yul\":20025:20026   */\n      0x00\n        /* \"#utility.yul\":20014:20023   */\n      dup4\n        /* \"#utility.yul\":20010:20027   */\n      add\n        /* \"#utility.yul\":20003:20050   */\n      mstore\n        /* \"#utility.yul\":20067:20198   */\n      tag_393\n        /* \"#utility.yul\":20193:20197   */\n      dup2\n        /* \"#utility.yul\":20067:20198   */\n      tag_212\n      jump\t// in\n    tag_393:\n        /* \"#utility.yul\":20059:20198   */\n      swap1\n      pop\n        /* \"#utility.yul\":19786:20205   */\n      swap2\n      swap1\n      pop\n      jump\t// out\n        /* \"#utility.yul\":20211:20384   */\n    tag_213:\n        /* \"#utility.yul\":20351:20376   */\n      0x4275796572206973206e6f74207265636f676e697a6564000000000000000000\n        /* \"#utility.yul\":20347:20348   */\n      0x00\n        /* \"#utility.yul\":20339:20345   */\n      dup3\n        /* \"#utility.yul\":20335:20349   */\n      add\n        /* \"#utility.yul\":20328:20377   */\n      mstore\n        /* \"#utility.yul\":20211:20384   */\n      pop\n      jump\t// out\n        /* \"#utility.yul\":20390:20756   */\n    tag_214:\n        /* \"#utility.yul\":20532:20535   */\n      0x00\n        /* \"#utility.yul\":20553:20620   */\n      tag_396\n        /* \"#utility.yul\":20617:20619   */\n      0x17\n        /* \"#utility.yul\":20612:20615   */\n      dup4\n        /* \"#utility.yul\":20553:20620   */\n      tag_206\n      jump\t// in\n    tag_396:\n        /* \"#utility.yul\":20546:20620   */\n      swap2\n      pop\n        /* \"#utility.yul\":20629:20722   */\n      tag_397\n        /* \"#utility.yul\":20718:20721   */\n      dup3\n        /* \"#utility.yul\":20629:20722   */\n      tag_213\n      jump\t// in\n    tag_397:\n        /* \"#utility.yul\":20747:20749   */\n      0x20\n        /* \"#utility.yul\":20742:20745   */\n      dup3\n        /* \"#utility.yul\":20738:20750   */\n      add\n        /* \"#utility.yul\":20731:20750   */\n      swap1\n      pop\n        /* \"#utility.yul\":20390:20756   */\n      swap2\n      swap1\n      pop\n      jump\t// out\n        /* \"#utility.yul\":20762:21181   */\n    tag_116:\n        /* \"#utility.yul\":20928:20932   */\n      0x00\n        /* \"#utility.yul\":20966:20968   */\n      0x20\n        /* \"#utility.yul\":20955:20964   */\n      dup3\n        /* \"#utility.yul\":20951:20969   */\n      add\n        /* \"#utility.yul\":20943:20969   */\n      swap1\n      pop\n        /* \"#utility.yul\":21015:21024   */\n      dup2\n        /* \"#utility.yul\":21009:21013   */\n      dup2\n        /* \"#utility.yul\":21005:21025   */\n      sub\n        /* \"#utility.yul\":21001:21002   */\n      0x00\n        /* \"#utility.yul\":20990:20999   */\n      dup4\n        /* \"#utility.yul\":20986:21003   */\n      add\n        /* \"#utility.yul\":20979:21026   */\n      mstore\n        /* \"#utility.yul\":21043:21174   */\n      tag_399\n        /* \"#utility.yul\":21169:21173   */\n      dup2\n        /* \"#utility.yul\":21043:21174   */\n      tag_214\n      jump\t// in\n    tag_399:\n        /* \"#utility.yul\":21035:21174   */\n      swap1\n      pop\n        /* \"#utility.yul\":20762:21181   */\n      swap2\n      swap1\n      pop\n      jump\t// out\n        /* \"#utility.yul\":21187:21366   */\n    tag_215:\n        /* \"#utility.yul\":21327:21358   */\n      0x5469636b6574206973206e6f206c6f6e67657220617661696c61626c65000000\n        /* \"#utility.yul\":21323:21324   */\n      0x00\n        /* \"#utility.yul\":21315:21321   */\n      dup3\n        /* \"#utility.yul\":21311:21325   */\n      add\n        /* \"#utility.yul\":21304:21359   */\n      mstore\n        /* \"#utility.yul\":21187:21366   */\n      pop\n      jump\t// out\n        /* \"#utility.yul\":21372:21738   */\n    tag_216:\n        /* \"#utility.yul\":21514:21517   */\n      0x00\n        /* \"#utility.yul\":21535:21602   */\n      tag_402\n        /* \"#utility.yul\":21599:21601   */\n      0x1d\n        /* \"#utility.yul\":21594:21597   */\n      dup4\n        /* \"#utility.yul\":21535:21602   */\n      tag_206\n      jump\t// in\n    tag_402:\n        /* \"#utility.yul\":21528:21602   */\n      swap2\n      pop\n        /* \"#utility.yul\":21611:21704   */\n      tag_403\n        /* \"#utility.yul\":21700:21703   */\n      dup3\n        /* \"#utility.yul\":21611:21704   */\n      tag_215\n      jump\t// in\n    tag_403:\n        /* \"#utility.yul\":21729:21731   */\n      0x20\n        /* \"#utility.yul\":21724:21727   */\n      dup3\n        /* \"#utility.yul\":21720:21732   */\n      add\n        /* \"#utility.yul\":21713:21732   */\n      swap1\n      pop\n        /* \"#utility.yul\":21372:21738   */\n      swap2\n      swap1\n      pop\n      jump\t// out\n        /* \"#utility.yul\":21744:22163   */\n    tag_119:\n        /* \"#utility.yul\":21910:21914   */\n      0x00\n        /* \"#utility.yul\":21948:21950   */\n      0x20\n        /* \"#utility.yul\":21937:21946   */\n      dup3\n        /* \"#utility.yul\":21933:21951   */\n      add\n        /* \"#utility.yul\":21925:21951   */\n      swap1\n      pop\n        /* \"#utility.yul\":21997:22006   */\n      dup2\n        /* \"#utility.yul\":21991:21995   */\n      dup2\n        /* \"#utility.yul\":21987:22007   */\n      sub\n        /* \"#utility.yul\":21983:21984   */\n      0x00\n        /* \"#utility.yul\":21972:21981   */\n      dup4\n        /* \"#utility.yul\":21968:21985   */\n      add\n        /* \"#utility.yul\":21961:22008   */\n      mstore\n        /* \"#utility.yul\":22025:22156   */\n      tag_405\n        /* \"#utility.yul\":22151:22155   */\n      dup2\n        /* \"#utility.yul\":22025:22156   */\n      tag_216\n      jump\t// in\n    tag_405:\n        /* \"#utility.yul\":22017:22156   */\n      swap1\n      pop\n        /* \"#utility.yul\":21744:22163   */\n      swap2\n      swap1\n      pop\n      jump\t// out\n        /* \"#utility.yul\":22169:22342   */\n    tag_217:\n        /* \"#utility.yul\":22309:22334   */\n      0x5469636b6574206973206e6f7420617661696c61626c65000000000000000000\n        /* \"#utility.yul\":22305:22306   */\n      0x00\n        /* \"#utility.yul\":22297:22303   */\n      dup3\n        /* \"#utility.yul\":22293:22307   */\n      add\n        /* \"#utility.yul\":22286:22335   */\n      mstore\n        /* \"#utility.yul\":22169:22342   */\n      pop\n      jump\t// out\n        /* \"#utility.yul\":22348:22714   */\n    tag_218:\n        /* \"#utility.yul\":22490:22493   */\n      0x00\n        /* \"#utility.yul\":22511:22578   */\n      tag_408\n        /* \"#utility.yul\":22575:22577   */\n      0x17\n        /* \"#utility.yul\":22570:22573   */\n      dup4\n        /* \"#utility.yul\":22511:22578   */\n      tag_206\n      jump\t// in\n    tag_408:\n        /* \"#utility.yul\":22504:22578   */\n      swap2\n      pop\n        /* \"#utility.yul\":22587:22680   */\n      tag_409\n        /* \"#utility.yul\":22676:22679   */\n      dup3\n        /* \"#utility.yul\":22587:22680   */\n      tag_217\n      jump\t// in\n    tag_409:\n        /* \"#utility.yul\":22705:22707   */\n      0x20\n        /* \"#utility.yul\":22700:22703   */\n      dup3\n        /* \"#utility.yul\":22696:22708   */\n      add\n        /* \"#utility.yul\":22689:22708   */\n      swap1\n      pop\n        /* \"#utility.yul\":22348:22714   */\n      swap2\n      swap1\n      pop\n      jump\t// out\n        /* \"#utility.yul\":22720:23139   */\n    tag_128:\n        /* \"#utility.yul\":22886:22890   */\n      0x00\n        /* \"#utility.yul\":22924:22926   */\n      0x20\n        /* \"#utility.yul\":22913:22922   */\n      dup3\n        /* \"#utility.yul\":22909:22927   */\n      add\n        /* \"#utility.yul\":22901:22927   */\n      swap1\n      pop\n        /* \"#utility.yul\":22973:22982   */\n      dup2\n        /* \"#utility.yul\":22967:22971   */\n      dup2\n        /* \"#utility.yul\":22963:22983   */\n      sub\n        /* \"#utility.yul\":22959:22960   */\n      0x00\n        /* \"#utility.yul\":22948:22957   */\n      dup4\n        /* \"#utility.yul\":22944:22961   */\n      add\n        /* \"#utility.yul\":22937:22984   */\n      mstore\n        /* \"#utility.yul\":23001:23132   */\n      tag_411\n        /* \"#utility.yul\":23127:23131   */\n      dup2\n        /* \"#utility.yul\":23001:23132   */\n      tag_218\n      jump\t// in\n    tag_411:\n        /* \"#utility.yul\":22993:23132   */\n      swap1\n      pop\n        /* \"#utility.yul\":22720:23139   */\n      swap2\n      swap1\n      pop\n      jump\t// out\n        /* \"#utility.yul\":23145:23326   */\n    tag_219:\n        /* \"#utility.yul\":23285:23318   */\n      0x546865206f776e65722063616e2774206275792074686973207469636b657400\n        /* \"#utility.yul\":23281:23282   */\n      0x00\n        /* \"#utility.yul\":23273:23279   */\n      dup3\n        /* \"#utility.yul\":23269:23283   */\n      add\n        /* \"#utility.yul\":23262:23319   */\n      mstore\n        /* \"#utility.yul\":23145:23326   */\n      pop\n      jump\t// out\n        /* \"#utility.yul\":23332:23698   */\n    tag_220:\n        /* \"#utility.yul\":23474:23477   */\n      0x00\n        /* \"#utility.yul\":23495:23562   */\n      tag_414\n        /* \"#utility.yul\":23559:23561   */\n      0x1f\n        /* \"#utility.yul\":23554:23557   */\n      dup4\n        /* \"#utility.yul\":23495:23562   */\n      tag_206\n      jump\t// in\n    tag_414:\n        /* \"#utility.yul\":23488:23562   */\n      swap2\n      pop\n        /* \"#utility.yul\":23571:23664   */\n      tag_415\n        /* \"#utility.yul\":23660:23663   */\n      dup3\n        /* \"#utility.yul\":23571:23664   */\n      tag_219\n      jump\t// in\n    tag_415:\n        /* \"#utility.yul\":23689:23691   */\n      0x20\n        /* \"#utility.yul\":23684:23687   */\n      dup3\n        /* \"#utility.yul\":23680:23692   */\n      add\n        /* \"#utility.yul\":23673:23692   */\n      swap1\n      pop\n        /* \"#utility.yul\":23332:23698   */\n      swap2\n      swap1\n      pop\n      jump\t// out\n        /* \"#utility.yul\":23704:24123   */\n    tag_131:\n        /* \"#utility.yul\":23870:23874   */\n      0x00\n        /* \"#utility.yul\":23908:23910   */\n      0x20\n        /* \"#utility.yul\":23897:23906   */\n      dup3\n        /* \"#utility.yul\":23893:23911   */\n      add\n        /* \"#utility.yul\":23885:23911   */\n      swap1\n      pop\n        /* \"#utility.yul\":23957:23966   */\n      dup2\n        /* \"#utility.yul\":23951:23955   */\n      dup2\n        /* \"#utility.yul\":23947:23967   */\n      sub\n        /* \"#utility.yul\":23943:23944   */\n      0x00\n        /* \"#utility.yul\":23932:23941   */\n      dup4\n        /* \"#utility.yul\":23928:23945   */\n      add\n        /* \"#utility.yul\":23921:23968   */\n      mstore\n        /* \"#utility.yul\":23985:24116   */\n      tag_417\n        /* \"#utility.yul\":24111:24115   */\n      dup2\n        /* \"#utility.yul\":23985:24116   */\n      tag_220\n      jump\t// in\n    tag_417:\n        /* \"#utility.yul\":23977:24116   */\n      swap1\n      pop\n        /* \"#utility.yul\":23704:24123   */\n      swap2\n      swap1\n      pop\n      jump\t// out\n        /* \"#utility.yul\":24129:24208   */\n    tag_221:\n        /* \"#utility.yul\":24168:24175   */\n      0x00\n        /* \"#utility.yul\":24197:24202   */\n      dup2\n        /* \"#utility.yul\":24186:24202   */\n      swap1\n      pop\n        /* \"#utility.yul\":24129:24208   */\n      swap2\n      swap1\n      pop\n      jump\t// out\n        /* \"#utility.yul\":24214:24371   */\n    tag_222:\n        /* \"#utility.yul\":24319:24364   */\n      tag_420\n        /* \"#utility.yul\":24339:24363   */\n      tag_421\n        /* \"#utility.yul\":24357:24362   */\n      dup3\n        /* \"#utility.yul\":24339:24363   */\n      tag_177\n      jump\t// in\n    tag_421:\n        /* \"#utility.yul\":24319:24364   */\n      tag_221\n      jump\t// in\n    tag_420:\n        /* \"#utility.yul\":24314:24317   */\n      dup3\n        /* \"#utility.yul\":24307:24365   */\n      mstore\n        /* \"#utility.yul\":24214:24371   */\n      pop\n      pop\n      jump\t// out\n        /* \"#utility.yul\":24377:24471   */\n    tag_223:\n        /* \"#utility.yul\":24410:24418   */\n      0x00\n        /* \"#utility.yul\":24458:24463   */\n      dup2\n        /* \"#utility.yul\":24454:24456   */\n      0x60\n        /* \"#utility.yul\":24450:24464   */\n      shl\n        /* \"#utility.yul\":24429:24464   */\n      swap1\n      pop\n        /* \"#utility.yul\":24377:24471   */\n      swap2\n      swap1\n      pop\n      jump\t// out\n        /* \"#utility.yul\":24477:24571   */\n    tag_224:\n        /* \"#utility.yul\":24516:24523   */\n      0x00\n        /* \"#utility.yul\":24545:24565   */\n      tag_424\n        /* \"#utility.yul\":24559:24564   */\n      dup3\n        /* \"#utility.yul\":24545:24565   */\n      tag_223\n      jump\t// in\n    tag_424:\n        /* \"#utility.yul\":24534:24565   */\n      swap1\n      pop\n        /* \"#utility.yul\":24477:24571   */\n      swap2\n      swap1\n      pop\n      jump\t// out\n        /* \"#utility.yul\":24577:24677   */\n    tag_225:\n        /* \"#utility.yul\":24616:24623   */\n      0x00\n        /* \"#utility.yul\":24645:24671   */\n      tag_426\n        /* \"#utility.yul\":24665:24670   */\n      dup3\n        /* \"#utility.yul\":24645:24671   */\n      tag_224\n      jump\t// in\n    tag_426:\n        /* \"#utility.yul\":24634:24671   */\n      swap1\n      pop\n        /* \"#utility.yul\":24577:24677   */\n      swap2\n      swap1\n      pop\n      jump\t// out\n        /* \"#utility.yul\":24683:24840   */\n    tag_226:\n        /* \"#utility.yul\":24788:24833   */\n      tag_428\n        /* \"#utility.yul\":24808:24832   */\n      tag_429\n        /* \"#utility.yul\":24826:24831   */\n      dup3\n        /* \"#utility.yul\":24808:24832   */\n      tag_171\n      jump\t// in\n    tag_429:\n        /* \"#utility.yul\":24788:24833   */\n      tag_225\n      jump\t// in\n    tag_428:\n        /* \"#utility.yul\":24783:24786   */\n      dup3\n        /* \"#utility.yul\":24776:24834   */\n      mstore\n        /* \"#utility.yul\":24683:24840   */\n      pop\n      pop\n      jump\t// out\n        /* \"#utility.yul\":24846:25666   */\n    tag_133:\n        /* \"#utility.yul\":25070:25073   */\n      0x00\n        /* \"#utility.yul\":25085:25160   */\n      tag_431\n        /* \"#utility.yul\":25156:25159   */\n      dup3\n        /* \"#utility.yul\":25147:25153   */\n      dup9\n        /* \"#utility.yul\":25085:25160   */\n      tag_222\n      jump\t// in\n    tag_431:\n        /* \"#utility.yul\":25185:25187   */\n      0x20\n        /* \"#utility.yul\":25180:25183   */\n      dup3\n        /* \"#utility.yul\":25176:25188   */\n      add\n        /* \"#utility.yul\":25169:25188   */\n      swap2\n      pop\n        /* \"#utility.yul\":25198:25273   */\n      tag_432\n        /* \"#utility.yul\":25269:25272   */\n      dup3\n        /* \"#utility.yul\":25260:25266   */\n      dup8\n        /* \"#utility.yul\":25198:25273   */\n      tag_226\n      jump\t// in\n    tag_432:\n        /* \"#utility.yul\":25298:25300   */\n      0x14\n        /* \"#utility.yul\":25293:25296   */\n      dup3\n        /* \"#utility.yul\":25289:25301   */\n      add\n        /* \"#utility.yul\":25282:25301   */\n      swap2\n      pop\n        /* \"#utility.yul\":25311:25386   */\n      tag_433\n        /* \"#utility.yul\":25382:25385   */\n      dup3\n        /* \"#utility.yul\":25373:25379   */\n      dup7\n        /* \"#utility.yul\":25311:25386   */\n      tag_226\n      jump\t// in\n    tag_433:\n        /* \"#utility.yul\":25411:25413   */\n      0x14\n        /* \"#utility.yul\":25406:25409   */\n      dup3\n        /* \"#utility.yul\":25402:25414   */\n      add\n        /* \"#utility.yul\":25395:25414   */\n      swap2\n      pop\n        /* \"#utility.yul\":25424:25499   */\n      tag_434\n        /* \"#utility.yul\":25495:25498   */\n      dup3\n        /* \"#utility.yul\":25486:25492   */\n      dup6\n        /* \"#utility.yul\":25424:25499   */\n      tag_222\n      jump\t// in\n    tag_434:\n        /* \"#utility.yul\":25524:25526   */\n      0x20\n        /* \"#utility.yul\":25519:25522   */\n      dup3\n        /* \"#utility.yul\":25515:25527   */\n      add\n        /* \"#utility.yul\":25508:25527   */\n      swap2\n      pop\n        /* \"#utility.yul\":25537:25612   */\n      tag_435\n        /* \"#utility.yul\":25608:25611   */\n      dup3\n        /* \"#utility.yul\":25599:25605   */\n      dup5\n        /* \"#utility.yul\":25537:25612   */\n      tag_222\n      jump\t// in\n    tag_435:\n        /* \"#utility.yul\":25637:25639   */\n      0x20\n        /* \"#utility.yul\":25632:25635   */\n      dup3\n        /* \"#utility.yul\":25628:25640   */\n      add\n        /* \"#utility.yul\":25621:25640   */\n      swap2\n      pop\n        /* \"#utility.yul\":25657:25660   */\n      dup2\n        /* \"#utility.yul\":25650:25660   */\n      swap1\n      pop\n        /* \"#utility.yul\":24846:25666   */\n      swap7\n      swap6\n      pop\n      pop\n      pop\n      pop\n      pop\n      pop\n      jump\t// out\n        /* \"#utility.yul\":25672:26004   */\n    tag_136:\n        /* \"#utility.yul\":25793:25797   */\n      0x00\n        /* \"#utility.yul\":25831:25833   */\n      0x40\n        /* \"#utility.yul\":25820:25829   */\n      dup3\n        /* \"#utility.yul\":25816:25834   */\n      add\n        /* \"#utility.yul\":25808:25834   */\n      swap1\n      pop\n        /* \"#utility.yul\":25844:25915   */\n      tag_437\n        /* \"#utility.yul\":25912:25913   */\n      0x00\n        /* \"#utility.yul\":25901:25910   */\n      dup4\n        /* \"#utility.yul\":25897:25914   */\n      add\n        /* \"#utility.yul\":25888:25894   */\n      dup6\n        /* \"#utility.yul\":25844:25915   */\n      tag_193\n      jump\t// in\n    tag_437:\n        /* \"#utility.yul\":25925:25997   */\n      tag_438\n        /* \"#utility.yul\":25993:25995   */\n      0x20\n        /* \"#utility.yul\":25982:25991   */\n      dup4\n        /* \"#utility.yul\":25978:25996   */\n      add\n        /* \"#utility.yul\":25969:25975   */\n      dup5\n        /* \"#utility.yul\":25925:25997   */\n      tag_196\n      jump\t// in\n    tag_438:\n        /* \"#utility.yul\":25672:26004   */\n      swap4\n      swap3\n      pop\n      pop\n      pop\n      jump\t// out\n\n    auxdata: 0xa2646970667358221220b602e2b96144ab8bd9ca1367b51d1d3d29adad1f33a2fbe6153a46ffc6a3236364736f6c634300081a0033\n}\n",
				"bytecode": {
					"linkReferences": {},
					"object": "6080604052348015600f57600080fd5b5061215d8061001f6000396000f3fe6080604052600436106100915760003560e01c8063642f2eaf11610059578063642f2eaf146101955780637cf4c543146101d75780637dc379fa14610200578063e5b0b1001461023d578063f851a4401461027a57610091565b8063047ac364146100965780631540451e146100d35780633a74717d146100fc5780634aae13ca1461011857806350b4471214610155575b600080fd5b3480156100a257600080fd5b506100bd60048036038101906100b89190611611565b6102a5565b6040516100ca91906117c4565b60405180910390f35b3480156100df57600080fd5b506100fa60048036038101906100f59190611812565b6106b5565b005b6101166004803603810190610111919061187e565b6108a1565b005b34801561012457600080fd5b5061013f600480360381019061013a919061187e565b610c1a565b60405161014c9190611926565b60405180910390f35b34801561016157600080fd5b5061017c60048036038101906101779190611941565b610d2c565b60405161018c949392919061199b565b60405180910390f35b3480156101a157600080fd5b506101bc60048036038101906101b7919061187e565b610d89565b6040516101ce969594939291906119ef565b60405180910390f35b3480156101e357600080fd5b506101fe60048036038101906101f99190611a50565b610e12565b005b34801561020c57600080fd5b5061022760048036038101906102229190611941565b611183565b6040516102349190611ae5565b60405180910390f35b34801561024957600080fd5b50610264600480360381019061025f9190611611565b611235565b6040516102719190611c04565b60405180910390f35b34801561028657600080fd5b5061028f6114e3565b60405161029c9190611c26565b60405180910390f35b60606000805b60048054905081101561046c57600060026000600484815481106102d2576102d1611c41565b5b906000526020600020015481526020019081526020016000206040518060c0016040529081600082015481526020016001820160009054906101000a900473ffffffffffffffffffffffffffffffffffffffff1673ffffffffffffffffffffffffffffffffffffffff1673ffffffffffffffffffffffffffffffffffffffff1681526020016002820160009054906101000a900473ffffffffffffffffffffffffffffffffffffffff1673ffffffffffffffffffffffffffffffffffffffff1673ffffffffffffffffffffffffffffffffffffffff168152602001600382015481526020016004820160009054906101000a900460ff1615151515815260200160058201548152505090508473ffffffffffffffffffffffffffffffffffffffff16816020015173ffffffffffffffffffffffffffffffffffffffff16148061044a57508473ffffffffffffffffffffffffffffffffffffffff16816040015173ffffffffffffffffffffffffffffffffffffffff16145b1561045e57828061045a90611c9f565b9350505b5080806001019150506102ab565b5060008167ffffffffffffffff81111561048957610488611ce7565b5b6040519080825280602002602001820160405280156104c257816020015b6104af611507565b8152602001906001900390816104a75790505b5090506000805b6004805490508110156106a957600060026000600484815481106104f0576104ef611c41565b5b906000526020600020015481526020019081526020016000206040518060c0016040529081600082015481526020016001820160009054906101000a900473ffffffffffffffffffffffffffffffffffffffff1673ffffffffffffffffffffffffffffffffffffffff1673ffffffffffffffffffffffffffffffffffffffff1681526020016002820160009054906101000a900473ffffffffffffffffffffffffffffffffffffffff1673ffffffffffffffffffffffffffffffffffffffff1673ffffffffffffffffffffffffffffffffffffffff168152602001600382015481526020016004820160009054906101000a900460ff1615151515815260200160058201548152505090508673ffffffffffffffffffffffffffffffffffffffff16816020015173ffffffffffffffffffffffffffffffffffffffff16148061066857508673ffffffffffffffffffffffffffffffffffffffff16816040015173ffffffffffffffffffffffffffffffffffffffff16145b1561069b578084848151811061068157610680611c41565b5b6020026020010181905250828061069790611c9f565b9350505b5080806001019150506104c9565b50819350505050919050565b600073ffffffffffffffffffffffffffffffffffffffff166001600084815260200190815260200160002060010160009054906101000a900473ffffffffffffffffffffffffffffffffffffffff1673ffffffffffffffffffffffffffffffffffffffff161461075a576040517f08c379a000000000000000000000000000000000000000000000000000000000815260040161075190611d73565b60405180910390fd5b60405180608001604052808381526020013373ffffffffffffffffffffffffffffffffffffffff16815260200182815260200160011515815250600160008481526020019081526020016000206000820151816000015560208201518160010160006101000a81548173ffffffffffffffffffffffffffffffffffffffff021916908373ffffffffffffffffffffffffffffffffffffffff1602179055506040820151816002015560608201518160030160006101000a81548160ff02191690831515021790555090505060038290806001815401808255809150506001900390600052602060002001600090919091909150553373ffffffffffffffffffffffffffffffffffffffff16827f885aea068dfc8d64b3da0c1131d16d6e26947c043fb441c446de14a01087540d836040516108959190611d93565b60405180910390a35050565b60006002600083815260200190815260200160002090508060040160009054906101000a900460ff161561090a576040517f08c379a000000000000000000000000000000000000000000000000000000000815260040161090190611dfa565b60405180910390fd5b8060030154341015610951576040517f08c379a000000000000000000000000000000000000000000000000000000000815260040161094890611e66565b60405180910390fd5b3373ffffffffffffffffffffffffffffffffffffffff168160010160009054906101000a900473ffffffffffffffffffffffffffffffffffffffff1673ffffffffffffffffffffffffffffffffffffffff16146109e3576040517f08c379a00000000000000000000000000000000000000000000000000000000081526004016109da90611ed2565b60405180910390fd5b6000600160008360000154815260200190815260200160002090508060030160009054906101000a900460ff16610a4f576040517f08c379a0000000000000000000000000000000000000000000000000000000008152600401610a4690611f3e565b60405180910390fd5b8160020160009054906101000a900473ffffffffffffffffffffffffffffffffffffffff1673ffffffffffffffffffffffffffffffffffffffff166108fc83600301549081150290604051600060405180830381858888f19350505050158015610abd573d6000803e3d6000fd5b508160010160009054906101000a900473ffffffffffffffffffffffffffffffffffffffff168160010160006101000a81548173ffffffffffffffffffffffffffffffffffffffff021916908373ffffffffffffffffffffffffffffffffffffffff16021790555060008160030160006101000a81548160ff02191690831515021790555060018260040160006101000a81548160ff0219169083151502179055508160020160009054906101000a900473ffffffffffffffffffffffffffffffffffffffff1673ffffffffffffffffffffffffffffffffffffffff168260010160009054906101000a900473ffffffffffffffffffffffffffffffffffffffff1673ffffffffffffffffffffffffffffffffffffffff1683600001547f37a13dcf7266fe3681e46ca252ea4f79e8a76da88ae9446f99242fbc014a6c398560030154604051610c0d9190611d93565b60405180910390a4505050565b610c22611507565b600260008381526020019081526020016000206040518060c0016040529081600082015481526020016001820160009054906101000a900473ffffffffffffffffffffffffffffffffffffffff1673ffffffffffffffffffffffffffffffffffffffff1673ffffffffffffffffffffffffffffffffffffffff1681526020016002820160009054906101000a900473ffffffffffffffffffffffffffffffffffffffff1673ffffffffffffffffffffffffffffffffffffffff1673ffffffffffffffffffffffffffffffffffffffff168152602001600382015481526020016004820160009054906101000a900460ff161515151581526020016005820154815250509050919050565b60016020528060005260406000206000915090508060000154908060010160009054906101000a900473ffffffffffffffffffffffffffffffffffffffff16908060020154908060030160009054906101000a900460ff16905084565b60026020528060005260406000206000915090508060000154908060010160009054906101000a900473ffffffffffffffffffffffffffffffffffffffff16908060020160009054906101000a900473ffffffffffffffffffffffffffffffffffffffff16908060030154908060040160009054906101000a900460ff16908060050154905086565b600060016000848152602001908152602001600020604051806080016040529081600082015481526020016001820160009054906101000a900473ffffffffffffffffffffffffffffffffffffffff1673ffffffffffffffffffffffffffffffffffffffff1673ffffffffffffffffffffffffffffffffffffffff168152602001600282015481526020016003820160009054906101000a900460ff16151515158152505090508060600151610efd576040517f08c379a0000000000000000000000000000000000000000000000000000000008152600401610ef490611faa565b60405180910390fd5b3373ffffffffffffffffffffffffffffffffffffffff16816020015173ffffffffffffffffffffffffffffffffffffffff1603610f6f576040517f08c379a0000000000000000000000000000000000000000000000000000000008152600401610f6690612016565b60405180910390fd5b6000838333846040015142604051602001610f8e95949392919061209f565b6040516020818303038152906040528051906020012090506040518060c001604052808581526020018473ffffffffffffffffffffffffffffffffffffffff1681526020013373ffffffffffffffffffffffffffffffffffffffff1681526020018360400151815260200160001515815260200182815250600260008381526020019081526020016000206000820151816000015560208201518160010160006101000a81548173ffffffffffffffffffffffffffffffffffffffff021916908373ffffffffffffffffffffffffffffffffffffffff16021790555060408201518160020160006101000a81548173ffffffffffffffffffffffffffffffffffffffff021916908373ffffffffffffffffffffffffffffffffffffffff1602179055506060820151816003015560808201518160040160006101000a81548160ff02191690831515021790555060a0820151816005015590505060048190806001815401808255809150506001900390600052602060002001600090919091909150553373ffffffffffffffffffffffffffffffffffffffff168373ffffffffffffffffffffffffffffffffffffffff16857f134a388716b167dae2534ca04765e55a86d3e6e1181931c2d9524f94da09c83b8560400151856040516111759291906120fe565b60405180910390a450505050565b61118b61156e565b60016000838152602001908152602001600020604051806080016040529081600082015481526020016001820160009054906101000a900473ffffffffffffffffffffffffffffffffffffffff1673ffffffffffffffffffffffffffffffffffffffff1673ffffffffffffffffffffffffffffffffffffffff168152602001600282015481526020016003820160009054906101000a900460ff1615151515815250509050919050565b60606000805b6003805490508110156112eb578373ffffffffffffffffffffffffffffffffffffffff16600160006003848154811061127757611276611c41565b5b9060005260206000200154815260200190815260200160002060010160009054906101000a900473ffffffffffffffffffffffffffffffffffffffff1673ffffffffffffffffffffffffffffffffffffffff16036112de5781806112da90611c9f565b9250505b808060010191505061123b565b5060008167ffffffffffffffff81111561130857611307611ce7565b5b60405190808252806020026020018201604052801561134157816020015b61132e61156e565b8152602001906001900390816113265790505b5090506000805b6003805490508110156114d7578573ffffffffffffffffffffffffffffffffffffffff16600160006003848154811061138457611383611c41565b5b9060005260206000200154815260200190815260200160002060010160009054906101000a900473ffffffffffffffffffffffffffffffffffffffff1673ffffffffffffffffffffffffffffffffffffffff16036114ca5760016000600383815481106113f4576113f3611c41565b5b90600052602060002001548152602001908152602001600020604051806080016040529081600082015481526020016001820160009054906101000a900473ffffffffffffffffffffffffffffffffffffffff1673ffffffffffffffffffffffffffffffffffffffff1673ffffffffffffffffffffffffffffffffffffffff168152602001600282015481526020016003820160009054906101000a900460ff1615151515815250508383815181106114b0576114af611c41565b5b602002602001018190525081806114c690611c9f565b9250505b8080600101915050611348565b50819350505050919050565b60008054906101000a900473ffffffffffffffffffffffffffffffffffffffff1681565b6040518060c0016040528060008152602001600073ffffffffffffffffffffffffffffffffffffffff168152602001600073ffffffffffffffffffffffffffffffffffffffff16815260200160008152602001600015158152602001600080191681525090565b604051806080016040528060008152602001600073ffffffffffffffffffffffffffffffffffffffff168152602001600081526020016000151581525090565b600080fd5b600073ffffffffffffffffffffffffffffffffffffffff82169050919050565b60006115de826115b3565b9050919050565b6115ee816115d3565b81146115f957600080fd5b50565b60008135905061160b816115e5565b92915050565b600060208284031215611627576116266115ae565b5b6000611635848285016115fc565b91505092915050565b600081519050919050565b600082825260208201905092915050565b6000819050602082019050919050565b6000819050919050565b61167d8161166a565b82525050565b61168c816115d3565b82525050565b60008115159050919050565b6116a781611692565b82525050565b6000819050919050565b6116c0816116ad565b82525050565b60c0820160008201516116dc6000850182611674565b5060208201516116ef6020850182611683565b5060408201516117026040850182611683565b5060608201516117156060850182611674565b506080820151611728608085018261169e565b5060a082015161173b60a08501826116b7565b50505050565b600061174d83836116c6565b60c08301905092915050565b6000602082019050919050565b60006117718261163e565b61177b8185611649565b93506117868361165a565b8060005b838110156117b757815161179e8882611741565b97506117a983611759565b92505060018101905061178a565b5085935050505092915050565b600060208201905081810360008301526117de8184611766565b905092915050565b6117ef8161166a565b81146117fa57600080fd5b50565b60008135905061180c816117e6565b92915050565b60008060408385031215611829576118286115ae565b5b6000611837858286016117fd565b9250506020611848858286016117fd565b9150509250929050565b61185b816116ad565b811461186657600080fd5b50565b60008135905061187881611852565b92915050565b600060208284031215611894576118936115ae565b5b60006118a284828501611869565b91505092915050565b60c0820160008201516118c16000850182611674565b5060208201516118d46020850182611683565b5060408201516118e76040850182611683565b5060608201516118fa6060850182611674565b50608082015161190d608085018261169e565b5060a082015161192060a08501826116b7565b50505050565b600060c08201905061193b60008301846118ab565b92915050565b600060208284031215611957576119566115ae565b5b6000611965848285016117fd565b91505092915050565b6119778161166a565b82525050565b611986816115d3565b82525050565b61199581611692565b82525050565b60006080820190506119b0600083018761196e565b6119bd602083018661197d565b6119ca604083018561196e565b6119d7606083018461198c565b95945050505050565b6119e9816116ad565b82525050565b600060c082019050611a04600083018961196e565b611a11602083018861197d565b611a1e604083018761197d565b611a2b606083018661196e565b611a38608083018561198c565b611a4560a08301846119e0565b979650505050505050565b60008060408385031215611a6757611a666115ae565b5b6000611a75858286016117fd565b9250506020611a86858286016115fc565b9150509250929050565b608082016000820151611aa66000850182611674565b506020820151611ab96020850182611683565b506040820151611acc6040850182611674565b506060820151611adf606085018261169e565b50505050565b6000608082019050611afa6000830184611a90565b92915050565b600081519050919050565b600082825260208201905092915050565b6000819050602082019050919050565b608082016000820151611b426000850182611674565b506020820151611b556020850182611683565b506040820151611b686040850182611674565b506060820151611b7b606085018261169e565b50505050565b6000611b8d8383611b2c565b60808301905092915050565b6000602082019050919050565b6000611bb182611b00565b611bbb8185611b0b565b9350611bc683611b1c565b8060005b83811015611bf7578151611bde8882611b81565b9750611be983611b99565b925050600181019050611bca565b5085935050505092915050565b60006020820190508181036000830152611c1e8184611ba6565b905092915050565b6000602082019050611c3b600083018461197d565b92915050565b7f4e487b7100000000000000000000000000000000000000000000000000000000600052603260045260246000fd5b7f4e487b7100000000000000000000000000000000000000000000000000000000600052601160045260246000fd5b6000611caa8261166a565b91507fffffffffffffffffffffffffffffffffffffffffffffffffffffffffffffffff8203611cdc57611cdb611c70565b5b600182019050919050565b7f4e487b7100000000000000000000000000000000000000000000000000000000600052604160045260246000fd5b600082825260208201905092915050565b7f5469636b657420616c7265616479206578697374730000000000000000000000600082015250565b6000611d5d601583611d16565b9150611d6882611d27565b602082019050919050565b60006020820190508181036000830152611d8c81611d50565b9050919050565b6000602082019050611da8600083018461196e565b92915050565b7f5472616e73616374696f6e20616c726561647920636f6d706c65746564000000600082015250565b6000611de4601d83611d16565b9150611def82611dae565b602082019050919050565b60006020820190508181036000830152611e1381611dd7565b9050919050565b7f496e73756666696369656e74207061796d656e74000000000000000000000000600082015250565b6000611e50601483611d16565b9150611e5b82611e1a565b602082019050919050565b60006020820190508181036000830152611e7f81611e43565b9050919050565b7f4275796572206973206e6f74207265636f676e697a6564000000000000000000600082015250565b6000611ebc601783611d16565b9150611ec782611e86565b602082019050919050565b60006020820190508181036000830152611eeb81611eaf565b9050919050565b7f5469636b6574206973206e6f206c6f6e67657220617661696c61626c65000000600082015250565b6000611f28601d83611d16565b9150611f3382611ef2565b602082019050919050565b60006020820190508181036000830152611f5781611f1b565b9050919050565b7f5469636b6574206973206e6f7420617661696c61626c65000000000000000000600082015250565b6000611f94601783611d16565b9150611f9f82611f5e565b602082019050919050565b60006020820190508181036000830152611fc381611f87565b9050919050565b7f546865206f776e65722063616e2774206275792074686973207469636b657400600082015250565b6000612000601f83611d16565b915061200b82611fca565b602082019050919050565b6000602082019050818103600083015261202f81611ff3565b9050919050565b6000819050919050565b61205161204c8261166a565b612036565b82525050565b60008160601b9050919050565b600061206f82612057565b9050919050565b600061208182612064565b9050919050565b612099612094826115d3565b612076565b82525050565b60006120ab8288612040565b6020820191506120bb8287612088565b6014820191506120cb8286612088565b6014820191506120db8285612040565b6020820191506120eb8284612040565b6020820191508190509695505050505050565b6000604082019050612113600083018561196e565b61212060208301846119e0565b939250505056fea2646970667358221220b602e2b96144ab8bd9ca1367b51d1d3d29adad1f33a2fbe6153a46ffc6a3236364736f6c634300081a0033",
					"opcodes": "PUSH1 0x80 PUSH1 0x40 MSTORE CALLVALUE DUP1 ISZERO PUSH1 0xF JUMPI PUSH1 0x0 DUP1 REVERT JUMPDEST POP PUSH2 0x215D DUP1 PUSH2 0x1F PUSH1 0x0 CODECOPY PUSH1 0x0 RETURN INVALID PUSH1 0x80 PUSH1 0x40 MSTORE PUSH1 0x4 CALLDATASIZE LT PUSH2 0x91 JUMPI PUSH1 0x0 CALLDATALOAD PUSH1 0xE0 SHR DUP1 PUSH4 0x642F2EAF GT PUSH2 0x59 JUMPI DUP1 PUSH4 0x642F2EAF EQ PUSH2 0x195 JUMPI DUP1 PUSH4 0x7CF4C543 EQ PUSH2 0x1D7 JUMPI DUP1 PUSH4 0x7DC379FA EQ PUSH2 0x200 JUMPI DUP1 PUSH4 0xE5B0B100 EQ PUSH2 0x23D JUMPI DUP1 PUSH4 0xF851A440 EQ PUSH2 0x27A JUMPI PUSH2 0x91 JUMP JUMPDEST DUP1 PUSH4 0x47AC364 EQ PUSH2 0x96 JUMPI DUP1 PUSH4 0x1540451E EQ PUSH2 0xD3 JUMPI DUP1 PUSH4 0x3A74717D EQ PUSH2 0xFC JUMPI DUP1 PUSH4 0x4AAE13CA EQ PUSH2 0x118 JUMPI DUP1 PUSH4 0x50B44712 EQ PUSH2 0x155 JUMPI JUMPDEST PUSH1 0x0 DUP1 REVERT JUMPDEST CALLVALUE DUP1 ISZERO PUSH2 0xA2 JUMPI PUSH1 0x0 DUP1 REVERT JUMPDEST POP PUSH2 0xBD PUSH1 0x4 DUP1 CALLDATASIZE SUB DUP2 ADD SWAP1 PUSH2 0xB8 SWAP2 SWAP1 PUSH2 0x1611 JUMP JUMPDEST PUSH2 0x2A5 JUMP JUMPDEST PUSH1 0x40 MLOAD PUSH2 0xCA SWAP2 SWAP1 PUSH2 0x17C4 JUMP JUMPDEST PUSH1 0x40 MLOAD DUP1 SWAP2 SUB SWAP1 RETURN JUMPDEST CALLVALUE DUP1 ISZERO PUSH2 0xDF JUMPI PUSH1 0x0 DUP1 REVERT JUMPDEST POP PUSH2 0xFA PUSH1 0x4 DUP1 CALLDATASIZE SUB DUP2 ADD SWAP1 PUSH2 0xF5 SWAP2 SWAP1 PUSH2 0x1812 JUMP JUMPDEST PUSH2 0x6B5 JUMP JUMPDEST STOP JUMPDEST PUSH2 0x116 PUSH1 0x4 DUP1 CALLDATASIZE SUB DUP2 ADD SWAP1 PUSH2 0x111 SWAP2 SWAP1 PUSH2 0x187E JUMP JUMPDEST PUSH2 0x8A1 JUMP JUMPDEST STOP JUMPDEST CALLVALUE DUP1 ISZERO PUSH2 0x124 JUMPI PUSH1 0x0 DUP1 REVERT JUMPDEST POP PUSH2 0x13F PUSH1 0x4 DUP1 CALLDATASIZE SUB DUP2 ADD SWAP1 PUSH2 0x13A SWAP2 SWAP1 PUSH2 0x187E JUMP JUMPDEST PUSH2 0xC1A JUMP JUMPDEST PUSH1 0x40 MLOAD PUSH2 0x14C SWAP2 SWAP1 PUSH2 0x1926 JUMP JUMPDEST PUSH1 0x40 MLOAD DUP1 SWAP2 SUB SWAP1 RETURN JUMPDEST CALLVALUE DUP1 ISZERO PUSH2 0x161 JUMPI PUSH1 0x0 DUP1 REVERT JUMPDEST POP PUSH2 0x17C PUSH1 0x4 DUP1 CALLDATASIZE SUB DUP2 ADD SWAP1 PUSH2 0x177 SWAP2 SWAP1 PUSH2 0x1941 JUMP JUMPDEST PUSH2 0xD2C JUMP JUMPDEST PUSH1 0x40 MLOAD PUSH2 0x18C SWAP5 SWAP4 SWAP3 SWAP2 SWAP1 PUSH2 0x199B JUMP JUMPDEST PUSH1 0x40 MLOAD DUP1 SWAP2 SUB SWAP1 RETURN JUMPDEST CALLVALUE DUP1 ISZERO PUSH2 0x1A1 JUMPI PUSH1 0x0 DUP1 REVERT JUMPDEST POP PUSH2 0x1BC PUSH1 0x4 DUP1 CALLDATASIZE SUB DUP2 ADD SWAP1 PUSH2 0x1B7 SWAP2 SWAP1 PUSH2 0x187E JUMP JUMPDEST PUSH2 0xD89 JUMP JUMPDEST PUSH1 0x40 MLOAD PUSH2 0x1CE SWAP7 SWAP6 SWAP5 SWAP4 SWAP3 SWAP2 SWAP1 PUSH2 0x19EF JUMP JUMPDEST PUSH1 0x40 MLOAD DUP1 SWAP2 SUB SWAP1 RETURN JUMPDEST CALLVALUE DUP1 ISZERO PUSH2 0x1E3 JUMPI PUSH1 0x0 DUP1 REVERT JUMPDEST POP PUSH2 0x1FE PUSH1 0x4 DUP1 CALLDATASIZE SUB DUP2 ADD SWAP1 PUSH2 0x1F9 SWAP2 SWAP1 PUSH2 0x1A50 JUMP JUMPDEST PUSH2 0xE12 JUMP JUMPDEST STOP JUMPDEST CALLVALUE DUP1 ISZERO PUSH2 0x20C JUMPI PUSH1 0x0 DUP1 REVERT JUMPDEST POP PUSH2 0x227 PUSH1 0x4 DUP1 CALLDATASIZE SUB DUP2 ADD SWAP1 PUSH2 0x222 SWAP2 SWAP1 PUSH2 0x1941 JUMP JUMPDEST PUSH2 0x1183 JUMP JUMPDEST PUSH1 0x40 MLOAD PUSH2 0x234 SWAP2 SWAP1 PUSH2 0x1AE5 JUMP JUMPDEST PUSH1 0x40 MLOAD DUP1 SWAP2 SUB SWAP1 RETURN JUMPDEST CALLVALUE DUP1 ISZERO PUSH2 0x249 JUMPI PUSH1 0x0 DUP1 REVERT JUMPDEST POP PUSH2 0x264 PUSH1 0x4 DUP1 CALLDATASIZE SUB DUP2 ADD SWAP1 PUSH2 0x25F SWAP2 SWAP1 PUSH2 0x1611 JUMP JUMPDEST PUSH2 0x1235 JUMP JUMPDEST PUSH1 0x40 MLOAD PUSH2 0x271 SWAP2 SWAP1 PUSH2 0x1C04 JUMP JUMPDEST PUSH1 0x40 MLOAD DUP1 SWAP2 SUB SWAP1 RETURN JUMPDEST CALLVALUE DUP1 ISZERO PUSH2 0x286 JUMPI PUSH1 0x0 DUP1 REVERT JUMPDEST POP PUSH2 0x28F PUSH2 0x14E3 JUMP JUMPDEST PUSH1 0x40 MLOAD PUSH2 0x29C SWAP2 SWAP1 PUSH2 0x1C26 JUMP JUMPDEST PUSH1 0x40 MLOAD DUP1 SWAP2 SUB SWAP1 RETURN JUMPDEST PUSH1 0x60 PUSH1 0x0 DUP1 JUMPDEST PUSH1 0x4 DUP1 SLOAD SWAP1 POP DUP2 LT ISZERO PUSH2 0x46C JUMPI PUSH1 0x0 PUSH1 0x2 PUSH1 0x0 PUSH1 0x4 DUP5 DUP2 SLOAD DUP2 LT PUSH2 0x2D2 JUMPI PUSH2 0x2D1 PUSH2 0x1C41 JUMP JUMPDEST JUMPDEST SWAP1 PUSH1 0x0 MSTORE PUSH1 0x20 PUSH1 0x0 KECCAK256 ADD SLOAD DUP2 MSTORE PUSH1 0x20 ADD SWAP1 DUP2 MSTORE PUSH1 0x20 ADD PUSH1 0x0 KECCAK256 PUSH1 0x40 MLOAD DUP1 PUSH1 0xC0 ADD PUSH1 0x40 MSTORE SWAP1 DUP2 PUSH1 0x0 DUP3 ADD SLOAD DUP2 MSTORE PUSH1 0x20 ADD PUSH1 0x1 DUP3 ADD PUSH1 0x0 SWAP1 SLOAD SWAP1 PUSH2 0x100 EXP SWAP1 DIV PUSH20 0xFFFFFFFFFFFFFFFFFFFFFFFFFFFFFFFFFFFFFFFF AND PUSH20 0xFFFFFFFFFFFFFFFFFFFFFFFFFFFFFFFFFFFFFFFF AND PUSH20 0xFFFFFFFFFFFFFFFFFFFFFFFFFFFFFFFFFFFFFFFF AND DUP2 MSTORE PUSH1 0x20 ADD PUSH1 0x2 DUP3 ADD PUSH1 0x0 SWAP1 SLOAD SWAP1 PUSH2 0x100 EXP SWAP1 DIV PUSH20 0xFFFFFFFFFFFFFFFFFFFFFFFFFFFFFFFFFFFFFFFF AND PUSH20 0xFFFFFFFFFFFFFFFFFFFFFFFFFFFFFFFFFFFFFFFF AND PUSH20 0xFFFFFFFFFFFFFFFFFFFFFFFFFFFFFFFFFFFFFFFF AND DUP2 MSTORE PUSH1 0x20 ADD PUSH1 0x3 DUP3 ADD SLOAD DUP2 MSTORE PUSH1 0x20 ADD PUSH1 0x4 DUP3 ADD PUSH1 0x0 SWAP1 SLOAD SWAP1 PUSH2 0x100 EXP SWAP1 DIV PUSH1 0xFF AND ISZERO ISZERO ISZERO ISZERO DUP2 MSTORE PUSH1 0x20 ADD PUSH1 0x5 DUP3 ADD SLOAD DUP2 MSTORE POP POP SWAP1 POP DUP5 PUSH20 0xFFFFFFFFFFFFFFFFFFFFFFFFFFFFFFFFFFFFFFFF AND DUP2 PUSH1 0x20 ADD MLOAD PUSH20 0xFFFFFFFFFFFFFFFFFFFFFFFFFFFFFFFFFFFFFFFF AND EQ DUP1 PUSH2 0x44A JUMPI POP DUP5 PUSH20 0xFFFFFFFFFFFFFFFFFFFFFFFFFFFFFFFFFFFFFFFF AND DUP2 PUSH1 0x40 ADD MLOAD PUSH20 0xFFFFFFFFFFFFFFFFFFFFFFFFFFFFFFFFFFFFFFFF AND EQ JUMPDEST ISZERO PUSH2 0x45E JUMPI DUP3 DUP1 PUSH2 0x45A SWAP1 PUSH2 0x1C9F JUMP JUMPDEST SWAP4 POP POP JUMPDEST POP DUP1 DUP1 PUSH1 0x1 ADD SWAP2 POP POP PUSH2 0x2AB JUMP JUMPDEST POP PUSH1 0x0 DUP2 PUSH8 0xFFFFFFFFFFFFFFFF DUP2 GT ISZERO PUSH2 0x489 JUMPI PUSH2 0x488 PUSH2 0x1CE7 JUMP JUMPDEST JUMPDEST PUSH1 0x40 MLOAD SWAP1 DUP1 DUP3 MSTORE DUP1 PUSH1 0x20 MUL PUSH1 0x20 ADD DUP3 ADD PUSH1 0x40 MSTORE DUP1 ISZERO PUSH2 0x4C2 JUMPI DUP2 PUSH1 0x20 ADD JUMPDEST PUSH2 0x4AF PUSH2 0x1507 JUMP JUMPDEST DUP2 MSTORE PUSH1 0x20 ADD SWAP1 PUSH1 0x1 SWAP1 SUB SWAP1 DUP2 PUSH2 0x4A7 JUMPI SWAP1 POP JUMPDEST POP SWAP1 POP PUSH1 0x0 DUP1 JUMPDEST PUSH1 0x4 DUP1 SLOAD SWAP1 POP DUP2 LT ISZERO PUSH2 0x6A9 JUMPI PUSH1 0x0 PUSH1 0x2 PUSH1 0x0 PUSH1 0x4 DUP5 DUP2 SLOAD DUP2 LT PUSH2 0x4F0 JUMPI PUSH2 0x4EF PUSH2 0x1C41 JUMP JUMPDEST JUMPDEST SWAP1 PUSH1 0x0 MSTORE PUSH1 0x20 PUSH1 0x0 KECCAK256 ADD SLOAD DUP2 MSTORE PUSH1 0x20 ADD SWAP1 DUP2 MSTORE PUSH1 0x20 ADD PUSH1 0x0 KECCAK256 PUSH1 0x40 MLOAD DUP1 PUSH1 0xC0 ADD PUSH1 0x40 MSTORE SWAP1 DUP2 PUSH1 0x0 DUP3 ADD SLOAD DUP2 MSTORE PUSH1 0x20 ADD PUSH1 0x1 DUP3 ADD PUSH1 0x0 SWAP1 SLOAD SWAP1 PUSH2 0x100 EXP SWAP1 DIV PUSH20 0xFFFFFFFFFFFFFFFFFFFFFFFFFFFFFFFFFFFFFFFF AND PUSH20 0xFFFFFFFFFFFFFFFFFFFFFFFFFFFFFFFFFFFFFFFF AND PUSH20 0xFFFFFFFFFFFFFFFFFFFFFFFFFFFFFFFFFFFFFFFF AND DUP2 MSTORE PUSH1 0x20 ADD PUSH1 0x2 DUP3 ADD PUSH1 0x0 SWAP1 SLOAD SWAP1 PUSH2 0x100 EXP SWAP1 DIV PUSH20 0xFFFFFFFFFFFFFFFFFFFFFFFFFFFFFFFFFFFFFFFF AND PUSH20 0xFFFFFFFFFFFFFFFFFFFFFFFFFFFFFFFFFFFFFFFF AND PUSH20 0xFFFFFFFFFFFFFFFFFFFFFFFFFFFFFFFFFFFFFFFF AND DUP2 MSTORE PUSH1 0x20 ADD PUSH1 0x3 DUP3 ADD SLOAD DUP2 MSTORE PUSH1 0x20 ADD PUSH1 0x4 DUP3 ADD PUSH1 0x0 SWAP1 SLOAD SWAP1 PUSH2 0x100 EXP SWAP1 DIV PUSH1 0xFF AND ISZERO ISZERO ISZERO ISZERO DUP2 MSTORE PUSH1 0x20 ADD PUSH1 0x5 DUP3 ADD SLOAD DUP2 MSTORE POP POP SWAP1 POP DUP7 PUSH20 0xFFFFFFFFFFFFFFFFFFFFFFFFFFFFFFFFFFFFFFFF AND DUP2 PUSH1 0x20 ADD MLOAD PUSH20 0xFFFFFFFFFFFFFFFFFFFFFFFFFFFFFFFFFFFFFFFF AND EQ DUP1 PUSH2 0x668 JUMPI POP DUP7 PUSH20 0xFFFFFFFFFFFFFFFFFFFFFFFFFFFFFFFFFFFFFFFF AND DUP2 PUSH1 0x40 ADD MLOAD PUSH20 0xFFFFFFFFFFFFFFFFFFFFFFFFFFFFFFFFFFFFFFFF AND EQ JUMPDEST ISZERO PUSH2 0x69B JUMPI DUP1 DUP5 DUP5 DUP2 MLOAD DUP2 LT PUSH2 0x681 JUMPI PUSH2 0x680 PUSH2 0x1C41 JUMP JUMPDEST JUMPDEST PUSH1 0x20 MUL PUSH1 0x20 ADD ADD DUP2 SWAP1 MSTORE POP DUP3 DUP1 PUSH2 0x697 SWAP1 PUSH2 0x1C9F JUMP JUMPDEST SWAP4 POP POP JUMPDEST POP DUP1 DUP1 PUSH1 0x1 ADD SWAP2 POP POP PUSH2 0x4C9 JUMP JUMPDEST POP DUP2 SWAP4 POP POP POP POP SWAP2 SWAP1 POP JUMP JUMPDEST PUSH1 0x0 PUSH20 0xFFFFFFFFFFFFFFFFFFFFFFFFFFFFFFFFFFFFFFFF AND PUSH1 0x1 PUSH1 0x0 DUP5 DUP2 MSTORE PUSH1 0x20 ADD SWAP1 DUP2 MSTORE PUSH1 0x20 ADD PUSH1 0x0 KECCAK256 PUSH1 0x1 ADD PUSH1 0x0 SWAP1 SLOAD SWAP1 PUSH2 0x100 EXP SWAP1 DIV PUSH20 0xFFFFFFFFFFFFFFFFFFFFFFFFFFFFFFFFFFFFFFFF AND PUSH20 0xFFFFFFFFFFFFFFFFFFFFFFFFFFFFFFFFFFFFFFFF AND EQ PUSH2 0x75A JUMPI PUSH1 0x40 MLOAD PUSH32 0x8C379A000000000000000000000000000000000000000000000000000000000 DUP2 MSTORE PUSH1 0x4 ADD PUSH2 0x751 SWAP1 PUSH2 0x1D73 JUMP JUMPDEST PUSH1 0x40 MLOAD DUP1 SWAP2 SUB SWAP1 REVERT JUMPDEST PUSH1 0x40 MLOAD DUP1 PUSH1 0x80 ADD PUSH1 0x40 MSTORE DUP1 DUP4 DUP2 MSTORE PUSH1 0x20 ADD CALLER PUSH20 0xFFFFFFFFFFFFFFFFFFFFFFFFFFFFFFFFFFFFFFFF AND DUP2 MSTORE PUSH1 0x20 ADD DUP3 DUP2 MSTORE PUSH1 0x20 ADD PUSH1 0x1 ISZERO ISZERO DUP2 MSTORE POP PUSH1 0x1 PUSH1 0x0 DUP5 DUP2 MSTORE PUSH1 0x20 ADD SWAP1 DUP2 MSTORE PUSH1 0x20 ADD PUSH1 0x0 KECCAK256 PUSH1 0x0 DUP3 ADD MLOAD DUP2 PUSH1 0x0 ADD SSTORE PUSH1 0x20 DUP3 ADD MLOAD DUP2 PUSH1 0x1 ADD PUSH1 0x0 PUSH2 0x100 EXP DUP2 SLOAD DUP2 PUSH20 0xFFFFFFFFFFFFFFFFFFFFFFFFFFFFFFFFFFFFFFFF MUL NOT AND SWAP1 DUP4 PUSH20 0xFFFFFFFFFFFFFFFFFFFFFFFFFFFFFFFFFFFFFFFF AND MUL OR SWAP1 SSTORE POP PUSH1 0x40 DUP3 ADD MLOAD DUP2 PUSH1 0x2 ADD SSTORE PUSH1 0x60 DUP3 ADD MLOAD DUP2 PUSH1 0x3 ADD PUSH1 0x0 PUSH2 0x100 EXP DUP2 SLOAD DUP2 PUSH1 0xFF MUL NOT AND SWAP1 DUP4 ISZERO ISZERO MUL OR SWAP1 SSTORE POP SWAP1 POP POP PUSH1 0x3 DUP3 SWAP1 DUP1 PUSH1 0x1 DUP2 SLOAD ADD DUP1 DUP3 SSTORE DUP1 SWAP2 POP POP PUSH1 0x1 SWAP1 SUB SWAP1 PUSH1 0x0 MSTORE PUSH1 0x20 PUSH1 0x0 KECCAK256 ADD PUSH1 0x0 SWAP1 SWAP2 SWAP1 SWAP2 SWAP1 SWAP2 POP SSTORE CALLER PUSH20 0xFFFFFFFFFFFFFFFFFFFFFFFFFFFFFFFFFFFFFFFF AND DUP3 PUSH32 0x885AEA068DFC8D64B3DA0C1131D16D6E26947C043FB441C446DE14A01087540D DUP4 PUSH1 0x40 MLOAD PUSH2 0x895 SWAP2 SWAP1 PUSH2 0x1D93 JUMP JUMPDEST PUSH1 0x40 MLOAD DUP1 SWAP2 SUB SWAP1 LOG3 POP POP JUMP JUMPDEST PUSH1 0x0 PUSH1 0x2 PUSH1 0x0 DUP4 DUP2 MSTORE PUSH1 0x20 ADD SWAP1 DUP2 MSTORE PUSH1 0x20 ADD PUSH1 0x0 KECCAK256 SWAP1 POP DUP1 PUSH1 0x4 ADD PUSH1 0x0 SWAP1 SLOAD SWAP1 PUSH2 0x100 EXP SWAP1 DIV PUSH1 0xFF AND ISZERO PUSH2 0x90A JUMPI PUSH1 0x40 MLOAD PUSH32 0x8C379A000000000000000000000000000000000000000000000000000000000 DUP2 MSTORE PUSH1 0x4 ADD PUSH2 0x901 SWAP1 PUSH2 0x1DFA JUMP JUMPDEST PUSH1 0x40 MLOAD DUP1 SWAP2 SUB SWAP1 REVERT JUMPDEST DUP1 PUSH1 0x3 ADD SLOAD CALLVALUE LT ISZERO PUSH2 0x951 JUMPI PUSH1 0x40 MLOAD PUSH32 0x8C379A000000000000000000000000000000000000000000000000000000000 DUP2 MSTORE PUSH1 0x4 ADD PUSH2 0x948 SWAP1 PUSH2 0x1E66 JUMP JUMPDEST PUSH1 0x40 MLOAD DUP1 SWAP2 SUB SWAP1 REVERT JUMPDEST CALLER PUSH20 0xFFFFFFFFFFFFFFFFFFFFFFFFFFFFFFFFFFFFFFFF AND DUP2 PUSH1 0x1 ADD PUSH1 0x0 SWAP1 SLOAD SWAP1 PUSH2 0x100 EXP SWAP1 DIV PUSH20 0xFFFFFFFFFFFFFFFFFFFFFFFFFFFFFFFFFFFFFFFF AND PUSH20 0xFFFFFFFFFFFFFFFFFFFFFFFFFFFFFFFFFFFFFFFF AND EQ PUSH2 0x9E3 JUMPI PUSH1 0x40 MLOAD PUSH32 0x8C379A000000000000000000000000000000000000000000000000000000000 DUP2 MSTORE PUSH1 0x4 ADD PUSH2 0x9DA SWAP1 PUSH2 0x1ED2 JUMP JUMPDEST PUSH1 0x40 MLOAD DUP1 SWAP2 SUB SWAP1 REVERT JUMPDEST PUSH1 0x0 PUSH1 0x1 PUSH1 0x0 DUP4 PUSH1 0x0 ADD SLOAD DUP2 MSTORE PUSH1 0x20 ADD SWAP1 DUP2 MSTORE PUSH1 0x20 ADD PUSH1 0x0 KECCAK256 SWAP1 POP DUP1 PUSH1 0x3 ADD PUSH1 0x0 SWAP1 SLOAD SWAP1 PUSH2 0x100 EXP SWAP1 DIV PUSH1 0xFF AND PUSH2 0xA4F JUMPI PUSH1 0x40 MLOAD PUSH32 0x8C379A000000000000000000000000000000000000000000000000000000000 DUP2 MSTORE PUSH1 0x4 ADD PUSH2 0xA46 SWAP1 PUSH2 0x1F3E JUMP JUMPDEST PUSH1 0x40 MLOAD DUP1 SWAP2 SUB SWAP1 REVERT JUMPDEST DUP2 PUSH1 0x2 ADD PUSH1 0x0 SWAP1 SLOAD SWAP1 PUSH2 0x100 EXP SWAP1 DIV PUSH20 0xFFFFFFFFFFFFFFFFFFFFFFFFFFFFFFFFFFFFFFFF AND PUSH20 0xFFFFFFFFFFFFFFFFFFFFFFFFFFFFFFFFFFFFFFFF AND PUSH2 0x8FC DUP4 PUSH1 0x3 ADD SLOAD SWAP1 DUP2 ISZERO MUL SWAP1 PUSH1 0x40 MLOAD PUSH1 0x0 PUSH1 0x40 MLOAD DUP1 DUP4 SUB DUP2 DUP6 DUP9 DUP9 CALL SWAP4 POP POP POP POP ISZERO DUP1 ISZERO PUSH2 0xABD JUMPI RETURNDATASIZE PUSH1 0x0 DUP1 RETURNDATACOPY RETURNDATASIZE PUSH1 0x0 REVERT JUMPDEST POP DUP2 PUSH1 0x1 ADD PUSH1 0x0 SWAP1 SLOAD SWAP1 PUSH2 0x100 EXP SWAP1 DIV PUSH20 0xFFFFFFFFFFFFFFFFFFFFFFFFFFFFFFFFFFFFFFFF AND DUP2 PUSH1 0x1 ADD PUSH1 0x0 PUSH2 0x100 EXP DUP2 SLOAD DUP2 PUSH20 0xFFFFFFFFFFFFFFFFFFFFFFFFFFFFFFFFFFFFFFFF MUL NOT AND SWAP1 DUP4 PUSH20 0xFFFFFFFFFFFFFFFFFFFFFFFFFFFFFFFFFFFFFFFF AND MUL OR SWAP1 SSTORE POP PUSH1 0x0 DUP2 PUSH1 0x3 ADD PUSH1 0x0 PUSH2 0x100 EXP DUP2 SLOAD DUP2 PUSH1 0xFF MUL NOT AND SWAP1 DUP4 ISZERO ISZERO MUL OR SWAP1 SSTORE POP PUSH1 0x1 DUP3 PUSH1 0x4 ADD PUSH1 0x0 PUSH2 0x100 EXP DUP2 SLOAD DUP2 PUSH1 0xFF MUL NOT AND SWAP1 DUP4 ISZERO ISZERO MUL OR SWAP1 SSTORE POP DUP2 PUSH1 0x2 ADD PUSH1 0x0 SWAP1 SLOAD SWAP1 PUSH2 0x100 EXP SWAP1 DIV PUSH20 0xFFFFFFFFFFFFFFFFFFFFFFFFFFFFFFFFFFFFFFFF AND PUSH20 0xFFFFFFFFFFFFFFFFFFFFFFFFFFFFFFFFFFFFFFFF AND DUP3 PUSH1 0x1 ADD PUSH1 0x0 SWAP1 SLOAD SWAP1 PUSH2 0x100 EXP SWAP1 DIV PUSH20 0xFFFFFFFFFFFFFFFFFFFFFFFFFFFFFFFFFFFFFFFF AND PUSH20 0xFFFFFFFFFFFFFFFFFFFFFFFFFFFFFFFFFFFFFFFF AND DUP4 PUSH1 0x0 ADD SLOAD PUSH32 0x37A13DCF7266FE3681E46CA252EA4F79E8A76DA88AE9446F99242FBC014A6C39 DUP6 PUSH1 0x3 ADD SLOAD PUSH1 0x40 MLOAD PUSH2 0xC0D SWAP2 SWAP1 PUSH2 0x1D93 JUMP JUMPDEST PUSH1 0x40 MLOAD DUP1 SWAP2 SUB SWAP1 LOG4 POP POP POP JUMP JUMPDEST PUSH2 0xC22 PUSH2 0x1507 JUMP JUMPDEST PUSH1 0x2 PUSH1 0x0 DUP4 DUP2 MSTORE PUSH1 0x20 ADD SWAP1 DUP2 MSTORE PUSH1 0x20 ADD PUSH1 0x0 KECCAK256 PUSH1 0x40 MLOAD DUP1 PUSH1 0xC0 ADD PUSH1 0x40 MSTORE SWAP1 DUP2 PUSH1 0x0 DUP3 ADD SLOAD DUP2 MSTORE PUSH1 0x20 ADD PUSH1 0x1 DUP3 ADD PUSH1 0x0 SWAP1 SLOAD SWAP1 PUSH2 0x100 EXP SWAP1 DIV PUSH20 0xFFFFFFFFFFFFFFFFFFFFFFFFFFFFFFFFFFFFFFFF AND PUSH20 0xFFFFFFFFFFFFFFFFFFFFFFFFFFFFFFFFFFFFFFFF AND PUSH20 0xFFFFFFFFFFFFFFFFFFFFFFFFFFFFFFFFFFFFFFFF AND DUP2 MSTORE PUSH1 0x20 ADD PUSH1 0x2 DUP3 ADD PUSH1 0x0 SWAP1 SLOAD SWAP1 PUSH2 0x100 EXP SWAP1 DIV PUSH20 0xFFFFFFFFFFFFFFFFFFFFFFFFFFFFFFFFFFFFFFFF AND PUSH20 0xFFFFFFFFFFFFFFFFFFFFFFFFFFFFFFFFFFFFFFFF AND PUSH20 0xFFFFFFFFFFFFFFFFFFFFFFFFFFFFFFFFFFFFFFFF AND DUP2 MSTORE PUSH1 0x20 ADD PUSH1 0x3 DUP3 ADD SLOAD DUP2 MSTORE PUSH1 0x20 ADD PUSH1 0x4 DUP3 ADD PUSH1 0x0 SWAP1 SLOAD SWAP1 PUSH2 0x100 EXP SWAP1 DIV PUSH1 0xFF AND ISZERO ISZERO ISZERO ISZERO DUP2 MSTORE PUSH1 0x20 ADD PUSH1 0x5 DUP3 ADD SLOAD DUP2 MSTORE POP POP SWAP1 POP SWAP2 SWAP1 POP JUMP JUMPDEST PUSH1 0x1 PUSH1 0x20 MSTORE DUP1 PUSH1 0x0 MSTORE PUSH1 0x40 PUSH1 0x0 KECCAK256 PUSH1 0x0 SWAP2 POP SWAP1 POP DUP1 PUSH1 0x0 ADD SLOAD SWAP1 DUP1 PUSH1 0x1 ADD PUSH1 0x0 SWAP1 SLOAD SWAP1 PUSH2 0x100 EXP SWAP1 DIV PUSH20 0xFFFFFFFFFFFFFFFFFFFFFFFFFFFFFFFFFFFFFFFF AND SWAP1 DUP1 PUSH1 0x2 ADD SLOAD SWAP1 DUP1 PUSH1 0x3 ADD PUSH1 0x0 SWAP1 SLOAD SWAP1 PUSH2 0x100 EXP SWAP1 DIV PUSH1 0xFF AND SWAP1 POP DUP5 JUMP JUMPDEST PUSH1 0x2 PUSH1 0x20 MSTORE DUP1 PUSH1 0x0 MSTORE PUSH1 0x40 PUSH1 0x0 KECCAK256 PUSH1 0x0 SWAP2 POP SWAP1 POP DUP1 PUSH1 0x0 ADD SLOAD SWAP1 DUP1 PUSH1 0x1 ADD PUSH1 0x0 SWAP1 SLOAD SWAP1 PUSH2 0x100 EXP SWAP1 DIV PUSH20 0xFFFFFFFFFFFFFFFFFFFFFFFFFFFFFFFFFFFFFFFF AND SWAP1 DUP1 PUSH1 0x2 ADD PUSH1 0x0 SWAP1 SLOAD SWAP1 PUSH2 0x100 EXP SWAP1 DIV PUSH20 0xFFFFFFFFFFFFFFFFFFFFFFFFFFFFFFFFFFFFFFFF AND SWAP1 DUP1 PUSH1 0x3 ADD SLOAD SWAP1 DUP1 PUSH1 0x4 ADD PUSH1 0x0 SWAP1 SLOAD SWAP1 PUSH2 0x100 EXP SWAP1 DIV PUSH1 0xFF AND SWAP1 DUP1 PUSH1 0x5 ADD SLOAD SWAP1 POP DUP7 JUMP JUMPDEST PUSH1 0x0 PUSH1 0x1 PUSH1 0x0 DUP5 DUP2 MSTORE PUSH1 0x20 ADD SWAP1 DUP2 MSTORE PUSH1 0x20 ADD PUSH1 0x0 KECCAK256 PUSH1 0x40 MLOAD DUP1 PUSH1 0x80 ADD PUSH1 0x40 MSTORE SWAP1 DUP2 PUSH1 0x0 DUP3 ADD SLOAD DUP2 MSTORE PUSH1 0x20 ADD PUSH1 0x1 DUP3 ADD PUSH1 0x0 SWAP1 SLOAD SWAP1 PUSH2 0x100 EXP SWAP1 DIV PUSH20 0xFFFFFFFFFFFFFFFFFFFFFFFFFFFFFFFFFFFFFFFF AND PUSH20 0xFFFFFFFFFFFFFFFFFFFFFFFFFFFFFFFFFFFFFFFF AND PUSH20 0xFFFFFFFFFFFFFFFFFFFFFFFFFFFFFFFFFFFFFFFF AND DUP2 MSTORE PUSH1 0x20 ADD PUSH1 0x2 DUP3 ADD SLOAD DUP2 MSTORE PUSH1 0x20 ADD PUSH1 0x3 DUP3 ADD PUSH1 0x0 SWAP1 SLOAD SWAP1 PUSH2 0x100 EXP SWAP1 DIV PUSH1 0xFF AND ISZERO ISZERO ISZERO ISZERO DUP2 MSTORE POP POP SWAP1 POP DUP1 PUSH1 0x60 ADD MLOAD PUSH2 0xEFD JUMPI PUSH1 0x40 MLOAD PUSH32 0x8C379A000000000000000000000000000000000000000000000000000000000 DUP2 MSTORE PUSH1 0x4 ADD PUSH2 0xEF4 SWAP1 PUSH2 0x1FAA JUMP JUMPDEST PUSH1 0x40 MLOAD DUP1 SWAP2 SUB SWAP1 REVERT JUMPDEST CALLER PUSH20 0xFFFFFFFFFFFFFFFFFFFFFFFFFFFFFFFFFFFFFFFF AND DUP2 PUSH1 0x20 ADD MLOAD PUSH20 0xFFFFFFFFFFFFFFFFFFFFFFFFFFFFFFFFFFFFFFFF AND SUB PUSH2 0xF6F JUMPI PUSH1 0x40 MLOAD PUSH32 0x8C379A000000000000000000000000000000000000000000000000000000000 DUP2 MSTORE PUSH1 0x4 ADD PUSH2 0xF66 SWAP1 PUSH2 0x2016 JUMP JUMPDEST PUSH1 0x40 MLOAD DUP1 SWAP2 SUB SWAP1 REVERT JUMPDEST PUSH1 0x0 DUP4 DUP4 CALLER DUP5 PUSH1 0x40 ADD MLOAD TIMESTAMP PUSH1 0x40 MLOAD PUSH1 0x20 ADD PUSH2 0xF8E SWAP6 SWAP5 SWAP4 SWAP3 SWAP2 SWAP1 PUSH2 0x209F JUMP JUMPDEST PUSH1 0x40 MLOAD PUSH1 0x20 DUP2 DUP4 SUB SUB DUP2 MSTORE SWAP1 PUSH1 0x40 MSTORE DUP1 MLOAD SWAP1 PUSH1 0x20 ADD KECCAK256 SWAP1 POP PUSH1 0x40 MLOAD DUP1 PUSH1 0xC0 ADD PUSH1 0x40 MSTORE DUP1 DUP6 DUP2 MSTORE PUSH1 0x20 ADD DUP5 PUSH20 0xFFFFFFFFFFFFFFFFFFFFFFFFFFFFFFFFFFFFFFFF AND DUP2 MSTORE PUSH1 0x20 ADD CALLER PUSH20 0xFFFFFFFFFFFFFFFFFFFFFFFFFFFFFFFFFFFFFFFF AND DUP2 MSTORE PUSH1 0x20 ADD DUP4 PUSH1 0x40 ADD MLOAD DUP2 MSTORE PUSH1 0x20 ADD PUSH1 0x0 ISZERO ISZERO DUP2 MSTORE PUSH1 0x20 ADD DUP3 DUP2 MSTORE POP PUSH1 0x2 PUSH1 0x0 DUP4 DUP2 MSTORE PUSH1 0x20 ADD SWAP1 DUP2 MSTORE PUSH1 0x20 ADD PUSH1 0x0 KECCAK256 PUSH1 0x0 DUP3 ADD MLOAD DUP2 PUSH1 0x0 ADD SSTORE PUSH1 0x20 DUP3 ADD MLOAD DUP2 PUSH1 0x1 ADD PUSH1 0x0 PUSH2 0x100 EXP DUP2 SLOAD DUP2 PUSH20 0xFFFFFFFFFFFFFFFFFFFFFFFFFFFFFFFFFFFFFFFF MUL NOT AND SWAP1 DUP4 PUSH20 0xFFFFFFFFFFFFFFFFFFFFFFFFFFFFFFFFFFFFFFFF AND MUL OR SWAP1 SSTORE POP PUSH1 0x40 DUP3 ADD MLOAD DUP2 PUSH1 0x2 ADD PUSH1 0x0 PUSH2 0x100 EXP DUP2 SLOAD DUP2 PUSH20 0xFFFFFFFFFFFFFFFFFFFFFFFFFFFFFFFFFFFFFFFF MUL NOT AND SWAP1 DUP4 PUSH20 0xFFFFFFFFFFFFFFFFFFFFFFFFFFFFFFFFFFFFFFFF AND MUL OR SWAP1 SSTORE POP PUSH1 0x60 DUP3 ADD MLOAD DUP2 PUSH1 0x3 ADD SSTORE PUSH1 0x80 DUP3 ADD MLOAD DUP2 PUSH1 0x4 ADD PUSH1 0x0 PUSH2 0x100 EXP DUP2 SLOAD DUP2 PUSH1 0xFF MUL NOT AND SWAP1 DUP4 ISZERO ISZERO MUL OR SWAP1 SSTORE POP PUSH1 0xA0 DUP3 ADD MLOAD DUP2 PUSH1 0x5 ADD SSTORE SWAP1 POP POP PUSH1 0x4 DUP2 SWAP1 DUP1 PUSH1 0x1 DUP2 SLOAD ADD DUP1 DUP3 SSTORE DUP1 SWAP2 POP POP PUSH1 0x1 SWAP1 SUB SWAP1 PUSH1 0x0 MSTORE PUSH1 0x20 PUSH1 0x0 KECCAK256 ADD PUSH1 0x0 SWAP1 SWAP2 SWAP1 SWAP2 SWAP1 SWAP2 POP SSTORE CALLER PUSH20 0xFFFFFFFFFFFFFFFFFFFFFFFFFFFFFFFFFFFFFFFF AND DUP4 PUSH20 0xFFFFFFFFFFFFFFFFFFFFFFFFFFFFFFFFFFFFFFFF AND DUP6 PUSH32 0x134A388716B167DAE2534CA04765E55A86D3E6E1181931C2D9524F94DA09C83B DUP6 PUSH1 0x40 ADD MLOAD DUP6 PUSH1 0x40 MLOAD PUSH2 0x1175 SWAP3 SWAP2 SWAP1 PUSH2 0x20FE JUMP JUMPDEST PUSH1 0x40 MLOAD DUP1 SWAP2 SUB SWAP1 LOG4 POP POP POP POP JUMP JUMPDEST PUSH2 0x118B PUSH2 0x156E JUMP JUMPDEST PUSH1 0x1 PUSH1 0x0 DUP4 DUP2 MSTORE PUSH1 0x20 ADD SWAP1 DUP2 MSTORE PUSH1 0x20 ADD PUSH1 0x0 KECCAK256 PUSH1 0x40 MLOAD DUP1 PUSH1 0x80 ADD PUSH1 0x40 MSTORE SWAP1 DUP2 PUSH1 0x0 DUP3 ADD SLOAD DUP2 MSTORE PUSH1 0x20 ADD PUSH1 0x1 DUP3 ADD PUSH1 0x0 SWAP1 SLOAD SWAP1 PUSH2 0x100 EXP SWAP1 DIV PUSH20 0xFFFFFFFFFFFFFFFFFFFFFFFFFFFFFFFFFFFFFFFF AND PUSH20 0xFFFFFFFFFFFFFFFFFFFFFFFFFFFFFFFFFFFFFFFF AND PUSH20 0xFFFFFFFFFFFFFFFFFFFFFFFFFFFFFFFFFFFFFFFF AND DUP2 MSTORE PUSH1 0x20 ADD PUSH1 0x2 DUP3 ADD SLOAD DUP2 MSTORE PUSH1 0x20 ADD PUSH1 0x3 DUP3 ADD PUSH1 0x0 SWAP1 SLOAD SWAP1 PUSH2 0x100 EXP SWAP1 DIV PUSH1 0xFF AND ISZERO ISZERO ISZERO ISZERO DUP2 MSTORE POP POP SWAP1 POP SWAP2 SWAP1 POP JUMP JUMPDEST PUSH1 0x60 PUSH1 0x0 DUP1 JUMPDEST PUSH1 0x3 DUP1 SLOAD SWAP1 POP DUP2 LT ISZERO PUSH2 0x12EB JUMPI DUP4 PUSH20 0xFFFFFFFFFFFFFFFFFFFFFFFFFFFFFFFFFFFFFFFF AND PUSH1 0x1 PUSH1 0x0 PUSH1 0x3 DUP5 DUP2 SLOAD DUP2 LT PUSH2 0x1277 JUMPI PUSH2 0x1276 PUSH2 0x1C41 JUMP JUMPDEST JUMPDEST SWAP1 PUSH1 0x0 MSTORE PUSH1 0x20 PUSH1 0x0 KECCAK256 ADD SLOAD DUP2 MSTORE PUSH1 0x20 ADD SWAP1 DUP2 MSTORE PUSH1 0x20 ADD PUSH1 0x0 KECCAK256 PUSH1 0x1 ADD PUSH1 0x0 SWAP1 SLOAD SWAP1 PUSH2 0x100 EXP SWAP1 DIV PUSH20 0xFFFFFFFFFFFFFFFFFFFFFFFFFFFFFFFFFFFFFFFF AND PUSH20 0xFFFFFFFFFFFFFFFFFFFFFFFFFFFFFFFFFFFFFFFF AND SUB PUSH2 0x12DE JUMPI DUP2 DUP1 PUSH2 0x12DA SWAP1 PUSH2 0x1C9F JUMP JUMPDEST SWAP3 POP POP JUMPDEST DUP1 DUP1 PUSH1 0x1 ADD SWAP2 POP POP PUSH2 0x123B JUMP JUMPDEST POP PUSH1 0x0 DUP2 PUSH8 0xFFFFFFFFFFFFFFFF DUP2 GT ISZERO PUSH2 0x1308 JUMPI PUSH2 0x1307 PUSH2 0x1CE7 JUMP JUMPDEST JUMPDEST PUSH1 0x40 MLOAD SWAP1 DUP1 DUP3 MSTORE DUP1 PUSH1 0x20 MUL PUSH1 0x20 ADD DUP3 ADD PUSH1 0x40 MSTORE DUP1 ISZERO PUSH2 0x1341 JUMPI DUP2 PUSH1 0x20 ADD JUMPDEST PUSH2 0x132E PUSH2 0x156E JUMP JUMPDEST DUP2 MSTORE PUSH1 0x20 ADD SWAP1 PUSH1 0x1 SWAP1 SUB SWAP1 DUP2 PUSH2 0x1326 JUMPI SWAP1 POP JUMPDEST POP SWAP1 POP PUSH1 0x0 DUP1 JUMPDEST PUSH1 0x3 DUP1 SLOAD SWAP1 POP DUP2 LT ISZERO PUSH2 0x14D7 JUMPI DUP6 PUSH20 0xFFFFFFFFFFFFFFFFFFFFFFFFFFFFFFFFFFFFFFFF AND PUSH1 0x1 PUSH1 0x0 PUSH1 0x3 DUP5 DUP2 SLOAD DUP2 LT PUSH2 0x1384 JUMPI PUSH2 0x1383 PUSH2 0x1C41 JUMP JUMPDEST JUMPDEST SWAP1 PUSH1 0x0 MSTORE PUSH1 0x20 PUSH1 0x0 KECCAK256 ADD SLOAD DUP2 MSTORE PUSH1 0x20 ADD SWAP1 DUP2 MSTORE PUSH1 0x20 ADD PUSH1 0x0 KECCAK256 PUSH1 0x1 ADD PUSH1 0x0 SWAP1 SLOAD SWAP1 PUSH2 0x100 EXP SWAP1 DIV PUSH20 0xFFFFFFFFFFFFFFFFFFFFFFFFFFFFFFFFFFFFFFFF AND PUSH20 0xFFFFFFFFFFFFFFFFFFFFFFFFFFFFFFFFFFFFFFFF AND SUB PUSH2 0x14CA JUMPI PUSH1 0x1 PUSH1 0x0 PUSH1 0x3 DUP4 DUP2 SLOAD DUP2 LT PUSH2 0x13F4 JUMPI PUSH2 0x13F3 PUSH2 0x1C41 JUMP JUMPDEST JUMPDEST SWAP1 PUSH1 0x0 MSTORE PUSH1 0x20 PUSH1 0x0 KECCAK256 ADD SLOAD DUP2 MSTORE PUSH1 0x20 ADD SWAP1 DUP2 MSTORE PUSH1 0x20 ADD PUSH1 0x0 KECCAK256 PUSH1 0x40 MLOAD DUP1 PUSH1 0x80 ADD PUSH1 0x40 MSTORE SWAP1 DUP2 PUSH1 0x0 DUP3 ADD SLOAD DUP2 MSTORE PUSH1 0x20 ADD PUSH1 0x1 DUP3 ADD PUSH1 0x0 SWAP1 SLOAD SWAP1 PUSH2 0x100 EXP SWAP1 DIV PUSH20 0xFFFFFFFFFFFFFFFFFFFFFFFFFFFFFFFFFFFFFFFF AND PUSH20 0xFFFFFFFFFFFFFFFFFFFFFFFFFFFFFFFFFFFFFFFF AND PUSH20 0xFFFFFFFFFFFFFFFFFFFFFFFFFFFFFFFFFFFFFFFF AND DUP2 MSTORE PUSH1 0x20 ADD PUSH1 0x2 DUP3 ADD SLOAD DUP2 MSTORE PUSH1 0x20 ADD PUSH1 0x3 DUP3 ADD PUSH1 0x0 SWAP1 SLOAD SWAP1 PUSH2 0x100 EXP SWAP1 DIV PUSH1 0xFF AND ISZERO ISZERO ISZERO ISZERO DUP2 MSTORE POP POP DUP4 DUP4 DUP2 MLOAD DUP2 LT PUSH2 0x14B0 JUMPI PUSH2 0x14AF PUSH2 0x1C41 JUMP JUMPDEST JUMPDEST PUSH1 0x20 MUL PUSH1 0x20 ADD ADD DUP2 SWAP1 MSTORE POP DUP2 DUP1 PUSH2 0x14C6 SWAP1 PUSH2 0x1C9F JUMP JUMPDEST SWAP3 POP POP JUMPDEST DUP1 DUP1 PUSH1 0x1 ADD SWAP2 POP POP PUSH2 0x1348 JUMP JUMPDEST POP DUP2 SWAP4 POP POP POP POP SWAP2 SWAP1 POP JUMP JUMPDEST PUSH1 0x0 DUP1 SLOAD SWAP1 PUSH2 0x100 EXP SWAP1 DIV PUSH20 0xFFFFFFFFFFFFFFFFFFFFFFFFFFFFFFFFFFFFFFFF AND DUP2 JUMP JUMPDEST PUSH1 0x40 MLOAD DUP1 PUSH1 0xC0 ADD PUSH1 0x40 MSTORE DUP1 PUSH1 0x0 DUP2 MSTORE PUSH1 0x20 ADD PUSH1 0x0 PUSH20 0xFFFFFFFFFFFFFFFFFFFFFFFFFFFFFFFFFFFFFFFF AND DUP2 MSTORE PUSH1 0x20 ADD PUSH1 0x0 PUSH20 0xFFFFFFFFFFFFFFFFFFFFFFFFFFFFFFFFFFFFFFFF AND DUP2 MSTORE PUSH1 0x20 ADD PUSH1 0x0 DUP2 MSTORE PUSH1 0x20 ADD PUSH1 0x0 ISZERO ISZERO DUP2 MSTORE PUSH1 0x20 ADD PUSH1 0x0 DUP1 NOT AND DUP2 MSTORE POP SWAP1 JUMP JUMPDEST PUSH1 0x40 MLOAD DUP1 PUSH1 0x80 ADD PUSH1 0x40 MSTORE DUP1 PUSH1 0x0 DUP2 MSTORE PUSH1 0x20 ADD PUSH1 0x0 PUSH20 0xFFFFFFFFFFFFFFFFFFFFFFFFFFFFFFFFFFFFFFFF AND DUP2 MSTORE PUSH1 0x20 ADD PUSH1 0x0 DUP2 MSTORE PUSH1 0x20 ADD PUSH1 0x0 ISZERO ISZERO DUP2 MSTORE POP SWAP1 JUMP JUMPDEST PUSH1 0x0 DUP1 REVERT JUMPDEST PUSH1 0x0 PUSH20 0xFFFFFFFFFFFFFFFFFFFFFFFFFFFFFFFFFFFFFFFF DUP3 AND SWAP1 POP SWAP2 SWAP1 POP JUMP JUMPDEST PUSH1 0x0 PUSH2 0x15DE DUP3 PUSH2 0x15B3 JUMP JUMPDEST SWAP1 POP SWAP2 SWAP1 POP JUMP JUMPDEST PUSH2 0x15EE DUP2 PUSH2 0x15D3 JUMP JUMPDEST DUP2 EQ PUSH2 0x15F9 JUMPI PUSH1 0x0 DUP1 REVERT JUMPDEST POP JUMP JUMPDEST PUSH1 0x0 DUP2 CALLDATALOAD SWAP1 POP PUSH2 0x160B DUP2 PUSH2 0x15E5 JUMP JUMPDEST SWAP3 SWAP2 POP POP JUMP JUMPDEST PUSH1 0x0 PUSH1 0x20 DUP3 DUP5 SUB SLT ISZERO PUSH2 0x1627 JUMPI PUSH2 0x1626 PUSH2 0x15AE JUMP JUMPDEST JUMPDEST PUSH1 0x0 PUSH2 0x1635 DUP5 DUP3 DUP6 ADD PUSH2 0x15FC JUMP JUMPDEST SWAP2 POP POP SWAP3 SWAP2 POP POP JUMP JUMPDEST PUSH1 0x0 DUP2 MLOAD SWAP1 POP SWAP2 SWAP1 POP JUMP JUMPDEST PUSH1 0x0 DUP3 DUP3 MSTORE PUSH1 0x20 DUP3 ADD SWAP1 POP SWAP3 SWAP2 POP POP JUMP JUMPDEST PUSH1 0x0 DUP2 SWAP1 POP PUSH1 0x20 DUP3 ADD SWAP1 POP SWAP2 SWAP1 POP JUMP JUMPDEST PUSH1 0x0 DUP2 SWAP1 POP SWAP2 SWAP1 POP JUMP JUMPDEST PUSH2 0x167D DUP2 PUSH2 0x166A JUMP JUMPDEST DUP3 MSTORE POP POP JUMP JUMPDEST PUSH2 0x168C DUP2 PUSH2 0x15D3 JUMP JUMPDEST DUP3 MSTORE POP POP JUMP JUMPDEST PUSH1 0x0 DUP2 ISZERO ISZERO SWAP1 POP SWAP2 SWAP1 POP JUMP JUMPDEST PUSH2 0x16A7 DUP2 PUSH2 0x1692 JUMP JUMPDEST DUP3 MSTORE POP POP JUMP JUMPDEST PUSH1 0x0 DUP2 SWAP1 POP SWAP2 SWAP1 POP JUMP JUMPDEST PUSH2 0x16C0 DUP2 PUSH2 0x16AD JUMP JUMPDEST DUP3 MSTORE POP POP JUMP JUMPDEST PUSH1 0xC0 DUP3 ADD PUSH1 0x0 DUP3 ADD MLOAD PUSH2 0x16DC PUSH1 0x0 DUP6 ADD DUP3 PUSH2 0x1674 JUMP JUMPDEST POP PUSH1 0x20 DUP3 ADD MLOAD PUSH2 0x16EF PUSH1 0x20 DUP6 ADD DUP3 PUSH2 0x1683 JUMP JUMPDEST POP PUSH1 0x40 DUP3 ADD MLOAD PUSH2 0x1702 PUSH1 0x40 DUP6 ADD DUP3 PUSH2 0x1683 JUMP JUMPDEST POP PUSH1 0x60 DUP3 ADD MLOAD PUSH2 0x1715 PUSH1 0x60 DUP6 ADD DUP3 PUSH2 0x1674 JUMP JUMPDEST POP PUSH1 0x80 DUP3 ADD MLOAD PUSH2 0x1728 PUSH1 0x80 DUP6 ADD DUP3 PUSH2 0x169E JUMP JUMPDEST POP PUSH1 0xA0 DUP3 ADD MLOAD PUSH2 0x173B PUSH1 0xA0 DUP6 ADD DUP3 PUSH2 0x16B7 JUMP JUMPDEST POP POP POP POP JUMP JUMPDEST PUSH1 0x0 PUSH2 0x174D DUP4 DUP4 PUSH2 0x16C6 JUMP JUMPDEST PUSH1 0xC0 DUP4 ADD SWAP1 POP SWAP3 SWAP2 POP POP JUMP JUMPDEST PUSH1 0x0 PUSH1 0x20 DUP3 ADD SWAP1 POP SWAP2 SWAP1 POP JUMP JUMPDEST PUSH1 0x0 PUSH2 0x1771 DUP3 PUSH2 0x163E JUMP JUMPDEST PUSH2 0x177B DUP2 DUP6 PUSH2 0x1649 JUMP JUMPDEST SWAP4 POP PUSH2 0x1786 DUP4 PUSH2 0x165A JUMP JUMPDEST DUP1 PUSH1 0x0 JUMPDEST DUP4 DUP2 LT ISZERO PUSH2 0x17B7 JUMPI DUP2 MLOAD PUSH2 0x179E DUP9 DUP3 PUSH2 0x1741 JUMP JUMPDEST SWAP8 POP PUSH2 0x17A9 DUP4 PUSH2 0x1759 JUMP JUMPDEST SWAP3 POP POP PUSH1 0x1 DUP2 ADD SWAP1 POP PUSH2 0x178A JUMP JUMPDEST POP DUP6 SWAP4 POP POP POP POP SWAP3 SWAP2 POP POP JUMP JUMPDEST PUSH1 0x0 PUSH1 0x20 DUP3 ADD SWAP1 POP DUP2 DUP2 SUB PUSH1 0x0 DUP4 ADD MSTORE PUSH2 0x17DE DUP2 DUP5 PUSH2 0x1766 JUMP JUMPDEST SWAP1 POP SWAP3 SWAP2 POP POP JUMP JUMPDEST PUSH2 0x17EF DUP2 PUSH2 0x166A JUMP JUMPDEST DUP2 EQ PUSH2 0x17FA JUMPI PUSH1 0x0 DUP1 REVERT JUMPDEST POP JUMP JUMPDEST PUSH1 0x0 DUP2 CALLDATALOAD SWAP1 POP PUSH2 0x180C DUP2 PUSH2 0x17E6 JUMP JUMPDEST SWAP3 SWAP2 POP POP JUMP JUMPDEST PUSH1 0x0 DUP1 PUSH1 0x40 DUP4 DUP6 SUB SLT ISZERO PUSH2 0x1829 JUMPI PUSH2 0x1828 PUSH2 0x15AE JUMP JUMPDEST JUMPDEST PUSH1 0x0 PUSH2 0x1837 DUP6 DUP3 DUP7 ADD PUSH2 0x17FD JUMP JUMPDEST SWAP3 POP POP PUSH1 0x20 PUSH2 0x1848 DUP6 DUP3 DUP7 ADD PUSH2 0x17FD JUMP JUMPDEST SWAP2 POP POP SWAP3 POP SWAP3 SWAP1 POP JUMP JUMPDEST PUSH2 0x185B DUP2 PUSH2 0x16AD JUMP JUMPDEST DUP2 EQ PUSH2 0x1866 JUMPI PUSH1 0x0 DUP1 REVERT JUMPDEST POP JUMP JUMPDEST PUSH1 0x0 DUP2 CALLDATALOAD SWAP1 POP PUSH2 0x1878 DUP2 PUSH2 0x1852 JUMP JUMPDEST SWAP3 SWAP2 POP POP JUMP JUMPDEST PUSH1 0x0 PUSH1 0x20 DUP3 DUP5 SUB SLT ISZERO PUSH2 0x1894 JUMPI PUSH2 0x1893 PUSH2 0x15AE JUMP JUMPDEST JUMPDEST PUSH1 0x0 PUSH2 0x18A2 DUP5 DUP3 DUP6 ADD PUSH2 0x1869 JUMP JUMPDEST SWAP2 POP POP SWAP3 SWAP2 POP POP JUMP JUMPDEST PUSH1 0xC0 DUP3 ADD PUSH1 0x0 DUP3 ADD MLOAD PUSH2 0x18C1 PUSH1 0x0 DUP6 ADD DUP3 PUSH2 0x1674 JUMP JUMPDEST POP PUSH1 0x20 DUP3 ADD MLOAD PUSH2 0x18D4 PUSH1 0x20 DUP6 ADD DUP3 PUSH2 0x1683 JUMP JUMPDEST POP PUSH1 0x40 DUP3 ADD MLOAD PUSH2 0x18E7 PUSH1 0x40 DUP6 ADD DUP3 PUSH2 0x1683 JUMP JUMPDEST POP PUSH1 0x60 DUP3 ADD MLOAD PUSH2 0x18FA PUSH1 0x60 DUP6 ADD DUP3 PUSH2 0x1674 JUMP JUMPDEST POP PUSH1 0x80 DUP3 ADD MLOAD PUSH2 0x190D PUSH1 0x80 DUP6 ADD DUP3 PUSH2 0x169E JUMP JUMPDEST POP PUSH1 0xA0 DUP3 ADD MLOAD PUSH2 0x1920 PUSH1 0xA0 DUP6 ADD DUP3 PUSH2 0x16B7 JUMP JUMPDEST POP POP POP POP JUMP JUMPDEST PUSH1 0x0 PUSH1 0xC0 DUP3 ADD SWAP1 POP PUSH2 0x193B PUSH1 0x0 DUP4 ADD DUP5 PUSH2 0x18AB JUMP JUMPDEST SWAP3 SWAP2 POP POP JUMP JUMPDEST PUSH1 0x0 PUSH1 0x20 DUP3 DUP5 SUB SLT ISZERO PUSH2 0x1957 JUMPI PUSH2 0x1956 PUSH2 0x15AE JUMP JUMPDEST JUMPDEST PUSH1 0x0 PUSH2 0x1965 DUP5 DUP3 DUP6 ADD PUSH2 0x17FD JUMP JUMPDEST SWAP2 POP POP SWAP3 SWAP2 POP POP JUMP JUMPDEST PUSH2 0x1977 DUP2 PUSH2 0x166A JUMP JUMPDEST DUP3 MSTORE POP POP JUMP JUMPDEST PUSH2 0x1986 DUP2 PUSH2 0x15D3 JUMP JUMPDEST DUP3 MSTORE POP POP JUMP JUMPDEST PUSH2 0x1995 DUP2 PUSH2 0x1692 JUMP JUMPDEST DUP3 MSTORE POP POP JUMP JUMPDEST PUSH1 0x0 PUSH1 0x80 DUP3 ADD SWAP1 POP PUSH2 0x19B0 PUSH1 0x0 DUP4 ADD DUP8 PUSH2 0x196E JUMP JUMPDEST PUSH2 0x19BD PUSH1 0x20 DUP4 ADD DUP7 PUSH2 0x197D JUMP JUMPDEST PUSH2 0x19CA PUSH1 0x40 DUP4 ADD DUP6 PUSH2 0x196E JUMP JUMPDEST PUSH2 0x19D7 PUSH1 0x60 DUP4 ADD DUP5 PUSH2 0x198C JUMP JUMPDEST SWAP6 SWAP5 POP POP POP POP POP JUMP JUMPDEST PUSH2 0x19E9 DUP2 PUSH2 0x16AD JUMP JUMPDEST DUP3 MSTORE POP POP JUMP JUMPDEST PUSH1 0x0 PUSH1 0xC0 DUP3 ADD SWAP1 POP PUSH2 0x1A04 PUSH1 0x0 DUP4 ADD DUP10 PUSH2 0x196E JUMP JUMPDEST PUSH2 0x1A11 PUSH1 0x20 DUP4 ADD DUP9 PUSH2 0x197D JUMP JUMPDEST PUSH2 0x1A1E PUSH1 0x40 DUP4 ADD DUP8 PUSH2 0x197D JUMP JUMPDEST PUSH2 0x1A2B PUSH1 0x60 DUP4 ADD DUP7 PUSH2 0x196E JUMP JUMPDEST PUSH2 0x1A38 PUSH1 0x80 DUP4 ADD DUP6 PUSH2 0x198C JUMP JUMPDEST PUSH2 0x1A45 PUSH1 0xA0 DUP4 ADD DUP5 PUSH2 0x19E0 JUMP JUMPDEST SWAP8 SWAP7 POP POP POP POP POP POP POP JUMP JUMPDEST PUSH1 0x0 DUP1 PUSH1 0x40 DUP4 DUP6 SUB SLT ISZERO PUSH2 0x1A67 JUMPI PUSH2 0x1A66 PUSH2 0x15AE JUMP JUMPDEST JUMPDEST PUSH1 0x0 PUSH2 0x1A75 DUP6 DUP3 DUP7 ADD PUSH2 0x17FD JUMP JUMPDEST SWAP3 POP POP PUSH1 0x20 PUSH2 0x1A86 DUP6 DUP3 DUP7 ADD PUSH2 0x15FC JUMP JUMPDEST SWAP2 POP POP SWAP3 POP SWAP3 SWAP1 POP JUMP JUMPDEST PUSH1 0x80 DUP3 ADD PUSH1 0x0 DUP3 ADD MLOAD PUSH2 0x1AA6 PUSH1 0x0 DUP6 ADD DUP3 PUSH2 0x1674 JUMP JUMPDEST POP PUSH1 0x20 DUP3 ADD MLOAD PUSH2 0x1AB9 PUSH1 0x20 DUP6 ADD DUP3 PUSH2 0x1683 JUMP JUMPDEST POP PUSH1 0x40 DUP3 ADD MLOAD PUSH2 0x1ACC PUSH1 0x40 DUP6 ADD DUP3 PUSH2 0x1674 JUMP JUMPDEST POP PUSH1 0x60 DUP3 ADD MLOAD PUSH2 0x1ADF PUSH1 0x60 DUP6 ADD DUP3 PUSH2 0x169E JUMP JUMPDEST POP POP POP POP JUMP JUMPDEST PUSH1 0x0 PUSH1 0x80 DUP3 ADD SWAP1 POP PUSH2 0x1AFA PUSH1 0x0 DUP4 ADD DUP5 PUSH2 0x1A90 JUMP JUMPDEST SWAP3 SWAP2 POP POP JUMP JUMPDEST PUSH1 0x0 DUP2 MLOAD SWAP1 POP SWAP2 SWAP1 POP JUMP JUMPDEST PUSH1 0x0 DUP3 DUP3 MSTORE PUSH1 0x20 DUP3 ADD SWAP1 POP SWAP3 SWAP2 POP POP JUMP JUMPDEST PUSH1 0x0 DUP2 SWAP1 POP PUSH1 0x20 DUP3 ADD SWAP1 POP SWAP2 SWAP1 POP JUMP JUMPDEST PUSH1 0x80 DUP3 ADD PUSH1 0x0 DUP3 ADD MLOAD PUSH2 0x1B42 PUSH1 0x0 DUP6 ADD DUP3 PUSH2 0x1674 JUMP JUMPDEST POP PUSH1 0x20 DUP3 ADD MLOAD PUSH2 0x1B55 PUSH1 0x20 DUP6 ADD DUP3 PUSH2 0x1683 JUMP JUMPDEST POP PUSH1 0x40 DUP3 ADD MLOAD PUSH2 0x1B68 PUSH1 0x40 DUP6 ADD DUP3 PUSH2 0x1674 JUMP JUMPDEST POP PUSH1 0x60 DUP3 ADD MLOAD PUSH2 0x1B7B PUSH1 0x60 DUP6 ADD DUP3 PUSH2 0x169E JUMP JUMPDEST POP POP POP POP JUMP JUMPDEST PUSH1 0x0 PUSH2 0x1B8D DUP4 DUP4 PUSH2 0x1B2C JUMP JUMPDEST PUSH1 0x80 DUP4 ADD SWAP1 POP SWAP3 SWAP2 POP POP JUMP JUMPDEST PUSH1 0x0 PUSH1 0x20 DUP3 ADD SWAP1 POP SWAP2 SWAP1 POP JUMP JUMPDEST PUSH1 0x0 PUSH2 0x1BB1 DUP3 PUSH2 0x1B00 JUMP JUMPDEST PUSH2 0x1BBB DUP2 DUP6 PUSH2 0x1B0B JUMP JUMPDEST SWAP4 POP PUSH2 0x1BC6 DUP4 PUSH2 0x1B1C JUMP JUMPDEST DUP1 PUSH1 0x0 JUMPDEST DUP4 DUP2 LT ISZERO PUSH2 0x1BF7 JUMPI DUP2 MLOAD PUSH2 0x1BDE DUP9 DUP3 PUSH2 0x1B81 JUMP JUMPDEST SWAP8 POP PUSH2 0x1BE9 DUP4 PUSH2 0x1B99 JUMP JUMPDEST SWAP3 POP POP PUSH1 0x1 DUP2 ADD SWAP1 POP PUSH2 0x1BCA JUMP JUMPDEST POP DUP6 SWAP4 POP POP POP POP SWAP3 SWAP2 POP POP JUMP JUMPDEST PUSH1 0x0 PUSH1 0x20 DUP3 ADD SWAP1 POP DUP2 DUP2 SUB PUSH1 0x0 DUP4 ADD MSTORE PUSH2 0x1C1E DUP2 DUP5 PUSH2 0x1BA6 JUMP JUMPDEST SWAP1 POP SWAP3 SWAP2 POP POP JUMP JUMPDEST PUSH1 0x0 PUSH1 0x20 DUP3 ADD SWAP1 POP PUSH2 0x1C3B PUSH1 0x0 DUP4 ADD DUP5 PUSH2 0x197D JUMP JUMPDEST SWAP3 SWAP2 POP POP JUMP JUMPDEST PUSH32 0x4E487B7100000000000000000000000000000000000000000000000000000000 PUSH1 0x0 MSTORE PUSH1 0x32 PUSH1 0x4 MSTORE PUSH1 0x24 PUSH1 0x0 REVERT JUMPDEST PUSH32 0x4E487B7100000000000000000000000000000000000000000000000000000000 PUSH1 0x0 MSTORE PUSH1 0x11 PUSH1 0x4 MSTORE PUSH1 0x24 PUSH1 0x0 REVERT JUMPDEST PUSH1 0x0 PUSH2 0x1CAA DUP3 PUSH2 0x166A JUMP JUMPDEST SWAP2 POP PUSH32 0xFFFFFFFFFFFFFFFFFFFFFFFFFFFFFFFFFFFFFFFFFFFFFFFFFFFFFFFFFFFFFFFF DUP3 SUB PUSH2 0x1CDC JUMPI PUSH2 0x1CDB PUSH2 0x1C70 JUMP JUMPDEST JUMPDEST PUSH1 0x1 DUP3 ADD SWAP1 POP SWAP2 SWAP1 POP JUMP JUMPDEST PUSH32 0x4E487B7100000000000000000000000000000000000000000000000000000000 PUSH1 0x0 MSTORE PUSH1 0x41 PUSH1 0x4 MSTORE PUSH1 0x24 PUSH1 0x0 REVERT JUMPDEST PUSH1 0x0 DUP3 DUP3 MSTORE PUSH1 0x20 DUP3 ADD SWAP1 POP SWAP3 SWAP2 POP POP JUMP JUMPDEST PUSH32 0x5469636B657420616C7265616479206578697374730000000000000000000000 PUSH1 0x0 DUP3 ADD MSTORE POP JUMP JUMPDEST PUSH1 0x0 PUSH2 0x1D5D PUSH1 0x15 DUP4 PUSH2 0x1D16 JUMP JUMPDEST SWAP2 POP PUSH2 0x1D68 DUP3 PUSH2 0x1D27 JUMP JUMPDEST PUSH1 0x20 DUP3 ADD SWAP1 POP SWAP2 SWAP1 POP JUMP JUMPDEST PUSH1 0x0 PUSH1 0x20 DUP3 ADD SWAP1 POP DUP2 DUP2 SUB PUSH1 0x0 DUP4 ADD MSTORE PUSH2 0x1D8C DUP2 PUSH2 0x1D50 JUMP JUMPDEST SWAP1 POP SWAP2 SWAP1 POP JUMP JUMPDEST PUSH1 0x0 PUSH1 0x20 DUP3 ADD SWAP1 POP PUSH2 0x1DA8 PUSH1 0x0 DUP4 ADD DUP5 PUSH2 0x196E JUMP JUMPDEST SWAP3 SWAP2 POP POP JUMP JUMPDEST PUSH32 0x5472616E73616374696F6E20616C726561647920636F6D706C65746564000000 PUSH1 0x0 DUP3 ADD MSTORE POP JUMP JUMPDEST PUSH1 0x0 PUSH2 0x1DE4 PUSH1 0x1D DUP4 PUSH2 0x1D16 JUMP JUMPDEST SWAP2 POP PUSH2 0x1DEF DUP3 PUSH2 0x1DAE JUMP JUMPDEST PUSH1 0x20 DUP3 ADD SWAP1 POP SWAP2 SWAP1 POP JUMP JUMPDEST PUSH1 0x0 PUSH1 0x20 DUP3 ADD SWAP1 POP DUP2 DUP2 SUB PUSH1 0x0 DUP4 ADD MSTORE PUSH2 0x1E13 DUP2 PUSH2 0x1DD7 JUMP JUMPDEST SWAP1 POP SWAP2 SWAP1 POP JUMP JUMPDEST PUSH32 0x496E73756666696369656E74207061796D656E74000000000000000000000000 PUSH1 0x0 DUP3 ADD MSTORE POP JUMP JUMPDEST PUSH1 0x0 PUSH2 0x1E50 PUSH1 0x14 DUP4 PUSH2 0x1D16 JUMP JUMPDEST SWAP2 POP PUSH2 0x1E5B DUP3 PUSH2 0x1E1A JUMP JUMPDEST PUSH1 0x20 DUP3 ADD SWAP1 POP SWAP2 SWAP1 POP JUMP JUMPDEST PUSH1 0x0 PUSH1 0x20 DUP3 ADD SWAP1 POP DUP2 DUP2 SUB PUSH1 0x0 DUP4 ADD MSTORE PUSH2 0x1E7F DUP2 PUSH2 0x1E43 JUMP JUMPDEST SWAP1 POP SWAP2 SWAP1 POP JUMP JUMPDEST PUSH32 0x4275796572206973206E6F74207265636F676E697A6564000000000000000000 PUSH1 0x0 DUP3 ADD MSTORE POP JUMP JUMPDEST PUSH1 0x0 PUSH2 0x1EBC PUSH1 0x17 DUP4 PUSH2 0x1D16 JUMP JUMPDEST SWAP2 POP PUSH2 0x1EC7 DUP3 PUSH2 0x1E86 JUMP JUMPDEST PUSH1 0x20 DUP3 ADD SWAP1 POP SWAP2 SWAP1 POP JUMP JUMPDEST PUSH1 0x0 PUSH1 0x20 DUP3 ADD SWAP1 POP DUP2 DUP2 SUB PUSH1 0x0 DUP4 ADD MSTORE PUSH2 0x1EEB DUP2 PUSH2 0x1EAF JUMP JUMPDEST SWAP1 POP SWAP2 SWAP1 POP JUMP JUMPDEST PUSH32 0x5469636B6574206973206E6F206C6F6E67657220617661696C61626C65000000 PUSH1 0x0 DUP3 ADD MSTORE POP JUMP JUMPDEST PUSH1 0x0 PUSH2 0x1F28 PUSH1 0x1D DUP4 PUSH2 0x1D16 JUMP JUMPDEST SWAP2 POP PUSH2 0x1F33 DUP3 PUSH2 0x1EF2 JUMP JUMPDEST PUSH1 0x20 DUP3 ADD SWAP1 POP SWAP2 SWAP1 POP JUMP JUMPDEST PUSH1 0x0 PUSH1 0x20 DUP3 ADD SWAP1 POP DUP2 DUP2 SUB PUSH1 0x0 DUP4 ADD MSTORE PUSH2 0x1F57 DUP2 PUSH2 0x1F1B JUMP JUMPDEST SWAP1 POP SWAP2 SWAP1 POP JUMP JUMPDEST PUSH32 0x5469636B6574206973206E6F7420617661696C61626C65000000000000000000 PUSH1 0x0 DUP3 ADD MSTORE POP JUMP JUMPDEST PUSH1 0x0 PUSH2 0x1F94 PUSH1 0x17 DUP4 PUSH2 0x1D16 JUMP JUMPDEST SWAP2 POP PUSH2 0x1F9F DUP3 PUSH2 0x1F5E JUMP JUMPDEST PUSH1 0x20 DUP3 ADD SWAP1 POP SWAP2 SWAP1 POP JUMP JUMPDEST PUSH1 0x0 PUSH1 0x20 DUP3 ADD SWAP1 POP DUP2 DUP2 SUB PUSH1 0x0 DUP4 ADD MSTORE PUSH2 0x1FC3 DUP2 PUSH2 0x1F87 JUMP JUMPDEST SWAP1 POP SWAP2 SWAP1 POP JUMP JUMPDEST PUSH32 0x546865206F776E65722063616E2774206275792074686973207469636B657400 PUSH1 0x0 DUP3 ADD MSTORE POP JUMP JUMPDEST PUSH1 0x0 PUSH2 0x2000 PUSH1 0x1F DUP4 PUSH2 0x1D16 JUMP JUMPDEST SWAP2 POP PUSH2 0x200B DUP3 PUSH2 0x1FCA JUMP JUMPDEST PUSH1 0x20 DUP3 ADD SWAP1 POP SWAP2 SWAP1 POP JUMP JUMPDEST PUSH1 0x0 PUSH1 0x20 DUP3 ADD SWAP1 POP DUP2 DUP2 SUB PUSH1 0x0 DUP4 ADD MSTORE PUSH2 0x202F DUP2 PUSH2 0x1FF3 JUMP JUMPDEST SWAP1 POP SWAP2 SWAP1 POP JUMP JUMPDEST PUSH1 0x0 DUP2 SWAP1 POP SWAP2 SWAP1 POP JUMP JUMPDEST PUSH2 0x2051 PUSH2 0x204C DUP3 PUSH2 0x166A JUMP JUMPDEST PUSH2 0x2036 JUMP JUMPDEST DUP3 MSTORE POP POP JUMP JUMPDEST PUSH1 0x0 DUP2 PUSH1 0x60 SHL SWAP1 POP SWAP2 SWAP1 POP JUMP JUMPDEST PUSH1 0x0 PUSH2 0x206F DUP3 PUSH2 0x2057 JUMP JUMPDEST SWAP1 POP SWAP2 SWAP1 POP JUMP JUMPDEST PUSH1 0x0 PUSH2 0x2081 DUP3 PUSH2 0x2064 JUMP JUMPDEST SWAP1 POP SWAP2 SWAP1 POP JUMP JUMPDEST PUSH2 0x2099 PUSH2 0x2094 DUP3 PUSH2 0x15D3 JUMP JUMPDEST PUSH2 0x2076 JUMP JUMPDEST DUP3 MSTORE POP POP JUMP JUMPDEST PUSH1 0x0 PUSH2 0x20AB DUP3 DUP9 PUSH2 0x2040 JUMP JUMPDEST PUSH1 0x20 DUP3 ADD SWAP2 POP PUSH2 0x20BB DUP3 DUP8 PUSH2 0x2088 JUMP JUMPDEST PUSH1 0x14 DUP3 ADD SWAP2 POP PUSH2 0x20CB DUP3 DUP7 PUSH2 0x2088 JUMP JUMPDEST PUSH1 0x14 DUP3 ADD SWAP2 POP PUSH2 0x20DB DUP3 DUP6 PUSH2 0x2040 JUMP JUMPDEST PUSH1 0x20 DUP3 ADD SWAP2 POP PUSH2 0x20EB DUP3 DUP5 PUSH2 0x2040 JUMP JUMPDEST PUSH1 0x20 DUP3 ADD SWAP2 POP DUP2 SWAP1 POP SWAP7 SWAP6 POP POP POP POP POP POP JUMP JUMPDEST PUSH1 0x0 PUSH1 0x40 DUP3 ADD SWAP1 POP PUSH2 0x2113 PUSH1 0x0 DUP4 ADD DUP6 PUSH2 0x196E JUMP JUMPDEST PUSH2 0x2120 PUSH1 0x20 DUP4 ADD DUP5 PUSH2 0x19E0 JUMP JUMPDEST SWAP4 SWAP3 POP POP POP JUMP INVALID LOG2 PUSH5 0x6970667358 0x22 SLT KECCAK256 0xB6 MUL 0xE2 0xB9 PUSH2 0x44AB DUP12 0xD9 0xCA SGT PUSH8 0xB51D1D3D29ADAD1F CALLER LOG2 0xFB 0xE6 ISZERO GASPRICE CHAINID SELFDESTRUCT 0xC6 LOG3 0x23 PUSH4 0x64736F6C PUSH4 0x4300081A STOP CALLER "
				},
				"gasEstimates": {
					"creation": {
						"codeDepositCost": "1708200",
						"executionCost": "1792",
						"totalCost": "1709992"
					},
					"external": {
						"admin()": "699",
						"createTransaction(uint256,address)": "infinite",
						"getTicket(uint256)": "infinite",
						"getTicketsByUser(address)": "infinite",
						"getTransaction(bytes32)": "infinite",
						"getTransactionsByUser(address)": "infinite",
						"issueTicket(uint256,uint256)": "infinite",
						"processPayment(bytes32)": "infinite",
						"tickets(uint256)": "infinite",
						"transactions(bytes32)": "infinite"
					}
				},
				"methodIdentifiers": {
					"admin()": "f851a440",
					"createTransaction(uint256,address)": "7cf4c543",
					"getTicket(uint256)": "7dc379fa",
					"getTicketsByUser(address)": "e5b0b100",
					"getTransaction(bytes32)": "4aae13ca",
					"getTransactionsByUser(address)": "047ac364",
					"issueTicket(uint256,uint256)": "1540451e",
					"processPayment(bytes32)": "3a74717d",
					"tickets(uint256)": "50b44712",
					"transactions(bytes32)": "642f2eaf"
				}
			},
			"storageLayout": {
				"storage": [
					{
						"astId": 3,
						"contract": "contract.sol:TicketMarketplace",
						"label": "admin",
						"offset": 0,
						"slot": "0",
						"type": "t_address"
					},
					{
						"astId": 30,
						"contract": "contract.sol:TicketMarketplace",
						"label": "tickets",
						"offset": 0,
						"slot": "1",
						"type": "t_mapping(t_uint256,t_struct(Ticket)12_storage)"
					},
					{
						"astId": 35,
						"contract": "contract.sol:TicketMarketplace",
						"label": "transactions",
						"offset": 0,
						"slot": "2",
						"type": "t_mapping(t_bytes32,t_struct(Transaction)25_storage)"
					},
					{
						"astId": 38,
						"contract": "contract.sol:TicketMarketplace",
						"label": "ticketIds",
						"offset": 0,
						"slot": "3",
						"type": "t_array(t_uint256)dyn_storage"
					},
					{
						"astId": 41,
						"contract": "contract.sol:TicketMarketplace",
						"label": "transactionHashes",
						"offset": 0,
						"slot": "4",
						"type": "t_array(t_bytes32)dyn_storage"
					}
				],
				"types": {
					"t_address": {
						"encoding": "inplace",
						"label": "address",
						"numberOfBytes": "20"
					},
					"t_array(t_bytes32)dyn_storage": {
						"base": "t_bytes32",
						"encoding": "dynamic_array",
						"label": "bytes32[]",
						"numberOfBytes": "32"
					},
					"t_array(t_uint256)dyn_storage": {
						"base": "t_uint256",
						"encoding": "dynamic_array",
						"label": "uint256[]",
						"numberOfBytes": "32"
					},
					"t_bool": {
						"encoding": "inplace",
						"label": "bool",
						"numberOfBytes": "1"
					},
					"t_bytes32": {
						"encoding": "inplace",
						"label": "bytes32",
						"numberOfBytes": "32"
					},
					"t_mapping(t_bytes32,t_struct(Transaction)25_storage)": {
						"encoding": "mapping",
						"key": "t_bytes32",
						"label": "mapping(bytes32 => struct TicketMarketplace.Transaction)",
						"numberOfBytes": "32",
						"value": "t_struct(Transaction)25_storage"
					},
					"t_mapping(t_uint256,t_struct(Ticket)12_storage)": {
						"encoding": "mapping",
						"key": "t_uint256",
						"label": "mapping(uint256 => struct TicketMarketplace.Ticket)",
						"numberOfBytes": "32",
						"value": "t_struct(Ticket)12_storage"
					},
					"t_struct(Ticket)12_storage": {
						"encoding": "inplace",
						"label": "struct TicketMarketplace.Ticket",
						"members": [
							{
								"astId": 5,
								"contract": "contract.sol:TicketMarketplace",
								"label": "id",
								"offset": 0,
								"slot": "0",
								"type": "t_uint256"
							},
							{
								"astId": 7,
								"contract": "contract.sol:TicketMarketplace",
								"label": "owner",
								"offset": 0,
								"slot": "1",
								"type": "t_address"
							},
							{
								"astId": 9,
								"contract": "contract.sol:TicketMarketplace",
								"label": "price",
								"offset": 0,
								"slot": "2",
								"type": "t_uint256"
							},
							{
								"astId": 11,
								"contract": "contract.sol:TicketMarketplace",
								"label": "isAvailable",
								"offset": 0,
								"slot": "3",
								"type": "t_bool"
							}
						],
						"numberOfBytes": "128"
					},
					"t_struct(Transaction)25_storage": {
						"encoding": "inplace",
						"label": "struct TicketMarketplace.Transaction",
						"members": [
							{
								"astId": 14,
								"contract": "contract.sol:TicketMarketplace",
								"label": "ticketId",
								"offset": 0,
								"slot": "0",
								"type": "t_uint256"
							},
							{
								"astId": 16,
								"contract": "contract.sol:TicketMarketplace",
								"label": "buyer",
								"offset": 0,
								"slot": "1",
								"type": "t_address"
							},
							{
								"astId": 18,
								"contract": "contract.sol:TicketMarketplace",
								"label": "seller",
								"offset": 0,
								"slot": "2",
								"type": "t_address"
							},
							{
								"astId": 20,
								"contract": "contract.sol:TicketMarketplace",
								"label": "price",
								"offset": 0,
								"slot": "3",
								"type": "t_uint256"
							},
							{
								"astId": 22,
								"contract": "contract.sol:TicketMarketplace",
								"label": "isCompleted",
								"offset": 0,
								"slot": "4",
								"type": "t_bool"
							},
							{
								"astId": 24,
								"contract": "contract.sol:TicketMarketplace",
								"label": "hash",
								"offset": 0,
								"slot": "5",
								"type": "t_bytes32"
							}
						],
						"numberOfBytes": "192"
					},
					"t_uint256": {
						"encoding": "inplace",
						"label": "uint256",
						"numberOfBytes": "32"
					}
				}
			},
			"userdoc": {
				"kind": "user",
				"methods": {},
				"version": 1
			}
		}
	}
}